:0408000063EF04F0AE
:10081800D8CF05F0E8CF06F0E0CF07F0F2A401D07A
:1008280001D046D0FB0E026E1D0E016EE1EC27F0E2
:1008380000016E4B6F2B6C4B6D2B010E6027000E69
:100848006123000E6223000E6323010E6427000E4D
:100858006523000E6623000E672382A001D001D015
:1008680002D0776B01D0772B582A5650020AD8A4A9
:1008780001D001D00ED0640E586401D001D009D047
:1008880082A201D001D002D0829201D08282586A1D
:100898000ED05604D8A401D001D003D08282586A61
:1008A80006D0566601D001D002D08292586AF294DE
:1008B80007C0E0FF06C0E8FF05C0D8FF100011EF31
:1008C80026F07777772E6575726F736F757263652B
:1008D8002E73652F6265696A696E675F322E786D5F
:1008E8006C000000E8CFD8F0D56BD76B4F1CD66FE3
:1008F8005350521002E079EF0AF0D86710D00CEC90
:1009080028F0096A430E086E4FC00AF0DFEC25F0A4
:10091800096A430E086ED8EC27F016EF0CF0D805DC
:1009280010E10CEC28F0096A440E086E4FC00AF07A
:10093800DFEC25F0096A440E086ED8EC27F016EFB4
:100948000CF0010ED8651BD00C0ED86118D00CEC39
:1009580028F0430E0001D825086E096A000E092206
:100968004FC00AF0DFEC25F0430E0001D825086ED1
:10097800096A000E0922D8EC27F016EF0CF0D851BE
:100988000C0A26E10CEC28F0096A4F0E086E4F504D
:10099800030B0A6EDFEC25F0010E4FA2000E0001DA
:1009A800CD6F9250CD19FE0BCD19926E010E4FA04E
:1009B800000ECD6FCD479250CD19FD0BCD19926E1B
:1009C8009230010BCD6F9250010B020DF35096D06F
:1009D800D8510D0A01E095D00CEC28F0096A500EA8
:1009E800086E4FC00AF0DFEC25F0010E4FAE000E86
:1009F8000001CD6FCD47CD479250CD19FB0BCD19D6
:100A0800926E010E4FAC000ECD6FCD33CD339450A6
:100A1800CD197F0BCD19946E010E4FAA000ECD6F24
:100A2800CD3BCD47CD479450CD19BF0BCD19946E12
:100A3800010E4FA8000ECD6FCD3BCD479450CD1978
:100A4800DF0BCD19946E010E4FA6000ECD6FCD3B76
:100A58009450CD19EF0BCD19946E010E4FA4000ED2
:100A6800CD6FCD47CD47CD479450CD19F70BCD1954
:100A7800946E010E4FA2000ECD6FCD479350CD1945
:100A8800FD0BCD19936E010E4FA0000ECD6F935044
:100A9800CD19FE0BCD19936E9350010BCD6F93308A
:100AA800010B020DF3CFCEF09430E832E832010B9F
:100AB800040DF3CFCFF09438010B080DF3CFD0F02D
:100AC8009438E832010B100DF3CFD1F09438E832A6
:100AD800E832010B200DF3CFD2F09434E836010B45
:100AE800400DF3CFD3F09230E832010B800DF35074
:100AF800D325D225D125D025CF25CE25CD2517EF35
:100B08000CF00D0ED8653BD2180ED86138D24D0EB8
:100B1800D825086E096A000E0922D8EC27F00001D2
:100B2800CD6FCDBF0CD218EF0CF0010ED56F4F046E
:100B380028E18180000E81B0010ED66F010ED76FBB
:100B4800096A5B0E086ED8EC27F00001CD6FCDA5C1
:100B580018EF0CF0096A860E086ED8EC27F0000131
:100B6800CD6F096A850E086ED8EC27F00001CF6FAB
:100B7800CE6BCD51CE257E6F000ECF217F6F18EF43
:100B88000CF04F6618EF0CF08190000E81B0010E4A
:100B9800D66FD76B18EF0CF0010ED56F4F041EE11E
:100BA8008182000E81B2010ED66F010ED76F096ADD
:100BB8005C0E086ED8EC27F00001CD6FCDA518EFBC
:100BC8000CF0096A880E086ED8EC27F00001CD6F8A
:100BD800096A870E086ED8EC27F062D24F6618EFC4
:100BE8000CF08192000E81B2010ED66FD2D7010EA1
:100BF800D56F4F0428E18286000E82B6010ED66FAB
:100C0800010ED76F096A5D0E086ED8EC27F0000157
:100C1800CD6FCDA518EF0CF0096A8A0E086ED8ECD6
:100C280027F00001CD6F096A890E086ED8EC27F00D
:100C38000001CF6FCE6BCD51CE25826F000ECF2134
:100C4800836F18EF0CF04F6618EF0CF08296000EC9
:100C580082B6010ED66F9DD7010ED56F4F0428E1DD
:100C68008288000E82B8010ED66F010ED76F096A0E
:100C78005E0E086ED8EC27F00001CD6FCDA518EFF9
:100C88000CF0096A8C0E086ED8EC27F00001CD6FC5
:100C9800096A8B0E086ED8EC27F00001CF6FCE6B77
:100CA800CD51CE25846F000ECF21856F18EF0CF043
:100CB8004F6618EF0CF08298000E82B8010ED66FBE
:100CC80068D7010ED56F4F0428E1828A000E82BAD8
:100CD800010ED66F010ED76F096A5F0E086ED8EC49
:100CE80027F00001CD6FCDA518EF0CF0096A8E0E24
:100CF800086ED8EC27F00001CD6F096A8D0E086EDA
:100D0800D8EC27F00001CF6FCE6BCD51CE25866F82
:100D1800000ECF21876F18EF0CF04F6618EF0CF01C
:100D2800829A000E82BA010ED66F33D7010ED56FA4
:100D38004F0428E1828C000E82BC010ED66F010E92
:100D4800D76F096A600E086ED8EC27F00001CD6FE6
:100D5800CDA518EF0CF0096A900E086ED8EC27F0B4
:100D68000001CD6F096A8F0E086ED8EC27F00001DC
:100D7800CF6FCE6BCD51CE25886F000ECF21896FF6
:100D880018EF0CF04F6618EF0CF0829C000E82BC36
:100D9800010ED66FFED6010ED56F4F0428E1828E64
:100DA800000E82BE010ED66F010ED76F096A610E62
:100DB800086ED8EC27F00001CD6FCDA518EF0CF028
:100DC800096A920E086ED8EC27F00001CD6F096A07
:100DD800910E086ED8EC27F00001CF6FCE6BCD5185
:100DE800CE258A6F000ECF218B6F18EF0CF04F665F
:100DF80018EF0CF0829E000E82BE010ED66FC9D687
:100E0800010ED56F4F0428E18084000E80B4010ED6
:100E1800D66F010ED76F096A620E086ED8EC27F0FC
:100E28000001CD6FCDA518EF0CF0096A940E086E7D
:100E3800D8EC27F00001CD6F096A930E086ED8EC44
:100E480027F00001CF6FCE6BCD51CE258C6F000EF1
:100E5800CF218D6F18EF0CF04F6618EF0CF08094CF
:100E6800000E80B4010ED66F94D6010ED56F4F04D4
:100E780028E18082000E80B2010ED66F010ED76F76
:100E8800096A630E086ED8EC27F00001CD6FCDA576
:100E980018EF0CF0096A960E086ED8EC27F00001DE
:100EA800CD6F096A950E086ED8EC27F00001CF6F58
:100EB800CE6BCD51CE258E6F000ECF218F6F18EFE0
:100EC8000CF04F6618EF0CF08092000E80B2010E05
:100ED800D66F5FD6010ED56F4F0428E18080000ED3
:100EE80080B0010ED66F010ED76F096A640E086EC6
:100EF800D8EC27F00001CD6FCDA518EF0CF0096AEA
:100F0800980E086ED8EC27F00001CD6F096A970E8D
:100F1800086ED8EC27F00001CF6FCE6BCD51CE25EF
:100F2800906F000ECF21916F18EF0CF04F6618EFFD
:100F38000CF08090000E80B0010ED66F2AD6D851E2
:100F48000E0A01E1F2D5010A01E126D61F0A01E1E4
:100F58004ED6010A01E180D6030A01E1B2D6010AA0
:100F680001E1E4D6070A01E116D7010A01E148D7F1
:100F7800030A01E17AD7010AADE018EF0CF0170E69
:100F8800D865ABD2220ED861A8D288D20CEC28F052
:100F9800710E0001D825086E096A000E09224FC09B
:100FA8000AF0DFEC25F0710E0001D825086E096AF9
:100FB800000E0922D8EC27F00001D66F4FA01CD0F4
:100FC8008190D76B6881096A710E086ED8EC27F09A
:100FD8000001CD6F096A710E086ED8EC27F0000188
:100FE800CF6FCE6BCD51CE250101006F0001000EF1
:100FF800CF210101016F06D0FE0E6817030E691795
:101008008190D76B4FB4A6D518EF0CF00CEC28F0F4
:10101800710E0001D825086E096A000E09224FC01A
:101028000AF0DFEC25F0710E0001D825086E096A78
:10103800000E0922D8EC27F00001D66F4FA21CD071
:101048008192D76B6883096A720E086ED8EC27F014
:101058000001CD6F096A710E086ED8EC27F0000107
:10106800CF6FCE6BCD51CE250101026F0001000E6E
:10107800CF210101036F06D0FD0E6817030E691713
:101088008192D76B4FA4D0D3096A860E086ED8EC2C
:1010980027F00001CD6F096A850E086ED8EC27F09D
:1010A8000001CF6FCE6BCD51CE25806F000ECF21C2
:1010B800816FBAD30CEC28F0710E0001D825086EA8
:1010C800096A000E09224FC00AF0DFEC25F0710E04
:1010D8000001D825086E096A000E0922D8EC27F00D
:1010E8000001D66F4FA01CD08296D76B6885096A1D
:1010F800760E086ED8EC27F00001CD6F096A750EE0
:10110800086ED8EC27F00001CF6FCE6BCD51CE25FD
:101118000101046F0001000ECF210101056F06D007
:10112800FB0E6817030E69178296D76B4FB474D5F8
:101138007BD30CEC28F0710E0001D825086E096AE3
:10114800000E09224FC00AF0DFEC25F0710E0001F5
:10115800D825086E096A000E0922D8EC27F000018C
:10116800D66F4FA01CD08298D76B6887096A780E13
:10117800086ED8EC27F00001CD6F096A770E086E6B
:10118800D8EC27F00001CF6FCE6BCD51CE250101F1
:10119800066F0001000ECF210101076F06D0F70E80
:1011A8006817030E69178298D76B4FB46AD53CD37A
:1011B8000CEC28F0710E0001D825086E096A000EA3
:1011C80009224FC00AF0DFEC25F0710E0001D82586
:1011D800086E096A000E0922D8EC27F00001D66FC4
:1011E8004FA41CD0829AD76B6889096A7A0E086E58
:1011F800D8EC27F00001CD6F096A790E086ED8EC9B
:1012080027F00001CF6FCE6BCD51CE250101086FBD
:101218000001000ECF210101096F06D0EF0E6817FB
:10122800030E6917829AD76B4FB460D5FDD20CECC8
:1012380028F0710E0001D825086E096A000E0922EF
:101248004FC00AF0DFEC25F0710E0001D825086EBA
:10125800096A000E0922D8EC27F00001D66F4FA0CA
:101268001CD0829CD76B688B096A7C0E086ED8EC00
:1012780027F00001CD6F096A7B0E086ED8EC27F0C5
:101288000001CF6FCE6BCD51CE2501010A6F000151
:10129800000ECF2101010B6F06D0DF0E6817030E79
:1012A8006917829CD76B4FB456D5BED20CEC28F088
:1012B800710E0001D825086E096A000E09224FC078
:1012C8000AF0DFEC25F0710E0001D825086E096AD6
:1012D800000E0922D8EC27F00001D66F4FA01CD0D1
:1012E800829ED76B688D096A7E0E086ED8EC27F04F
:1012F8000001CD6F096A7D0E086ED8EC27F0000159
:10130800CF6FCE6BCD51CE2501010C6F0001000EC1
:10131800CF2101010D6F06D0BF0E6817030E6917A4
:10132800829ED76B4FB44CD57FD20CEC28F0710E4F
:101338000001D825086E096A000E09224FC00AF07C
:10134800DFEC25F0710E0001D825086E096A000E41
:101358000922D8EC27F00001D66F4FA01CD080944A
:10136800D76B688F096A800E086ED8EC27F00001E9
:10137800CD6F096A7F0E086ED8EC27F00001CF6F99
:10138800CE6BCD51CE2501010E6F0001000ECF218D
:1013980001010F6F06D07F0E6817030E691780943E
:1013A800D76B4FB442D540D20CEC28F0710E000137
:1013B800D825086E096A000E09224FC00AF0DFEC32
:1013C80025F0710E0001D825086E096A000E092261
:1013D800D8EC27F00001D66F4FA01CD08092D76BB5
:1013E8006981096A820E086ED8EC27F00001CD6F7A
:1013F800096A810E086ED8EC27F00001CF6FCE6B1A
:10140800CD51CE250101106F0001000ECF21010141
:10141800116F04D0020E69178092D76B4FB43AD57A
:1014280003D20CEC28F0710E0001D825086E096A69
:10143800000E09224FC00AF0DFEC25F0710E000102
:10144800D825086E096A000E0922D8EC27F0000199
:10145800D66F4FA01CD08090D76B6983096A840E21
:10146800086ED8EC27F00001CD6F096A830E086E6C
:10147800D8EC27F00001CF6FCE6BCD51CE250101FE
:10148800126F0001000ECF210101136F04D0010E6D
:1014980069178090D76B4FB432D5C6D1D851180A86
:1014A80001E174D5010A01E1B1D5030A01E102D6CF
:1014B800010A01E13ED6070A01E17AD6010A01E1F3
:1014C800B6D6030A01E1F2D6010A01E12ED73F0A96
:1014D80001E16AD7010AA5E0A7D1210ED865A4D1F8
:1014E8002E0ED861A1D1ABEF04F05204531001E0E5
:1014F8007AD1140ED8612FD10CEC28F0710E0001AE
:10150800D825086E096A000E09224FC00AF0DFECE0
:1015180025F0710E0001D825086E096A000E09220F
:10152800D8EC27F00001D66FFAD0096A720E086E5F
:10153800D8EC27F00001CD6F096A710E086ED8EC5F
:1015480027F00001CF6FCE6BCD51CE250101006F82
:101558000001000ECF210101016F66D1096A740EE6
:10156800086ED8EC27F00001CD6F096A730E086E7B
:10157800D8EC27F00001CF6FCE6BCD51CE250101FD
:10158800026F0001000ECF210101036F4DD1096ADE
:10159800760E086ED8EC27F00001CD6F096A750E3B
:1015A800086ED8EC27F00001CF6FCE6BCD51CE2559
:1015B8000101046F0001000ECF210101056F34D134
:1015C800096A780E086ED8EC27F00001CD6F096A19
:1015D800770E086ED8EC27F00001CF6FCE6BCD5197
:1015E800CE250101066F0001000ECF210101076F12
:1015F8001BD1096A7A0E086ED8EC27F00001CD6F6E
:10160800096A790E086ED8EC27F00001CF6FCE6B0F
:10161800CD51CE250101086F0001000ECF21010137
:10162800096F02D1096A7C0E086ED8EC27F0000118
:10163800CD6F096A7B0E086ED8EC27F00001CF6FDA
:10164800CE6BCD51CE2501010A6F0001000ECF21CE
:1016580001010B6FE9D0096A7E0E086ED8EC27F0FD
:101668000001CD6F096A7D0E086ED8EC27F00001E5
:10167800CF6FCE6BCD51CE2501010C6F0001000E4E
:10168800CF2101010D6FD0D0096A800E086ED8EC09
:1016980027F00001CD6F096A7F0E086ED8EC27F09D
:1016A8000001CF6FCE6BCD51CE2501010E6F000129
:1016B800000ECF2101010F6FB7D0096A820E086EA4
:1016C800D8EC27F00001CD6F096A810E086ED8ECBE
:1016D80027F00001CF6FCE6BCD51CE250101106FE1
:1016E8000001000ECF210101116F9ED0096A840EFE
:1016F800086ED8EC27F00001CD6F096A830E086EDA
:10170800D8EC27F00001CF6FCE6BCD51CE2501016B
:10171800126F0001000ECF210101136F85D0D8513F
:10172800010A01E102D7020A01E118D7060A01E11C
:101738002ED7020A01E144D70E0A01E15AD7020A5C
:1017480001E170D7060A87E0020A9EE01E0AB5E0AA
:10175800020ACCE069D0130ED86566D0280ED8618D
:1017680063D00CEC28F0710E0001D825086E096AC8
:10177800000E09224FC00AF0DFEC25F0710E0001BF
:10178800D825086E096A000E0922D8EC27F0000156
:10179800D66FD851150A02E1AEEF05F0020A02E150
:1017A800E5EF05F00E0A02E110EF06F0020A02E189
:1017B80045EF06F0060A02E17AEF06F0020A02E1B6
:1017C800AFEF06F03E0A02E1E4EF06F0020A02E19A
:1017D80019EF07F0060A02E14EEF07F0020A02E1EC
:1017E80083EF07F021D05250020A53101DE1400E3A
:1017F800D8611AD00CEC28F0990E0001D825086E93
:10180800096A000E09224FC00AF0DFEC25F0ADECA2
:1018180015F0990E0001D825086E096A000E0922F4
:10182800D8EC27F00001D66F0001D55121E0430E16
:10183800D825086E096A000E0922D8EC27F00001A5
:10184800D46FD7510BE0D4A713D0140ECB6F030E6F
:10185800CC6FD851F20F0BEC25F00AD0D4A908D0E0
:10186800140ECB6F040ECC6FD851F20F0BEC25F091
:10187800D6511200F76B096A500E086ED8EC27F0A3
:101888000001CD6F096A4F0E086ED8EC27F00001F1
:10189800CF6FCE6BCD51CE25F16F000ECF21F26FF9
:1018A800F96B090EF96501D08CD2F9C0CDF0010EA3
:1018B800CE6FCF6BCD2B03D0D890CE37CF37CD2F6F
:1018C800FBD7F151CE17F251CF17CF51CE1101E10D
:1018D800E4D0650EF925086E096A000E0922D8ECD5
:1018E80027F00001F86FF8AF69D232D0000E81B04E
:1018F800010EF66F41D0000E81B2010EF66F3CD09A
:10190800000E82B6010EF66F37D0000E82B8010EB7
:10191800F66F32D0000E82BA010EF66F2DD0000E8F
:1019280082BC010EF66F28D0000E82BE010EF66F43
:1019380023D0000E80B4010EF66F1ED0000E80B2C8
:10194800010EF66F19D0000E80B0010EF66F14D09C
:10195800F951CCE0010ACFE0030AD2E0010AD5E050
:10196800070AD8E0010ADBE0030ADEE0010AE1E049
:101978000F0AE4E0010AE7E0F8A126D0F65124E0D6
:10198800F9C0CDF0010ECE6FCF6BCD2B03D0D89020
:10199800CE37CF37CD2FFBD76A51CE176B51CF1724
:1019A800CF51CE1111E1F8A508D01E0ECB6F050E50
:1019B800CC6FF9510BEC25F007D0140ECB6F030E4A
:1019C800CC6FF9510BEC25F0F8B3F66724D0F9C0C9
:1019D800CDF0010ECE6FCF6BCD2B03D0D890CE3784
:1019E800CF37CD2FFBD76A51CE176B51CF17CF51B9
:1019F800CE1111E0F8A508D01E0ECB6F060ECC6FE5
:101A0800F9510BEC25F007D0140ECB6F040ECC6FF8
:101A1800F9510BEC25F0F8A91FD0F6511DE0F9C0DB
:101A2800CDF0010ECE6FCF6BCD2B03D0D890CE3733
:101A3800CF37CD2FFBD76A51CE176B51CF17CF5168
:101A4800CE1102E0F8AB08D0010ECB6F020ECC6FBE
:101A5800F9510BEC25F05582F8B7F667AFD1F9C00C
:101A6800CDF0010ECE6FCF6BCD2B03D0D890CE37F3
:101A7800CF37CD2FFBD76A51CE176B51CF17CF5128
:101A8800CE1102E1F8AB9AD1010ECB6F020ECC6FEA
:101A9800F9510BEC25F0558491D15B0EF925086EB0
:101AA800096A000E0922D8EC27F00001F86FF8AF98
:101AB80085D1F951020DF3507E0FD96EDA6ADE50E6
:101AC800DD1039E0F951020DF3507E0FD96EDA6A54
:101AD800DE06000EDD5AF951020DF3507E0FD96E65
:101AE800DA6ADE50DD1048E15B0EF925086E096AF6
:101AF800000E0922D8EC27F00001CD6FCDA53CD00F
:101B0800F9C0CDF0010ECE6FCD2B02D0D890CE37D4
:101B1800CD2FFCD7CE514F6E000E26EC23F00001DE
:101B2800F8A307D0010ECB6F020ECC6FF9510BEC66
:101B380025F0558021D0850EF925086E096A000E1A
:101B48000922D8EC27F00001CE6FCD6B860EF9255F
:101B5800086E096A000E0922D8EC27F00001CD278B
:101B6800000ECE23F951020DF3507E0FD96EDA6ABA
:101B7800CDC0DEFFCEC0DDFFF9C0CDF0010ECE6FC7
:101B8800CF6BCD2B03D0D890CE37CF37CD2FFBD707
:101B98006851CE176951CF17CF51CE1101E10ED13F
:101BA800F951020D000EF324D96E010EF420DA6EFD
:101BB800DE50DD1001E1DAD00001F951020D000E0E
:101BC800F324D96E010EF420DA6EDE06000EDD5A1B
:101BD800F951020D000EF324D96E010EF420DA6ECD
:101BE800DE50DD1040E0EAD081A002D0819037D0ED
:101BF8008180010EF76F4CD081A202D081922FD044
:101C08008182F7D782A602D0829629D08286F1D720
:101C180082A802D0829823D08288EBD782AA02D0E9
:101C2800829A1DD0828AE5D782AC02D0829C17D0D6
:101C3800828CDFD782AE02D0829E11D0828ED9D715
:101C480080A402D080940BD08084D3D780A202D005
:101C5800809205D08082CDD780A003D08090F76B8A
:101C680017D08080C6D70001F951BEE0010AC4E050
:101C7800030AC8E0010ACCE0070AD0E0010AD4E070
:101C8800030AD8E0010ADCE00F0AE0E0010AE4E018
:101C9800F951020D710EF324086E000EF420096E3E
:101CA800D8EC27F00001CE6FCD6BF951020D710E03
:101CB800F324086E000EF420096ED8EC27F000011A
:101CC800CD27000ECE23F951020D000EF324D96E54
:101CD800010EF420DA6ECDC0DEFFCEC0DDFFF75175
:101CE8003BE05B0EF925086E096A000E0922D8EC64
:101CF80027F00001CD6FCDA525D0F951020D850E35
:101D0800F324086E000EF420096ED8EC27F00001C9
:101D1800CE6FCD6BF951020D860EF324086E000EBE
:101D2800F420096ED8EC27F00001CD27000ECE2351
:101D3800F951020DF3507E0FD96EDA6ACDC0DEFF7D
:101D4800CEC0DDFFF8A73AD0140ECB6F030ECC6FD0
:101D5800F9510BEC25F032D0F8A930D0140ECB6F26
:101D6800040ECC6FF9510BEC25F028D00001F95185
:101D7800020D710EF324086E000EF420096ED8ECE3
:101D880027F00001CE6FCD6BF951020D720EF324CE
:101D9800086E000EF420096ED8EC27F00001CD275C
:101DA800000ECE23F951020D000EF324D96E010E58
:101DB800F420DA6ECDC0DEFFCEC0DDFF0001F92BC6
:101DC80070D5096A700E086ED8EC27F000094FE04C
:101DD8000001F36B8030010BCD6F8050010B020DB9
:101DE800F350CD25F46F8150010BCD6F8130010B7D
:101DF800020DF3CFCEF08230E832E832010B040D49
:101E0800F3CFCFF08238010B080DF3CFD0F0823832
:101E1800E832010B100DF3CFD1F08238E832E83206
:101E2800010B200DF3CFD2F08234E836010B400DC0
:101E3800F3CFD3F08030E832010B800DF350D32577
:101E4800D225D125D025CF25CE25CD25F56F406AC1
:101E58000F0E3F6E010E416E79C042F0030E436EC5
:101E6800446E000E466EF30E456EEEEC23F0815084
:101E7800010B0001CD6F8130010BCE6FD890CE35AC
:101E8800CF6FD06BD0378230E832E832010BD16F98
:101E9800D26BD890D137D237D890D137D237823851
:101EA800010BD36FD46BD890D337D437D890D337AE
:101EB800D437D890D337D4378238E832010BD56F6E
:101EC800D66BD53BD63BF00ED617D5510F0BD61394
:101ED800F00ED5178238E832E832010BD76FD86B8D
:101EE800050ED890D737D837E82EFBD78234E83696
:101EF800010BD96FDA6B060ED890D937DA37E82E8E
:101F0800FBD78030E832010BDB6FDC6B070ED89013
:101F1800DB37DC37E82EFBD78030010BDE6FDD6B5B
:101F28008050010BDF6FE06B090ED890DF37E03788
:101F3800E82EFBD7DD51DF25E16FDE51E021E26FAE
:101F4800DB51E125E36FDC51E221E46FD951E32550
:101F5800E56FDA51E421E66FD751E525E76FD851EF
:101F6800E621E86FD551E725E96FD651E821EA6FF8
:101F7800D351E925EB6FD451EA21EC6FD151EB2510
:101F8800ED6FD251EC21EE6FCF51ED25EF6FD051AF
:101F9800EE21F06FCD51EF256A6F000EF0216B6FC7
:101FA80012009551941101E1E9D219D3C0EC25F042
:101FB80016D354EC26F013D3DEEC26F010D3F9EC4C
:101FC80025F00DD392510F0B020A01E008D3795185
:101FD80020EE98F0DF6203D3800E996112D09951F8
:101FE8007AEC1CF00001A66F99C0A5F0030EA16F52
:101FF800820EA06FA26BA36B0A0EA46FCBEC26F027
:10200800EED29951A3EC1BF0EDD792510F0B030AB6
:1020180001E0E5D2795120EE98F0DF62E0D2800E3F
:10202800996106D09AC04FF0995176EC04F0DBD74D
:102038009AC036F0995138EC21F0D4D7795120EE76
:1020480098F0DF62CCD2000EC5EC27F000019A1997
:1020580001E0C5D2030EC5EC27F000019B1901E091
:10206800BED2050EC5EC27F000019C1901E0B7D2DD
:10207800070EC5EC27F000019D1901E0B0D25350BE
:102088009E1901E0ACD2525020EE9FF0DF62A7D239
:1020980099515DEC27F0A3D2000EC5EC27F00001A2
:1020A800991973E1010EC5EC27F000019A196DE149
:1020B800020EC5EC27F000019B1967E1030EC5EC81
:1020C80027F000019C1961E175895FD0040EC5EC09
:1020D80027F00001991959E1050EC5EC27F0000118
:1020E8009A1953E1060EC5EC27F000019B194DE142
:1020F800070EC5EC27F000019C1947E1758B45D008
:10210800080EC5EC27F0000199193FE1090EC5EC4E
:1021180027F000019A1939E10A0EC5EC27F00001F1
:102128009B1933E10B0EC5EC27F000019C192DE13A
:10213800758D2BD00C0EC5EC27F00001991925E1FF
:102148000D0EC5EC27F000019A191FE10E0EC5EC23
:1021580027F000019B1919E10F0EC5EC27F00001CB
:102168009C1913E1758F11D0756B0FD098390F0B2F
:10217800DA6FDB6BDB51F8E1DA518EE0010AA6E099
:10218800030ABEE0010AD6E0EFD77551F00BF00A5A
:1021980001E025D25BEC25F022D2795120EE98F0AF
:1021A800DF621DD2E66B99C0E5F09AC0E8F0F46BE7
:1021B80047D0070E086EF4517EEC26F00001DA6F66
:1021C800DA51A60FD96EDA6AE551F4256BEC27F0DF
:1021D800DF6E070E086E0001F4517EEC26F0060A49
:1021E8000BE0FF0E0001E825DA6FDB6BFF0EDB2347
:1021F800F451DA19DB1123E1070E086E0001F451DE
:102208007EEC26F0060A03E1070E000109D0070E4E
:10221800086E0001F4517EEC26F00001DA6FDA292D
:10222800E76FE751810FA06F070EA16FA26BA36B39
:102238001A0EA46FE6C0A5F0CBEC26F0E62BF42B23
:10224800E851F45D01E3CBD1B4D7795120EE98F091
:10225800DF62C5D199C0E9F09251FE0F070BEA6F12
:10226800EF6B16D0EF519A0FD96EDA6ADF50D96F3B
:10227800E951EF2502EC27F00001EF51A60FD96EC6
:10228800DA6AE951EF256BEC27F0DF6E0001EF2BDE
:10229800EA51EF5DE7E3070EA16FA26BA36B1A0E7D
:1022A800A46FA56BEA51810FA06FA8D6795120EED3
:1022B80098F0DF6294D199517AEC1CF00001DA6F42
:1022C800DA294F6E995176EC04F08DD6795120EECB
:1022D80098F0DF6284D199517AEC1CF00001DA6F32
:1022E800DA054F6E995176EC04F07DD6985179193C
:1022F80003E0982901E073D1EE6B030EA16F880EFD
:10230800A06FA26BA36B200EA46FF36BF3C0A5F0B4
:10231800010EF56FF551A50FD96EDA6AEE510F0867
:10232800C5EC27F0DF6E0001EE2B100EEE6501D034
:1023380004D0F52B070EF565EDD7100EEE6501D02C
:1023480006D0CBEC26F0F32B020EF365DFD7F56B46
:10235800F55178EC27F0000908E0F551A80FD96E7F
:10236800DA6AF55178EC27F005D0F551A80FD96E47
:10237800DA6A000EDF6EF52B040EF565E9D7CBECB3
:1023880026F0050EEE6F030EF36FF3C0A5F0010EF5
:10239800F56FF551A50FD96EDA6AEE5178EC27F092
:1023A800DF6EEE2BF52B070EF565F3D7CBEC26F099
:1023B800F32B060EF365E9D712D1795120EE98F088
:1023C800DF620DD1030EA16F870EA06FA26BA36B06
:1023D800220EA46FA50E13EC27F010D6795120EE2B
:1023E80098F0DF62FCD0F06B92C0DAF00F0EDA17CB
:1023F800040EDA5D12E39CC0F1F0F26BF251F111B8
:1024080003E1010EF26FF16B010EF15D010EF2595D
:1024180007E3010EF26F000E02D0F26B010EF16FAE
:1024280052C0E1F053C0E2F09A5199C0DAF0DB6B88
:10243800DAC0DBF0DA6BDA11526EDB51536E070E3D
:10244800A16FA26BA36B270EA46FA56B99C0A6F012
:102458009AC0A7F0F051F15DDA6F000EF259DB6F08
:10246800040EDA5D000EDB5902E3040E02D0F051CF
:10247800F15DEB6FEB51840FA06F9B51F025A86FB6
:10248800EC6B0CD0EC51A90FD96EDA6A9B51F02590
:10249800EC256BEC27F0DF6E0001EC2BEB51EC5DCB
:1024A800F1E3CBEC26F0EB51F027A52BF051DA6FD6
:1024B800DB6BF151DA5DF251DB59CCE3E1C052F04C
:1024C800E2C053F08CD0795120EE98F0DF6287D0CB
:1024D80052C0E3F053C0E4F09A5199C0DAF0DB6BD4
:1024E800DAC0DBF0DA6BDA11526EDB51536E9BC047
:1024F800EDF014D09B519C08ED25D96EDA6ADF50B7
:10250800D96FED5102EC27F00001DA6F9B51A90851
:10251800ED25D96EDA6ADAC0DFFFED2B92510F0B89
:10252800DA6FDB6B9B51DA27000EDB23FC0EDA2512
:10253800DC6FFF0EDB21DD6FED51DE6FDF6BDF51EE
:10254800800AE06FDC51DE5DDD51800AE059D2E39C
:10255800E3C052F0E4C053F0070EA16F92510F0B85
:10256800800FA06FA26BA36B270EA46FA56B99C0F9
:10257800A6F09AC0A7F09BC0A8F040D59651010AD2
:1025880001E114D5030A01E114D5040A01E114D5C7
:102598000E0A01E114D5010A01E114D5020A01E18C
:1025A80034D5070A01E14AD51B0A01E1DFD50F0A34
:1025B80001E1F3D5010A01E148D6040A01E176D622
:1025C800030A01E183D6010A01E190D63E0A01E13E
:1025D800F4D6040A01E102D7030A01E174D7120014
:1025E8007DEC25F0F0EC26F00009D8B4B6EC1EF02E
:1025F800E3EC17F05BEC25F00400FA0E00017765B8
:102608000ED07A050CE079690CEC28F0096A010E05
:10261800086EFF0E0A68DFEC25F05BEC25F0926B84
:1026280069EC26F05FD2792903E1010E7A6F6AD24C
:10263800030E7A6F23EC27F065D291EC23F062D277
:1026480092AF08D09551941103E1D5EC0FF002D068
:1026580042EC19F00A0E0001605D000E6159000E8F
:102668006259000E635901E24DD2096A4F0E086E95
:10267800D8EC27F0096A500E086ED8EC27F0000154
:10268800FC6F606B616B626B636B70C0FAF0010E7C
:10269800FB6FFA2B02D0D890FB37FA2FFCD7FB51EF
:1026A800FC1501E114D2650E7025086E096A000E4A
:1026B8000922D8EC27F00001FA6FFAAD08D2650EAE
:1026C8007025086E096A000E0922D8EC27F000016F
:1026D800FA6FFABFDFD1FBD181B02DD07051AD0FA9
:1026E800D96EDA6ADF2A7051AD0FD96EDA6A030E35
:1026F800DF64EDD17051AD0FD96EDA6ADF6A5B0E17
:102708007025086E096A000E0922D8EC27F000012E
:10271800FA6FFAA508D0140ECB6F030ECC6F705168
:102728000BEC25F0D4D11E0ECB6F050ECC6F70517B
:102738000BEC25F0CCD17051AD0FD96EDA6ADF6A97
:10274800C6D181B2F8D77051AD0FD96EDA6ADF2AD7
:102758007051AD0FD96EDA6A030EDF64B8D17051CB
:10276800AD0FD96EDA6ADF6A5B0E7025086E096AEA
:10277800000E0922D8EC27F00001FA6FFAA508D05C
:10278800140ECB6F030ECC6F70510BEC25F09FD15C
:102798001E0ECB6F050ECC6F70510BEC25F097D148
:1027A80082B6C9D77051AD0FD96EDA6ADF2A705177
:1027B800AD0FD96EDA6A030EDF6489D17051AD0F9F
:1027C800D96EDA6ADF6A5B0E7025086E096A000E38
:1027D8000922D8EC27F00001FA6FFAA508D0140EE8
:1027E800CB6F030ECC6F70510BEC25F070D11E0E21
:1027F800CB6F050ECC6F70510BEC25F068D182B809
:102808009AD77051AD0FD96EDA6ADF2A7051AD0FC1
:10281800D96EDA6A030EDF645AD17051AD0FD96EE2
:10282800DA6ADF6A5B0E7025086E096A000E0922F3
:10283800D8EC27F00001FA6FFAA508D0140ECB6F78
:10284800030ECC6F70510BEC25F041D11E0ECB6FEF
:10285800050ECC6F70510BEC25F039D182BA6BD7CD
:102868007051AD0FD96EDA6ADF2A7051AD0FD96E8B
:10287800DA6A030EDF642BD17051AD0FD96EDA6AB4
:10288800DF6A5B0E7025086E096A000E0922D8EC13
:1028980027F00001FA6FFAA508D0140ECB6F030ECB
:1028A800CC6F70510BEC25F012D11E0ECB6F050EBC
:1028B800CC6F70510BEC25F00AD182BC3CD770511B
:1028C800AD0FD96EDA6ADF2A7051AD0FD96EDA6AA8
:1028D800030EDF64FCD07051AD0FD96EDA6ADF6A7F
:1028E8005B0E7025086E096A000E0922D8EC27F0E5
:1028F8000001FA6FFAA508D0140ECB6F030ECC6F47
:1029080070510BEC25F0E3D01E0ECB6F050ECC6F8B
:1029180070510BEC25F0DBD082BE0DD77051AD0F96
:10292800D96EDA6ADF2A7051AD0FD96EDA6A030EF2
:10293800DF64CDD07051AD0FD96EDA6ADF6A5B0EF5
:102948007025086E096A000E0922D8EC27F00001EC
:10295800FA6FFAA508D0140ECB6F030ECC6F705126
:102968000BEC25F0B4D01E0ECB6F050ECC6F70515A
:102978000BEC25F0ACD080B4DED67051AD0FD96E1B
:10298800DA6ADF2A7051AD0FD96EDA6A030EDF6496
:102998009ED07051AD0FD96EDA6ADF6A5B0E702572
:1029A800086E096A000E0922D8EC27F00001FA6FB8
:1029B800FAA508D0140ECB6F030ECC6F70510BEC38
:1029C80025F085D01E0ECB6F050ECC6F70510BEC29
:1029D80025F07DD080B2AFD67051AD0FD96EDA6ACE
:1029E800DF2A7051AD0FD96EDA6A030EDF646FD03B
:1029F8007051AD0FD96EDA6ADF6A5B0E7025086E0A
:102A0800096A000E0922D8EC27F00001FA6FFAA52E
:102A180008D0140ECB6F030ECC6F70510BEC25F061
:102A280056D01E0ECB6F050ECC6F70510BEC25F0F7
:102A38004ED080B080D67051AD0FD96EDA6ADF2AD9
:102A48007051AD0FD96EDA6A030EDF6440D0705151
:102A5800AD0FD96EDA6ADF6A5B0E7025086E096AF7
:102A6800000E0922D8EC27F00001FA6FFAA508D069
:102A7800140ECB6F030ECC6F70510BEC25F027D0E2
:102A88001E0ECB6F050ECC6F70510BEC25F01FD0CE
:102A9800706B1DD0705101E11FD6010A01E151D6BA
:102AA800030A01E17DD6010A01E1A9D6070A01E17D
:102AB800D5D6010A01E101D7030A01E12DD7010AA0
:102AC80001E159D70F0A86E0010AB3E0E1D7702B7C
:102AD800090E706517D0706B15D00FEC28F012D066
:102AE8007A6B10D000017A5101E19DD5010A01E10C
:102AF800A4D5030A01E19ED5010A01E1A1D5070A7F
:102B0800ECE0EED7E90E0001645D030E6559000E96
:102B18006659000E67590CE3646B656B666B676BEF
:102B2800742B34EC25F07A51030AD8B43EEC0CF03F
:102B38003B0E73650BD0736B722B3B0E726502D024
:102B4800726B712B170E716501D0716B11EC28F047
:102B580053D536683768386839683A6A3B6A3C6AD8
:102B68003D6A436A4350126E136AD8901236133680
:102B7800D89012361336D89012361336440E1224D3
:102B8800086E000E1320096ED8EC27F0146E14AEF0
:102B9800E8D14350126E136AD89012361336D89083
:102BA80012361336D89012361336470E1224086E92
:102BB800000E1320096ED8EC27F0146E14C015F01F
:102BC800166A176A186A17C018F016C017F015C0E9
:102BD80016F0156A4350196E1A6AD89019361A36C3
:102BE800D89019361A36D89019361A36450E19243F
:102BF800086E000E1A20096ED8EC27F01B6E1BC059
:102C08001CF01D6A1E6A1F6A1DC01FF01CC01EF042
:102C18001D6A1C6A4350206E216AD89020362136DE
:102C2800D89020362136D89020362136440E2024DC
:102C3800086E000E2120096ED8EC27F0226E020ED5
:102C4800221622C023F0246A256A266A170ED89015
:102C58002336243625362636E82EF9D71C5023107D
:102C6800276E1D502410286E1E502510296E1F50E7
:102C780026102A6E155027102B6E165028102C6E11
:102C8800175029102D6E18502A102E6EFF0E2B107B
:102C9800316E2C50326E2D50336E2E50346E4350A0
:102CA800126E136AD89012361336D890123613362D
:102CB800D89012361336480E1224086E000E1320D0
:102CC800096ED8EC27F0146E14C015F0166A176A4E
:102CD800186A17C018F016C017F015C016F0156A54
:102CE8004350196E1A6AD89019361A36D890193680
:102CF8001A36D89019361A36460E1924086E000E60
:102D08001A20096ED8EC27F01B6E1BC01CF01D6A38
:102D18001E6A1F6A1DC01FF01CC01EF01D6A1C6AB7
:102D28004350206E216AD89020362136D89020361C
:102D38002136D89020362136440E2024086E000E05
:102D48002120096ED8EC27F0226E010E221622C02F
:102D580023F0246A256A266A23C026F0256A246A95
:102D6800236A1C502310276E1D502410286E1E50F5
:102D78002510296E1F5026102A6E155027102B6E0D
:102D8800165028102C6E175029102D6E18502A1026
:102D98002E6E43502F6E306AD8902F363036D8902A
:102DA8002F363036D8902F363036430E2F24086E03
:102DB800000E3020096ED8EC27F02B103E6E2C50F8
:102DC8003F6E2D50406E2E50416E436608D03EC077
:102DD8003AF03FC03BF040C03CF041C03DF03150BC
:102DE8003616325037163350381634503916426A70
:102DF80042503EC012F03FC013F040C014F041C032
:102E080015F0E82A05D0D890153214321332123250
:102E1800E82EF9D7010E121642503AC016F03BC000
:102E280017F03CC018F03DC019F0E82A05D0D8903A
:102E38001932183217321632E82EF9D71650010B0C
:102E480012181DE042C012F0010E136E146A122A05
:102E580003D0D89013361436122EFBD7131C156ED8
:102E6800141C166E176A16BE17061750186E1550E2
:102E78003616165037161750381618503916422A73
:102E88001F0E4264B5D73E503A163F503B1640508D
:102E98003C1641503D1643504FE0426A43C012F081
:102EA8004350136E146AD89013361436D8901336DC
:102EB8001436D89013361436430E1324086E000EB9
:102EC8001420096ED8EC27F0156E122A02D0D8907B
:102ED8001532122EFCD7010E151643C016F035C058
:102EE80017F0162A02D0D8901732162EFCD7175092
:102EF800010B15181DE043C012F0010E136E146A81
:102F0800122A03D0D89013361436122EFBD713C0CA
:102F180015F014C016F0000E16BEFF0E176E186ED0
:102F280015503616165037161750381618503916C9
:102F3800422A070E4264B2D74350126E136AD890E1
:102F480012361336D89012361336D89012361336F6
:102F5800430E1224086E000E1320096ED8EC27F0D9
:102F6800356E432A070E4364FDD5800E84EC27F0A6
:102F78000F010F0E096E1C0E086E36C00AF037C01E
:102F88000BF038C00CF039C00DF0010E0E6E65EC78
:102F98001FF00D01D4830F010F0E096E040E086E89
:102FA8003AC00AF03BC00BF03CC00CF03DC00DF03D
:102FB800010E0E6E65EC1FF0000E84EF27F0000185
:102FC800646B656B666B676B736B726B716B686B4D
:102FD800696B0101010E096E000E086E0B6A0A6A20
:102FE8000D6A140E0C6E28EC26F00001000E096E16
:102FF8007E0E086E0B6A0A6A0D6A140E0C6E28ECB7
:1030080026F0356A5B0E3524086E096A000E09221F
:10301800D8EC27F0106E10A033D035C010F0010E98
:10302800116E126A102A03D0D89011361236102E5B
:10303800FBD711500001681312506913710E352423
:10304800086E096A000E0922D8EC27F0116E106A82
:10305800720E3524086E096A000E0922D8EC27F092
:103068001026000E11223550020D0101000EF32426
:10307800D96E010EF420DA6E10C0DEFF11C0DDFF3C
:10308800600E3524086E096A000E0922D8EC27F074
:10309800106E10A420D0710E3524086E096A000E37
:1030A8000922D8EC27F0116E106A720E3524086ECA
:1030B800096A000E0922D8EC27F01026000E11220A
:1030C8003550020DF35000017E0FD96EDA6A10C038
:1030D800DEFF11C0DDFF352A090E356493D7096A72
:1030E8004F0E086ED8EC27F0346E3450030B926EF6
:1030F800096A500E086ED8EC27F0346E3450030B72
:103108000809936E096A6F0E086ED8EC27F0106EE6
:1031180010B0F19E096A500E086ED8EC27F0106EB8
:10312800D8901034F80B346E34500109946E0001B5
:10313800000E096EAD0E086E0B6A0A6A0D6A0A0E59
:103148000C6E28EC26F00001706B8150010B106E9C
:103158008130010B116ED8901134126E136A133638
:103168008230E832E832010B146E156AD8901436B2
:103178001536D890143615368238010B166E176A34
:10318800D89016361736D89016361736D890163681
:1031980017368238E832010B186E196A183A193A4C
:1031A800F00E191618500F0B1912F00E1816823857
:1031B800E832E832010B1A6E1B6A050ED8901A36EF
:1031C8001B36E82EFBD78234E836010B1C6E1D6ACD
:1031D800060ED8901C361D36E82EFBD78030E83214
:1031E800010B1E6E1F6A070ED8901E361F36E82E7A
:1031F800FBD78030010B216E206A8050010B226EB4
:10320800236A090ED89022362336E82EFBD72050A1
:103218002224246E21502320256E1E502424266E3D
:103228001F502520276E1C502624286E1D5027204D
:10323800296E1A5028242A6E1B5029202B6E1850EC
:103248002A242C6E19502B202D6E16502C242E6EED
:1032580017502D202F6E14502E24306E15502F200D
:10326800316E12503024326E13503120336E1050AC
:1032780032246A6F000E33206B6F1200955194113F
:1032880001E155D1E36BE351D26FD36BD890D237BC
:10329800D337D890D237D337D890D237D3379A0E7E
:1032A800D225086E000ED321096ED8EC27F0000154
:1032B800E26FE2AF37D1E2AD18D0E351D26FD36BF2
:1032C800D890D237D337D890D237D337D890D2378F
:1032D800D337990ED225086E000ED321096ED8EC8B
:1032E80027F00001971901E01DD1E2A90BD0992917
:1032F80009E0096A430E086ED8EC27F00001991915
:1033080001E010D1E2A70BD09A2909E0096A440E1E
:10331800086ED8EC27F000019A1901E003D1E351B7
:10332800080D9C0EF324086E000EF420096ED8ECEC
:1033380027F00001D26FE251010BD46FD36BD25149
:10334800D325D56F000ED421D66FE351080D9B0EFF
:10335800F324086E000EF420096ED8EC27F0000163
:10336800D26FE251020BD36FD46B070ED890D337CC
:10337800D437E82EFBD7D251D325D76F000ED421EE
:10338800D86FE351080D9E0EF324086E000EF4204A
:10339800096ED8EC27F00001D96FE351080D9D0E96
:1033A800F324086E000EF420096ED8EC27F0000113
:1033B800DA6F20EE94F0DECFD2F0DDCFD3F0D55126
:1033C800D21BD651D31BD751D217D851D317D351AB
:1033D800D21101E0A7D09651D919DA1501E186D0AA
:1033E800A1D00001E351080DA00EF324086E000ED1
:1033F800F420096ED8EC27F00001DB6FDBC04FF03A
:10340800E251A7EC20F08ED00001E351080DA00E88
:10341800F324086E000EF420096ED8EC27F00001A2
:10342800DC6FDCC04FF0E25126EC23F07BD00001CA
:10343800E351080DA00EF324086E000EF420096E67
:10344800D8EC27F00001DD6FDDC04FF0E2510DEC44
:1034580020F068D00001E351080DA00EF324086E97
:10346800000EF420096ED8EC27F00001DE6FDEC0F4
:103478004FF0E251BBEC21F055D00001E351080DAB
:10348800A00EF324086E000EF420096ED8EC27F085
:103498000001DF6FDFC04FF0E251B7EC22F042D0FD
:1034A8000001E351080DA00EF324086E000EF4206D
:1034B800096ED8EC27F00001E06FE0C0CDF0E251D2
:1034C80041EC27F02FD00001E351080DA00EF324A2
:1034D800086E000EF420096ED8EC27F00001E16FA9
:1034E800E1C04FF0E2513BEC22F01CD0E351080D53
:1034F8009F0EF324086E000EF420096ED8EC27F016
:10350800000A10E0010A01E16CD7030A01E17CD747
:10351800010A8DE0070A9EE0010AD5E0030AADE042
:10352800010ABEE00001E32B070EE365ACD61200EA
:10353800E8CF14F0546A7750C00B166E166632D076
:1035480060AE12D0A49074AE06D01150D96EDA6A6B
:10355800000EDB86749E60A002D0548001D0549087
:103568000F0E196E600E1AD00F0150AF19D0A49229
:1035780074AC06D01150D96EDA6A000EDB86749CE2
:103588005051070B546E020E546005D01150D96E7D
:10359800DA6A000EDB8E0F0E196E500E186E65D0AB
:1035A800000ECCD01650400A46E160AE04D00F0E93
:1035B800196E600E3ED00F0150AF04D00F0E196E79
:1035C800500E37D00D01F8B507D00E0120AF04D04A
:1035D8000E0E196E200E2DD00D01F8B707D00E0172
:1035E80030AF04D00E0E196E300E23D00D01F8B98D
:1035F80007D00E0140AF04D00E0E196E400E19D040
:103608000D01F8BB05D00E0150AF02D00E0ED7D772
:103618000D01F8BD05D00E0160AF02D00E0EC8D75F
:103628000D01F8BFBDD70E0170AFBAD70E0E196ED7
:10363800700E186E0AD074AEB3D76F50070BD0EC6B
:1036480024F008C018F009C019F018C0D9FF19C033
:10365800DAFFDF501F0B546EA49274AC06D01150E1
:10366800D96EDA6A000EDB86749C18C012F019C095
:1036780013F01150D96EDA6ADF6A20EE05F018509F
:10368800D9261950DA22DF50176E1050D96EDA6A2F
:1036980017500F0BDF6E17AC05D01150D96EDA6AD0
:1036A800000EDB8C20EE02F01850D9261950DA22D1
:1036B800DF50176E17A608D01150D96EDA6A000EBF
:1036C800DB8A010E176E01D0176A1828086E000EE3
:1036D8001920096E14C00AF017C00BF004EC1EF094
:1036E800060E1826000E19221050D96EDA6ADF501D
:1036F800176E156A0DD018C0D9FF19C0DAFF0F5020
:10370800E16EE26ADFCFE7FF184A192A0F2A152A65
:103718001750155CF0E3A4AE06D01150D96EDA6AE2
:10372800000EDB88A49E12C0D9FF13C0DAFF7F0EFB
:10373800DF161650800AD8B4749E010E1200E8CF26
:103748001CF01B6A1C50800A04E155C01BF0556A26
:10375800CBD01C50810A02E1010E81D01C50820A94
:1037680002E1050E7CD01C50830A02E11B6ABCD022
:103778001C50940A03E117EC28F071D01C50950AEC
:1037880003E116EC28F06BD01C50960A03E115EC07
:1037980028F065D0890E1C6005D01C507C0FBBEC4E
:1037A80027F05DD0880E1C6408D0910E1C6005D0EF
:1037B8001C50770FB1EC27F052D01C50910A03E14E
:1037C80079C01BF091D01C50930A03E152C01BF042
:1037D8008BD01C50920A02E1535041D01C50970ADA
:1037E80003E114EC28F03BD01C50980A03E113ECD9
:1037F80028F035D01C50990A03E112EC28F02FD09C
:10380800990E1C642ED09E0E1C602BD0F9EC27F06C
:103818000BC014F00AC013F009C012F008C011F070
:103828001C50660F196E195003080C6ED8900C3690
:10383800D8900C36D8900C360C5011C00DF012C030
:103848000EF013C00FF014C010F0E82A05D0D8907D
:1038580010320F320E320D32E82EF9D730D01B6EEF
:1038680043D09D0E1C642DD0A20E1C602AD0F4EC0F
:1038780027F00BC018F00AC017F009C016F008C0EE
:1038880015F01C50620F1A6E1A5003080C6ED8906F
:103898000C36D8900C36D8900C360C5015C00DF05C
:1038A80016C00EF017C00FF018C010F0E82A05D0A7
:1038B800D89010320F320E320D32E82EF9D70D5053
:1038C800CED7CF0E1C6408D0E00E1C6005D01C506B
:1038D800300FC5EC27F0C3D7DF0E1C6405D01C5091
:1038E800200F78EC27F0BBD71B501200E8CF12F05E
:1038F800116A5350521001E0ADD0126606D0096A21
:10390800430E086ED8EC27F0C3D0120406E1096A0A
:10391800440E086ED8EC27F0BBD0010E12640CD010
:103928000C0E126009D0430E1224086E096A000EAC
:103938000922D8EC27F0ACD012500C0A08E19230DA
:10394800010B0A6E9250010B020DF35035D0125044
:103958000D0A34E19350010B0A6E9330010B020DEE
:10396800F3CF0BF09430E832E832010B040DF3CFBB
:103978000CF09438010B080DF3CF0DF09438E832B1
:10398800010B100DF3CF0EF09438E832E832010B3A
:10399800200DF3CF0FF09434E836010B400DF3CF30
:1039A80010F09230E832010B800DF35010240F24F0
:1039B8000E240D240C240B240A246AD00D0E126444
:1039C80042D0180E12603FD028D0000E81B0010EF0
:1039D8005FD0000E81B2010E5BD0000E82B6010EE0
:1039E80057D0000E82B8010E53D0000E82BA010ED5
:1039F8004FD0000E82BC010E4BD0000E82BE010ECD
:103A080047D0000E80B4010E43D0000E80B2010EE4
:103A18003FD0000E80B0010E3BD012500E0AD5E008
:103A2800010AD7E01F0AD9E0010ADBE0030ADDE05A
:103A3800010ADFE0070AE1E0010AE3E0030AE5E042
:103A4800010AE7E026D0170E126423D02E0E12606A
:103A580020D069D7520453100CE1280E126019D0F7
:103A6800710E1224086E096A000E0922D8EC27F09C
:103A78000FD05250020A53100CE1400E126009D0C8
:103A8800990E1224086E096A000E0922D8EC27F054
:103A9800116E115012000F0E1C6E400E1B6E0F0E91
:103AA8001E6E300E1D6E0F0E206E200E1F6E0E0E37
:103AB800226E200E216E0E0E246E300E236E0E0E18
:103AC800266E400E256E0E0E286E500E276E0E0EB8
:103AD8002A6E600E296E0E0E2C6E700E2B6E7750AD
:103AE800C00B2D6E2D6602D0020E01D0080E2E6E70
:103AF8000D01D890F831306E346A7DD03450020D03
:103B0800F3501B0FD96EDA6ADECF35F0DDCF36F011
:103B180035C031F036C032F0020E346404D0D8908B
:103B2800303230A067D035C0D9FF36C0DAFFDF5059
:103B38001A6E1AB65FD035C0D9FF36C0DAFFFC0E50
:103B4800DF1619C01AF0030E1A1635C0D9FF36C091
:103B5800DAFF1A50DF1219AC04D018504009336E3E
:103B680002D018C033F020EE05F03550D926365073
:103B7800DA2233C0DFFF19AA03D0010E336E01D059
:103B8800336A3528086E000E3620096E12C00AF016
:103B980013C00BF014C00CF015C00DF033C00EF0BC
:103BA80065EC1FF0060E3526000E36222F6A0FD060
:103BB80016C0D9FF17C0DAFF35C0E1FF36C0E2FFF3
:103BC800DFCFE7FF164A172A354A362A2F2A185018
:103BD8002F5CEEE331C0D9FF32C0DAFFDF501A6E36
:103BE8001AB406D031C0D9FF32C0DAFF000EDB8626
:103BF800010E05D0342A2E50345C80E3000E1200EA
:103C08000AC00EF00B6646D00E50D96EDA6A08C0AC
:103C1800E1FF09C0E2FFE7500C6ED8900C36D8904F
:103C28000C36D8900C34DF6E0E50D96EDA6AD92A69
:103C3800DA6A08C0E1FF09C0E2FFE7500C6E050E22
:103C48000D6ED8900C320D2EFCD70C50DF6E084A42
:103C5800092A08C0D9FF09C0DAFFDF500C6E050E2B
:103C68000D6ED8900C320D2EFCD70E50D96EDA6A34
:103C78000C50DF120E50D96EDA6A020ED926DA6AB3
:103C8800DF6A0E50D96EDA6A030ED926DA6A000E98
:103C9800DF6E67D00E50D96EDA6A020ED926DA6A5C
:103CA80008C0E1FF09C0E2FFE7500C6E050E0D6E7B
:103CB800D8900C360D2EFCD70C50DF6E0E50D96EF6
:103CC800DA6A030ED926DA6A08C0E1FF09C0E2FF02
:103CD800E7500C6ED8900C32D8900C32D8900C303B
:103CE800DF6E084A092A08C0D9FF09C0DAFFDF5089
:103CF8000C6E030E0C160E50D96EDA6A020ED92617
:103D0800DA6A0C50DF1208C0D9FF09C0DAFFDF50A9
:103D18000C6ED8900C32D8900C32D8900C321C0E05
:103D28000C160E50D96EDA6A020ED926DA6A0C50D1
:103D3800DF12084A092A08C0D9FF09C0DAFF0E5065
:103D4800E16EE26AE12AE26ADFCFE7FF084A092A60
:103D580008C0D9FF09C0DAFF0E50E16EE26ADFCF72
:103D6800E7FF12000CEC28F0096A430E086E000EFB
:103D78000A6ADFEC25F00CEC28F0096A440E086E9C
:103D8800000E0A6ADFEC25F00F6A0CEC28F0450EED
:103D98000F24086E096A000E09220FC00AF0DFEC32
:103DA80025F00F2A090E0F64F0D70CEC28F0096AE9
:103DB8004F0E086E000E0A6ADFEC25F00CEC28F0B6
:103DC800096A500E086E000E0A6ADFEC25F00F6AC9
:103DD8000CEC28F05B0E0F24086E096A000E09220D
:103DE800980E0A6EDFEC25F00F2A090E0F64F0D743
:103DF8000F6A0CEC28F0650E0F24086E096A000E95
:103E08000922830E0A6EDFEC25F00F2A090E0F64D3
:103E1800F0D70CEC28F0096A6F0E086E000E0A6ADB
:103E2800DFEC25F00CEC28F0096A700E086E000E25
:103E38000A6ADFEC25F00F6A0CEC28F0710E0F24EB
:103E4800086E096A000E09220A6ADFEC25F00F2ABB
:103E5800130E0F64F1D70F6A0CEC28F0850E0F24AF
:103E6800086E096A000E09220A6ADFEC25F00F2A9B
:103E7800130E0F64F1D70F6A0E6A0CEC28F00E507F
:103E88000FC00CF00D6AD8900C360D36D8900C3651
:103E98000D36D8900C360D360C26000E0D22990ED4
:103EA8000C24086E000E0D20096E000E0A6ADFEC65
:103EB80025F00E2A070E0E64E0D70F2A0F64DCD710
:103EC800070C0A0E116E0E6637D01150D96EDA6AD9
:103ED800DF500F6ED8900F32D8900F32D8900F3035
:103EE80008C0D9FF09C0DAFFDF6E1150D96EDA6A4F
:103EF800D92ADA6ADF500F6E050E106ED8900F3689
:103F0800102EFCD708C0D9FF09C0DAFF0F50DF1206
:103F1800084A092A1150D96EDA6ADF500F6E050E69
:103F2800106ED8900F36102EFCD70F5008C0D9FF4E
:103F380009C0DAFFDF6E6CD01150D96EDA6A020E52
:103F4800D926DA6ADF500F6E050E106ED8900F3240
:103F5800102EFCD70F5008C0D9FF09C0DAFFDF6E5A
:103F68001150D96EDA6A030ED926DA6ADF500F6E5D
:103F7800D8900F36D8900F36D8900F3608C0D9FF92
:103F880009C0DAFF0F50DF12084A092A1150D96E0A
:103F9800DA6A020ED926DA6ADF500F6ED8900F3629
:103FA800D8900F36D8900F34E00B08C0D9FF09C05D
:103FB800DAFFDF6E08C0D9FF09C0DAFF000EDB8622
:103FC8001150D96EDA6A020ED926DA6ADF500F6EFE
:103FD800030E0F1608C0D9FF09C0DAFF0F50DF1211
:103FE800084A092A1150D96EDA6AD92ADA6A08C049
:103FF800E1FF09C0E2FFDFCFE7FF084A092A1150B5
:10400800D96EDA6A08C0E1FF09C0E2FFDFCFE7FF37
:104018001200516A090E4F6401D094D05B0E4F24F0
:10402800086E096A000E0922D8EC27F0506E50AECF
:1040380089D039D081A002D0010E516E819047D02D
:1040480081A202D0010E516E819241D082A602D087
:10405800010E516E82963BD082A802D0010E516E9D
:10406800829835D082AA02D0010E516E829A2FD042
:1040780082AC02D0010E516E829C29D082AE02D051
:10408800010E516E829E23D080A402D0010E516E83
:1040980080941DD080A202D0010E516E809217D05C
:1040A80080B0F4D7F5D74F50C5E0010AC9E0030A3C
:1040B800CDE0010AD1E0070AD5E0010AD9E0030AF8
:1040C800DDE0010AE1E00F0AE5E0010AE9E051500C
:1040D800D8A450A808D0140E0001CB6F040ECC6FE2
:1040E8004F500BEC25F04FC0CDF0010E0001CE6F04
:1040F800CF6BCD2B03D0D890CE37CF37CD2FFBD772
:10410800CE516813CF516913720E4F24086E096A95
:10411800000E0922D8EC27F00001CD6F710E4F2454
:10412800086E096A000E0922D8EC27F00001CF6F4B
:10413800CE6BCD51CE250101006F0001000ECF21BD
:104148000101016F1200CE6B090E4F6401D08BD0B4
:104158005B0E4F24086E096A000E0922D8EC27F07E
:104168000001CD6FCDAF7FD039D081B002D0010E24
:10417800CE6F818047D081B202D0010ECE6F81828E
:1041880041D082B602D0010ECE6F82863BD082B873
:1041980002D0010ECE6F828835D082BA02D0010ECD
:1041A800CE6F828A2FD082BC02D0010ECE6F828C55
:1041B80029D082BE02D0010ECE6F828E23D080B469
:1041C80002D0010ECE6F80841DD080B202D0010EC5
:1041D800CE6F808217D080A0F4D7F5D74F50C5E0B6
:1041E800010AC9E0030ACDE0010AD1E0070AD5E0D7
:1041F800010AD9E0030ADDE0010AE1E00F0AE5E07F
:10420800010AE9E0CDA524D04F50020D850EF32414
:10421800086E000EF420096ED8EC27F0516E506A33
:104228004F50020D860EF324086E000EF420096E1E
:10423800D8EC27F05026000E51224F50020DF350B3
:1042480000017E0FD96EDA6A50C0DEFF51C0DDFF73
:10425800CE51D8A4CDA707D0140ECB6F030ECC6FC8
:104268004F500BEC25F01200E8CF3CF0361C3B6EAB
:10427800830E3C640ED0890E3C600BD036C00CF027
:104288003C507C0F4FEC27F03C507C0FBBEC27F0E8
:1042980069D03C50920A0DE13650386E376A525058
:1042A800396E3A6A3710526E38503A10536E53507E
:1042B80059D03C50930A0BE1376A5350386E365048
:1042C8003710526E3850536E52C03BF04ED0880EA5
:1042D8003C6419D0910E3C6016D053C037F037C0FB
:1042E80038F0396A382802E1522802E0361C3AD000
:1042F80036C00CF03C50770FA5EC26F03C50770FF9
:10430800B1EC27F02FD0CF0E3C6417D0E00E3C6004
:1043180014D053C037F037C038F0396A3828E6E18E
:104328005228E4E136C00CF03C50300FB8EC26F0CF
:104338003C50300FC5EC27F015D03C50A20AD6E10E
:104348003650550A04E16C6B6D6B550E0BD0365028
:10435800AA0A0BE1E80E6C5D030E6D5905E208EC44
:1043680028F0AA0E3B6E01D03B6A3B501200516AFE
:10437800090E4F6401D07AD05B0E4F24086E096A8B
:10438800000E0922D8EC27F0506E50AE6FD039D00D
:1043980081A002D0010E516E819047D081A202D037
:1043A800010E516E819241D082A602D0010E516E4B
:1043B80082963BD082A802D0010E516E829835D0E9
:1043C80082AA02D0010E516E829A2FD082AC02D0FE
:1043D800010E516E829C29D082AE02D0010E516E20
:1043E800829E23D080A402D0010E516E80941DD0ED
:1043F80080A202D0010E516E809217D080B0F4D7FF
:10440800F5D74F50C5E0010AC9E0030ACDE0010A1B
:10441800D1E0070AD5E0010AD9E0030ADDE0010A84
:10442800E1E00F0AE5E0010AE9E05150D8A450A8FC
:1044380008D0140E0001CB6F040ECC6F4F500BEC5C
:1044480025F04FC0CDF0010E0001CE6FCF6BCD2B04
:1044580003D0D890CE37CF37CD2FFBD7CE1DD06F16
:10446800CF1DD16FD0516817D15169171200516A09
:10447800090E4F6401D076D05B0E4F24086E096A8E
:10448800000E0922D8EC27F0506E50AE6BD03FD00A
:1044980081A002D0819037D08180010E516E4BD01F
:1044A80081A202D081922FD08182F7D782A602D032
:1044B800829629D08286F1D782A802D0829823D00A
:1044C8008288EBD782AA02D0829A1DD0828AE5D749
:1044D80082AC02D0829C17D0828CDFD782AE02D009
:1044E800829E11D0828ED9D780A402D080940BD01E
:1044F8008084D3D780A202D0809205D08082CDD785
:1045080080A003D08090516A16D08080C6D74F50C3
:10451800BFE0010AC5E0030AC9E0010ACDE0070AC5
:10452800D1E0010AD5E0030AD9E0010ADDE00F0A6B
:10453800E1E0010AE5E051500BE050A613D0140E5B
:104548000001CB6F030ECC6F4F500BEC25F00AD057
:1045580050A808D0140E0001CB6F040ECC6F4F503A
:104568000BEC25F01200516A090E4F6401D069D096
:104578005B0E4F24086E096A000E0922D8EC27F05A
:10458800506E50AE5ED032D0000E81B0010E516E2A
:1045980041D0000E81B2010E516E3CD0000E82B6A1
:1045A800010E516E37D0000E82B8010E516E32D016
:1045B800000E82BA010E516E2DD0000E82BC010E83
:1045C800516E28D0000E82BE010E516E23D0000E0F
:1045D80080B4010E516E1ED0000E80B2010E516ED5
:1045E80019D0000E80B0010E516E14D04F50CCE09F
:1045F800010ACFE0030AD2E0010AD5E0070AD8E0B1
:10460800010ADBE0030ADEE0010AE1E00F0AE4E068
:10461800010AE7E051500BE050A813D0140E000136
:10462800CB6F040ECC6F4F500BEC25F00AD050A87E
:1046380008D0140E0001CB6F040ECC6F4F500BEC5A
:1046480025F01200516A090E4F6401D065D05B0E47
:104658004F24086E096A000E0922D8EC27F0506E24
:1046680050AE5AD039D081A002D0010E516E81903F
:1046780047D081A202D0010E516E819241D082A60C
:1046880002D0010E516E82963BD082A802D0010E54
:10469800516E829835D082AA02D0010E516E829A4C
:1046A8002FD082AC02D0010E516E829C29D082AEEE
:1046B80002D0010E516E829E23D080A402D0010E3A
:1046C800516E80941DD080A202D0010E516E80924E
:1046D80017D080B0F4D7F5D74F50C5E0010AC9E02C
:1046E800030ACDE0010AD1E0070AD5E0010AD9E0C2
:1046F800030ADDE0010AE1E00F0AE5E0010AE9E06A
:104708005150D8A450A808D0140E0001CB6F040E45
:10471800CC6F4F500BEC25F0120053D0572810E007
:10472800810EA06FA16BA26BA36B020EA46F57C082
:10473800A5F0CBEC26F0010E7B6F6E6B6F6B48D04B
:10474800040E7A6F810EA06FA569070EA16FA26B88
:10475800A36B030EA46FCBEC26F03AD092AF0FD028
:104768009551941135E19651030A32E1576603D009
:10477800020E7A6FE2D7572A7B6B7C6B29D0E90E41
:104788006E5D030E6F5924E37C2B020E7C6517D0F7
:10479800576605D0572A7B6B6E6B6F6BEED757C089
:1047A80079F0030E7A6F7B6B7951A6EC27F0400EF7
:1047B8009BEC27F000017C6B23EC27F009D07B6B86
:1047C80007D000017B51AAE0010AC8E0030AF7E11B
:1047D800926B120041C0B7F0B86BB96BBA6BB9C035
:1047E800BAF0B8C0B9F0B7C0B8F0B76B3F50BB6FFC
:1047F8004050BC6FBD6BBE6BBCC0BEF0BBC0BDF053
:10480800BC6BBB6B43C0BFF0C06BC16BC26B1A0EF5
:10481800D890BF37C037C137C237E82EF9D7BB5158
:10482800BF11C36FBC51C011C46FBD51C111C56F59
:10483800BE51C211C66FB751C311C76FB851C41169
:10484800C86FB951C511C96FBA51C611CA6F425064
:10485800C711476EC851486EC951496ECA514A6E50
:1048680047C037F048C038F049C039F04AC03AF07C
:1048780044C03BF045C03CF046C03DF09FEC25F0FD
:104888000009000ED8A4010E1200800E84EC27F057
:10489800090E706EFC0E716E010E726E200E736E34
:1048A800778E779C606A0F01506B0E01206B306B1E
:1048B800406B506B606B706BE00E0D01F86F0F0171
:1048C800006B080E016F026B036B046BE80E056F3B
:1048D8001A0E066F076B030E0D01D46FD56BE06BD4
:1048E800110EE16FE26FE36BE46BE56BE66BE76B70
:1048F800540EF06F050EF16FF26BF26B0F0E0F0195
:10490800186FE00E196F1A6B1B6B19870F0E1C6F4F
:10491800E00E1D6F1E691F6B1D87000E84EF27F0C8
:10492800E8CF27F021C01AF022C01BF0280E3EEC79
:1049380026F0000902E1000E2ED01F50D96EDA6A67
:1049480028C0DFFF1E50D96EDA6A29C0DFFF2A505F
:10495800236E010E2B14246E2750D96EDA6A23C0F9
:10496800DEFF24C0DDFF2050D96EDA6A28C023F0AC
:1049780029C024F02AC025F02BC026F01B0E05D034
:10498800D8902632253224322332E82EF9D7235004
:10499800070BDF6E010E1200E8CF0BF024D00F0ECC
:1049A8000D6E600E1ED00F010F0E0D6E500E19D039
:1049B8000E010E0E0D6E200E14D00E010E0E0D6E91
:1049C800300E0FD00E010E0E0D6E400E0AD00E01E5
:1049D8000E0EEBD70E010E0EE3D70E010E0E0D6E66
:1049E800700E0C6E0FD00B50DAE0010ADCE0030AFF
:1049F800DFE0010AE2E0070AE5E0010AE8E0030A6D
:104A0800E9E0EBD70CC008F00DC009F01200E8CFC0
:104A18004EF04EC04BF0096A430E086ED8EC27F0F2
:104A28004C6E450E4E24086E096A000E0922D8EC19
:104A380027F04D6E0001CBC03FF0406ACCC041F07A
:104A480079C042F0030E436E446E4B0E456E000E65
:104A5800466E0F0E466E5F0E4564466AEEEF23F013
:104A68007D2B3B0E7D650DD07D6B782B7A51030A2B
:104A780008E1EAEC27F00001CB6FEFEC27F092ECAD
:104A880026F03B0E786502D0786B762B170E76658C
:104A980001D0766B7A51030A09E1752B75C04DF088
:104AA8000F0E4D16020E4D5CD8B0756B1200020E3B
:104AB800566EFEEC27F00001796F796701D07969AD
:104AC800926B936B946B956B966BA06BA16BA26BBF
:104AD800A36BA46B556A576A7A6B7B6B7C6B526AC3
:104AE800536A6E6B6F6B6C6B6D6B7D6B786B766BF3
:104AF80012000F0EC16E926A806A080E936E816A68
:104B0800010E946E826A920E32EC27F0FB0E096E4B
:104B18001D0E086ECFEC27F08190819282968298C4
:104B2800829A829C829E80948092809049EC24F0A4
:104B3800F28CF28E12003E6A746B17D037C012F0F6
:104B480038C013F039C014F03AC015F03CC016F064
:104B58003DC017F03BC018F0200E196E4FEC1DF049
:104B6800000903E0010E3E6E03D000017451E6E037
:104B78000001A06B3E50120003EC28F0000916E17A
:104B8800000192510F0B050A15E103EC28F0000112
:104B9800981910E098519BEC27F000017969FF0EF5
:104BA800A6EC27F0010E00017A6F04D0000198519D
:104BB8009BEC27F0120008C0A9FF0AC0A8FFA69E18
:104BC800A69CA684000EF2BE010E0B6EF29E550E38
:104BD800A76EAA0EA76EA682A6B2FED70BB002D009
:104BE800F29E01D0F28EA694120092510F0B0D6E18
:104BF8000D5012E0795120EE98F0DF620DD00D04CF
:104C080005E0010E0D6408D0996706D07969FF0E9A
:104C1800A6EC27F05BEC25F0120001EE00F0140E74
:104C2800EE6AE806FDE100EE60F0570EEE6AE8066F
:104C3800FDE100EE52F0070EEE6AE806FDE1000E17
:104C4800F86E0001F4EF12F008C00EF009C00FF082
:104C580008D00EC0D9FF0FC0DAFF0AC0DFFF0E4A26
:104C68000F2A0C06D8A00D060C28D8B40D28D8B4E5
:104C78001200EFD7E8CF1CF092AF02D0000E0FD091
:104C88001BC00FF01AC010F01D0E116E1C509CECCA
:104C98001AF00009F3E01DAC1DAAF0D7010E1200AE
:104CA80092C04CF00F0E4C164C040EE1795120EED8
:104CB80098F0DF6209D0800EA06FA16BA26BA36B86
:104CC800030EA46FCBEC26F0120092BF12D0960E02
:104CD8001E6E970E1F6E930E206E920E216E980E0A
:104CE800226E940E94EC24F02C6E2C5002E00001FD
:104CF800928F1200E8CF09F0080E0A6E0B6AD8905E
:104D080009340B340B6ED890093608500B5C02E35B
:104D180008500B5E0A2EF3D70B501200E8CF4CF068
:104D2800830E0001A06F070EA16FA36B140EA26F74
:104D3800090EA46FA56B4CC0A6F0CBC0A7F0CBEFB3
:104D480026F0E8CF0DF0070E0D6401D00CD00CEC66
:104D580028F00B0E0D24086E096A000E09220CC0FB
:104D68000AF0DFEC25F01200E8CF0DF00F0E0D640D
:104D780001D00CD00CEC28F0130E0D24086E096A33
:104D8800000E09220CC00AF0DFEC25F01200A2C0C8
:104D98003FF0A3C040F0A4C041F079C042F0A1C0E8
:104DA80043F0A0510F0B446E000E466EA50E456EE3
:104DB800EEEF23F092510F0B020A0DE1795120EE2C
:104DC80098F0DF6208D099C079F07951A6EC27F005
:104DD800400E9BEC27F0120003EC28F0C00B400AB1
:104DE80002E1010E0AD0FF0EA6EC27F0000E9BECA4
:104DF80027F0A00E90EC27F0000E1200E8CF50F03C
:104E08007F0E506406D0D9C036F0505038EC21F0EF
:104E180005D0D9C04FF0505076EC04F01200070EC0
:104E2800A56F480EA66F020E086E0850A50FD96E22
:104E3800DA6ADF6A082A070E0864F7D7070C810EBA
:104E48000001A06FA16BA26BA36B020EA46F79C0C7
:104E5800A5F0CBEC26F0010E566E010CE8CF08F059
:104E680008507F0BD56ED76AD66AF29408AE02D086
:104E7800F28A01D0F29AD58E1200E8CFCEF0CF6B2D
:104E8800CFC04FF0CE51B7EC22F00001CF2B080E67
:104E9800CF65F6D7080CE8CF0DF00CEC28F0060E1D
:104EA8000D24086E096A000E09220CC00AF0DFEF13
:104EB80025F0E8CF0CF00C0409E10CEC28F0096AA5
:104EC800086AFF0E0A68DFEC25F0FF001200E8CF41
:104ED8001DF07F0E1D6404D01D50A3EC1BF003D001
:104EE8001D507AEC1CF01200E8CF09F00950CA0FE7
:104EF800086E08C0F6FF080EF76E0800F55012009D
:104F0800E8CF08F01F0E6F1608506F126F50E00BB5
:104F18000818D8B41200FAD7E8CF0CF00CEC28F037
:104F2800096A030E086E0CC00AF0DFEF25F0E8CF1F
:104F38000CF00CEC28F0096A020E086E0CC00AF09E
:104F4800DFEF25F0E8CF0CF00CEC28F0096A010E31
:104F5800086E0CC00AF0DFEF25F0E8CF0AF00B0E60
:104F68000A24086E096A000E0922D8EF27F0E8CF54
:104F78000AF0060E0A24086E096A000E0922D8EF04
:104F880027F0E8CF0AF0130E0A24086E096A000E0B
:104F98000922D8EF27F008C00AF009C00BF00BC0AF
:104FA800D7FF0AC0D6FF120008C0A9FFA69CA69E7C
:104FB800A68000F000F0A850120001C003F002C063
:104FC80004F004C0D7FF03C0D6FF1200096A440EDC
:104FD800086ED8EF27F0096A430E086ED8EF27F05D
:104FE800086A096A0A6A0B6A1200086A096A0A6A80
:104FF8000B6A1200096A010E086ED8EF27F0096AD9
:10500800020E086ED8EF27F0B6EC1EF0E3EF17F0AB
:10501800A6A21200FDD7566A12001200030C080C53
:08502800010C000C000C010C4E
:020000040020DA
:08000000FFFFFFFFFFFFFFFF00
:020000040030CA
:0E000000FF061C1EFF8281FF0FC00FE00F40A5
:00000001FF
