:0400000063EF00F0BA
:10001800D8CF05F0E8CF06F0E0CF07F0F2A401D082
:1000280001D046D0FB0E026E1D0E016E41EC23F08E
:1000380000016E4B6F2B6C4B6D2B010E6027000E71
:100048006123000E6223000E6323010E6427000E55
:100058006523000E6623000E672382A001D001D01D
:1000680002D0776B01D0772B582A5650020AD8A4B1
:1000780001D001D00ED0640E586401D001D009D04F
:1000880082A201D001D002D0829201D08282586A25
:100098000ED05604D8A401D001D003D08282586A69
:1000A80006D0566601D001D002D08292586AF294E6
:1000B80007C0E0FF06C0E8FF05C0D8FF100071EFD9
:0200C80021F025
:100600007777772E6575726F736F757263652E736A
:10061000652F6265696A696E675F322E786D6C005E
:100620000000E8CFD8F0D56BD76B4F1CD66F535076
:10063000521002E005EF08F0D86710D06CEC23F000
:10064000096A430E086E4FC00AF03FEC21F0096AB8
:10065000430E086E38EC23F00DEF09F0D80510E1D9
:100660006CEC23F0096A440E086E4FC00AF03FECB0
:1006700021F0096A440E086E38EC23F00DEF09F002
:10068000010ED86511D00C0ED8610ED06CEC23F0A1
:10069000430E3FEC09F03FEC21F0430E57EC09F01C
:1006A00038EC23F00DEF09F0D8510C0A26E16CEC80
:1006B00023F0096A4F0E086E4F50030B0A6E3FEC91
:1006C00021F0010E4FA2000E0001CD6F9250CD1906
:1006D000FE0BCD19926E010E4FA0000ECD6FCD47CF
:1006E0009250CD19FD0BCD19926E9230010BCD6F4A
:1006F0009250010B020DF35096D0D8510D0A01E033
:1007000095D06CEC23F0096A500E086E4FC00AF0C9
:100710003FEC21F0010E4FAE000E0001CD6FCD4732
:10072000CD479250CD19FB0BCD19926E010E4FACF7
:10073000000ECD6FCD33CD339450CD197F0BCD1935
:10074000946E010E4FAA000ECD6FCD3BCD47CD4725
:100750009450CD19BF0BCD19946E010E4FA8000E09
:10076000CD6FCD3BCD479450CD19DF0BCD19946E95
:10077000010E4FA6000ECD6FCD3B9450CD19EF0B5F
:10078000CD19946E010E4FA4000ECD6FCD47CD470D
:10079000CD479450CD19F70BCD19946E010E4FA291
:1007A000000ECD6FCD479350CD19FD0BCD19936E33
:1007B000010E4FA0000ECD6F9350CD19FE0BCD1939
:1007C000936E9350010BCD6F9330010B020DF3CF5D
:1007D000CEF09430E832E832010B040DF3CFCFF0C5
:1007E0009438010B080DF3CFD0F09438E832010BA8
:1007F000100DF3CFD1F09438E832E832010B200D20
:10080000F3CFD2F09434E836010B400DF3CFD3F0A0
:100810009230E832010B800DF350D325D225D1253B
:10082000D025CF25CE25CD250EEF09F00D0ED865AC
:1008300028D2180ED86125D24D0ED825086E096A27
:10084000000E092238EC23F00001CD6FCDBFFBD1A3
:100850000FEF09F0010ED56F4F0428E18180000EE3
:1008600081B0010ED66F010ED76F096A5B0E086E5C
:1008700038EC23F00001CD6FCDA50FEF09F0096A28
:10088000860E086E38EC23F00001CD6F096A850EE4
:10089000086E38EC23F00001CF6FCE6BCD51CE2522
:1008A0007E6F000ECF217F6F0FEF09F04F660FEFC5
:1008B00009F08190000E81B0010ED66FD76B0FEF5B
:1008C00009F0010ED56F4F041EE18182000E81B246
:1008D000010ED66F010ED76F096A5C0E086E38ECF8
:1008E00023F00001CD6FCDA50FEF09F0096A880E46
:1008F000086E38EC23F00001CD6F096A870E086E90
:1009000038EC23F01ED24F660FEF09F08192000EF3
:1009100081B2010ED66FD2D7010ED56F4F0428E1F8
:100920008286000E82B6010ED66F010ED76F096A5D
:100930005D0E086E38EC23F00001CD6FCDA50FEFF2
:1009400009F0096A8A0E086E38EC23F00001CD6FB9
:10095000096A890E086E38EC23F00001CF6FCE6B68
:10096000CD51CE25826F000ECF21836F0FEF09F09E
:100970004F660FEF09F08296000E82B6010ED66F19
:100980009DD7010ED56F4F0428E18288000E82B8F2
:10099000010ED66F010ED76F096A5E0E086E38EC35
:1009A00023F00001CD6FCDA50FEF09F0096A8C0E81
:1009B000086E38EC23F00001CD6F096A8B0E086ECB
:1009C00038EC23F00001CF6FCE6BCD51CE25846F74
:1009D000000ECF21856F0FEF09F04F660FEF09F082
:1009E0008298000E82B8010ED66F68D7010ED56FBF
:1009F0004F0427E1828A000E82BA010ED66F010EE3
:100A0000D76F096A5F0E086E38EC23F00001CD6FD6
:100A1000CDA50FEF09F0096A8E0E086E38EC23F0B1
:100A20000001CD6F096A8D0E086E38EC23F00001CD
:100A3000CF6FCE6BCD51CE25866F000ECF21876F45
:100A4000EED34F66ECD3829A000E82BA010ED66FB7
:100A500035D7010ED56F4F0426E1828C000E82BC83
:100A6000010ED66F010ED76F096A600E086E38EC62
:100A700023F00001CD6FCDA5D2D3096A900E086E88
:100A800038EC23F00001CD6F096A8F0E086E38EC48
:100A900023F00001CF6FCE6BCD51CE25886F000EB5
:100AA000CF21896FBCD34F66BAD3829C000E82BC23
:100AB000010ED66F03D7010ED56F4F0426E1828E4B
:100AC000000E82BE010ED66F010ED76F096A610E4D
:100AD000086E38EC23F00001CD6FCDA5A0D3096AD4
:100AE000920E086E38EC23F00001CD6F096A910E6A
:100AF000086E38EC23F00001CF6FCE6BCD51CE25C0
:100B00008A6F000ECF218B6F8AD34F6688D3829E67
:100B1000000E82BE010ED66FD1D6010ED56F4F04E6
:100B200026E18084000E80B4010ED66F010ED76FCF
:100B3000096A620E086E38EC23F00001CD6FCDA576
:100B40006ED3096A940E086E38EC23F00001CD6F65
:100B5000096A930E086E38EC23F00001CF6FCE6B5C
:100B6000CD51CE258C6F000ECF218D6F58D34F669F
:100B700056D38094000E80B4010ED66F9FD6010E1E
:100B8000D56F4F0426E18082000E80B2010ED66F31
:100B9000010ED76F096A630E086E38EC23F000016E
:100BA000CD6FCDA53CD3096A960E086E38EC23F0C4
:100BB0000001CD6F096A950E086E38EC23F0000134
:100BC000CF6FCE6BCD51CE258E6F000ECF218F6FA4
:100BD00026D34F6624D38092000E80B2010ED66FCA
:100BE0006DD6010ED56F4F0426E18080000E80B0D7
:100BF000010ED66F010ED76F096A640E086E38ECCD
:100C000023F00001CD6FCDA50AD3096A980E086EB6
:100C100038EC23F00001CD6F096A970E086E38ECAE
:100C200023F00001CF6FCE6BCD51CE25906F000E1B
:100C3000CF21916FF4D24F66F2D28090000E80B037
:100C4000010ED66F3BD6D8510E0A01E103D6010A38
:100C500001E137D61F0A01E15FD6010A01E191D611
:100C6000030A01E1C3D6010A01E1F3D6070A01E153
:100C700022D7010A01E151D7030A81E0010AB1E05C
:100C8000CED2170ED865B9D1220ED861B6D197D180
:100C90006CEC23F0EADA3FEC21F001DB38EC23F0D6
:100CA0000001D66F4FA012D08190D76B6881096A7E
:100CB000710E086E38EC23F00001CD6F096A710ED9
:100CC000086E38EC23F0E4DAF9DA06D0FE0E681785
:100CD000030E69178190D76B4FB4D1D5A0D26CECBD
:100CE00023F0C3DA3FEC21F0DADA38EC23F000012C
:100CF000D66F4FA212D08192D76B6883096A720EA9
:100D0000086E38EC23F00001CD6F096A710E086E91
:100D100038EC23F0BDDA0ADB06D0FD0E6817030EAF
:100D200069178192D76B4FA47AD2096A860E086E32
:100D300038EC23F00001CD6F096A850E086E38EC9F
:100D400023F00001CF6FCE6BCD51CE25806F000E0A
:100D5000CF21816F64D26CEC23F087DA3FEC21F075
:100D60009EDA38EC23F00001D66F4FA012D08296A5
:100D7000D76B6885096A760E086E38EC23F000019F
:100D8000CD6F096A750E086E38EC23F081DAA4DAAB
:100D900006D0FB0E6817030E69178296D76B4FB407
:100DA000D0D53DD26CEC23F060DA3FEC21F077DA5D
:100DB00038EC23F00001D66F4FA012D08298D76B89
:100DC0006887096A780E086E38EC23F00001CD6F51
:100DD000096A770E086E38EC23F05ADAAEDA06D0DC
:100DE000F70E6817030E69178298D76B4FB4DED5DC
:100DF00016D26CEC23F039DA3FEC21F050DA38EC03
:100E000023F00001D66F4FA412D0829AD76B688965
:100E1000096A7A0E086E38EC23F00001CD6F096A7A
:100E2000790E086E38EC23F033DA4FDA06D0EF0E85
:100E30006817030E6917829AD76B4FB4ECD5EFD1C0
:100E40006CEC23F012DA3FEC21F029DA38EC23F0D5
:100E50000001D66F4FA012D0829CD76B688B096AB5
:100E60007C0E086E38EC23F00001CD6F096A7B0E12
:100E7000086E38EC23F00CDA3DDA06D0DF0E681786
:100E8000030E6917829CD76B4FB4F7D5C8D16CECB1
:100E900023F0EBD93FEC21F002DA38EC23F000012B
:100EA000D66F4FA012D0829ED76B688D096A7E0ED6
:100EB000086E38EC23F00001CD6F096A7D0E086ED4
:100EC00038EC23F0E5D92BDA06D0BF0E6817030EF5
:100ED0006917829ED76B4FB402D6A1D16CEC23F078
:100EE000C4D93FEC21F0DBD938EC23F00001D66FF8
:100EF0004FA012D08094D76B688F096A800E086E5D
:100F000038EC23F00001CD6F096A7F0E086E38ECD3
:100F100023F0BED9E8D906D07F0E6817030E6917F3
:100F20008094D76B4FB40DD67AD16CEC23F09DD959
:100F30003FEC21F0B4D938EC23F00001D66F4FA07C
:100F400012D08092D76B6981096A820E086E38ECE4
:100F500023F00001CD6F096A810E086E38EC23F092
:100F600097D9D6D904D0020E69178092D76B4FB4A7
:100F70001AD655D16CEC23F078D93FEC21F08FD9FB
:100F800038EC23F00001D66F4FA012D08090D76BC1
:100F90006983096A840E086E38EC23F00001CD6F76
:100FA000096A830E086E38EC23F072D9AAD904D0EE
:100FB000010E69178090D76B4FB427D630D1D85126
:100FC000180A01E165D6010A01E189D6030A01E1A7
:100FD000C2D6010A01E1E6D6070A01E10AD7010AF1
:100FE00001E12ED7030A01E152D7010A01E176D7C8
:100FF0003F0A9BE0010ABEE012D1210ED8650FD155
:101000002E0ED8610CD146EF03F05204531001E0CC
:10101000F1D0140ED861BAD06CEC23F026D93FEC95
:1010200021F03DD938EC23F00001D66F96D0096A43
:10103000720E086E38EC23F00001CD6F096A710E54
:10104000086E38EC23F024D939D9E9D0096A740E36
:10105000086E38EC23F00001CD6F096A730E086E3C
:1010600038EC23F015D962D9DAD0096A760E086E09
:1010700038EC23F00001CD6F096A750E086E38EC6C
:1010800023F006D929D9CBD0096A780E086E38EC3E
:1010900023F00001CD6F096A770E086E38EC23F05B
:1010A000F7D84BD9BCD0096A7A0E086E38EC23F019
:1010B0000001CD6F096A790E086E38EC23F0E8D88C
:1010C00004D9ADD0096A7C0E086E38EC23F000011B
:1010D000CD6F096A7B0E086E38EC23F0D9D80AD997
:1010E0009ED0096A7E0E086E38EC23F00001CD6FA9
:1010F000096A7D0E086E38EC23F0CAD810D98FD05B
:10110000096A800E086E38EC23F00001CD6F096A81
:101110007F0E086E38EC23F0BBD8E5D880D0096A82
:10112000820E086E38EC23F00001CD6F096A810E43
:10113000086E38EC23F0ACD8EBD871D0096A840E75
:10114000086E38EC23F00001CD6F096A830E086E3B
:1011500038EC23F09DD8D5D862D0D851010A01E1EE
:1011600066D7020A01E172D7060A01E17ED7020AB8
:101170008BE00E0A98E0020AA5E0060AB2E0020A35
:10118000BFE01E0ACCE0020AD9E049D0130ED865B0
:1011900046D0280ED86143D06CEC23F066D83FECE3
:1011A00021F07DD838EC23F00001D66FD851150A14
:1011B00002E13FEF04F0020A02E176EF04F00E0ACA
:1011C00002E1A1EF04F0020A02E1D6EF04F0060A00
:1011D00001E121D4020A01E150D43E0A01E17FD4A9
:1011E000020A01E1AED4060A01E1DDD4020A01E1FE
:1011F0000CD515D05250020A531011E1400ED8619F
:101200000ED06CEC23F0990E3AD83FEC21F006ECAE
:1012100012F0990E4CD838EC23F00001D66F000183
:10122000D55121E0430ED825086E096A000E092227
:1012300038EC23F00001D46FD7510BE0D4A713D0C2
:10124000140ECB6F030ECC6FD851F20F6BEC20F065
:101250000AD0D4A908D0140ECB6F040ECC6FD8518D
:10126000F20F6BEC20F0D6511200710E0001D82560
:10127000086E096A000E09224FC00AF0000C000136
:10128000D825086E096A000E09224FC00AF0000C2A
:101290000001CF6FCE6BCD51CE2501011200710E32
:1012A0000001D825086E096A000E0922000C000111
:1012B000D825086E096A000E0922000C006F000193
:1012C000000ECF210101016F1200086F0001000E16
:1012D000CF210101096F1200046F0001000ECF2120
:1012E0000101056F12000E6F0001000ECF210101F8
:1012F0000F6F12000A6F0001000ECF2101010B6F6A
:101300001200126F0001000ECF210101136F1200B5
:10131000106F0001000ECF210101116F12000C6F40
:101320000001000ECF2101010D6F1200026F0001BC
:10133000000ECF210101036F1200066F0001000EA5
:10134000CF210101076F1200F76B096A500E086E7A
:1013500038EC23F00001CD6F096A4F0E086E38ECAF
:1013600023F00001CF6FCE6BCD51CE25F16F000E73
:10137000CF21F26FF96B090EF96501D0D9D100DBED
:1013800001D00CDBCD2FFDD7F151CE17F251CF1785
:10139000CF51CE1101E1A8D0650EF925086E096A7A
:1013A000000E092238EC23F00001F86FF8AFBDD130
:1013B00032D0000E81B0010EF66F41D0000E81B226
:1013C000010EF66F3CD0000E82B6010EF66F37D0DC
:1013D000000E82B8010EF66F32D0000E82BA010EF6
:1013E000F66F2DD0000E82BC010EF66F28D0000ED5
:1013F00082BE010EF66F23D0000E80B4010EF66F90
:101400001ED0000E80B2010EF66F19D0000E80B013
:10141000010EF66F14D0F951CCE0010ACFE0030AB7
:10142000D2E0010AD5E0070AD8E0010ADBE0030AAE
:10143000DEE0010AE1E00F0AE4E0010AE7E0F8A1DA
:1014400017D0F65115E0F9C0CDF062DA11E1F8A538
:1014500008D01E0ECB6F050ECC6FF9516BEC20F04F
:1014600007D0140ECB6F030ECC6FF9516BEC20F04C
:10147000F8B3F66715D0F9C0CDF04ADA11E0F8A557
:1014800008D01E0ECB6F060ECC6FF9516BEC20F01E
:1014900007D0140ECB6F040ECC6FF9516BEC20F01B
:1014A000F8A910D0F6510EE0F9C0CDF031DA02E023
:1014B000F8AB08D0010ECB6F020ECC6FF9516BEC7C
:1014C00020F05582F8B7F66730D1F9C0CDF020DAB8
:1014D00002E1F8AB2AD1010ECB6F020ECC6FF951AD
:1014E0006BEC20F0558421D152DA38EC23F0000166
:1014F000F86FF8AF1AD1F951020DF3507E0FD96E83
:10150000DA6ADE50DD102AE034DADE06000EDD5A3B
:1015100030DADE50DD1037E13ADA38EC23F0000142
:10152000CD6FCDA530D0F9C0CDF0010ECE6FCD2B53
:1015300002D0D890CE37CD2FFCD7CE514F6E000EB3
:1015400086EC1EF00001F8A307D0010ECB6F020E4F
:10155000CC6FF9516BEC20F0558015D0850EF92534
:10156000086E096A000E092238EC23F00001CE6FE4
:10157000CD6B860EF925086E096A000E092238EC3B
:1015800023F00001DFD9FCD901D008DACD2FFDD737
:101590006851CE176951CF17CF51CE1101E1C5D097
:1015A000C8D9DE50DD1001E1A6D00001C2D9DE06A7
:1015B000000EDD5ABED9DE50DD1040E0B6D081A06D
:1015C00002D0819037D08180010EF76F4CD081A27C
:1015D00002D081922FD08182F7D782A602D0829644
:1015E00029D08286F1D782A802D0829823D082881F
:1015F000EBD782AA02D0829A1DD0828AE5D782AC2C
:1016000002D0829C17D0828CDFD782AE02D0829E1D
:1016100011D0828ED9D780A402D080940BD0808440
:10162000D3D780A202D0809205D08082CDD780A06F
:1016300003D08090F76B17D08080C6D70001F95196
:10164000BEE0010AC4E0030AC8E0010ACCE0070AD0
:10165000D0E0010AD4E0030AD8E0010ADCE00F0A76
:10166000E0E0010AE4E07CD938EC23F00001CE6F21
:10167000CD6B76D938EC23F00001CD27000ECE23B8
:1016800058D9CDC0DEFFCEC0DDFFF7512AE07FD9AB
:1016900038EC23F00001CD6FCDA519D0F951020D22
:1016A000850EF324086E000EF420096E38EC23F04A
:1016B0000001CE6FCD6BF951020D860EF324086E3A
:1016C000000EF420096E38EC23F000013BD9F8A796
:1016D0002CD0140ECB6F030ECC6FF9516BEC20F0B5
:1016E00024D0F8A922D0140ECB6F040ECC6FF95180
:1016F0006BEC20F01AD0000133D938EC23F0000154
:10170000CE6FCD6BF951020D720EF324086E000EF0
:10171000F420096E38EC23F00001CD27000ECE2313
:1017200008D9CDC0DEFFCEC0DDFF0001F92B23D6E6
:10173000096A700E086E38EC23F000094FE00001D2
:10174000F36B8030010BCD6F8050010B020DF35015
:10175000CD25F46F8150010BCD6F8130010B020D4F
:10176000F3CFCEF08230E832E832010B040DF3CF34
:10177000CFF08238010B080DF3CFD0F08238E83279
:10178000010B100DF3CFD1F08238E832E832010BB3
:10179000200DF3CFD2F08234E836010B400DF3CFA9
:1017A000D3F08030E832010B800DF350D325D225E1
:1017B000D125D025CF25CE25CD25F56F406A0F0E3A
:1017C0003F6E010E416E79C042F0030E436E446ECF
:1017D000000E466EF30E456E4EEC1FF08150010B6D
:1017E0000001CD6F8130010BCE6FD890CE35CF6F19
:1017F000D06BD0378230E832E832010BD16FD26B38
:10180000D890D137D237D890D137D2378238010B20
:10181000D36FD46BD890D337D437D890D337D4374D
:10182000D890D337D4378238E832010BD56FD66BD6
:10183000D53BD63BF00ED617D5510F0BD613F00E75
:10184000D5178238E832E832010BD76FD86B050E16
:10185000D890D737D837E82EFBD78234E836010B3B
:10186000D96FDA6B060ED890D937DA37E82EFBD766
:101870008030E832010BDB6FDC6B070ED890DB3772
:10188000DC37E82EFBD78030010BDE6FDD6B80503C
:10189000010BDF6FE06B090ED890DF37E037E82EE1
:1018A000FBD7DD51DF25E16FDE51E021E26FDB5137
:1018B000E125E36FDC51E221E46FD951E325E56FC7
:1018C000DA51E421E66FD751E525E76FD851E621DB
:1018D000E86FD551E725E96FD651E821EA6FD3517A
:1018E000E925EB6FD451EA21EC6FD151EB25ED6F77
:1018F000D251EC21EE6FCF51ED25EF6FD051EE219B
:10190000F06FCD51EF256A6F000EF0216B6F120062
:10191000010ECE6FCF6BCD2B03D0D890CE37CF3703
:10192000CD2FFBD76A51CE176B51CF17CF51CE11A8
:101930001200F951020D000EF324D96E010EF420AD
:10194000DA6E1200CD27000ECE23F951020DF350AE
:101950007E0FD96EDA6ACDC0DEFFCEC0DDFF120089
:10196000F951020D710EF324086E000EF420096E79
:101970001200F951020DF3507E0FD96EDA6A12008F
:10198000F9C0CDF0010ECE6FCF6BCD2B12005B0EE8
:10199000F925086E096A000E0922000CD890CE378E
:1019A000CF3712009551941101E1B5D2E4D220EC69
:1019B00021F0E1D2B4EC21F0DED23EEC22F0DBD219
:1019C00059EC21F0D8D292510F0B020A01E0D3D288
:1019D000795120EE98F0DF62CED2800E996112D05C
:1019E00099514FEC17F00001A66F99C0A5F0030EB6
:1019F000A16F820EA06FA26BA36B0A0EA46F2BECDB
:101A000022F0B9D2995124EC18F0EDD792510F0B76
:101A1000030A01E0B0D2795120EE98F0DF62ABD238
:101A2000800E996106D09AC04FF0995111EC03F0E5
:101A3000DBD79AC036F0995198EC1CF0D4D7795185
:101A400020EE98F0DF6297D2000E25EC23F0000123
:101A50009A1901E090D2030E25EC23F000019B19A6
:101A600001E089D2050E25EC23F000019C1901E06C
:101A700082D2070E25EC23F000019D1901E07BD2F4
:101A800053509E1901E077D2525020EE9FF0DF6252
:101A900072D29951BDEC22F06ED2000E25EC23F0EB
:101AA0000001991973E1010E25EC23F000019A1948
:101AB0006DE1020E25EC23F000019B1967E1030E96
:101AC00025EC23F000019C1961E175895FD0040EBB
:101AD00025EC23F00001991959E1050E25EC23F0BE
:101AE00000019A1953E1060E25EC23F000019B1921
:101AF0004DE1070E25EC23F000019C1947E1758BA1
:101B000045D0080E25EC23F0000199193FE1090E9C
:101B100025EC23F000019A1939E10A0E25EC23F097
:101B200000019B1933E10B0E25EC23F000019C19F9
:101B30002DE1758D2BD00C0E25EC23F000019919A9
:101B400025E10D0E25EC23F000019A191FE10E0E80
:101B500025EC23F000019B1919E10F0E25EC23F071
:101B600000019C1913E1758F11D0756B0FD0983956
:101B70000F0BDA6FDB6BDB51F8E1DA518EE0010A13
:101B8000A6E0030ABEE0010AD6E0EFD77551F00BDC
:101B9000F00A01E0F0D1BBEC20F0EDD1795120EE5C
:101BA00098F0DF62E8D1E66B99C0E5F09AC0E8F002
:101BB000F46B42D0070E086EF451DEEC21F0000108
:101BC000DA6FDA51A60FD96EDA6AE551F425CBEC5B
:101BD00022F0DF6E070E086E0001F451DEEC21F0FA
:101BE000060A0BE0FF0E0001E825DA6FDB6BFF0E43
:101BF000DB23F451DA19DB111EE1070E086E000138
:101C0000F451DEEC21F0060A03E1070E000109D0D1
:101C1000070E086E0001F451DEEC21F00001DA6FCE
:101C2000DA29E76FE751810FA06FBCD9E6C0A5F0B4
:101C30002BEC22F0E62BF42BE851F45D01E39BD171
:101C4000B9D7795120EE98F0DF6295D199C0E9F0CB
:101C50009251FE0F070BEA6FEF6B16D0EF519A0F00
:101C6000D96EDA6ADF50D96FE951EF2562EC22F0C4
:101C70000001EF51A60FD96EDA6AE951EF25CBECDE
:101C800022F0DF6E0001EF2BEA51EF5DE7E38AD926
:101C9000A56BEA51810FA06FB2D6795120EE98F072
:101CA000DF6269D199514FEC17F00001DA6FDA2940
:101CB0004F6E995111EC03F097D6795120EE98F0C0
:101CC000DF6259D199514FEC17F00001DA6FDA0554
:101CD0004F6E995111EC03F087D69851791903E0B2
:101CE000982901E048D1EE6B030EA16F880EA06F1A
:101CF000A26BA36B200EA46FF36B5BD9F551A50FFC
:101D0000D96EDA6AEE510F0825EC23F0DF6E000180
:101D1000EE2B100EEE6501D004D0F52B070EF56505
:101D2000EDD7100EEE6501D006D02BEC22F0F32B90
:101D3000020EF365E2D7F56BF551D8EC22F00009FD
:101D400008E0F551A80FD96EDA6AF551D8EC22F007
:101D500005D0F551A80FD96EDA6A000EDF6EF52BAB
:101D6000040EF565E9D72BEC22F0050EEE6F030E9D
:101D7000F36F1FD9F551A50FD96EDA6AEE51D8EC81
:101D800022F0DF6EEE2BF52B070EF565F3D72BEC6B
:101D900022F0F32B060EF365ECD7EDD0795120EE4F
:101DA00098F0DF62E8D0030EA16F870EA06FA26BE0
:101DB000A36B220EA46FA50E73EC22F020D67951EE
:101DC00020EE98F0DF62D7D0F06B92C0DAF00F0E01
:101DD000DA17040EDA5D12E39CC0F1F0F26BF251F7
:101DE000F11103E1010EF26FF16B010EF15D010ED5
:101DF000F25907E3010EF26F000E02D0F26B010EF2
:101E0000F16F52C0E1F053C0E2F0B6D8070EA16FF7
:101E1000BFD8F051F15DDA6F000EF259DB6F040E9E
:101E2000DA5D000EDB5902E3040E02D0F051F15DE1
:101E3000EB6FEB51840FA06F9B51F025A86FEC6BFB
:101E40000CD0EC51A90FD96EDA6A9B51F025EC2524
:101E5000CBEC22F0DF6E0001EC2BEB51EC5DF1E3FB
:101E60002BEC22F0EB51F027A52BF051DA6FDB6B56
:101E7000F151DA5DF251DB59CCE3E1C052F0E2C03E
:101E800053F079D0795120EE98F0DF6274D052C0CF
:101E9000E3F053C0E4F070D89BC0EDF014D09B5138
:101EA0009C08ED25D96EDA6ADF50D96FED5162ECEE
:101EB00022F00001DA6F9B51A908ED25D96EDA6A8C
:101EC000DAC0DFFFED2B92510F0BDA6FDB6B9B510A
:101ED000DA27000EDB23FC0EDA25DC6FFF0EDB2198
:101EE000DD6FED51DE6FDF6BDF51800AE06FDC519B
:101EF000DE5DDD51800AE059D2E3E3C052F0E4C078
:101F000053F0070EA16F92510F0B800FA06F40D8B6
:101F10009BC0A8F074D59651010A01E148D5030A87
:101F200001E148D5040A01E148D50E0A01E148D58E
:101F3000010A01E148D5020A01E168D5070A01E179
:101F40007ED51B0A01E113D60F0A01E127D6010A4B
:101F500001E177D6040A01E1A0D6030A01E1ADD67A
:101F6000010A01E1BAD63E0A01E118D7040A01E1EB
:101F700026D7030A87E012009A5199C0DAF0DB6B8A
:101F8000DAC0DBF0DA6BDA11526EDB51536E1200FD
:101F9000A26BA36B270EA46FA56B99C0A6F09AC085
:101FA000A7F01200070EA16FA26BA36B1A0EA46F0D
:101FB0001A0CF3C0A5F0010EF56F010CDDEC20F05A
:101FC00050EC22F00009D8B4A8EC19F0D4EC13F0CE
:101FD000BBEC20F00400FA0E000177650ED07A0504
:101FE0000CE079696CEC23F0096A010E086EFF0EB3
:101FF0000A683FEC21F0BBEC20F0926BC9EC21F0B9
:10200000BAD1792903E1010E7A6FC5D1030E7A6F37
:1020100083EC22F0C0D1F1EC1EF0BDD192AF08D01C
:102020009551941103E1D2EC0CF002D02BEC15F099
:102030000A0E0001605D000E6159000E6259000E2B
:10204000635901E2A8D1096A500E086E38EC23F0FA
:102050000001FA6F080EFA27096A4F0E086E38EC75
:1020600023F00001FB6FFA2B02D0D890FB37FA2F38
:10207000FCD7FB51FC6F606B616B626B636B70C074
:10208000FAF0010EFB6FFA2B02D0D890FB37FA2F33
:10209000FCD7FB51FC1501E17ED1650E7025086E61
:1020A000096A000E092238EC23F00001FA6FFAAD3C
:1020B00072D1650E7025086E096A000E092238EC8F
:1020C00023F00001FA6FFABF35D165D181B01CD081
:1020D000705193D9DF645FD1705184D938EC23F00B
:1020E0000001FA6FFAA508D0140ECB6F030ECC6F67
:1020F00070516BEC20F04FD11E0ECB6F050ECC6FE4
:1021000070516BEC20F047D17051AD0FD96EDA6A87
:10211000DF6A41D181B2F8D770516FD9DF643BD10A
:10212000705160D938EC23F00001FA6FFAA508D09D
:10213000140ECB6F030ECC6F70516BEC20F02BD1D3
:102140001E0ECB6F050ECC6F70516BEC20F023D1BF
:1021500082B6DAD7705151D9DF641DD1705142D99E
:1021600038EC23F00001FA6FFAA508D0140ECB6FFB
:10217000030ECC6F70516BEC20F00DD11E0ECB6FA7
:10218000050ECC6F70516BEC20F005D182B8BCD736
:10219000705133D9DF64FFD0705124D938EC23F06B
:1021A0000001FA6FFAA508D0140ECB6F030ECC6FA6
:1021B00070516BEC20F0EFD01E0ECB6F050ECC6F84
:1021C00070516BEC20F0E7D082BA9ED7705115D9D0
:1021D000DF64E1D0705106D938EC23F00001FA6FCA
:1021E000FAA508D0140ECB6F030ECC6F70516BECB8
:1021F00020F0D1D01E0ECB6F050ECC6F70516BEC62
:1022000020F0C9D082BC80D77051F7D8DF64C3D02A
:102210007051E8D838EC23F00001FA6FFAA508D025
:10222000140ECB6F030ECC6F70516BEC20F0B3D05B
:102230001E0ECB6F050ECC6F70516BEC20F0ABD047
:1022400082BE62D77051D9D8DF64A5D07051CAD888
:1022500038EC23F00001FA6FFAA508D0140ECB6F0A
:10226000030ECC6F70516BEC20F095D01E0ECB6F2F
:10227000050ECC6F70516BEC20F08DD080B444D73C
:102280007051BBD8DF6487D07051ACD838EC23F0E4
:102290000001FA6FFAA508D0140ECB6F030ECC6FB5
:1022A00070516BEC20F077D01E0ECB6F050ECC6F0B
:1022B00070516BEC20F06FD080B226D770519DD852
:1022C000DF6469D070518ED838EC23F00001FA6FCA
:1022D000FAA508D0140ECB6F030ECC6F70516BECC7
:1022E00020F059D01E0ECB6F050ECC6F70516BECE9
:1022F00020F051D080B008D770517FD8DF644BD028
:10230000705170D838EC23F00001FA6FFAA508D0AC
:10231000140ECB6F030ECC6F70516BEC20F03BD0E2
:102320001E0ECB6F050ECC6F70516BEC20F033D0CE
:10233000706B31D0705101E1C9D6010A01E1EAD6D2
:10234000030A01E105D7010A01E120D7070A01E1EB
:102350003BD7010A01E156D7030A01E171D7010A0F
:102360008DE00F0AA9E0010AC5E0E2D76FEC23F087
:1023700012D07A6B10D000017A5101E142D6010AE5
:1023800001E149D6030A01E143D6010A01E146D63B
:10239000070AECE0EED7E90E0001645D030E655913
:1023A000000E6659000E67590CE3646B656B666B33
:1023B000676B742B94EC20F07A51030AD8B4A4EC28
:1023C00009F03B0E73650BD0736B722B3B0E72657D
:1023D00002D0726B712B170E716501D0716B71ECAD
:1023E00023F0F8D5AD0FD96EDA6ADF6A5B0E70257F
:1023F000086E096A000E0922000CAD0FD96EDA6A68
:10240000DF2A7051AD0FD96EDA6A030C366837686F
:10241000386839683A6A3B6A3C6A3D6A436A4350A5
:1024200072D9440E1224086E000E1320096E38EC87
:1024300023F0146E14AE1AD1435065D9470E1224FE
:10244000086E000E1320096E38EC23F068D9450E93
:102450001924086E000E1A20096E38EC23F034D9C6
:1024600038EC23F0226E020E221622C023F0246ADA
:10247000256A266A170ED890233624362536263646
:10248000E82EF9D71C5065D9FF0E2B10316E2C5059
:10249000326E2D50336E2E50346E435034D9480E68
:1024A0001224086E000E1320096E38EC23F037D981
:1024B000460E1924086E000E1A20096E38EC23F01F
:1024C00003D938EC23F0226E010E221622C023F02D
:1024D000246A256A266A23C026F0256A246A236AAC
:1024E0001C5037D943502F6E306AD8902F36303673
:1024F000D8902F363036D8902F363036430E2F24D2
:10250000086E000E3020096E38EC23F02B103E6E62
:102510002C503F6E2D50406E2E50416E436608D0B9
:102520003EC03AF03FC03BF040C03CF041C03DF0FF
:10253000315036163250371633503816345039165B
:10254000426A42503EC012F03FC013F040C014F047
:1025500041C015F0E82A05D0D89015321432133254
:102560001232E82EF9D7010E121642503AC016F078
:102570003BC017F03CC018F03DC019F0E82A05D068
:10258000D8901932183217321632E82EF9D7165071
:10259000010B121810E042C012F0FDD801D000D992
:1025A000122EFDD7131C156E141C166E176A16BE5C
:1025B00017061750E6D8422A1F0E4264C2D73E5073
:1025C0003A163F503B1640503C1641503D16435082
:1025D00042E0426A43C012F04350136E146AD8902E
:1025E00013361436D89013361436D8901336143662
:1025F000430E1324086E000E1420096E38EC23F0ED
:10260000156E122A02D0D8901532122EFCD7010E68
:10261000151643C016F035C017F0162A02D0D89010
:102620001732162EFCD71750010B151810E043C0B7
:1026300012F0B1D801D0B4D8122EFDD713C015F0C6
:1026400014C016F0000E16BEFF0E176E9AD8422A5E
:10265000070E4264BFD7435056D8430E1224086E6B
:10266000000E1320096E38EC23F0356E432A070E56
:102670004364D5D6800EE4EC22F00F010F0E096EF4
:102680001C0E086E36C00AF037C00BF038C00CF0D4
:1026900039C00DF0010E0E6E0EEC1CF00D01D4834E
:1026A0000F010F0E096E040E086E3AC00AF03BC00F
:1026B0000BF03CC00CF03DC00DF0010E0E6E0EECA8
:1026C0001CF0000EE4EF22F01B6E1BC01CF01D6A14
:1026D0001E6A1F6A1DC01FF01CC01EF01D6A1C6A06
:1026E0004350206E216AD89020362136D89020366B
:1026F0002136D89020362136440E2024086E000E54
:102700002120096E1200126E136AD8901236133609
:10271000D89012361336D890123613361200146E33
:1027200014C015F0166A176A186A17C018F016C098
:1027300017F015C016F0156A4350196E1A6AD89032
:1027400019361A36D89019361A36D89019361A36DC
:1027500012002310276E1D502410286E1E502510C5
:10276000296E1F5026102A6E155027102B6E1650FA
:1027700028102C6E175029102D6E18502A102E6E0E
:102780001200186E15503616165037161750381698
:10279000185039161200010E136E146A122A120014
:1027A000D8901336143612000001646B656B666BAB
:1027B000676B736B726B716B686B696B0101010EF8
:1027C000096E000E41D988EC21F00001000E096E5F
:1027D0007E0E3AD988EC21F0356A5B0E3524086EFE
:1027E000096A000E092238EC23F0106E10A02CD0DC
:1027F00035C010F0010E116E126A102A03D0D89065
:1028000011361236102EFBD71150000168131250EA
:102810006913710E3524086E096A000E092238EC1E
:1028200023F009D938EC23F01026000E1122355080
:10283000020D0101000EF324D96E010EF420DA6EB0
:1028400010C0DEFF11C0DDFF600E3524086E096A7E
:10285000000E092238EC23F0106E10A419D0710E6E
:102860003524086E096A000E092238EC23F0E3D8FB
:1028700038EC23F01026000E11223550020DF350D3
:1028800000017E0FD96EDA6A10C0DEFF11C0DDFFD5
:10289000352A090E3564A1D7096A4F0E086E38EC47
:1028A00023F0346E3450030B926E096A500E086E9A
:1028B00038EC23F0346E3450030B0809936E096A28
:1028C0006F0E086E38EC23F0106E10B0F19E096A9E
:1028D000500E086E38EC23F0106ED8901034F80BC0
:1028E000346E34500109946E0001000E096EAD0E75
:1028F000086E0B6A0A6A0D6A0A0E0C6E88EC21F0EB
:102900000001706B8150010B106E8130010B116E54
:10291000D8901134126E136A13368230E832E832DE
:10292000010B146E156AD89014361536D8901436EB
:1029300015368238010B166E176AD8901636173680
:10294000D89016361736D890163617368238E832B1
:10295000010B186E196A183A193AF00E1916185028
:102960000F0B1912F00E18168238E832E832010BFC
:102970001A6E1B6A050ED8901A361B36E82EFBD746
:102980008234E836010B1C6E1D6A060ED8901C3688
:102990001D36E82EFBD78030E832010B1E6E1F6A11
:1029A000070ED8901E361F36E82EFBD78030010B5D
:1029B000216E206A8050010B226E236A090ED89086
:1029C00022362336E82EFBD720502224246E2150B5
:1029D0002320256E1E502424266E1F502520276E8E
:1029E0001C502624286E1D502720296E1A5028249A
:1029F0002A6E1B5029202B6E18502A242C6E195039
:102A00002B202D6E16502C242E6E17502D202F6E3D
:102A100014502E24306E15502F20316E1250302459
:102A2000326E13503120336E105032246A6F000E14
:102A300033206B6F1200116E106A720E3524086E0F
:102A4000096A000E0922000C086E0B6A0A6A0D6AF8
:102A5000140E0C6E140C9551941101E105D1E36B29
:102A6000E3510DD99A0ED225086E000ED321096EBE
:102A700038EC23F00001E26FE2AFF1D0E2AD0ED00E
:102A8000E351FDD8990ED225086E000ED321096EB0
:102A900038EC23F00001971901E0E1D0E2A90BD056
:102AA000992909E0096A430E086E38EC23F0000109
:102AB000991901E0D4D0E2A70BD09A2909E0096A5C
:102AC000440E086E38EC23F000019A1901E0C7D0DB
:102AD000E351080D9C0EF324086E000EF420096EDD
:102AE00038EC23F00001D26FE251010BD46FD36BAD
:102AF000D251D325D56F000ED421D66FE351080DE6
:102B00009B0EF324086E000EF420096E38EC23F0BF
:102B10000001D26FE251020BD36FD46B070ED89035
:102B2000D337D437E82EFBD7D251D325D76F000E39
:102B3000D421D86FE351080D9E0EF324086E000EC9
:102B4000F420096E38EC23F00001D96FE351080D31
:102B50009D0EF324086E000EF420096E38EC23F06D
:102B60000001DA6F20EE94F0DECFD2F0DDCFD3F0AB
:102B7000D551D21BD651D31BD751D217D851D31709
:102B8000D351D2116CE19651D919DA154EE067D0C4
:102B90006CD838EC23F00001DB6FDBC04FF0E25162
:102BA000EEEC1AF05CD061D838EC23F00001DC6F59
:102BB000DCC04FF0E25186EC1EF051D056D838EC14
:102BC00023F00001DD6FDDC04FF0E25154EC1AF04C
:102BD00046D04BD838EC23F00001DE6FDEC04FF05A
:102BE000E2511BEC1DF03BD040D838EC23F0000143
:102BF000DF6FDFC04FF0E25117EC1EF030D035D858
:102C000038EC23F00001E06FE0C0CDF0E251A1EC20
:102C100022F025D02AD838EC23F00001E16FE1C082
:102C20004FF0E2519BEC1DF01AD0E351080D9F0EBE
:102C3000F324086E000EF420096E38EC23F0000A2D
:102C40000EE0010AA5E0030AAEE0010AB7E0070AB8
:102C5000C0E0010ADFE0030AC7E0010AD0E000019A
:102C6000E32B070EE365FCD612000001E351080DCB
:102C7000A00EF324086E000EF420096E1200D26F2D
:102C8000D36BD890D237D337D890D237D337D890A8
:102C9000D237D3371200E8CF14F0546A7750C00B04
:102CA000166E166632D060AE12D0A49074AE06D006
:102CB0001150D96EDA6A000EDB86749E60A002D0D5
:102CC000548001D054900F0E196E600E1AD00F016F
:102CD00050AF19D0A49274AC06D01150D96EDA6AF4
:102CE000000EDB86749C5051070B546E020E54602C
:102CF00005D01150D96EDA6A000EDB8E0F0E196EF8
:102D0000500E186E65D0000EC2D01650400A46E133
:102D100060AE04D00F0E196E600E3ED00F0150AFA2
:102D200004D00F0E196E500E37D00D01F8B507D034
:102D30000E0120AF04D00E0E196E200E2DD00D0105
:102D4000F8B707D00E0130AF04D00E0E196E300E5A
:102D500023D00D01F8B907D00E0140AF04D00E0EFC
:102D6000196E400E19D00D01F8BB05D00E0150AF01
:102D700002D00E0ED7D70D01F8BD05D00E0160AF01
:102D800002D00E0EC8D70D01F8BFBDD70E0170AF2F
:102D9000BAD70E0E196E700E186E0AD074AEB3D775
:102DA0006F50070B30EC20F008C018F009C019F084
:102DB00018C0D9FF19C0DAFFDF501F0B546EA49260
:102DC00074AC06D01150D96EDA6A000EDB86749CA2
:102DD00018C012F019C013F01150D96EDA6ADF6A08
:102DE00020EE05F055D81050D96EDA6A17500F0B47
:102DF000DF6E17AC05D01150D96EDA6A000EDB8C8D
:102E000020EE02F045D817A608D01150D96EDA6A24
:102E1000000EDB8A010E176E01D0176A1828086EA3
:102E2000000E1920096E14C00AF017C00BF07FECD9
:102E30001BF0060E1826000E19221050D96EDA6A01
:102E4000DF50176E156A0DD018C0D9FF19C0DAFF10
:102E50000F50E16EE26ADFCFE7FF184A192A0F2A06
:102E6000152A1750155CF0E3A4AE06D01150D96EA8
:102E7000DA6A000EDB88A49E12C0D9FF13C0DAFF05
:102E80007F0EDF161650800AD8B4749E010E120011
:102E90001850D9261950DA22DF50176E1200E8CFE9
:102EA00012F0116A5350521001E0ADD0126606D0F4
:102EB000096A430E086E38EC23F0C3D0120406E111
:102EC000096A440E086E38EC23F0BBD0010E126480
:102ED0000CD00C0E126009D0430E1224086E096A41
:102EE000000E092238EC23F0ACD012500C0A08E195
:102EF0009230010B0A6E9250010B020DF35035D047
:102F000012500D0A34E19350010B0A6E9330010BFD
:102F1000020DF3CF0BF09430E832E832010B040DD0
:102F2000F3CF0CF09438010B080DF3CF0DF094386B
:102F3000E832010B100DF3CF0EF09438E832E8328E
:102F4000010B200DF3CF0FF09434E836010B400D48
:102F5000F3CF10F09230E832010B800DF3501024C3
:102F60000F240E240D240C240B240A246AD00D0EE9
:102F7000126442D0180E12603FD028D0000E81B0EB
:102F8000010E5FD0000E81B2010E5BD0000E82B642
:102F9000010E57D0000E82B8010E53D0000E82BA37
:102FA000010E4FD0000E82BC010E4BD0000E82BE2F
:102FB000010E47D0000E80B4010E43D0000E80B247
:102FC000010E3FD0000E80B0010E3BD012500E0A11
:102FD000D5E0010AD7E01F0AD9E0010ADBE0030AC5
:102FE000DDE0010ADFE0070AE1E0010AE3E0030AAD
:102FF000E5E0010AE7E026D0170E126423D02E0E7A
:10300000126020D069D7520453100CE1280E1260D0
:1030100019D0710E1224086E096A000E092238ECCC
:1030200023F00FD05250020A53100CE1400E1260F0
:1030300009D0990E1224086E096A000E092238EC94
:1030400023F0116E11501200E8CF1CF01B6A1C50C7
:10305000800A04E155C01BF0556AB3D01C50810AA8
:1030600002E1010E75D01C50820A02E1050E70D0FB
:103070001C50830A02E11B6AA4D01C50940A03E18D
:1030800077EC23F065D01C50950A03E176EC23F031
:103090005FD01C50960A03E175EC23F059D0890EDD
:1030A0001C6005D01C507C0F1BEC23F051D0880E07
:1030B0001C6408D0910E1C6005D01C50770F11ECD9
:1030C00023F046D01C50910A03E179C01BF079D05F
:1030D0001C50930A03E152C01BF073D01C50920A9B
:1030E00002E1535035D01C50970A03E174EC23F0F1
:1030F0002FD01C50980A03E173EC23F029D01C5008
:10310000990A03E172EC23F023D0990E1C6422D0BB
:103110009E0E1C601FD059EC23F00BC014F00AC0A7
:1031200013F009C012F008C011F01C50660F196EA0
:10313000195049D811C00DF012C00EF013C00FF095
:1031400014C010F0E82A01D048D8E82EFDD724D0CA
:103150001B6E37D09D0E1C6421D0A20E1C601ED0A9
:1031600054EC23F00BC018F00AC017F009C016F099
:1031700008C015F01C50620F1A6E1A5024D815C0E2
:103180000DF016C00EF017C00FF018C010F0E82AAE
:1031900001D023D8E82EFDD70D50DAD7CF0E1C640E
:1031A00008D0E00E1C6005D01C50300F25EC23F039
:1031B000CFD7DF0E1C6405D01C50200FD8EC22F0B6
:1031C000C7D71B50120003080C6ED8900C36D8904D
:1031D0000C36D8900C360C501200D89010320F32AA
:1031E0000E320D3212000F0E1C6E400E1B6E0F0EB3
:1031F0001E6E300E1D6E0F0E206E200E1F6E0E0EF8
:10320000226E200E216E0E0E246E300E236E0E0ED8
:10321000266E400E256E0E0E286E500E276E0E0E78
:103220002A6E600E296E0E0E2C6E700E2B6E77506D
:10323000C00B2D6E2D6602D0020E01D0080E2E6E30
:103240000D01D890F831306E346A7DD03450020DC3
:10325000F3501B0FD96EDA6ADECF35F0DDCF36F0D2
:1032600035C031F036C032F0020E346404D0D8904C
:10327000303230A067D035C0D9FF36C0DAFFDF501A
:103280001A6E1AB65FD035C0D9FF36C0DAFFFC0E11
:10329000DF1619C01AF0030E1A1635C0D9FF36C052
:1032A000DAFF1A50DF1219AC04D018504009336EFF
:1032B00002D018C033F020EE05F03550D926365034
:1032C000DA2233C0DFFF19AA03D0010E336E01D01A
:1032D000336A3528086E000E3620096E12C00AF0D7
:1032E00013C00BF014C00CF015C00DF033C00EF07D
:1032F0000EEC1CF0060E3526000E36222F6A0FD07B
:1033000016C0D9FF17C0DAFF35C0E1FF36C0E2FFB3
:10331000DFCFE7FF164A172A354A362A2F2A1850D8
:103320002F5CEEE331C0D9FF32C0DAFFDF501A6EF6
:103330001AB406D031C0D9FF32C0DAFF000EDB86E6
:10334000010E05D0342A2E50345C80E3000E1200AA
:103350006CEC23F0096A430E086E000E0A6A3FEC1B
:1033600021F06CEC23F0096A440E086E000E0A6A24
:103370003FEC21F00F6A6CEC23F0450E0F24086E31
:10338000096A000E09220FC00AF03FEC21F00F2A53
:10339000090E0F64F0D76CEC23F0096A4F0E086E2B
:1033A000000E0A6A3FEC21F06CEC23F0096A500E23
:1033B000086E000E0A6A3FEC21F00F6A6CEC23F0F5
:1033C0005B0E0F24086E096A000E0922980E0A6E21
:1033D0003FEC21F00F2A090E0F64F0D70F6A6CEC56
:1033E00023F0650E0F24086E096A000E0922830E71
:1033F0000A6E3FEC21F00F2A090E0F64F0D76CEC37
:1034000023F0096A6F0E086E000E0A6A3FEC21F085
:103410006CEC23F0096A700E086E000E0A6A3FEC2D
:1034200021F00F6A6CEC23F0710E37D83FEC21F0DD
:103430000F2A130E0F64F6D70F6A6CEC23F0850E7B
:103440002CD83FEC21F00F2A130E0F64F6D70F6A29
:103450000E6A6CEC23F00E500FC00CF00D6AD89081
:103460000C360D36D8900C360D36D8900C360D36FD
:103470000C26000E0D22990E0C24086E000E0D2055
:10348000096E000E0A6A3FEC21F00E2A070E0E6448
:10349000E0D70F2A0F64DCD7070C0F24086E096AE7
:1034A000000E09220A6A000C516A090E4F6401D00D
:1034B00094D05B0E4F24086E096A000E092238EC86
:1034C00023F0506E50AE89D039D081A002D0010EC9
:1034D000516E819047D081A202D0010E516E81922F
:1034E00041D082A602D0010E516E82963BD082A8B6
:1034F00002D0010E516E829835D082AA02D0010E00
:10350000516E829A2FD082AC02D0010E516E829CF5
:1035100029D082AE02D0010E516E829E23D080A4AB
:1035200002D0010E516E80941DD080A202D0010EF7
:10353000516E809217D080B0F4D7F5D74F50C5E0C8
:10354000010AC9E0030ACDE0010AD1E0070AD5E08B
:10355000010AD9E0030ADDE0010AE1E00F0AE5E033
:10356000010AE9E05150D8A450A808D0140E000177
:10357000CB6F040ECC6F4F506BEC20F04FC0CDF0F2
:10358000010E0001CE6FCF6BCD2B03D0D890CE377C
:10359000CF37CD2FFBD7CE516813CF516913720EA1
:1035A0004F24086E096A000E092238EC23F000014E
:1035B000CD6F710E4F24086E096A000E092238EC97
:1035C00023F00001CF6FCE6BCD51CE250101006FEE
:1035D0000001000ECF210101016F1200CE6B090E18
:1035E0004F6401D08BD05B0E4F24086E096A000E29
:1035F000092238EC23F00001CD6FCDAF7FD039D058
:1036000081B002D0010ECE6F818047D081B202D04E
:10361000010ECE6F818241D082B602D0010ECE6FF4
:1036200082863BD082B802D0010ECE6F828835D020
:1036300082BA02D0010ECE6F828A2FD082BC02D015
:10364000010ECE6F828C29D082BE02D0010ECE6FC9
:10365000828E23D080B402D0010ECE6F80841DD024
:1036600080B202D0010ECE6F808217D080A0F4D736
:10367000F5D74F50C5E0010AC9E0030ACDE0010AC1
:10368000D1E0070AD5E0010AD9E0030ADDE0010A2A
:10369000E1E00F0AE5E0010AE9E0CDA524D04F50B2
:1036A000020D850EF324086E000EF420096E38EC2E
:1036B00023F0516E506A4F50020D860EF324086EAF
:1036C000000EF420096E38EC23F05026000E512233
:1036D0004F50020DF35000017E0FD96EDA6A50C0D0
:1036E000DEFF51C0DDFFCE51D8A4CDA707D0140E08
:1036F000CB6F030ECC6F4F506BEC20F012000AC062
:103700000EF00B662BD00E50D96E62D80C36D890C6
:103710000C36D8900C34DF6E0E50D96EDA6AD92A86
:10372000DA6A73D8D8900C320D2EFCD70C5059D8C9
:10373000050E0D6ED8900C320D2EFCD70E50D96EA2
:10374000DA6A0C50DF123DD8DF6A0E50D96EDA6AA1
:10375000030ED926DA6A000EDF6E32D032D855D881
:10376000D8900C360D2EFCD70C50DF6E0E50D96E53
:10377000DA6A030ED9262CD80C32D8900C32D890A5
:103780000C302FD8030E0C161CD80C50DF1208C0BA
:10379000D9FF09C0DAFFDF500C6ED8900C32D890F8
:1037A0000C32D8900C321C0E0C160BD80C50DF12B9
:1037B00022D8E12AE26ADFCFE7FF1DD8DFCFE7FF9B
:1037C00012000E50D96EDA6A020ED926DA6A120099
:1037D000DA6A08C0E1FF09C0E2FFE7500C6ED8903A
:1037E0001200DF6E084A092A08C0D9FF09C0DAFFB3
:1037F000DF500C6E1200084A092A08C0D9FF09C020
:10380000DAFF0E50E16EE26A120008C0E1FF09C063
:10381000E2FFE7500C6E050E0D6E050C0A0E116EE0
:103820000E6622D01150D96EDA6ADF500F6ED89032
:103830000F32D8900F32D8900F3062D8D92ADA6A76
:1038400072D8D8900F36102EFCD708C0D9FF46D8B2
:103850006AD8D8900F36102EFCD70F5008C0D9FF69
:1038600009C0DAFFDF6E39D0115042D8050E106E54
:10387000D8900F32102EFCD70F5042D8030E49D8E3
:103880000F3608C0D9FF2AD8020E43D80F34E00BF8
:1038900008C0D9FF09C0DAFFDF6E08C0D9FF09C030
:1038A000DAFF000EDB86115023D8030E0F1608C076
:1038B000D9FF14D8D92ADA6A08C0E1FF09C0E2FFAB
:1038C000DFCFE7FF084A092A1150D96EDA6A08C02B
:1038D000E1FF09C0E2FFDFCFE7FF120009C0DAFF16
:1038E0000F50DF12084A092A1150D96EDA6A120005
:1038F000D96EDA6A020ED926DA6ADF500F6E12002C
:1039000008C0D9FF09C0DAFFDF6E1150D96EDA6A3C
:103910001200D926DA6ADF500F6ED8900F36D89091
:103920000F36D8901200DF500F6E050E106E050C8A
:10393000E8CF3CF0361C3B6E830E3C640ED0890E03
:103940003C600BD036C00CF03C507C0FAFEC22F04A
:103950003C507C0F1BEC23F069D03C50920A0DE1E7
:103960003650386E376A5250396E3A6A3710526E96
:1039700038503A10536E535059D03C50930A0BE1D3
:10398000376A5350386E36503710526E3850536E77
:1039900052C03BF04ED0880E3C6419D0910E3C6072
:1039A00016D053C037F037C038F0396A382802E1F2
:1039B000522802E0361C3AD036C00CF03C50770F4B
:1039C00005EC22F03C50770F11EC23F02FD0CF0EF6
:1039D0003C6417D0E00E3C6014D053C037F037C0C1
:1039E00038F0396A3828E6E15228E4E136C00CF0B4
:1039F0003C50300F18EC22F03C50300F25EC23F0F7
:103A000015D03C50A20AD6E13650550A04E16C6B41
:103A10006D6B550E0BD03650AA0A0BE1E80E6C5DAB
:103A2000030E6D5905E268EC23F0AA0E3B6E01D03F
:103A30003B6A3B501200516A090E4F6401D07AD0A4
:103A40005B0E4F24086E096A000E092238EC23F041
:103A5000506E50AE6FD039D081A002D0010E516EA1
:103A6000819047D081A202D0010E516E819241D047
:103A700082A602D0010E516E82963BD082A802D05F
:103A8000010E516E829835D082AA02D0010E516E7D
:103A9000829A2FD082AC02D0010E516E829C29D026
:103AA00082AE02D0010E516E829E23D080A402D03D
:103AB000010E516E80941DD080A202D0010E516E75
:103AC000809217D080B0F4D7F5D74F50C5E0010AE7
:103AD000C9E0030ACDE0010AD1E0070AD5E0010AF6
:103AE000D9E0030ADDE0010AE1E00F0AE5E0010A9E
:103AF000E9E05150D8A450A808D0140E0001CB6FB3
:103B0000040ECC6F4F506BEC20F04FC0CDF0010E87
:103B10000001CE6FCF6BCD2B03D0D890CE37CF37EF
:103B2000CD2FFBD7CE1DD06FCF1DD16FD0516817D1
:103B3000D15169171200516A090E4F6401D076D035
:103B40005B0E4F24086E096A000E092238EC23F040
:103B5000506E50AE6BD03FD081A002D0819037D054
:103B60008180010E516E4BD081A202D081922FD064
:103B70008182F7D782A602D0829629D08286F1D799
:103B800082A802D0829823D08288EBD782AA02D062
:103B9000829A1DD0828AE5D782AC02D0829C17D04F
:103BA000828CDFD782AE02D0829E11D0828ED9D78E
:103BB00080A402D080940BD08084D3D780A202D07E
:103BC000809205D08082CDD780A003D08090516AAA
:103BD00016D08080C6D74F50BFE0010AC5E0030A67
:103BE000C9E0010ACDE0070AD1E0010AD5E0030AE5
:103BF000D9E0010ADDE00F0AE1E0010AE5E05150F9
:103C00000BE050A613D0140E0001CB6F030ECC6F47
:103C10004F506BEC20F00AD050A808D0140E0001D1
:103C2000CB6F040ECC6F4F506BEC20F01200516A3A
:103C3000090E4F6401D069D05B0E4F24086E096AEB
:103C4000000E092238EC23F0506E50AE5ED032D018
:103C5000000E81B0010E516E41D0000E81B2010EF6
:103C6000516E3CD0000E82B6010E516E37D0000E60
:103C700082B8010E516E32D0000E82BA010E516E22
:103C80002DD0000E82BC010E516E28D0000E82BED7
:103C9000010E516E23D0000E80B4010E516E1ED065
:103CA000000E80B2010E516E19D0000E80B0010ED0
:103CB000516E14D04F50CCE0010ACFE0030AD2E09D
:103CC000010AD5E0070AD8E0010ADBE0030ADEE0DA
:103CD000010AE1E00F0AE4E0010AE7E051500BE0DD
:103CE00050A813D0140E0001CB6F040ECC6F4F50B0
:103CF0006BEC20F00AD050A808D0140E0001CB6F56
:103D0000040ECC6F4F506BEC20F01200516A090E7C
:103D10004F6401D065D05B0E4F24086E096A000E17
:103D2000092238EC23F0506E50AE5AD039D081A021
:103D300002D0010E516E819047D081A202D0010EB7
:103D4000516E819241D082A602D0010E516E8296B0
:103D50003BD082A802D0010E516E829835D082AA43
:103D600002D0010E516E829A2FD082AC02D0010E89
:103D7000516E829C29D082AE02D0010E516E829E7D
:103D800023D080A402D0010E516E80941DD080A259
:103D900002D0010E516E809217D080B0F4D7F5D7C3
:103DA0004F50C5E0010AC9E0030ACDE0010AD1E0A5
:103DB000070AD5E0010AD9E0030ADDE0010AE1E0E3
:103DC0000F0AE5E0010AE9E05150D8A450A808D054
:103DD000140E0001CB6F040ECC6F4F506BEC20F033
:103DE000120053D0572810E0810EA06FA16BA26B78
:103DF000A36B020EA46F57C0A5F02BEC22F0010EAE
:103E00007B6F6E6B6F6B48D0040E7A6F810EA06F64
:103E1000A569070EA16FA26BA36B030EA46F2BEC19
:103E200022F03AD092AF0FD09551941135E19651CE
:103E3000030A32E1576603D0020E7A6FE2D7572A9F
:103E40007B6B7C6B29D0E90E6E5D030E6F5924E30A
:103E50007C2B020E7C6517D0576605D0572A7B6BEA
:103E60006E6B6F6BEED757C079F0030E7A6F7B6B7A
:103E7000795106EC23F0400EFBEC22F000017C6B44
:103E800083EC22F009D07B6B07D000017B51AAE0C4
:103E9000010AC8E0030AF7E1926B120041C0B7F0D3
:103EA000B86BB96BBA6BB9C0BAF0B8C0B9F0B7C0EB
:103EB000B8F0B76B3F50BB6F4050BC6FBD6BBE6B73
:103EC000BCC0BEF0BBC0BDF0BC6BBB6B43C0BFF0A1
:103ED000C06BC16BC26B1A0ED890BF37C037C137E9
:103EE000C237E82EF9D7BB51BF11C36FBC51C01107
:103EF000C46FBD51C111C56FBE51C211C66FB7515C
:103F0000C311C76FB851C411C86FB951C511C96F7A
:103F1000BA51C611CA6F4250C711476EC851486E98
:103F2000C951496ECA514A6E47C037F048C038F08F
:103F300049C039F04AC03AF044C03BF045C03CF0BB
:103F400046C03DF0FFEC20F00009000ED8A4010EA1
:103F50001200800EE4EC22F0090E706EFC0E716E01
:103F6000010E726E200E736E778E779C606A0F0161
:103F7000506B0E01206B306B406B506B606B706B45
:103F8000E00E0D01F86F0F01006B080E016F026B60
:103F9000036B046BE80E056F1A0E066F076B030EBA
:103FA0000D01D46FD56BE06B110EE16FE26FE36B27
:103FB000E46BE56BE66BE76B540EF06F050EF16F8B
:103FC000F26BF26B0F0E0F01186FE00E196F1A6B88
:103FD0001B6B19870F0E1C6FE00E1D6F1E691F6B88
:103FE0001D87000EE4EF22F0E8CF27F021C01AF081
:103FF00022C01BF0280E9EEC21F0000902E1000E09
:104000002ED01F50D96EDA6A28C0DFFF1E50D96E3D
:10401000DA6A29C0DFFF2A50236E010E2B14246EAA
:104020002750D96EDA6A23C0DEFF24C0DDFF20509E
:10403000D96EDA6A28C023F029C024F02AC025F0FE
:104040002BC026F01B0E05D0D89026322532243204
:104050002332E82EF9D72350070BDF6E010E120032
:10406000E8CF0BF024D00F0E0D6E600E1ED00F01A6
:104070000F0E0D6E500E19D00E010E0E0D6E200E8D
:1040800014D00E010E0E0D6E300E0FD00E010E0E5E
:104090000D6E400E0AD00E010E0EEBD70E010E0E65
:1040A000E3D70E010E0E0D6E700E0C6E0FD00B507E
:1040B000DAE0010ADCE0030ADFE0010AE2E0070AD5
:1040C000E5E0010AE8E0030AE9E0EBD70CC008F0FC
:1040D0000DC009F01200E8CF4EF04EC04BF0096A57
:1040E000430E086E38EC23F04C6E450E4E24086EDD
:1040F000096A000E092238EC23F04D6E0001CBC096
:104100003FF0406ACCC041F079C042F0030E436EEC
:10411000446E4B0E456E000E466E0F0E466E5F0EE1
:104120004564466A4EEF1FF07D2B3B0E7D650DD03A
:104130007D6B782B7A51030A08E14AEC23F00001E9
:10414000CB6F4FEC23F0F2EC21F03B0E786502D000
:10415000786B762B170E766501D0766B7A51030A51
:1041600009E1752B75C04DF00F0E4D16020E4D5C1A
:10417000D8B0756B1200020E566E5EEC23F0000193
:10418000796F796701D07969926B936B946B956BBA
:10419000966BA06BA16BA26BA36BA46B556A576A5D
:1041A0007A6B7B6B7C6B526A536A6E6B6F6B6C6B5A
:1041B0006D6B7D6B786B766B12000F0EC16E926A21
:1041C000806A080E936E816A010E946E826A920E66
:1041D00092EC22F0FB0E096E1D0E086E2FEC23F000
:1041E0008190819282968298829A829C829E80940B
:1041F00080928090A9EC1FF0F28CF28E12003E6A41
:10420000746B17D037C012F038C013F039C014F0F7
:104210003AC015F03CC016F03DC017F03BC018F096
:10422000200E196EF3EC18F0000903E0010E3E6E4B
:1042300003D000017451E6E00001A06B3E50120073
:1042400063EC23F0000916E1000192510F0B050AFF
:1042500015E163EC23F00001981910E09851FBEC94
:1042600022F000017969FF0E06EC23F0010E000137
:104270007A6F04D000019851FBEC22F0120008C0C4
:10428000A9FF0AC0A8FFA69EA69CA684000EF2BEA7
:10429000010E0B6EF29E550EA76EAA0EA76EA68299
:1042A000A6B2FED70BB002D0F29E01D0F28EA69439
:1042B000120092510F0B0D6E0D5012E0795120EE4D
:1042C00098F0DF620DD00D0405E0010E0D6408D0FA
:1042D000996706D07969FF0E06EC23F0BBEC20F05D
:1042E000120001EE00F0140EEE6AE806FDE100EEA9
:1042F00060F0570EEE6AE806FDE100EE52F0070EA0
:10430000EE6AE806FDE1000EF86E0001DEEF0FF048
:1043100008C00EF009C00FF008D00EC0D9FF0FC0C2
:10432000DAFF0AC0DFFF0E4A0F2A0C06D8A00D06DE
:104330000C28D8B40D28D8B41200EFD7E8CF1CF061
:1043400092AF02D0000E0FD01BC00FF01AC010F0B9
:104350001D0E116E1C504BEC16F00009F3E01DAC65
:104360001DAAF0D7010E120092C04CF00F0E4C1691
:104370004C040EE1795120EE98F0DF6209D0800EF6
:10438000A06FA16BA26BA36B030EA46F2BEC22F0AA
:10439000120092BF12D0960E1E6E970E1F6E930ED5
:1043A000206E920E216E980E226E940EF4EC1FF089
:1043B0002C6E2C5002E00001928F1200E8CF09F021
:1043C000080E0A6E0B6AD89009340B340B6ED89025
:1043D000093608500B5C02E308500B5E0A2EF3D737
:1043E0000B501200E8CF4CF0830E0001A06F070EB7
:1043F000A16FA36B140EA26F090EA46FA56B4CC026
:10440000A6F0CBC0A7F02BEF22F0E8CF0DF0070EFF
:104410000D6401D00CD06CEC23F00B0E0D24086E53
:10442000096A000E09220CC00AF03FEC21F01200CC
:10443000E8CF0DF00F0E0D6401D00CD06CEC23F022
:10444000130E0D24086E096A000E09220CC00AF032
:104450003FEC21F01200A2C03FF0A3C040F0A4C086
:1044600041F079C042F0A1C043F0A0510F0B446E5F
:10447000000E466EA50E456E4EEF1FF092510F0BCB
:10448000020A0DE1795120EE98F0DF6208D099C060
:1044900079F0795106EC23F0400EFBEC22F012008B
:1044A00063EC23F0C00B400A02E1010E0AD0FF0EBC
:1044B00006EC23F0000EFBEC22F0A00EF0EC22F054
:1044C000000E1200E8CF50F07F0E506406D0D9C025
:1044D00036F0505098EC1CF005D0D9C04FF0505039
:1044E00011EC03F01200070EA56F480EA66F020E26
:1044F000086E0850A50FD96EDA6ADF6A082A070E1F
:104500000864F7D7070C810E0001A06FA16BA26BA6
:10451000A36B020EA46F79C0A5F02BEC22F0010E64
:10452000566E010CE8CF08F008507F0BD56ED76AA5
:10453000D66AF29408AE02D0F28A01D0F29AD58EF1
:104540001200E8CFCEF0CF6BCFC04FF0CE5117ECBA
:104550001EF00001CF2B080ECF65F6D7080CE8CF70
:104560000DF06CEC23F0060E0D24086E096A000EA7
:1045700009220CC00AF03FEF21F0E8CF0CF00C0448
:1045800009E16CEC23F0096A086AFF0E0A683FEC47
:1045900021F0FF001200E8CF1DF07F0E1D6404D053
:1045A0001D5024EC18F003D01D504FEC17F01200F2
:1045B000E8CF09F00950000F086E08C0F6FF060E9C
:1045C000F76E0800F5501200E8CF08F01F0E6F16C6
:1045D00008506F126F50E00B0818D8B41200FAD7C9
:1045E000E8CF0CF06CEC23F0096A030E086E0CC0E7
:1045F0000AF03FEF21F0E8CF0CF06CEC23F0096AF1
:10460000020E086E0CC00AF03FEF21F0E8CF0CF06C
:104610006CEC23F0096A010E086E0CC00AF03FEF43
:1046200021F0E8CF0AF00B0E0A24086E096A000E8A
:10463000092238EF23F0E8CF0AF0060E0A24086EAC
:10464000096A000E092238EF23F0E8CF0AF0130EB2
:104650000A24086E096A000E092238EF23F008C008
:104660000AF009C00BF00BC0D7FF0AC0D6FF12003A
:1046700008C0A9FFA69CA69EA68000F000F0A85046
:10468000120001C003F002C004F004C0D7FF03C051
:10469000D6FF1200096A440E086E38EF23F0096A4B
:1046A000430E086E38EF23F0086A096A0A6A0B6A3B
:1046B0001200086A096A0A6A0B6A1200096A010E86
:1046C000086E38EF23F0096A020E086E38EF23F007
:1046D000A8EC19F0D4EF13F0A6A21200FDD7566A89
:1046E00012001200030C080C010C000C000C010C51
:020000040020DA
:08000000FFFFFFFFFFFFFFFF00
:020000040030CA
:0E000000FF061C1EFF8281FF0FC00FE00F40A5
:00000001FF
