:0408000065EF04F0AC
:10081800D8CF05F0E8CF06F0E0CF07F0F2A401D07A
:1008280001D048D0FB0E026E1D0E016E29EC24F09B
:100838000001704B712B6E4B6F2B010E6027000E61
:100848006123000E6223000E6323010E6427000E4D
:100858006523000E6623000E67236C4B6D2B82A068
:1008680001D001D002D0796B01D0792B582A56508B
:10087800020AD8A401D001D00ED0640E586401D069
:1008880001D009D082A201D001D002D0829201D039
:100898008282586A0ED05604D8A401D001D003D061
:1008A8008282586A06D0566601D001D002D0829260
:1008B800586AF29407C0E0FF06C0E8FF05C0D8FFF9
:1008C800100079EF22F07777772E6575726F736F66
:1008D800757263652E73652F6265696A696E675FF5
:1008E800322E786D6C000000E8CFDBF0D86BDA6B45
:1008F8004F1CD96F5350521002E076EF09F0DB67B6
:1009080010D04FEC24F0096A440E086E4FC00AF06C
:100918002EEC22F0096A440E086E20EC24F080EFD9
:100928000AF0DB0510E14FEC24F0096A450E086E69
:100938004FC00AF02EEC22F0096A450E086E20EC32
:1009480024F080EF0AF0010EDB6511D00C0EDB619C
:100958000ED04FEC24F0440EA8EC0AF02EEC22F056
:10096800440EC0EC0AF020EC24F080EF0AF0DB51D2
:100978000C0A26E14FEC24F0096A500E086E4F501D
:10098800030B0A6E2EEC22F0010E4FA2000E00019E
:10099800D06F9250D019FE0BD019926E010E4FA055
:1009A800000ED06FD0479250D019FD0BD019926E1F
:1009B8009230010BD06F9250010B020DF35096D07C
:1009C800DB510D0A01E095D04FEC24F0096A510E75
:1009D800086E4FC00AF02EEC22F0010E4FAE000E4A
:1009E8000001D06FD047D0479250D019FB0BD019D7
:1009F800926E010E4FAC000ED06FD033D0339450AE
:100A0800D0197F0BD019946E010E4FAA000ED06F2B
:100A1800D03BD047D0479450D019BF0BD019946E13
:100A2800010E4FA8000ED06FD03BD0479450D0197C
:100A3800DF0BD019946E010E4FA6000ED06FD03B7D
:100A48009450D019EF0BD019946E010E4FA4000EDC
:100A5800D06FD047D047D0479450D019F70BD01952
:100A6800946E010E4FA2000ED06FD0479350D0194C
:100A7800FD0BD019936E010E4FA0000ED06F93504E
:100A8800D019FE0BD019936E9350010BD06F933091
:100A9800010B020DF3CFD1F09430E832E832010BAC
:100AA800040DF3CFD2F09438010B080DF3CFD3F037
:100AB8009438E832010B100DF3CFD4F09438E832B3
:100AC800E832010B200DF3CFD5F09434E836010B52
:100AD800400DF3CFD6F09230E832010B800DF35081
:100AE800D625D525D425D325D225D125D02581EFC6
:100AF8000AF00D0EDB6528D2180EDB6125D24E0EEA
:100B0800DB25086E096A000E092220EC24F000019A
:100B1800D06FD0BFFBD182EF0AF0010ED86F4F041F
:100B280028E18180000E81B0010ED96F010EDA6FC5
:100B3800096A5C0E086E20EC24F00001D06FD0A585
:100B480082EF0AF0096A880E086E20EC24F0000192
:100B5800D06F096A870E086E20EC24F00001D26F6E
:100B6800D16BD051D125806F000ED221816F82EFD9
:100B78000AF04F6682EF0AF08190000E81B0010EF4
:100B8800D96FDA6B82EF0AF0010ED86F4F041EE1BD
:100B98008182000E81B2010ED96F010EDA6F096AE7
:100BA8005D0E086E20EC24F00001D06FD0A582EF16
:100BB8000AF0096A8A0E086E20EC24F00001D06F52
:100BC800096A890E086E20EC24F020D24F6682EF65
:100BD8000AF08192000E81B2010ED96FD2D7010EB0
:100BE800D86F4F0428E18286000E82B6010ED96FB5
:100BF800010EDA6F096A5E0E086E20EC24F000011F
:100C0800D06FD0A582EF0AF0096A8C0E086E20EC2E
:100C180024F00001D06F096A8B0E086E20EC24F0D6
:100C28000001D26FD16BD051D125846F000ED22133
:100C3800856F82EF0AF04F6682EF0AF08296000E07
:100C480082B6010ED96F9DD7010ED86F4F0428E1E7
:100C58008288000E82B8010ED96F010EDA6F096A18
:100C68005F0E086E20EC24F00001D06FD0A582EF53
:100C78000AF0096A8E0E086E20EC24F00001D06F8D
:100C8800096A8D0E086E20EC24F00001D26FD16B3A
:100C9800D051D125866F000ED221876F82EF0AF0DE
:100CA8004F6682EF0AF08298000E82B8010ED96F63
:100CB80068D7010ED86F4F0427E1828A000E82BAE6
:100CC800010ED96F010EDA6F096A600E086E20EC0A
:100CD80024F00001D06FD0A582EF0AF0096A900EC7
:100CE800086E20EC24F00001D06F096A8F0E086EA0
:100CF80020EC24F00001D26FD16BD051D125886F40
:100D0800000ED221896FFAD34F66F8D3829A000E6B
:100D180082BA010ED96F35D7010ED86F4F0426E17C
:100D2800828C000E82BC010ED96F010EDA6F096A3F
:100D3800610E086E20EC24F00001D06FD0A5DED340
:100D4800096A920E086E20EC24F00001D06F096A3F
:100D5800910E086E20EC24F00001D26FD16BD051B7
:100D6800D1258A6F000ED2218B6FC8D34F66C6D3A8
:100D7800829C000E82BC010ED96F03D7010ED86F7A
:100D88004F0426E1828E000E82BE010ED96F010E3D
:100D9800DA6F096A620E086E20EC24F00001D06F49
:100DA800D0A5ACD3096A940E086E20EC24F000019B
:100DB800D06F096A930E086E20EC24F00001D26F00
:100DC800D16BD051D1258C6F000ED2218D6F96D367
:100DD8004F6694D3829E000E82BE010ED96FD1D683
:100DE800010ED86F4F0426E18084000E80B4010EF6
:100DF800D96F010EDA6F096A630E086E20EC24F0D1
:100E08000001D06FD0A57AD3096A960E086E20EC3F
:100E180024F00001D06F096A950E086E20EC24F0CA
:100E28000001D26FD16BD051D1258E6F000ED22127
:100E38008F6F64D34F6662D38094000E80B4010E26
:100E4800D96F9FD6010ED86F4F0426E18082000E1D
:100E580080B2010ED96F010EDA6F096A640E086E4E
:100E680020EC24F00001D06FD0A548D3096A980E71
:100E7800086E20EC24F00001D06F096A970E086E06
:100E880020EC24F00001D26FD16BD051D125906FA6
:100E9800000ED221916F32D34F6630D38092000E6C
:100EA80080B2010ED96F6DD6010ED86F4F0426E1BE
:100EB8008080000E80B0010ED96F010EDA6F096ACA
:100EC800650E086E20EC24F00001D06FD0A516D373
:100ED800096A9A0E086E20EC24F00001D06F096AA6
:100EE800990E086E20EC24F00001D26FD16BD0511E
:100EF800D125926F000ED221936F00D34F66FED298
:100F08008090000E80B0010ED96F3BD6DB510E0ADF
:100F180001E103D6010A01E137D61F0A01E15FD6D4
:100F2800010A01E191D6030A01E1C3D6010A01E1F0
:100F3800F3D6070A01E122D7010A01E151D7030AD2
:100F480081E0010AB1E0DAD2170EDB65C3D1220EC7
:100F5800DB61C0D1A1D14FEC24F0730EF5DA2EEC91
:100F680022F002DB20EC24F00001D96F4FA012D050
:100F78008190DA6B6881096A730E086E20EC24F0A0
:100F88000001D06F096A730E086E20EC24F0E5DAD0
:100F98000FDB06D0FE0E6817030E69178190DA6B17
:100FA8004FB4D0D5ABD24FEC24F0730ECDDA2EEC83
:100FB80022F0DADA20EC24F00001D96F4FA212D027
:100FC8008192DA6B6883096A740E086E20EC24F04B
:100FD8000001D06F096A730E086E20EC24F0BDDAA8
:100FE800D9DA06D0FD0E6817030E69178192DA6BFD
:100FF8004FA484D2096A880E086E20EC24F0000100
:10100800D06F096A870E086E20EC24F00001D26FB9
:10101800D16BD051D125826F000ED221836F6ED251
:101028004FEC24F0730E90DA2EEC22F09DDA20ECCF
:1010380024F00001D96F4FA012D08296DA6B688530
:10104800096A780E086E20EC24F00001D06F096A56
:10105800770E086E20EC24F080DAB8DA06D0FB0EA2
:101068006817030E69178296DA6B4FB4CDD546D24E
:101078004FEC24F0730E68DA2EEC22F075DA20ECCF
:1010880024F00001D96F4FA012D08298DA6B6887DC
:10109800096A7A0E086E20EC24F00001D06F096A04
:1010A800790E086E20EC24F058DA7BDA06D0F70EB9
:1010B8006817030E69178298DA6B4FB4DAD51ED217
:1010C8004FEC24F0730E40DA2EEC22F04DDA20ECCF
:1010D80024F00001D96F4FA412D0829ADA6B688984
:1010E800096A7C0E086E20EC24F00001D06F096AB2
:1010F8007B0E086E20EC24F030DA61DA06D0EF0EB1
:101108006817030E6917829ADA6B4FB4E7D5F6D1E0
:101118004FEC24F0730E18DA2EEC22F025DA20ECCE
:1011280024F00001D96F4FA012D0829CDA6B688B33
:10113800096A7E0E086E20EC24F00001D06F096A5F
:101148007D0E086E20EC24F008DA4EDA06D0DF0EA9
:101158006817030E6917829CDA6B4FB4F1D5CED1AC
:101168004FEC24F0730EF0D92EEC22F0FDD920ECD0
:1011780024F00001D96F4FA012D0829EDA6B688DDF
:10118800096A800E086E20EC24F00001D06F096A0D
:101198007F0E086E20EC24F0E0D9F5D906D0BF0EFA
:1011A8006817030E6917829EDA6B4FB4FBD5A6D178
:1011B8004FEC24F0730EC8D92EEC22F0D5D920ECD0
:1011C80024F00001D96F4FA012D08094DA6B688F99
:1011D800096A820E086E20EC24F00001D06F096ABB
:1011E800810E086E20EC24F0B8D9F7D906D07F0E0E
:1011F8006817030E69178094DA6B4FB405D67ED151
:101208004FEC24F0730EA0D92EEC22F0ADD920ECCF
:1012180024F00001D96F4FA012D08092DA6B698157
:10122800096A840E086E20EC24F00001D06F096A68
:10123800830E086E20EC24F090D9E4D904D0020E75
:1012480069178092DA6B4FB411D658D14FEC24F05D
:10125800730E7AD92EEC22F087D920EC24F0000105
:10126800D96F4FA012D08090DA6B6983096A860E15
:10127800086E20EC24F00001D06F096A850E086E14
:1012880020EC24F06AD9B7D904D0010E69178090F0
:10129800DA6B4FB41DD632D1DB51180A01E15BD6A7
:1012A800010A01E180D6030A01E1BAD6010A01E187
:1012B800DFD6070A01E104D7010A01E129D7030AA9
:1012C80001E14ED7010A01E173D73F0A99E0010A0B
:1012D800BDE014D1210EDB6511D12F0EDB610ED1DB
:1012E800ADEF04F05204531001E0F3D0140EDB61AB
:1012F800BBD04FEC24F0730E27D92EEC22F034D952
:1013080020EC24F00001D96F96D0096A740E086E9B
:1013180020EC24F00001D06F096A730E086E20ECEF
:1013280024F01BD945D9EAD0096A760E086E20EC5C
:1013380024F00001D06F096A750E086E20EC24F0C5
:101348000CD928D9DBD0096A780E086E20EC24F075
:101358000001D06F096A770E086E20EC24F0FDD8E2
:1013680035D9CCD0096A7A0E086E20EC24F0000139
:10137800D06F096A790E086E20EC24F0EED811D9E6
:10138800BDD0096A7C0E086E20EC24F00001D06FF5
:10139800096A7B0E086E20EC24F0DFD810D9AED095
:1013A800096A7E0E086E20EC24F00001D06F096AED
:1013B8007D0E086E20EC24F0D0D816D99FD0096A8B
:1013C800800E086E20EC24F00001D06F096A7F0EB1
:1013D800086E20EC24F0C1D8D6D890D0096A820EC5
:1013E800086E20EC24F00001D06F096A810E086EA7
:1013F80020EC24F0B2D8F1D881D0096A840E086EA6
:1014080020EC24F00001D06F096A830E086E20ECEE
:1014180024F0A3D8F7D872D0096A860E086E20EC9B
:1014280024F00001D06F096A850E086E20EC24F0C4
:1014380094D8E1D863D0DB51010A01E166D7020AEA
:1014480001E172D7060A01E17ED7020A8BE00E0A93
:1014580098E0020AA5E0060AB2E0020ABFE01E0A06
:10146800CCE0020AD9E04AD0130EDB6547D0280E3B
:10147800DB6144D04FEC24F0730E66D82EEC22F0DA
:1014880073D820EC24F00001D96FDB51150A02E172
:10149800A6EF05F0020A02E1DDEF05F00E0A02E10F
:1014A80008EF06F0020A02E13DEF06F0060A01E144
:1014B80015D4020A01E144D43E0A01E173D4020AB8
:1014C80001E1A2D4060A01E1D1D4020A01E100D562
:1014D80015D05250020A531011E1400EDB610ED0B4
:1014E8004FEC24F09B0E30D82EEC22F04CEC11F08F
:1014F8009B0E42D820EC24F00001D96F0001D8518E
:1015080021E0440EDB25086E096A000E092220EC52
:1015180024F00001D76FDA510BE0D7A713D0140ECF
:10152800CE6F030ECF6FDB51F20F56EC21F00AD0CD
:10153800D7A908D0140ECE6F040ECF6FDB51F20F6F
:1015480056EC21F0D95112000001DB25086E096A1A
:10155800000E09224FC00AF0000C0001D26FD16BB7
:10156800D051D12501011200730E0001DB25086E50
:10157800096A000E0922000C0001DB25086E096AC1
:10158800000E0922000C0C6F0001000ED22101018F
:101598000D6F1200026F0001000ED2210101036FCE
:1015A8001200066F0001000ED2210101076F120020
:1015B800006F0001000ED2210101016F1200086FB7
:1015C8000001000ED2210101096F1200046F000111
:1015D800000ED2210101056F12000E6F0001000EEE
:1015E800D22101010F6F12000A6F0001000ED221F3
:1015F80001010B6F1200126F0001000ED2210101D0
:10160800136F1200106F0001000ED2210101116F3B
:101618001200FA6B096A510E086E20EC24F00001E2
:10162800D06F096A500E086E20EC24F00001D26FCA
:10163800D16BD051D125F46F000ED221F56FFC6B20
:10164800090EFC6501D0D9D100DB01D00CDBD02F0D
:10165800FDD7F451D117F551D217D251D11101E16B
:10166800A8D0660EFC25086E096A000E092220EC37
:1016780024F00001FB6FFBAFBDD132D0000E81B06A
:10168800010EF96F41D0000E81B2010EF96F3CD006
:10169800000E82B6010EF96F37D0000E82B8010E27
:1016A800F96F32D0000E82BA010EF96F2DD0000EFC
:1016B80082BC010EF96F28D0000E82BE010EF96FB0
:1016C80023D0000E80B4010EF96F1ED0000E80B238
:1016D800010EF96F19D0000E80B0010EF96F14D009
:1016E800FC51CCE0010ACFE0030AD2E0010AD5E0C0
:1016F800070AD8E0010ADBE0030ADEE0010AE1E0BC
:101708000F0AE4E0010AE7E0FBA117D0F95115E060
:10171800FCC0D0F062DA11E1FBA508D01E0ECE6F36
:10172800050ECF6FFC5156EC21F007D0140ECE6F8A
:10173800030ECF6FFC5156EC21F0FBB3F96715D0BF
:10174800FCC0D0F04ADA11E0FBA508D01E0ECE6F1F
:10175800060ECF6FFC5156EC21F007D0140ECE6F59
:10176800040ECF6FFC5156EC21F0FBA910D0F951B3
:101778000EE0FCC0D0F031DA02E0FBAB08D0010E7D
:10178800CE6F020ECF6FFC5156EC21F05582FBB79D
:10179800F96730D1FCC0D0F020DA02E1FBAB2AD1E6
:1017A800010ECE6F020ECF6FFC5156EC21F055841E
:1017B80021D152DA20EC24F00001FB6FFBAF1AD1E3
:1017C800FC51020DF350800FD96EDA6ADE50DD103D
:1017D8002AE034DADE06000EDD5A30DADE50DD109B
:1017E80037E13ADA20EC24F00001D06FD0A530D0F0
:1017F800FCC0D0F0010ED16FD02B02D0D890D137D9
:10180800D02FFCD7D1514F6E000E72EC1FF00001A3
:10181800FBA307D0010ECE6F020ECF6FFC5156EC22
:1018280021F0558015D0870EFC25086E096A000E38
:10183800092220EC24F00001D16FD06B880EFC2522
:10184800086E096A000E092220EC24F00001DFD995
:10185800FCD901D008DAD02FFDD76851D1176951CA
:10186800D217D251D11101E1C5D0C8D9DE50DD104F
:1018780001E1A6D00001C2D9DE06000EDD5ABED9AC
:10188800DE50DD1040E0B6D081A002D0819037D084
:101898008180010EFA6F4CD081A202D081922FD0A4
:1018A8008182F7D782A602D0829629D08286F1D784
:1018B80082A802D0829823D08288EBD782AA02D04D
:1018C800829A1DD0828AE5D782AC02D0829C17D03A
:1018D800828CDFD782AE02D0829E11D0828ED9D779
:1018E80080A402D080940BD08084D3D780A202D069
:1018F800809205D08082CDD780A003D08090FA6BEB
:1019080017D08080C6D70001FC51BEE0010AC4E0B0
:10191800030AC8E0010ACCE0070AD0E0010AD4E0D3
:10192800030AD8E0010ADCE00F0AE0E0010AE4E07B
:101938007CD920EC24F00001D16FD06B76D920EC53
:1019480024F00001D027000ED12358D9D0C0DEFFE3
:10195800D1C0DDFFFA512AE07FD920EC24F0000144
:10196800D06FD0A519D0FC51020D870EF324086E54
:10197800000EF420096E20EC24F00001D16FD06B2A
:10198800FC51020D880EF324086E000EF420096E37
:1019980020EC24F000013BD9FBA72CD0140ECE6F0D
:1019A800030ECF6FFC5156EC21F024D0FBA922D0B6
:1019B800140ECE6F040ECF6FFC5156EC21F01AD0E6
:1019C800000133D920EC24F00001D16FD06BFC5119
:1019D800020D740EF324086E000EF420096E20EC3C
:1019E80024F00001D027000ED12308D9D0C0DEFF93
:1019F800D1C0DDFF0001FC2B23D6096A710E086EE9
:101A080020EC24F000094FE00001F66B8030010B58
:101A1800D06F8050010B020DF350D025F76F815025
:101A2800010BD06F8130010B020DF3CFD1F0823062
:101A3800E832E832010B040DF3CFD2F08238010B03
:101A4800080DF3CFD3F08238E832010B100DF3CF35
:101A5800D4F08238E832E832010B200DF3CFD5F00C
:101A68008234E836010B400DF3CFD6F08030E832EF
:101A7800010B800DF350D625D525D425D325D225A5
:101A8800D125D025F86F406A0F0E3F6E010E416ECA
:101A98007BC042F0030E436E446E000E466EF60E97
:101AA800456E39EC20F08150010B0001D06F813078
:101AB800010BD16FD890D135D26FD36BD337823029
:101AC800E832E832010BD46FD56BD890D437D537CC
:101AD800D890D437D5378238010BD66FD76BD890CA
:101AE800D637D737D890D637D737D890D637D737CD
:101AF8008238E832010BD86FD96BD83BD93BF00E4E
:101B0800D917D8510F0BD913F00ED8178238E832ED
:101B1800E832010BDA6FDB6B050ED890DA37DB376A
:101B2800E82EFBD78234E836010BDC6FDD6B060E3E
:101B3800D890DC37DD37E82EFBD78030E832010B50
:101B4800DE6FDF6B070ED890DE37DF37E82EFBD766
:101B58008030010BE16FE06B8050010BE26FE36BAB
:101B6800090ED890E237E337E82EFBD7E051E2259B
:101B7800E46FE151E321E56FDE51E425E66FDF51C3
:101B8800E521E76FDC51E625E86FDD51E721E96FD4
:101B9800DA51E825EA6FDB51E921EB6FD851EA25E4
:101BA800EC6FD951EB21ED6FD651EC25EE6FD75183
:101BB800ED21EF6FD451EE25F06FD551EF21F16F84
:101BC800D251F025F26FD351F121F36FD051F225A4
:101BD8006A6F000EF3216B6F1200010ED16FD26B8A
:101BE800D02B03D0D890D137D237D02FFBD76A511A
:101BF800D1176B51D217D251D1111200FC51020DDD
:101C0800000EF324D96E010EF420DA6E1200D027EC
:101C1800000ED123FC51020DF350800FD96EDA6A01
:101C2800D0C0DEFFD1C0DDFF1200FC51020D730EE3
:101C3800F324086E000EF420096E1200FC51020D08
:101C4800F350800FD96EDA6A1200FCC0D0F0010E92
:101C5800D16FD26BD02B12005C0EFC25086E096A7E
:101C6800000E0922000CD890D137D23712009751B4
:101C7800961101E1BAD2E9D25DEC24F0E6D2BCECCF
:101C880022F0E3D267EC23F0E0D261EC22F0DDD25F
:101C980094510F0B020A01E0D8D27B5120EE9AF042
:101CA800DF62D3D2800E9B6112D09B51BDEC17F03E
:101CB8000001A96F9BC0A8F0030EA36F820EA26F4C
:101CC800A46BA56B0A0EA66F48EC22F0BED29B51FE
:101CD80092EC18F0EDD794510F0B030A01E0B5D23E
:101CE8007B5120EE9AF0DF62B0D2800E9B6106D065
:101CF8009CC04FF09B5178EC04F0DBD79CC048F0B7
:101D08009B5110EC1DF0D4D77B5120EE9AF0DF6286
:101D18009CD2000E0DEC24F000019C1901E095D234
:101D2800030E0DEC24F000019D1901E08ED2050E82
:101D38000DEC24F000019E1901E087D2070E0DEC8E
:101D480024F000019F1901E080D25350A01901E04E
:101D58007CD2525020EEA1F0DF6277D29B51B0ECDA
:101D680023F073D2000E0DEC24F000019B1973E1EF
:101D7800010E0DEC24F000019C196DE1020E0DEC32
:101D880024F000019D1967E1030E0DEC24F0000119
:101D98009E1961E177895FD0040E0DEC24F00001F3
:101DA8009B1959E1050E0DEC24F000019C1953E133
:101DB800060E0DEC24F000019D194DE1070E0DEC07
:101DC80024F000019E1947E1778B45D0080E0DECF1
:101DD80024F000019B193FE1090E0DEC24F00001ED
:101DE8009C1939E10A0E0DEC24F000019D1933E12C
:101DF8000B0E0DEC24F000019E192DE1778D2BD0F0
:101E08000C0E0DEC24F000019B1925E10D0E0DECD4
:101E180024F000019C191FE10E0E0DEC24F00001C6
:101E28009D1919E10F0E0DEC24F000019E1913E124
:101E3800778F11D0776B0FD09A390F0BDD6FDE6B70
:101E4800DE51F8E1DD518EE0010AA6E0030ABEE0AA
:101E5800010AD6E0EFD77751F00BF00A01E0F5D18F
:101E6800CCEC21F0F2D17B5120EE9AF0DF62EDD17B
:101E7800E96B9BC0E8F09CC0EBF0F76B43D0070E12
:101E8800086EF751E6EC22F00001DD6FDD51A90F75
:101E9800D96EDA6AE851F725BEEC23F0DF6E070E3B
:101EA800086E0001F751E6EC22F0060A0BE0FF0E7F
:101EB8000001EB25DD6FDE6BFF0EDE23F751DD1928
:101EC800DE111FE1070E086E0001F751E6EC22F063
:101ED800060A03E1070E000109D0070E086E00018B
:101EE800F751E6EC22F00001DD6FDD29EA6FEA51D7
:101EF800810FA26FC1D9E9C0A8F048EC22F0000117
:101F0800E92BF72BEB51F75D01E39FD1B8D77B5154
:101F180020EE9AF0DF6299D19BC0ECF09451FE0F4D
:101F2800070BED6FF26B16D0F2519C0FD96EDA6A7F
:101F3800DF50DC6FEC51F22546EC23F00001F25142
:101F4800A90FD96EDA6AEC51F225BEEC23F0DF6EE8
:101F58000001F22BED51F25DE7E38ED9A86BED514C
:101F6800810FA26FB1D67B5120EE9AF0DF626DD15E
:101F78009B51BDEC17F00001DD6FDD294F6E9B51C1
:101F880078EC04F096D67B5120EE9AF0DF625DD1B2
:101F98009B51BDEC17F00001DD6FDD054F6E9B51C5
:101FA80078EC04F086D69A517B1903E09A2901E06F
:101FB8004CD1F16B030EA36F880EA26FA46BA56BB7
:101FC800200EA66FF66B5FD9F851A80FD96EDA6AA2
:101FD800F1510F080DEC24F0DF6E0001F12B100E0B
:101FE800F16501D004D0F82B070EF865EDD7100E77
:101FF800F16501D007D048EC22F00001F62B020E63
:10200800F665E1D7F86BF851CBEC23F0000908E04E
:10201800F851AB0FD96EDA6AF851CBEC23F005D042
:10202800F851AB0FD96EDA6A000EDF6EF82B040E8A
:10203800F865E9D748EC22F0050E0001F16F030EB0
:10204800F66F21D9F851A80FD96EDA6AF151CBECA5
:1020580023F0DF6EF12BF82B070EF865F3D748EC69
:1020680022F00001F62B060EF665EBD7EED07B5179
:1020780020EE9AF0DF62E9D0030EA36F870EA26FFD
:10208800A46BA56B220EA66FA80EE3EC23F01CD65A
:102098007B5120EE9AF0DF62D8D0F36B94C0DDF06C
:1020A8000F0EDD17040EDD5D12E39EC0F4F0F56B34
:1020B800F551F41103E1010EF56FF46B010EF45DB7
:1020C800010EF55907E3010EF56F000E02D0F56B0E
:1020D800010EF46F52C0E4F053C0E5F0B7D8070E14
:1020E800A36FC0D8F351F45DDD6F000EF559DE6FB4
:1020F800040EDD5D000EDE5902E3040E02D0F3513A
:10210800F45DEE6FEE51840FA26F9D51F325AB6F16
:10211800EF6B0CD0EF51AC0FD96EDA6A9D51F325F5
:10212800EF25BEEC23F0DF6E0001EF2BEE51EF5DE3
:10213800F1E348EC22F00001EE51F327A82BF3510C
:10214800DD6FDE6BF451DD5DF551DE59CBE3E4C0A4
:1021580052F0E5C053F079D07B5120EE9AF0DF625F
:1021680074D052C0E6F053C0E7F070D89DC0F0F0CC
:1021780014D09D519E08F025D96EDA6ADF50DC6FC5
:10218800F05146EC23F00001DD6F9D51AC08F025BD
:10219800D96EDA6ADDC0DFFFF02B94510F0BDD6FCB
:1021A800DE6B9D51DD27000EDE23FC0EDD25DF6F83
:1021B800FF0EDE21E06FF051E16FE26BE251800A21
:1021C800E36FDF51E15DE051800AE359D2E3E6C0F5
:1021D80052F0E7C053F0070EA36F94510F0B800F16
:1021E800A26F40D89DC0ABF06FD59851010A01E1AC
:1021F80043D5030A01E143D5040A01E143D50E0A98
:1022080001E143D5010A01E143D5020A01E163D5A1
:10221800070A01E179D51B0A01E10ED60F0A01E18F
:1022280022D6010A01E173D6040A01E19CD6030A09
:1022380001E1A9D6010A01E1B6D63E0A01E117D7A4
:10224800040A01E125D7030A87E012009C519BC0CC
:10225800DDF0DE6BDDC0DEF0DD6BDD11526EDE51D0
:10226800536E1200A46BA56B270EA66FA86B9BC0BC
:10227800A9F09CC0AAF01200070EA36FA46BA56B6F
:102288001A0EA66F1A0CF6C0A8F0010EF86F010C12
:1022980036683768386839683A6A3B6A3C6A3D6A22
:1022A800436A435072D9450E1224086E000E13205B
:1022B800096E20EC24F0146E14AE1AD1435065D97F
:1022C800480E1224086E000E1320096E20EC24F02C
:1022D80068D9460E1924086E000E1A20096E20ECE3
:1022E80024F034D920EC24F0226E020E221622C0EB
:1022F80023F0246A256A266A170ED89023362436D6
:1023080025362636E82EF9D71C5065D9FF0E2B1036
:10231800316E2C50326E2D50336E2E50346E435029
:1023280034D9490E1224086E000E1320096E20ECD1
:1023380024F037D9470E1924086E000E1A20096EAA
:1023480020EC24F003D920EC24F0226E010E221692
:1023580022C023F0246A256A266A23C026F0256A4B
:10236800246A236A1C5037D943502F6E306AD8909C
:102378002F363036D8902F363036D8902F36303624
:10238800440E2F24086E000E3020096E20EC24F035
:102398002B103E6E2C503F6E2D50406E2E50416ECD
:1023A800436608D03EC03AF03FC03BF040C03CF026
:1023B80041C03DF03150361632503716335038167A
:1023C80034503916426A42503EC012F03FC013F0F2
:1023D80040C014F041C015F0E82A05D0D890153255
:1023E800143213321232E82EF9D7010E1216425067
:1023F8003AC016F03BC017F03CC018F03DC019F0C9
:10240800E82A05D0D8901932183217321632E82E39
:10241800F9D71650010B121810E042C012F0FDD87F
:1024280001D000D9122EFDD7131C156E141C166E80
:10243800176A16BE17061750E6D8422A1F0E4264BE
:10244800C2D73E503A163F503B1640503C164150BA
:102458003D16435042E0426A43C012F04350136EA7
:10246800146AD89013361436D89013361436D89088
:1024780013361436440E1324086E000E1420096E09
:1024880020EC24F0156E122A02D0D8901532122EA4
:10249800FCD7010E151643C016F035C017F0162AE2
:1024A80002D0D8901732162EFCD71750010B1518EA
:1024B80010E043C012F0B1D801D0B4D8122EFDD725
:1024C80013C015F014C016F0000E16BEFF0E176EDE
:1024D8009AD8422A070E4264BFD7435056D8440EB2
:1024E8001224086E000E1320096E20EC24F0356EBD
:1024F800432A070E4364D5D6800ED7EC23F00F018C
:102508000F0E096E1C0E086E36C00AF037C00BF0AD
:1025180038C00CF039C00DF0010E0E6E87EC1CF0BF
:102528000D01D4830F010F0E096E040E086E3AC018
:102538000AF03BC00BF03CC00CF03DC00DF0010EA2
:102548000E6E87EC1CF0000ED7EF23F01B6E1BC03D
:102558001CF01D6A1E6A1F6A1DC01FF01CC01EF0F9
:102568001D6A1C6A4350206E216AD8902036213695
:10257800D89020362136D89020362136450E202492
:10258800086E000E2120096E1200126E136AD89090
:1025980012361336D89012361336D89012361336B0
:1025A8001200146E14C015F0166A176A186A17C05C
:1025B80018F016C017F015C016F0156A4350196EBA
:1025C8001A6AD89019361A36D89019361A36D89009
:1025D80019361A3612002310276E1D502410286E43
:1025E8001E502510296E1F5026102A6E15502710D0
:1025F8002B6E165028102C6E175029102D6E18505F
:102608002A102E6E1200186E1550361616503716F0
:1026180017503816185039161200010E136E146A26
:10262800122A1200D8901336143612000001646B77
:10263800656B666B676B756B746B736B686B696BDB
:102648000101010E096E000E54D990EC22F0000130
:10265800000E096E800E4DD990EC22F0356A5C0EA2
:102668003524086E096A000E092220EC24F0106E49
:1026780010A02CD035C010F0010E116E126A102A6D
:1026880003D0D89011361236102EFBD71150000106
:10269800681312506913730E3524086E096A000E08
:1026A800092220EC24F01CD920EC24F01026000E7E
:1026B80011223550020D0101000EF324D96E010ECE
:1026C800F420DA6E10C0DEFF11C0DDFF610E352484
:1026D800086E096A000E092220EC24F0106E10A47E
:1026E80019D0730E3524086E096A000E092220ECF1
:1026F80024F0F6D820EC24F01026000E11223550D4
:10270800020DF3500001800FD96EDA6A10C0DEFFA7
:1027180011C0DDFF352A090E3564A1D7096A500EAC
:10272800086E20EC24F0346E3450030B926E096A64
:10273800510E086E20EC24F0346E3450030B080957
:10274800936E3438E842070B040B346E34509212FF
:10275800096A700E086E20EC24F0106E10BEF19E0F
:10276800096A510E086E20EC24F0106ED8901034CF
:10277800F80B346E34500109946E0101010E096E94
:10278800140E086E0B6A0A6A0D6A0A0E0C6E90EC3B
:1027980022F00001000E096EB00E086E0B6A0A6A7C
:1027A8000D6A0A0E0C6E90EC22F00001726B8150DB
:1027B800010B106E8130010B116ED8901134126E1E
:1027C800136A13368230E832E832010B146E156A48
:1027D800D89014361536D890143615368238010B31
:1027E800166E176AD89016361736D89016361736DA
:1027F800D890163617368238E832010B186E196AE7
:10280800183A193AF00E191618500F0B1912F00E43
:1028180018168238E832E832010B1A6E1B6A050E68
:10282800D8901A361B36E82EFBD78234E836010BCF
:102838001C6E1D6A060ED8901C361D36E82EFBD776
:102848008030E832010B1E6E1F6A070ED8901E36C4
:102858001F36E82EFBD78030010B216E206A80508E
:10286800010B226E236A090ED89022362336E82EF1
:10287800FBD720502224246E21502320256E1E5081
:102888002424266E1F502520276E1C502624286ECF
:102898001D502720296E1A5028242A6E1B502920E3
:1028A8002B6E18502A242C6E19502B202D6E165082
:1028B8002C242E6E17502D202F6E14502E24306E7F
:1028C80015502F20316E12503024326E13503120A3
:1028D800336E105032246A6F000E33206B6F120073
:1028E800116E106A740E3524086E096A000E0922EA
:1028F800000C086E0B6A0A6A0D6A140E0C6E140C32
:102908009751961101E105D1E66BE6510DD99C0E60
:10291800D525086E000ED621096E20EC24F00001A2
:10292800E56FE5AFF1D0E5AD0ED0E651FDD89B0ED1
:10293800D525086E000ED621096E20EC24F0000182
:10294800991901E0E1D0E5A90BD09B2909E0096AB2
:10295800440E086E20EC24F000019B1901E0D4D04D
:10296800E5A70BD09C2909E0096A450E086E20EC02
:1029780024F000019C1901E0C7D0E651080D9E0E15
:10298800F324086E000EF420096E20EC24F00001F8
:10299800D56FE551010BD76FD66BD551D625D86FBA
:1029A800000ED721D96FE651080D9D0EF324086E4D
:1029B800000EF420096E20EC24F00001D56FE551DB
:1029C800020BD66FD76B070ED890D637D737E82EBD
:1029D800FBD7D551D625DA6F000ED721DB6FE6512C
:1029E800080DA00EF324086E000EF420096E20ECEA
:1029F80024F00001DC6FE651080D9F0EF324086EE9
:102A0800000EF420096E20EC24F00001DD6F20EEAA
:102A180096F0DECFD5F0DDCFD6F0D851D51BD95101
:102A2800D61BDA51D517DB51D617D651D5116CE123
:102A38009851DC19DD154EE067D06CD820EC24F0F5
:102A48000001DE6FDEC04FF0E55167EC1BF05CD093
:102A580061D820EC24F00001DF6FDFC04FF0E551B2
:102A680072EC1FF051D056D820EC24F00001E06F32
:102A7800E0C04FF0E551CDEC1AF046D04BD820EC31
:102A880024F00001E16FE1C04FF0E55198EC1DF032
:102A98003BD040D820EC24F00001E26FE2C04FF0B8
:102AA800E55103EC1FF030D035D820EC24F00001BC
:102AB800E36FE3C0D0F0E55194EC23F025D02AD899
:102AC80020EC24F00001E46FE4C04FF0E55118EC6D
:102AD8001EF01AD0E651080DA10EF324086E000E60
:102AE800F420096E20EC24F0000A0EE0010AA5E0AB
:102AF800030AAEE0010AB7E0070AC0E0010ADFE016
:102B0800030AC7E0010AD0E00001E62B070EE665DC
:102B1800FCD612000001E651080DA20EF324086E3F
:102B2800000EF420096E1200D56FD66BD890D537F9
:102B3800D637D890D537D637D890D537D63712006C
:102B4800EFEC21F011EC22F00009D8B462EC19F096
:102B58001AEC13F0CCEC21F04CEC11F00400FA0E56
:102B6800000179650ED07C050CE07B694FEC24F000
:102B7800096A010E086EFF0E0A682EEC22F0CCECF2
:102B880021F0946BD1EC22F0BAD07B2903E1010E3D
:102B98007C6FC5D0030E7C6F76EC23F0C0D0DDECE3
:102BA8001FF0BDD094AF08D09751961103E13BECCC
:102BB8000EF002D084EC14F00A0E0001605D000EE5
:102BC8006159000E6259000E635901E2A8D0096AE2
:102BD800510E086E20EC24F00001FD6F096A500EBA
:102BE800086E20EC24F001011F6F0001FD51010166
:102BF8001E6F0001606B616B626B636B72C0FDF0EE
:102C0800010EFE6FFF6BFD2B03D0D890FE37FF3708
:102C1800FD2FFBD701011E510001FE1701011F51B5
:102C28000001FF17FF51FE115EE0660E7225086E67
:102C3800096A000E092220EC24F00001FD6FFDADA9
:102C480052D0660E7225086E096A000E092220EC21
:102C580024F00001FD6FFDBF31D045D081B003D015
:102C680094EC1EF040D0140E00017225D96EDA6A79
:102C7800010EDA22DF6A7251B00FD96EDA6ADF6AA2
:102C880032D081A2EDD7EFD782A6EAD7ECD782A8B7
:102C9800E7D7E9D782AAE4D7E6D782ACE1D7E3D76A
:102CA80082AEDED7E0D780A4DBD7DDD780A2D8D725
:102CB800DAD780A0D5D7D7D7726B15D07251CEE0AE
:102CC800010ADFE0030AE0E0010AE1E0070AE2E0C6
:102CD800010AE3E0030AE4E0010AE5E00F0AE6E09E
:102CE800010AE7E0E9D70001722B090E726517D0D7
:102CF800726B15D052EC24F012D07C6B10D000010E
:102D08007C5101E142D7010A01E149D7030A01E1F7
:102D180043D7010A01E146D7070AECE0EED7E90EEE
:102D28000001645D030E6559000E6659000E67596F
:102D38000BE3646B656B666B676B7FEC21F07C5112
:102D4800030AD8B40DEC0BF03B0E75650BD0756B10
:102D5800742B3B0E746502D0746B732B170E73655E
:102D680001D0736B56EC24F0F9D6E8CF12F0546A10
:102D78007750C00B166E166632D060AE12D0A49093
:102D880074AE06D01150D96EDA6A000EDB86749ED6
:102D980060A002D0548001D054900F0E196E600EBE
:102DA8001AD00F0150AF19D0A49274AC06D01150AC
:102DB800D96EDA6A000EDB86749C5051070B546E8C
:102DC800020E546005D01150D96EDA6A000EDB8EFF
:102DD8000F0E196E500E186E65D0000EC2D0165028
:102DE800400A46E160AE04D00F0E196E600E3ED068
:102DF8000F0150AF04D00F0E196E500E37D00D01D1
:102E0800F8B507D00E0120AF04D00E0E196E200EB3
:102E18002DD00D01F8B707D00E0130AF04D00E0E3B
:102E2800196E300E23D00D01F8B907D00E0140AF4E
:102E380004D00E0E196E400E19D00D01F8BB05D046
:102E48000E0150AF02D00E0ED7D70D01F8BD05D038
:102E58000E0160AF02D00E0EC8D70D01F8BFBDD766
:102E68000E0170AFBAD70E0E196E700E186E0AD01A
:102E780074AEB3D76F50070B1BEC21F008C018F0E5
:102E880009C019F018C0D9FF19C0DAFFDF501F0BAD
:102E9800546EA49274AC06D01150D96EDA6A000E42
:102EA800DB86749C18C013F019C014F01150D96E49
:102EB800DA6ADF6A20EE05F055D81050D96EDA6A62
:102EC80017500F0BDF6E17AC05D01150D96EDA6AA8
:102ED800000EDB8C20EE02F045D817A608D0115062
:102EE800D96EDA6A000EDB8A010E176E01D0176AF6
:102EF8001828086E000E1920096E12C00AF017C0B3
:102F08000BF0F8EC1BF0060E1826000E19221050D4
:102F1800D96EDA6ADF50176E156A0DD018C0D9FF5E
:102F280019C0DAFF0F50E16EE26ADFCFE7FF184AF7
:102F3800192A0F2A152A1750155CF0E3A4AE06D0FB
:102F48001150D96EDA6A000EDB88A49E13C0D9FF2F
:102F580014C0DAFF7F0EDF161650800AD8B4749EAC
:102F6800010E12001850D9261950DA22DF50176EB8
:102F78001200E8CF12F0116A5350521001E0ADD0A0
:102F8800126606D0096A440E086E20EC24F0C3D0FD
:102F9800120406E1096A450E086E20EC24F0BBD045
:102FA800010E12640CD00C0E126009D0440E1224CB
:102FB800086E096A000E092220EC24F0ACD01250E9
:102FC8000C0A08E19230010B0A6E9250010B020DB7
:102FD800F35035D012500D0A34E19350010B0A6EAC
:102FE8009330010B020DF3CF0BF09430E832E83246
:102FF800010B040DF3CF0CF09438010B080DF3CF3F
:103008000DF09438E832010B100DF3CF0EF0943820
:10301800E832E832010B200DF3CF0FF09434E83694
:10302800010B400DF3CF10F09230E832010B800D08
:10303800F35010240F240E240D240C240B240A24EE
:103048006AD00D0E126442D0180E12603FD028D0FC
:10305800000E81B0010E5FD0000E81B2010E5BD070
:10306800000E82B6010E57D0000E82B8010E53D062
:10307800000E82BA010E4FD0000E82BC010E4BD05A
:10308800000E82BE010E47D0000E80B4010E43D060
:10309800000E80B2010E3FD0000E80B0010E3BD072
:1030A80012500E0AD5E0010AD7E01F0AD9E0010A3A
:1030B800DBE0030ADDE0010ADFE0070AE1E0010ADC
:1030C800E3E0030AE5E0010AE7E026D0170E126400
:1030D80023D02F0E126020D069D7520453100CE170
:1030E800280E126019D0730E1224086E096A000E99
:1030F800092220EC24F00FD05250020A53100CE1A0
:10310800400E126009D09B0E1224086E096A000E48
:10311800092220EC24F0116E11501200E8CF1CF0A7
:103128001B6A1C50800A04E155C01BF0556AB4D0D4
:103138001C50810A02E1010E76D01C50820A02E17D
:10314800060E71D01C50830A03E176C01BF0A4D090
:103158001C50940A03E15CEC24F065D01C50950ADD
:1031680003E15BEC24F05FD01C50960A03E15AECB3
:1031780024F059D0890E1C6005D01C507C0F03EC3C
:1031880024F051D0880E1C6408D0910E1C6005D024
:103198001C50770FF9EC23F046D01C50910A03E13C
:1031A8007BC01BF079D01C50930A03E152C01BF07E
:1031B80073D01C50920A02E1535035D01C50970A24
:1031C80003E159EC24F02FD01C50980A03E158EC85
:1031D80024F029D01C50990A03E157EC24F023D09D
:1031E800990E1C6422D09E0E1C601FD041EC24F066
:1031F8000BC014F00AC013F009C012F008C011F097
:103208001C50660F196E195049D811C00DF012C024
:103218000EF013C00FF014C010F0E82A01D048D8FF
:10322800E82EFDD724D01B6E37D09D0E1C6421D00C
:10323800A20E1C601ED03CEC24F00BC018F00AC093
:1032480017F009C016F008C015F01C50620F1A6E6E
:103258001A5024D815C00DF016C00EF017C00FF084
:1032680018C010F0E82A01D023D8E82EFDD70D5059
:10327800DAD7CF0E1C6408D0E00E1C6005D01C50B5
:10328800300F0DEC24F0CFD7DF0E1C6405D01C5096
:10329800200FCBEC23F0C7D71B50120003080C6E8D
:1032A800D8900C36D8900C36D8900C360C501200AA
:1032B800D89010320F320E320D3212004FEC24F03B
:1032C800096A440E086E000E0A6A2EEC22F04FECD2
:1032D80024F0096A450E086E000E0A6A2EEC22F0E8
:1032E800476A4FEC24F0460E4724086E096A000E20
:1032F800092247C00AF02EEC22F0472A090E47643B
:10330800F0D74FEC24F0096A500E086E000E0A6AD6
:103318002EEC22F04FEC24F0096A510E086E000ED4
:103328000A6A2EEC22F0476A4FEC24F05C0E472420
:10333800086E096A000E0922980E0A6E2EEC22F019
:10334800472A090E4764F0D7476A4FEC24F0660E07
:103358004724086E096A000E0922830E0A6E2EECB5
:1033680022F0472A090E4764F0D74FEC24F0096A87
:10337800700E086E000E0A6A2EEC22F04FEC24F054
:10338800096A710E086E000E0A6A2EEC22F0476A6E
:103398004FEC24F0730E41D82EEC22F0472A130E7E
:1033A8004764F6D7476A4FEC24F0870E36D82EECE0
:1033B80022F0472A130E4764F6D74FEC24F0096A27
:1033C800720E086E030E0A6E2EEC22F0476A466AE9
:1033D8004FEC24F0465047C044F0456AD890443634
:1033E8004536D89044364536D89044364536442636
:1033F800000E45229B0E4424086E000E4520096EDF
:10340800000E0A6A2EEC22F0462A070E4664E0D720
:10341800472A4764DCD74CEF11F04724086E096A45
:10342800000E09220A6A000C0F0E1C6E400E1B6E5D
:103438000F0E1E6E300E1D6E0F0E206E200E1F6EAC
:103448000E0E226E200E216E0E0E246E300E236E8E
:103458000E0E266E400E256E0E0E286E500E276E2E
:103468000E0E2A6E600E296E0E0E2C6E700E2B6ECE
:103478007750C00B2D6E2D6602D0020E01D0080EBB
:103488002E6E0D01D890F831306E346A7DD03450EC
:10349800020DF3501B0FD96EDA6ADECF35F0DDCF9F
:1034A80036F035C031F036C032F0020E346404D044
:1034B800D890303230A067D035C0D9FF36C0DAFF97
:1034C800DF501A6E1AB65FD035C0D9FF36C0DAFFA2
:1034D800FC0EDF1619C01AF0030E1A1635C0D9FFF4
:1034E80036C0DAFF1A50DF1219AC04D01850400960
:1034F800336E02D018C033F020EE05F03550D926CF
:103508003650DA2233C0DFFF19AA03D0010E336E1A
:1035180001D0336A3528086E000E3620096E12C0B5
:103528000AF013C00BF014C00CF015C00DF033C036
:103538000EF087EC1CF0060E3526000E36222F6A98
:103548000FD016C0D9FF17C0DAFF35C0E1FF36C06B
:10355800E2FFDFCFE7FF164A172A354A362A2F2A15
:1035680018502F5CEEE331C0D9FF32C0DAFFDF50CC
:103578001A6E1AB406D031C0D9FF32C0DAFF000E75
:10358800DB86010E05D0342A2E50345C80E3000E11
:103598001200516A090E4F6401D094D05C0E4F247A
:1035A800086E096A000E092220EC24F0506E50AE15
:1035B80089D039D081A002D0010E516E819047D0B8
:1035C80081A202D0010E516E819241D082A602D012
:1035D800010E516E82963BD082A802D0010E516E28
:1035E800829835D082AA02D0010E516E829A2FD0CD
:1035F80082AC02D0010E516E829C29D082AE02D0DC
:10360800010E516E829E23D080A402D0010E516E0D
:1036180080941DD080A202D0010E516E809217D0E6
:1036280080B0F4D7F5D74F50C5E0010AC9E0030AC6
:10363800CDE0010AD1E0070AD5E0010AD9E0030A82
:10364800DDE0010AE1E00F0AE5E0010AE9E0515096
:10365800D8A450A808D0140E0001CE6F040ECF6F66
:103668004F5056EC21F04FC0D0F0010E0001D16F41
:10367800D26BD02B03D0D890D137D237D02FFBD7ED
:10368800D1516813D2516913740E4F24086E096A18
:10369800000E092220EC24F00001D06F730E4F2495
:1036A800086E096A000E092220EC24F00001D26F8E
:1036B800D16BD051D1250101006F0001000ED2213C
:1036C8000101016F1200D16B090E4F6401D08BD03C
:1036D8005C0E4F24086E096A000E092220EC24F0C3
:1036E8000001D06FD0AF7FD039D081B002D0010EA9
:1036F800D16F818047D081B202D0010ED16F818213
:1037080041D082B602D0010ED16F82863BD082B8FA
:1037180002D0010ED16F828835D082BA02D0010E54
:10372800D16F828A2FD082BC02D0010ED16F828CD9
:1037380029D082BE02D0010ED16F828E23D080B4F0
:1037480002D0010ED16F80841DD080B202D0010E4C
:10375800D16F808217D080A0F4D7F5D74F50C5E03D
:10376800010AC9E0030ACDE0010AD1E0070AD5E061
:10377800010AD9E0030ADDE0010AE1E00F0AE5E009
:10378800010AE9E0D0A524D04F50020D870EF3249A
:10379800086E000EF420096E20EC24F0516E506A79
:1037A8004F50020D880EF324086E000EF420096EA7
:1037B80020EC24F05026000E51224F50020DF350F9
:1037C8000001800FD96EDA6A50C0DEFF51C0DDFFFC
:1037D800D151D8A4D0A707D0140ECE6F030ECF6F47
:1037E8004F5056EC21F012000AC00EF00B662BD099
:1037F8000E50D96E6CD80C36D8900C36D8900C3444
:10380800DF6E0E50D96EDA6AD92ADA6A73D8D89080
:103818000C320D2EFCD70C5063D8050E0D6ED890C7
:103828000C320D2EFCD70E50D96EDA6A0C50DF120E
:103838003DD8DF6A0E50D96EDA6A030ED926DA6AE5
:10384800000EDF6E32D032D855D8D8900C360D2EF7
:10385800FCD70C50DF6E0E50D96EDA6A030ED926EB
:1038680036D80C32D8900C32D8900C3039D8030E98
:103878000C161CD80C50DF1208C0D9FF09C0DAFF9B
:10388800DF500C6ED8900C32D8900C32D8900C3295
:103898001C0E0C160BD80C50DF120FD8E12AE26A66
:1038A800DFCFE7FF0AD8DFCFE7FF12000E50D96E4F
:1038B800DA6A020ED926DA6A1200084A092A08C00A
:1038C800D9FF09C0DAFF0E50E16EE26A1200DA6A27
:1038D80008C0E1FF09C0E2FFE7500C6ED890120063
:1038E800DF6E084A092A08C0D9FF09C0DAFFDF508D
:1038F8000C6E120008C0E1FF09C0E2FFE7500C6E31
:10390800050E0D6E050C0A0E116E0E6622D01150B2
:10391800D96EDA6ADF500F6ED8900F32D8900F3216
:10392800D8900F3058D8D92ADA6A71D8D8900F367B
:10393800102EFCD708C0D9FF44D869D8D8900F36C4
:10394800102EFCD70F5008C0D9FF09C0DAFFDF6E70
:1039580037D054D8050E106ED8900F32102EFCD7E1
:103968000F5039D8030E40D80F3608C0D9FF29D8D0
:10397800020E3AD80F34E00B08C0D9FF09C0DAFFAD
:10398800DF6E08C0D9FF09C0DAFF000EDB8636D823
:10399800030E0F1608C0D9FF14D8D92ADA6A08C04E
:1039A800E1FF09C0E2FFDFCFE7FF084A092A11500B
:1039B800D96EDA6A08C0E1FF09C0E2FFDFCFE7FF8E
:1039C800120009C0DAFF0F50DF12084A092A115005
:1039D800D96EDA6A120008C0D9FF09C0DAFFDF6EB3
:1039E8001150D96EDA6A1200D926DA6ADF500F6EE2
:1039F800D8900F36D8900F36D89012001150D96E43
:103A0800DA6A020ED926DA6ADF500F6E1200DF502A
:103A18000F6E050E106E050CE8CF4EF0481C4D6E6B
:103A28004E50830A02E1766B7CD0830E4E640ED032
:103A3800890E4E600BD048C00CF04E507C0FA2ECA3
:103A480023F04E507C0F03EC24F069D04E50920ABC
:103A58000DE148504A6E496A52504B6E4C6A491003
:103A6800526E4A504C10536E535059D04E50930AD0
:103A78000BE1496A53504A6E48504910526E4A50F9
:103A8800536E52C04DF04ED0880E4E6419D0910E30
:103A98004E6016D053C049F049C04AF04B6A4A28D4
:103AA80002E1522802E0481C3AD048C00CF04E50BF
:103AB800770F0DEC23F04E50770FF9EC23F02FD051
:103AC800CF0E4E6417D0E00E4E6014D053C049F0AC
:103AD80049C04AF04B6A4A28E6E15228E4E148C066
:103AE8000CF04E50300F20EC23F04E50300F0DEC00
:103AF80024F015D04E50A20AD6E14850550A04E1E8
:103B08006E6B6F6B550E0BD04850AA0A0BE1E80E8E
:103B18006E5D030E6F5905E24BEC24F0AA0E4D6E54
:103B280001D04D6A4D501200516A090E4F6401D000
:103B38007AD05C0E4F24086E096A000E092220EC28
:103B480024F0506E50AE6FD039D081A002D0010E53
:103B5800516E819047D081A202D0010E516E8192A0
:103B680041D082A602D0010E516E82963BD082A827
:103B780002D0010E516E829835D082AA02D0010E71
:103B8800516E829A2FD082AC02D0010E516E829C67
:103B980029D082AE02D0010E516E829E23D080A41D
:103BA80002D0010E516E80941DD080A202D0010E69
:103BB800516E809217D080B0F4D7F5D74F50C5E03A
:103BC800010AC9E0030ACDE0010AD1E0070AD5E0FD
:103BD800010AD9E0030ADDE0010AE1E00F0AE5E0A5
:103BE800010AE9E05150D8A450A808D0140E0001E9
:103BF800CE6F040ECF6F4F5056EC21F04FC0D0F06F
:103C0800010E0001D16FD26BD02B03D0D890D137E1
:103C1800D237D02FFBD7D11DD36FD21DD46FD3513C
:103C28006817D45169171200516A090E4F6401D000
:103C380076D05C0E4F24086E096A000E092220EC2B
:103C480024F0506E50AE6BD03FD081A002D081904E
:103C580037D08180010E516E4BD081A202D0819263
:103C68002FD08182F7D782A602D0829629D0828669
:103C7800F1D782A802D0829823D08288EBD782AA73
:103C880002D0829A1DD0828AE5D782AC02D0829C6B
:103C980017D0828CDFD782AE02D0829E11D0828E5E
:103CA800D9D780A402D080940BD08084D3D780A2A7
:103CB80002D0809205D08082CDD780A003D080909A
:103CC800516A16D08080C6D74F50BFE0010AC5E0C0
:103CD800030AC9E0010ACDE0070AD1E0010AD5E0EC
:103CE800030AD9E0010ADDE00F0AE1E0010AE5E094
:103CF80051500BE050A613D0140E0001CE6F030EE6
:103D0800CF6F4F5056EC21F00AD050A808D0140EAF
:103D18000001CE6F040ECF6F4F5056EC21F0120009
:103D280065D8DF2A096A720E086E20EC24F04F6EFF
:103D38005DD8DF504F5C59E2140E00017225D96E30
:103D4800DA6A010EDA22DF6A660E7225086E096ADF
:103D5800000E092220EC24F04F6E4FA426D0096AE9
:103D6800700E086E20EC24F04F6E4FA00FD00001AB
:103D78007251B00FD96EDA6ADF5037E1096A700EF6
:103D8800086E20EC24F04F6E4FA02FD01E0E0001BD
:103D9800CE6F060ECF6F725156EC21F07251B00FF4
:103DA800D96EDA6A010EDF6E20D0096A700E086ECD
:103DB80020EC24F04F6E4FA00FD000017251B00FCD
:103DC800D96EDA6ADF5011E1096A700E086E20ECCC
:103DD80024F04F6E4FA009D01E0E0001CE6F050EC5
:103DE800CF6F725156EC21F0D9D71200140E000192
:103DF8007225D96EDA6A0101010EDA221200516ABF
:103E0800090E4F6401D069D05C0E4F24086E096A10
:103E1800000E092220EC24F0506E50AE5ED032D055
:103E2800000E81B0010E516E41D0000E81B2010E1C
:103E3800516E3CD0000E82B6010E516E37D0000E86
:103E480082B8010E516E32D0000E82BA010E516E48
:103E58002DD0000E82BC010E516E28D0000E82BEFD
:103E6800010E516E23D0000E80B4010E516E1ED08B
:103E7800000E80B2010E516E19D0000E80B0010EF6
:103E8800516E14D04F50CCE0010ACFE0030AD2E0C3
:103E9800010AD5E0070AD8E0010ADBE0030ADEE000
:103EA800010AE1E00F0AE4E0010AE7E051500BE003
:103EB80050A813D0140E0001CE6F040ECF6F4F50D0
:103EC80056EC21F00AD050A808D0140E0001CE6F8D
:103ED800040ECF6F4F5056EC21F01200516A090EB4
:103EE8004F6401D065D05C0E4F24086E096A000E3D
:103EF800092220EC24F0506E50AE5AD039D081A05F
:103F080002D0010E516E819047D081A202D0010EDD
:103F1800516E819241D082A602D0010E516E8296D6
:103F28003BD082A802D0010E516E829835D082AA69
:103F380002D0010E516E829A2FD082AC02D0010EAF
:103F4800516E829C29D082AE02D0010E516E829EA3
:103F580023D080A402D0010E516E80941DD080A27F
:103F680002D0010E516E809217D080B0F4D7F5D7E9
:103F78004F50C5E0010AC9E0030ACDE0010AD1E0CB
:103F8800070AD5E0010AD9E0030ADDE0010AE1E009
:103F98000F0AE5E0010AE9E05150D8A450A808D07A
:103FA800140E0001CE6F040ECF6F4F5056EC21F067
:103FB800120051D0572811E0810EA26FA36BA46B99
:103FC800A56B020EA66F57C0A8F048EC22F0010EB0
:103FD80000017D6F706B716B45D0040E7C6F810E94
:103FE800A26FA869070EA36FA46BA56B030EA66F3B
:103FF80048EC22F037D094AF0FD09751961132E1A8
:104008009851030A2FE1576603D0020E7C6FE2D75E
:10401800572A7D6B7E6B26D0E90E705D030E7159B1
:1040280021E37E2B020E7E6514D0576605D0572AF1
:104038007D6B706B716BEED757C07BF0030E7C6F96
:104048007D6B7B51EEEC23F000017E6B76EC23F068
:1040580009D07D6B07D000017D51ACE0010ACBE0AF
:10406800030AF7E10001946B120041C0BAF0BB6B80
:10407800BC6BBD6BBCC0BDF0BBC0BCF0BAC0BBF074
:10408800BA6B3F50BE6F4050BF6FC06BC16BBFC0B3
:10409800C1F0BEC0C0F0BF6BBE6B43C0C2F0C36B03
:1040A800C46BC56B1A0ED890C237C337C437C5372F
:1040B800E82EF9D7BE51C211C66FBF51C311C76FE1
:1040C800C051C411C86FC151C511C96FBA51C611C9
:1040D800CA6FBB51C711CB6FBC51C811CC6FBD5152
:1040E800C911CD6F4250CA11476ECB51486ECC51A1
:1040F800496ECD514A6E47C037F048C038F049C0C4
:1041080039F04AC03AF044C03BF045C03CF046C0E4
:104118003DF0A7EC21F00009000ED8A4010E120012
:10412800800ED7EC23F0090E706EFC0E716E010E36
:10413800726E200E736E778E779C606A0F01506BDB
:104148000E01206B306B406B506B606B706BE00E38
:104158000D01F86F0F01006B080E016F026B036B06
:10416800046BE80E056F1A0E066F076B030E0D0140
:10417800D46FD56BE06B110EE16FE26FE36BE46B0C
:10418800E56BE66BE76B540EF06F050EF16FF26BA3
:10419800F26B0F0E0F01186FE00E196F1A6B1B6B85
:1041A80019870F0E1C6FE00E1D6F1E691F6B1D8790
:1041B800000ED7EF23F0E8CF27F021C01AF022C075
:1041C8001BF0280EA6EC22F0000902E1000E2ED00A
:1041D8001F50D96EDA6A28C0DFFF1E50D96EDA6A1E
:1041E80029C0DFFF2A50236E010E2B14246E27509E
:1041F800D96EDA6A23C0DEFF24C0DDFF2050D96EF5
:10420800DA6A28C023F029C024F02AC025F02BC080
:1042180026F01B0E05D0D8902632253224322332C0
:10422800E82EF9D72350070BDF6E010E1200E8CFF6
:104238000BF024D00F0E0D6E600E1ED00F010F0E66
:104248000D6E500E19D00E010E0E0D6E200E14D0EC
:104258000E010E0E0D6E300E0FD00E010E0E0D6EED
:10426800400E0AD00E010E0EEBD70E010E0EE3D74C
:104278000E010E0E0D6E700E0C6E0FD00B50DAE0A4
:10428800010ADCE0030ADFE0010AE2E0070AE5E0F0
:10429800010AE8E0030AE9E0EBD70CC008F00DC01A
:1042A80009F01200E8CF4EF04EC04BF0096A440EF8
:1042B800086E20EC24F04C6E460E4E24086E096AF7
:1042C800000E092220EC24F04D6E0001CEC03FF014
:1042D800406ACFC041F07BC042F0030E436E446E8B
:1042E8004B0E456E000E466E0F0E466E5F0E456411
:1042F800466A39EF20F07F2B3B0E7F650DD07F6B30
:104308007A2B7C51030A08E132EC24F00001CE6FCD
:1043180037EC24F0FAEC22F03B0E00017A6502D06B
:104328007A6B782B170E786501D0786B7C51030A6D
:1043380009E1772B77C04DF00F0E4D16020E4D5C3C
:10434800D8B0776B12003E6A6C6B6D6B17D037C0B4
:1043580012F038C013F039C014F03AC015F03CC060
:1043680016F03DC017F03BC018F0200E196E18EC7F
:104378001AF0000903E0010E3E6E06D0E80E0001B7
:104388006C5D030E6D59E3E30001A26B3E50120011
:10439800020E566E46EC24F000017B6F7B6701D05D
:1043A8007B69946B956B966B976B986BA26BA36B01
:1043B800A46BA56BA66B766B556A576A7C6B7D6B95
:1043C8007E6B526A536A706B716B6E6B6F6B7F6B2F
:1043D8007A6B786B12000F0EC16E926A806A080EB3
:1043E800936E816A010E946E826A920E85EC23F0B8
:1043F800FB0E096E1D0E086E17EC24F08190819259
:1044080082968298829A829C829E809480928090E2
:1044180094EC20F0F28CF28E1200000E57EC23F090
:10442800550A07E1010E57EC23F0AA0A02E1010E32
:1044380010D054EC24F0FF0EEEEC23F0550E0C6E69
:10444800000E33EC23F0AA0E0C6E010E33EC23F0B1
:10445800000E120008C0A9FF0AC0A8FFA69EA69CCD
:10446800A684000EF2BE010E0B6EF29E550EA76ECC
:10447800AA0EA76EA682A6B2FED70BB002D0F29EF5
:1044880001D0F28EA6941200A4C03FF0A5C040F05F
:10449800A6C041F07BC042F0A3C043F0A2510F0B6D
:1044A800446E000E466EA80E456E39EC20F04B6E39
:1044B8004B6602D00001762B120094510F0B0D6E43
:1044C8000D5012E07B5120EE9AF0DF620DD00D0402
:1044D80005E0010E0D6408D09B6706D07B69FF0ECE
:1044E800EEEC23F0CCEC21F0120001EE00F01E0EF1
:1044F800EE6AE806FDE100EE60F05A0EEE6AE806A4
:10450800FDE100EE52F0070EEE6AE806FDE1000E4E
:10451800F86E0001A4EF15F008C00EF009C00FF006
:1045280008D00EC0D9FF0FC0DAFF0AC0DFFF0E4A5D
:104538000F2A0C06D8A00D060C28D8B40D28D8B41C
:104548001200EFD7E8CF1CF094AF02D0000E0FD0C6
:104558001BC00FF01AC010F01D0E116E1C50B9ECE4
:1045680016F00009F3E01DAC1DAAF0D7010E1200E9
:1045780094C04CF00F0E4C164C040EE17B5120EE0B
:104588009AF0DF6209D0800EA26FA36BA46BA56BB3
:10459800030EA66F48EC22F0120094BF12D0980EBA
:1045A8001E6E990E1F6E950E206E940E216E9A0E39
:1045B800226E960EDFEC20F02C6E2C5002E00001EB
:1045C800948F1200E8CF09F0080E0A6E0B6AD89093
:1045D80009340B340B6ED890093608500B5C02E393
:1045E80008500B5E0A2EF3D70B501200E8CF4CF0A0
:1045F800830E0001A26F070EA36FA56B140EA46FA4
:10460800090EA66FA86B4CC0A9F0CEC0AAF048EF5F
:1046180022F0E8CF0DF0070E0D6401D00CD04FEC5E
:1046280024F00C0E0D24086E096A000E09220CC035
:104638000AF02EEC22F01200E8CF0DF00F0E0D64F8
:1046480001D00CD04FEC24F0140E0D24086E096A2A
:10465800000E09220CC00AF02EEC22F01200E8CF5E
:104668000DF0010E0C6401D00CD04FEC24F0030EB9
:104678000C24086E096A000E09220DC00AF02EECFF
:1046880022F01200E8CF50F07F0E506406D0DCC054
:1046980048F0505010EC1DF005D0DCC04FF05050E1
:1046A80078EC04F01200E8CF0AF0010E0A6402D098
:1046B800000E08D0030E0A24086E096A000E0922AB
:1046C80020EC24F0120094510F0B020A0AE17B51EE
:1046D80020EE9AF0DF6205D09BC07BF07B51EEECB8
:1046E80023F01200810E0001A26FA36BA46BA56BCF
:1046F800020EA66F7BC0A8F048EC22F0010E566EA1
:10470800010CE8CF08F008507F0BD56ED76AD66A3F
:10471800F29408AE02D0F28A01D0F29AD58E120035
:10472800E8CFD1F0D26BD2C04FF0D15103EC1FF0DB
:104738000001D22B080ED265F6D7080CE8CF0DF091
:104748004FEC24F0070E0D24086E096A000E0922AA
:104758000CC00AF02EEF22F0E8CF0CF00C0409E1AF
:104768004FEC24F0096A086AFF0E0A682EEC22F062
:10477800FF001200E8CF1DF07F0E1D6404D01D500D
:1047880092EC18F003D01D50BDEC17F01200E8CFE2
:1047980009F00950CE0F086E08C0F6FF080EF76E34
:1047A8000800F5501200E8CF08F01F0E6F160850E9
:1047B8006F126F50E00B0818D8B41200FAD7080E21
:1047C800A86FA96BAA6B020EAB6FAC6B020EAD6F34
:1047D800AE6B1200E8CF0CF04FEC24F0096A010E22
:1047E800086E0CC00AF02EEF22F0E8CF0AF00C0E8B
:1047F8000A24086E096A000E092220EF24F0E8CF87
:104808000AF0070E0A24086E096A000E092220EF32
:1048180024F0E8CF0AF0140E0A24086E096A000E84
:10482800092220EF24F008C00AF009C00BF00BC0E1
:10483800D7FF0AC0D6FF120008C0A9FFA69CA69EF3
:10484800A68000F000F0A850120001C003F002C0DA
:1048580004F004C0D7FF03C0D6FF1200096A450E52
:10486800086E20EF24F0096A440E086E20EF24F049
:10487800086A096A0A6A0B6A1200086A096A0A6AF7
:104888000B6A1200096A010E086E20EF24F062EC30
:1048980019F01AEF13F0A6A21200FDD7566A1200FB
:1048A80062EF19F01200030C080C010C020C010C49
:0448B800010C1200DD
:020000040020DA
:08000000FFFFFFFFFFFFFFFF00
:020000040030CA
:0E000000FF061C1EFF8281FF0FC00FE00F40A5
:00000001FF
