:0400000063EF00F0BA
:10001800D8CF05F0E8CF06F0E0CF07F0F2A401D082
:1000280001D046D0FB0E026E1D0E016E79EC26F053
:1000380000016E4B6F2B6C4B6D2B010E6027000E71
:100048006123000E6223000E6323010E6427000E55
:100058006523000E6623000E672382A001D001D01D
:1000680002D0766B01D0762B582A5650020AD8A4B3
:1000780001D001D00ED0640E586401D001D009D04F
:1000880082A201D001D002D0829201D08282586A25
:100098000ED05604D8A401D001D003D08282586A69
:1000A80006D0566601D001D002D08292586AF294E6
:1000B80007C0E0FF06C0E8FF05C0D8FF100092EFB8
:0200C80024F022
:100600007777772E6575726F736F757263652E736A
:10061000652F6265696A696E675F322E786D6C005E
:100620000000E8CFD7F0D46BD66B4F1CD56F53507A
:10063000521002E014EF09F0D76710D0A4EC26F0B6
:10064000096A430E086E4FC00AF060EC24F0096A94
:10065000430E086E70EC26F0B1EF0AF0D70510E1FA
:10066000A4EC26F0096A440E086E4FC00AF060EC54
:1006700024F0096A440E086E70EC26F0B1EF0AF01F
:10068000010ED7651BD00C0ED76118D0A4EC26F054
:10069000430E0001D725086E096A000E09224FC0DB
:1006A0000AF060EC24F0430E0001D725086E096AB9
:1006B000000E092270EC26F0B1EF0AF0D7510C0AB7
:1006C00026E1A4EC26F0096A4F0E086E4F50030B8A
:1006D0000A6E60EC24F0010E4FA2000E0001CC6FF8
:1006E0009250CC19FE0BCC19926E010E4FA0000E49
:1006F000CC6FCC479250CC19FD0BCC19926E923036
:10070000010BCC6F9250010B020DF35096D0D751D4
:100710000D0A01E095D0A4EC26F0096A500E086E8F
:100720004FC00AF060EC24F0010E4FAE000E000145
:10073000CC6FCC47CC479250CC19FB0BCC19926EA6
:10074000010E4FAC000ECC6FCC33CC339450CC198F
:100750007F0BCC19946E010E4FAA000ECC6FCC3BD0
:10076000CC47CC479450CC19BF0BCC19946E010EDA
:100770004FA8000ECC6FCC3BCC479450CC19DF0B6C
:10078000CC19946E010E4FA6000ECC6FCC3B94504A
:10079000CC19EF0BCC19946E010E4FA4000ECC6F48
:1007A000CC47CC47CC479450CC19F70BCC19946E5E
:1007B000010E4FA2000ECC6FCC479350CC19FD0B0D
:1007C000CC19936E010E4FA0000ECC6F9350CC1934
:1007D000FE0BCC19936E9350010BCC6F9330010B31
:1007E000020DF3CFCDF09430E832E832010B040D66
:1007F000F3CFCEF09438010B080DF3CFCFF094383F
:10080000E832010B100DF3CFD0F09438E832E83223
:10081000010B200DF3CFD1F09434E836010B400DDD
:10082000F3CFD2F09230E832010B800DF350D22595
:10083000D125D025CF25CE25CD25CC25B2EF0AF068
:100840000D0ED7653BD2180ED76138D24D0ED72585
:10085000086E096A000E092270EC26F00001CC6FC8
:10086000CCBF0CD2B3EF0AF0010ED46F4F0428E1D5
:100870008180000E81B0010ED56F010ED66F096A1E
:100880005B0E086E70EC26F00001CC6FCCA5B3EFC8
:100890000AF0096A860E086E70EC26F00001CC6F33
:1008A000096A850E086E70EC26F00001CE6FCD6BE4
:1008B000CC51CD257D6F000ECE217E6FB3EF0AF0B7
:1008C0004F66B3EF0AF08190000E81B0010ED56F34
:1008D000D66BB3EF0AF0010ED46F4F041EE1818294
:1008E000000E81B2010ED56F010ED66F096A5C0E43
:1008F000086E70EC26F00001CC6FCCA5B3EF0AF0C7
:10090000096A880E086E70EC26F00001CC6F096A47
:10091000870E086E70EC26F062D24F66B3EF0AF0D5
:100920008192000E81B2010ED56FD2D7010ED46F25
:100930004F0428E18286000E82B6010ED56F010EAB
:10094000D66F096A5D0E086E70EC26F00001CC6F60
:10095000CCA5B3EF0AF0096A8A0E086E70EC26F097
:100960000001CC6F096A890E086E70EC26F0000158
:10097000CE6FCD6BCC51CD25816F000ECE21826F15
:10098000B3EF0AF04F66B3EF0AF08296000E82B61C
:10099000010ED56F9DD7010ED46F4F0428E18288D8
:1009A000000E82B8010ED56F010ED66F096A5E0E79
:1009B000086E70EC26F00001CC6FCCA5B3EF0AF006
:1009C000096A8C0E086E70EC26F00001CC6F096A83
:1009D0008B0E086E70EC26F00001CE6FCD6BCC5103
:1009E000CD25836F000ECE21846FB3EF0AF04F66E2
:1009F000B3EF0AF08298000E82B8010ED56F68D767
:100A0000010ED46F4F0428E1828A000E82BA010ED3
:100A1000D56F010ED66F096A5F0E086E70EC26F076
:100A20000001CC6FCCA5B3EF0AF0096A8E0E086EF8
:100A300070EC26F00001CC6F096A8D0E086E70EC28
:100A400026F00001CE6FCD6BCC51CD25856F000E09
:100A5000CE21866FB3EF0AF04F66B3EF0AF0829AA9
:100A6000000E82BA010ED56F33D7010ED46F4F043A
:100A700028E1828C000E82BC010ED56F010ED66F6C
:100A8000096A600E086E70EC26F00001CC6FCCA5F0
:100A9000B3EF0AF0096A900E086E70EC26F00001C0
:100AA000CC6F096A8F0E086E70EC26F00001CE6FD5
:100AB000CD6BCC51CD25876F000ECE21886FB3EF63
:100AC0000AF04F66B3EF0AF0829C000E82BC010E62
:100AD000D56FFED6010ED46F4F0428E1828E000E32
:100AE00082BE010ED56F010ED66F096A610E086EC7
:100AF00070EC26F00001CC6FCCA5B3EF0AF0096AC8
:100B0000920E086E70EC26F00001CC6F096A910E0F
:100B1000086E70EC26F00001CE6FCD6BCC51CD2568
:100B2000896F000ECE218A6FB3EF0AF04F66B3EFE4
:100B30000AF0829E000E82BE010ED56FC9D6010E4C
:100B4000D46F4F0428E18084000E80B4010ED56F6D
:100B5000010ED66F096A620E086E70EC26F0000175
:100B6000CC6FCCA5B3EF0AF0096A940E086E70EC56
:100B700026F00001CC6F096A930E086E70EC26F027
:100B80000001CE6FCD6BCC51CD258B6F000ECE21E9
:100B90008C6FB3EF0AF04F66B3EF0AF08094000E4B
:100BA00080B4010ED56F94D6010ED46F4F0428E1A6
:100BB0008082000E80B2010ED56F010ED66F096AD9
:100BC000630E086E70EC26F00001CC6FCCA5B3EF7D
:100BD0000AF0096A960E086E70EC26F00001CC6FE0
:100BE000096A950E086E70EC26F00001CE6FCD6B91
:100BF000CC51CD258D6F000ECE218E6FB3EF0AF054
:100C00004F66B3EF0AF08092000E80B2010ED56FEE
:100C10005FD6010ED46F4F0428E18080000E80B0B3
:100C2000010ED56F010ED66F096A640E086E70EC66
:100C300026F00001CC6FCCA5B3EF0AF0096A980E3C
:100C4000086E70EC26F00001CC6F096A970E086EF2
:100C500070EC26F00001CE6FCD6BCC51CD258F6F9F
:100C6000000ECE21906FB3EF0AF04F66B3EF0AF09B
:100C70008090000E80B0010ED56F2AD6D7510E0A93
:100C800001E1F2D5010A01E126D61F0A01E14ED6A3
:100C9000010A01E180D6030A01E1B2D6010A01E1AD
:100CA000E4D6070A01E116D7010A01E148D7030A91
:100CB00001E17AD7010AADE0B3EF0AF0170ED7656C
:100CC000ABD2220ED761A8D288D2A4EC26F0710E46
:100CD0000001D725086E096A000E09224FC00AF0EC
:100CE00060EC24F0710E0001D725086E096A000E31
:100CF000092270EC26F00001D56F4FA01CD0819026
:100D0000D66B6881096A710E086E70EC26F00001DE
:100D1000CC6F096A710E086E70EC26F00001CE6F80
:100D2000CD6BCC51CD250101006F0001000ECE210D
:100D30000101016F06D0FE0E6817030E691781903E
:100D4000D66B4FB4A6D5B3EF0AF0A4EC26F0710E23
:100D50000001D725086E096A000E09224FC00AF06B
:100D600060EC24F0710E0001D725086E096A000EB0
:100D7000092270EC26F00001D56F4FA21CD08192A1
:100D8000D66B6883096A720E086E70EC26F000015B
:100D9000CC6F096A710E086E70EC26F00001CE6F00
:100DA000CD6BCC51CD250101026F0001000ECE218B
:100DB0000101036F06D0FD0E6817030E69178192BB
:100DC000D66B4FA4D0D3096A860E086E70EC26F05D
:100DD0000001CC6F096A850E086E70EC26F00001E8
:100DE000CE6FCD6BCC51CD257F6F000ECE21806FA5
:100DF000BAD3A4EC26F0710E0001D725086E096A5B
:100E0000000E09224FC00AF060EC24F0710E0001C0
:100E1000D725086E096A000E092270EC26F0000141
:100E2000D56F4FA01CD08296D66B6885096A760E66
:100E3000086E70EC26F00001CC6F096A750E086E22
:100E400070EC26F00001CE6FCD6BCC51CD250101A9
:100E5000046F0001000ECE210101056F06D0FB0ECC
:100E60006817030E69178296D66B4FB474D57BD37F
:100E7000A4EC26F0710E0001D725086E096A000E59
:100E800009224FC00AF060EC24F0710E0001D72552
:100E9000086E096A000E092270EC26F00001D56F79
:100EA0004FA01CD08298D66B6887096A780E086EAE
:100EB00070EC26F00001CC6F096A770E086E70ECBA
:100EC00026F00001CE6FCD6BCC51CD250101066F10
:100ED0000001000ECE210101076F06D0F70E681742
:100EE000030E69178298D66B4FB46AD53CD3A4EC35
:100EF00026F0710E0001D725086E096A000E09223E
:100F00004FC00AF060EC24F0710E0001D725086E86
:100F1000096A000E092270EC26F00001D56F4FA47B
:100F20001CD0829AD66B6889096A7A0E086E70ECBA
:100F300026F00001CC6F096A790E086E70EC26F07D
:100F40000001CE6FCD6BCC51CD250101086F0001A2
:100F5000000ECE210101096F06D0EF0E6817030EB7
:100F60006917829AD66B4FB460D5FDD2A4EC26F0F7
:100F7000710E0001D725086E096A000E09224FC0C4
:100F80000AF060EC24F0710E0001D725086E096AA2
:100F9000000E092270EC26F00001D56F4FA01CD086
:100FA000829CD66B688B096A7C0E086E70EC26F00A
:100FB0000001CC6F096A7B0E086E70EC26F0000110
:100FC000CE6FCD6BCC51CD2501010A6F0001000E13
:100FD000CE2101010B6F06D0DF0E6817030E6917D3
:100FE000829CD66B4FB456D5BED2A4EC26F0710EBF
:100FF0000001D725086E096A000E09224FC00AF0C9
:1010000060EC24F0710E0001D725086E096A000E0D
:10101000092270EC26F00001D56F4FA01CD0829EF3
:10102000D66B688D096A7E0E086E70EC26F00001A2
:10103000CC6F096A7D0E086E70EC26F00001CE6F51
:10104000CD6BCC51CD2501010C6F0001000ECE21DE
:1010500001010D6F06D0BF0E6817030E6917829E3F
:10106000D66B4FB44CD57FD2A4EC26F0710E0001A4
:10107000D725086E096A000E09224FC00AF060ECFD
:1010800024F0710E0001D725086E096A000E0922AE
:1010900070EC26F00001D56F4FA01CD08094D66B69
:1010A000688F096A800E086E70EC26F00001CC6F24
:1010B000096A7F0E086E70EC26F00001CE6FCD6BD2
:1010C000CC51CD2501010E6F0001000ECE21010192
:1010D0000F6F06D07F0E6817030E69178094D66BCA
:1010E0004FB442D540D2A4EC26F0710E0001D725B2
:1010F000086E096A000E09224FC00AF060EC24F065
:10110000710E0001D725086E096A000E092270ECE5
:1011100026F00001D56F4FA01CD08092D66B69815C
:10112000096A820E086E70EC26F00001CC6F096A25
:10113000810E086E70EC26F00001CE6FCD6BCC51A5
:10114000CD250101106F0001000ECE210101116FAC
:1011500004D0020E69178092D66B4FB43AD503D2F1
:10116000A4EC26F0710E0001D725086E096A000E66
:1011700009224FC00AF060EC24F0710E0001D7255F
:10118000086E096A000E092270EC26F00001D56F86
:101190004FA01CD08090D66B6983096A840E086EBC
:1011A00070EC26F00001CC6F096A830E086E70ECBB
:1011B00026F00001CE6FCD6BCC51CD250101126F11
:1011C0000001000ECE210101136F04D0010E69173A
:1011D0008090D66B4FB432D5C6D1D751180A01E1F1
:1011E00074D5010A01E1B1D5030A01E102D6010A71
:1011F00001E13ED6070A01E17AD6010A01E1B6D63D
:10120000030A01E1F2D6010A01E12ED73F0A01E10A
:101210006AD7010AA5E0A7D1210ED765A4D12E0E69
:10122000D761A1D146EF03F05204531001E07AD107
:10123000140ED7612FD1A4EC26F0710E0001D72532
:10124000086E096A000E09224FC00AF060EC24F013
:10125000710E0001D725086E096A000E092270EC94
:1012600026F00001D56FFAD0096A720E086E70EC94
:1012700026F00001CC6F096A710E086E70EC26F042
:101280000001CE6FCD6BCC51CD250101006F000167
:10129000000ECE210101016F66D1096A740E086E3D
:1012A00070EC26F00001CC6F096A730E086E70ECCA
:1012B00026F00001CE6FCD6BCC51CD250101026F20
:1012C0000001000ECE210101036F4DD1096A760E97
:1012D000086E70EC26F00001CC6F096A750E086E7E
:1012E00070EC26F00001CE6FCD6BCC51CD25010105
:1012F000046F0001000ECE210101056F34D1096A8F
:10130000780E086E70EC26F00001CC6F096A770E3B
:10131000086E70EC26F00001CE6FCD6BCC51CD2560
:101320000101066F0001000ECE210101076F1BD1E4
:10133000096A7A0E086E70EC26F00001CC6F096A1B
:10134000790E086E70EC26F00001CE6FCD6BCC519B
:10135000CD250101086F0001000ECE210101096FAA
:1013600002D1096A7C0E086E70EC26F00001CC6F89
:10137000096A7B0E086E70EC26F00001CE6FCD6B13
:10138000CC51CD2501010A6F0001000ECE210101D3
:101390000B6FE9D0096A7E0E086E70EC26F0000132
:1013A000CC6F096A7D0E086E70EC26F00001CE6FDE
:1013B000CD6BCC51CD2501010C6F0001000ECE216B
:1013C00001010D6FD0D0096A800E086E70EC26F016
:1013D0000001CC6F096A7F0E086E70EC26F00001E8
:1013E000CE6FCD6BCC51CD2501010E6F0001000EEB
:1013F000CE2101010F6FB7D0096A820E086E70EC22
:1014000026F00001CC6F096A810E086E70EC26F0A0
:101410000001CE6FCD6BCC51CD250101106F0001C5
:10142000000ECE210101116F9ED0096A840E086E54
:1014300070EC26F00001CC6F096A830E086E70EC28
:1014400026F00001CE6FCD6BCC51CD250101126F7E
:101450000001000ECE210101136F85D0D751010A82
:1014600001E102D7020A01E118D7060A01E12ED7ED
:10147000020A01E144D70E0A01E15AD7020A01E14A
:1014800070D7060A87E0020A9EE01E0AB5E0020A4B
:10149000CCE069D0130ED76566D0280ED76163D033
:1014A000A4EC26F0710E0001D725086E096A000E23
:1014B00009224FC00AF060EC24F0710E0001D7251C
:1014C000086E096A000E092270EC26F00001D56F43
:1014D000D751150A02E149EF04F0020A02E180EF58
:1014E00004F00E0A02E1ABEF04F0020A02E1E0EFC1
:1014F00004F0060A02E115EF05F0020A02E14AEFE4
:1015000005F03E0A02E17FEF05F0020A02E1B4EFC6
:1015100005F0060A02E1E9EF05F0020A02E11EEF1A
:1015200006F021D05250020A53101DE1400ED7613F
:101530001AD0A4EC26F0990E0001D725086E096A8E
:10154000000E09224FC00AF060EC24F047EC14F0C2
:10155000990E0001D725086E096A000E092270EC69
:1015600026F00001D56F0001D45121E0430ED725AC
:10157000086E096A000E092270EC26F00001D36F94
:10158000D6510BE0D3A713D0140ECA6F030ECB6F46
:10159000D751F20FADEC23F00AD0D3A908D0140E26
:1015A000CA6F040ECB6FD751F20FADEC23F0D551BB
:1015B0001200F66B096A500E086E70EC26F00001FE
:1015C000CC6F096A4F0E086E70EC26F00001CE6FEA
:1015D000CD6BCC51CD25F06F000ECE21F16FF86BA5
:1015E000090EF86501D08CD2F8C0CCF0010ECD6F99
:1015F000CE6BCC2B03D0D890CD37CE37CC2FFBD7AA
:10160000F051CD17F151CE17CE51CD1101E1E4D0FB
:10161000650EF825086E096A000E092270EC26F0A6
:101620000001F76FF7AF69D232D0000E81B0010E22
:10163000F56F41D0000E81B2010EF56F3CD0000E67
:1016400082B6010EF56F37D0000E82B8010EF56F2D
:1016500032D0000E82BA010EF56F2DD0000E82BC82
:10166000010EF56F28D0000E82BE010EF56F23D05B
:10167000000E80B4010EF56F1ED0000E80B2010E78
:10168000F56F19D0000E80B0010EF56F14D0F8512F
:10169000CCE0010ACFE0030AD2E0010AD5E0070A54
:1016A000D8E0010ADBE0030ADEE0010AE1E00F0A0C
:1016B000E4E0010AE7E0F7A126D0F55124E0F8C004
:1016C000CCF0010ECD6FCE6BCC2B03D0D890CD37A4
:1016D000CE37CC2FFBD76A51CD176B51CE17CE51D9
:1016E000CD1111E1F7A508D01E0ECA6F050ECB6F04
:1016F000F851ADEC23F007D0140ECA6F030ECB6F78
:10170000F851ADEC23F0F7B3F56724D0F8C0CCF076
:10171000010ECD6FCE6BCC2B03D0D890CD37CE370A
:10172000CC2FFBD76A51CD176B51CE17CE51CD11AF
:1017300011E0F7A508D01E0ECA6F060ECB6FF85148
:10174000ADEC23F007D0140ECA6F040ECB6FF85126
:10175000ADEC23F0F7A91FD0F5511DE0F8C0CCF097
:10176000010ECD6FCE6BCC2B03D0D890CD37CE37BA
:10177000CC2FFBD76A51CD176B51CE17CE51CD115F
:1017800002E0F7AB08D0010ECA6F020ECB6FF85122
:10179000ADEC23F05582F7B7F567AFD1F8C0CCF0C8
:1017A000010ECD6FCE6BCC2B03D0D890CD37CE377A
:1017B000CC2FFBD76A51CD176B51CE17CE51CD111F
:1017C00002E1F7AB9AD1010ECA6F020ECB6FF8514E
:1017D000ADEC23F0558491D15B0EF825086E096AB3
:1017E000000E092270EC26F00001F76FF7AF85D1EB
:1017F000F851020DF3507D0FD96EDA6ADE50DD101C
:1018000039E0F851020DF3507D0FD96EDA6ADE0629
:10181000000EDD5AF851020DF3507D0FD96EDA6AD1
:10182000DE50DD1048E15B0EF825086E096A000EF7
:10183000092270EC26F00001CC6FCCA53CD0F8C09A
:10184000CCF0010ECD6FCC2B02D0D890CD37CC2F61
:10185000FCD7CD514F6E000EC8EC21F00001F7A36C
:1018600007D0010ECA6F020ECB6FF851ADEC23F01A
:10187000558021D0850EF825086E096A000E0922D0
:1018800070EC26F00001CD6FCC6B860EF825086E4B
:10189000096A000E092270EC26F00001CC27000E28
:1018A000CD23F851020DF3507D0FD96EDA6ACCC00A
:1018B000DEFFCDC0DDFFF8C0CCF0010ECD6FCE6BEA
:1018C000CC2B03D0D890CD37CE37CC2FFBD7685157
:1018D000CD176951CE17CE51CD1101E10ED1F8517E
:1018E000020D000EF324D96E010EF420DA6EDE50E4
:1018F000DD1001E1DAD00001F851020D000EF324F1
:10190000D96E010EF420DA6EDE06000EDD5AF851B3
:10191000020D000EF324D96E010EF420DA6EDE50B3
:10192000DD1040E0EAD081A002D0819037D08180E4
:10193000010EF66F4CD081A202D081922FD081820D
:10194000F7D782A602D0829629D08286F1D782A8C4
:1019500002D0829823D08288EBD782AA02D0829AC2
:101960001DD0828AE5D782AC02D0829C17D0828CAF
:10197000DFD782AE02D0829E11D0828ED9D780A4CA
:1019800002D080940BD08084D3D780A202D08092E2
:1019900005D08082CDD780A003D08090F66B17D081
:1019A0008080C6D70001F851BEE0010AC4E0030AF6
:1019B000C8E0010ACCE0070AD0E0010AD4E0030A3B
:1019C000D8E0010ADCE00F0AE0E0010AE4E0F851A7
:1019D000020D710EF324086E000EF420096E70ECF7
:1019E00026F00001CD6FCC6BF851020D710EF3247F
:1019F000086E000EF420096E70EC26F00001CC2772
:101A0000000ECD23F851020D000EF324D96E010E05
:101A1000F420DA6ECCC0DEFFCDC0DDFFF6513BE036
:101A20005B0EF825086E096A000E092270EC26F09C
:101A30000001CC6FCCA525D0F851020D850EF32402
:101A4000086E000EF420096E70EC26F00001CD6FD8
:101A5000CC6BF851020D860EF324086E000EF420B4
:101A6000096E70EC26F00001CC27000ECD23F85152
:101A7000020DF3507D0FD96EDA6ACCC0DEFFCDC007
:101A8000DDFFF7A73AD0140ECA6F030ECB6FF851E3
:101A9000ADEC23F032D0F7A930D0140ECA6F040E8B
:101AA000CB6FF851ADEC23F028D00001F851020DB6
:101AB000710EF324086E000EF420096E70EC26F00F
:101AC0000001CD6FCC6BF851020D720EF324086E3D
:101AD000000EF420096E70EC26F00001CC27000EF9
:101AE000CD23F851020D000EF324D96E010EF4201F
:101AF000DA6ECCC0DEFFCDC0DDFF0001F82B70D563
:101B0000096A700E086E70EC26F000094FE00001C3
:101B1000F26B8030010BCC6F8050010B020DF35043
:101B2000CC25F36F8150010BCC6F8130010B020D7E
:101B3000F3CFCDF08230E832E832010B040DF3CF61
:101B4000CEF08238010B080DF3CFCFF08238E832A7
:101B5000010B100DF3CFD0F08238E832E832010BE0
:101B6000200DF3CFD1F08234E836010B400DF3CFD6
:101B7000D2F08030E832010B800DF350D225D12510
:101B8000D025CF25CE25CD25CC25F46F406A0F0E6C
:101B90003F6E010E416E78C042F0030E436E446EFC
:101BA000000E466EF20E456E90EC22F08150010B55
:101BB0000001CC6F8130010BCD6FD890CD35CE6F49
:101BC000CF6BCF378230E832E832010BD06FD16B68
:101BD000D890D037D137D890D037D1378238010B51
:101BE000D26FD36BD890D237D337D890D237D33780
:101BF000D890D237D3378238E832010BD46FD56B07
:101C0000D43BD53BF00ED517D4510F0BD513F00EA6
:101C1000D4178238E832E832010BD66FD76B050E45
:101C2000D890D637D737E82EFBD78234E836010B69
:101C3000D86FD96B060ED890D837D937E82EFBD796
:101C40008030E832010BDA6FDB6B070ED890DA37A1
:101C5000DB37E82EFBD78030010BDD6FDC6B80506B
:101C6000010BDE6FDF6B090ED890DE37DF37E82E11
:101C7000FBD7DC51DE25E06FDD51DF21E16FDA516A
:101C8000E025E26FDB51E121E36FD851E225E46FFB
:101C9000D951E321E56FD651E425E66FD751E5210F
:101CA000E76FD451E625E86FD551E721E96FD251AE
:101CB000E825EA6FD351E921EB6FD051EA25EC6FAB
:101CC000D151EB21ED6FCE51EC25EE6FCF51ED21CF
:101CD000EF6FCC51EE256A6F000EEF216B6F120093
:101CE0009451931101E1E9D219D341EC24F016D3B8
:101CF000ECEC24F013D376EC25F010D37AEC24F03E
:101D00000DD391510F0B020A01E008D3785120EE58
:101D100097F0DF6203D3800E986112D098511BECCC
:101D20001BF00001A56F98C0A4F0030EA06F820EF7
:101D30009F6FA16BA26B0A0EA36F63EC25F0EED22E
:101D4000985144EC1AF0EDD791510F0B030A01E0C2
:101D5000E5D2785120EE97F0DF62E0D2800E9861F4
:101D600006D099C04FF0985111EC03F0DBD799C021
:101D700048F09851DAEC1FF0D4D7785120EE97F064
:101D8000DF62CCD2000E5DEC26F00001991901E073
:101D9000C5D2030E5DEC26F000019A1901E0BED217
:101DA000050E5DEC26F000019B1901E0B7D2070E8D
:101DB0005DEC26F000019C1901E0B0D253509D1952
:101DC00001E0ACD2525020EE9EF0DF62A7D29851D3
:101DD000F5EC25F0A3D2000E5DEC26F00001981979
:101DE00073E1010E5DEC26F0000199196DE1020E20
:101DF0005DEC26F000019A1967E1030E5DEC26F018
:101E000000019B1961E174895FD0040E5DEC26F03E
:101E10000001981959E1050E5DEC26F000019919B1
:101E200053E1060E5DEC26F000019A194DE1070E14
:101E30005DEC26F000019B1947E1748B45D0080E3C
:101E40005DEC26F0000198193FE1090E5DEC26F0EB
:101E50000001991939E10A0E5DEC26F000019A198A
:101E600033E10B0E5DEC26F000019B192DE1748D22
:101E70002BD00C0E5DEC26F00001981925E10D0E1B
:101E80005DEC26F0000199191FE10E0E5DEC26F0C5
:101E900000019A1919E10F0E5DEC26F000019B1963
:101EA00013E1748F11D0746B0FD097390F0BD96F6A
:101EB000DA6BDA51F8E1D9518EE0010AA6E0030AA3
:101EC000BEE0010AD6E0EFD77451F00BF00A01E052
:101ED00025D2FDEC23F022D2785120EE97F0DF627C
:101EE0001DD2E56B98C0E4F099C0E7F0F36B47D0E2
:101EF000070E086EF35116EC25F00001D96FD95189
:101F0000A50FD96EDA6AE451F32503EC26F0DF6EF3
:101F1000070E086E0001F35116EC25F0060A0BE0DF
:101F2000FF0E0001E725D96FDA6BFF0EDA23F351BC
:101F3000D919DA1123E1070E086E0001F35116ECEE
:101F400025F0060A03E1070E000109D0070E086E0E
:101F50000001F35116EC25F00001D96FD929E66F85
:101F6000E651810F9F6F070EA06FA16BA26B1A0E37
:101F7000A36FE5C0A4F063EC25F0E52BF32BE7514C
:101F8000F35D01E3CBD1B4D7785120EE97F0DF6257
:101F9000C5D198C0E8F09151FE0F070BE96FEE6BC9
:101FA00016D0EE51990FD96EDA6ADF50D86FE8512A
:101FB000EE259AEC25F00001EE51A50FD96EDA6AF4
:101FC000E851EE2503EC26F0DF6E0001EE2BE9511F
:101FD000EE5DE7E3070EA06FA16BA26B1A0EA36F75
:101FE000A46BE951810F9F6FA8D6785120EE97F02E
:101FF000DF6294D198511BEC1BF00001D96FD929F5
:102000004F6E985111EC03F08DD6785120EE97F079
:10201000DF6284D198511BEC1BF00001D96FD90508
:102020004F6E985111EC03F07DD69751781903E06B
:10203000972901E073D1ED6B030EA06F880E9F6F9F
:10204000A16BA26B200EA36FF26BF2C0A4F0010E85
:10205000F46FF451A40FD96EDA6AED510F085DECFC
:1020600026F0DF6E0001ED2B100EED6501D004D0DF
:10207000F42B070EF465EDD7100EED6501D006D0F8
:1020800063EC25F0F22B020EF265DFD7F46BF4510E
:1020900010EC26F0000908E0F451A70FD96EDA6AB7
:1020A000F45110EC26F005D0F451A70FD96EDA6A7E
:1020B000000EDF6EF42B040EF465E9D763EC25F017
:1020C000050EED6F030EF26FF2C0A4F0010EF46F77
:1020D000F451A40FD96EDA6AED5110EC26F0DF6EE0
:1020E000ED2BF42B070EF465F3D763EC25F0F22B00
:1020F000060EF265E9D712D1785120EE97F0DF6233
:102100000DD1030EA06F870E9F6FA16BA26B220EE5
:10211000A36FA40EABEC25F010D6785120EE97F00B
:10212000DF62FCD0EF6B91C0D9F00F0ED917040E0F
:10213000D95D12E39BC0F0F0F16BF151F01103E1B6
:10214000010EF16FF06B010EF05D010EF15907E326
:10215000010EF16F000E02D0F16B010EF06F52C054
:10216000E0F053C0E1F0995198C0D9F0DA6BD9C0D2
:10217000DAF0D96BD911526EDA51536E070EA06F97
:10218000A16BA26B270EA36FA46B98C0A5F099C09A
:10219000A6F0EF51F05DD96F000EF159DA6F040E21
:1021A000D95D000EDA5902E3040E02D0EF51F05D62
:1021B000EA6FEA51840F9F6F9A51EF25A76FEB6B7F
:1021C0000CD0EB51A80FD96EDA6A9A51EF25EB25A6
:1021D00003EC26F0DF6E0001EB2BEA51EB5DF1E33F
:1021E00063EC25F0EA51EF27A42BEF51D96FDA6B9E
:1021F000F051D95DF151DA59CCE3E0C052F0E1C0C1
:1022000053F08CD0785120EE97F0DF6287D052C027
:10221000E2F053C0E3F0995198C0D9F0DA6BD9C01D
:10222000DAF0D96BD911526EDA51536E9AC0ECF0D4
:1022300014D09A519B08EC25D96EDA6ADF50D86F1A
:10224000EC519AEC25F00001D96F9A51A808EC25C1
:10225000D96EDA6AD9C0DFFFEC2B91510F0BD96F21
:10226000DA6B9A51D927000EDA23FC0ED925DB6FE1
:10227000FF0EDA21DC6FEC51DD6FDE6BDE51800A80
:10228000DF6FDB51DD5DDC51800ADF59D2E3E2C054
:1022900052F0E3C053F0070EA06F91510F0B800F67
:1022A0009F6FA16BA26B270EA36FA46B98C0A5F0C4
:1022B00099C0A6F09AC0A7F040D59551010A01E156
:1022C00014D5030A01E114D5040A01E114D50E0A5C
:1022D00001E114D5010A01E114D5020A01E134D566
:1022E000070A01E14AD51B0A01E1DFD50F0A01E126
:1022F000F3D5010A01E148D6040A01E176D6030AC2
:1023000001E183D6010A01E190D63E0A01E1F4D64B
:10231000040A01E102D7030A01E174D712001FEC9D
:1023200024F088EC25F00009D8B457EC1DF07DECC2
:1023300016F0FDEC23F00400FA0E000176650ED0D5
:1023400079050CE07869A4EC26F0096A010E086EA4
:10235000FF0E0A6860EC24F0FDEC23F0916B01ECB9
:1023600025F05FD2782903E1010E796F6AD2030E5E
:10237000796FBBEC25F065D233EC22F062D291AFDD
:1023800008D09451931103E170EC0EF002D0E3EC0D
:1023900017F00A0E0001605D000E6159000E6259CF
:1023A000000E635901E24DD2096A4F0E086E70ECBF
:1023B00026F0096A500E086E70EC26F00001FB6FE3
:1023C000606B616B626B636B70C0F9F0010EFA6F4A
:1023D000F92B02D0D890FA37F92FFCD7FA51FB1518
:1023E00001E114D2650E7025086E096A000E0922FB
:1023F00070EC26F00001F96FF9AD08D2650E70257A
:10240000086E096A000E092270EC26F00001F96FCF
:10241000F9BFDFD1FBD181B02DD07051AC0FD96E97
:10242000DA6ADF2A7051AC0FD96EDA6A030EDF6404
:10243000EDD17051AC0FD96EDA6ADF6A5B0E702590
:10244000086E096A000E092270EC26F00001F96F8F
:10245000F9A508D0140ECA6F030ECB6F7051ADEC06
:1024600023F0D4D11E0ECA6F050ECB6F7051ADECA8
:1024700023F0CCD17051AC0FD96EDA6ADF6AC6D1C5
:1024800081B2F8D77051AC0FD96EDA6ADF2A705179
:10249000AC0FD96EDA6A030EDF64B8D17051AC0F9D
:1024A000D96EDA6ADF6A5B0E7025086E096A000E63
:1024B000092270EC26F00001F96FF9A508D0140E7E
:1024C000CA6F030ECB6F7051ADEC23F09FD11E0E7F
:1024D000CA6F050ECB6F7051ADEC23F097D182B669
:1024E000C9D77051AC0FD96EDA6ADF2A7051AC0FC0
:1024F000D96EDA6A030EDF6489D17051AC0FD96EE0
:10250000DA6ADF6A5B0E7025086E096A000E09221E
:1025100070EC26F00001F96FF9A508D0140ECA6F0F
:10252000030ECB6F7051ADEC23F070D11E0ECA6F4D
:10253000050ECB6F7051ADEC23F068D182B89AD7FD
:102540007051AC0FD96EDA6ADF2A7051AC0FD96EB8
:10255000DA6A030EDF645AD17051AC0FD96EDA6AB1
:10256000DF6A5B0E7025086E096A000E092270ECA6
:1025700026F00001F96FF9A508D0140ECA6F030EFA
:10258000CB6F7051ADEC23F041D11E0ECA6F050E1A
:10259000CB6F7051ADEC23F039D182BA6BD770514B
:1025A000AC0FD96EDA6ADF2A7051AC0FD96EDA6AD5
:1025B000030EDF642BD17051AC0FD96EDA6ADF6A7B
:1025C0005B0E7025086E096A000E092270EC26F079
:1025D0000001F96FF9A508D0140ECA6F030ECB6F76
:1025E0007051ADEC23F012D11E0ECA6F050ECB6FE9
:1025F0007051ADEC23F00AD182BC3CD77051AC0FC6
:10260000D96EDA6ADF2A7051AC0FD96EDA6A030E1E
:10261000DF64FCD07051AC0FD96EDA6ADF6A5B0EF2
:102620007025086E096A000E092270EC26F0000180
:10263000F96FF9A508D0140ECA6F030ECB6F705155
:10264000ADEC23F0E3D01E0ECA6F050ECB6F7051B8
:10265000ADEC23F0DBD082BE0DD77051AC0FD96E3C
:10266000DA6ADF2A7051AC0FD96EDA6A030EDF64C2
:10267000CDD07051AC0FD96EDA6ADF6A5B0E70256F
:10268000086E096A000E092270EC26F00001F96F4D
:10269000F9A508D0140ECA6F030ECB6F7051ADECC4
:1026A00023F0B4D01E0ECA6F050ECB6F7051ADEC87
:1026B00023F0ACD080B4DED67051AC0FD96EDA6A9C
:1026C000DF2A7051AC0FD96EDA6A030EDF649ED038
:1026D0007051AC0FD96EDA6ADF6A5B0E7025086E36
:1026E000096A000E092270EC26F00001F96FF9A5C5
:1026F00008D0140ECA6F030ECB6F7051ADEC23F0EF
:1027000085D01E0ECA6F050ECB6F7051ADEC23F055
:102710007DD080B2AFD67051AC0FD96EDA6ADF2AA5
:102720007051AC0FD96EDA6A030EDF646FD070514E
:10273000AC0FD96EDA6ADF6A5B0E7025086E096A23
:10274000000E092270EC26F00001F96FF9A508D0FF
:10275000140ECA6F030ECB6F7051ADEC23F056D040
:102760001E0ECA6F050ECB6F7051ADEC23F04ED02C
:1027700080B080D67051AC0FD96EDA6ADF2A705102
:10278000AC0FD96EDA6A030EDF6440D07051AC0F23
:10279000D96EDA6ADF6A5B0E7025086E096A000E70
:1027A000092270EC26F00001F96FF9A508D0140E8B
:1027B000CA6F030ECB6F7051ADEC23F027D01E0E05
:1027C000CA6F050ECB6F7051ADEC23F01FD0706B4C
:1027D0001DD0705101E11FD6010A01E151D6030A53
:1027E00001E17DD6010A01E1A9D6070A01E1D5D6AA
:1027F000010A01E101D7030A01E12DD7010A01E134
:1028000059D70F0A86E0010AB3E0E1D7702B090E11
:10281000706517D0706B15D0A7EC26F012D0796BCD
:1028200010D00001795101E19DD5010A01E1A4D543
:10283000030A01E19ED5010A01E1A1D5070AECE0F6
:10284000EED7E90E0001645D030E6559000E66596E
:10285000000E67590BE3646B656B666B676BD6ECB8
:1028600023F07951030AD8B4D9EC0AF03B0E736512
:102870000BD0736B722B3B0E726502D0726B712B97
:10288000170E716501D0716BA9EC26F054D536682E
:102890003768386839683A6A3B6A3C6A3D6A436A15
:1028A0004350126E136AD89012361336D8901236EF
:1028B0001336D89012361336440E1224086E000ECA
:1028C0001320096E70EC26F0146E14AEE8D143505C
:1028D000126E136AD89012361336D8901236133609
:1028E000D89012361336470E1224086E000E1320AD
:1028F000096E70EC26F0146E14C015F0166A176A93
:10290000186A17C018F016C017F015C016F0156A2F
:102910004350196E1A6AD89019361A36D89019365B
:102920001A36D89019361A36450E1924086E000E3C
:102930001A20096E70EC26F01B6E1BC01CF01D6A7D
:102940001E6A1F6A1DC01FF01CC01EF01D6A1C6A93
:102950004350206E216AD89020362136D8902036F8
:102960002136D89020362136440E2024086E000EE1
:102970002120096E70EC26F0226E020E221622C073
:1029800023F0246A256A266A170ED8902336243647
:1029900025362636E82EF9D71C502310276E1D50F9
:1029A0002410286E1E502510296E1F5026102A6EE6
:1029B000155027102B6E165028102C6E175029100A
:1029C0002D6E18502A102E6EFF0E2B10316E2C50CB
:1029D000326E2D50336E2E50346E4350126E136A89
:1029E000D89012361336D89012361336D890123645
:1029F0001336480E1224086E000E1320096E70EC78
:102A000026F0146E14C015F0166A176A186A17C0FB
:102A100018F016C017F015C016F0156A4350196E5D
:102A20001A6AD89019361A36D89019361A36D890AC
:102A300019361A36460E1924086E000E1A20096E31
:102A400070EC26F01B6E1BC01CF01D6A1E6A1F6A0C
:102A50001DC01FF01CC01EF01D6A1C6A4350206E72
:102A6000216AD89020362136D89020362136D89049
:102A700020362136440E2024086E000E2120096ED7
:102A800070EC26F0226E010E221622C023F0246A7A
:102A9000256A266A23C026F0256A246A236A1C5008
:102AA0002310276E1D502410286E1E502510296EED
:102AB0001F5026102A6E155027102B6E1650281006
:102AC0002C6E175029102D6E18502A102E6E435060
:102AD0002F6E306AD8902F363036D8902F36303659
:102AE000D8902F363036430E2F24086E000E30203B
:102AF000096E70EC26F02B103E6E2C503F6E2D5060
:102B0000406E2E50416E436608D03EC03AF03FC042
:102B10003BF040C03CF041C03DF0315036163250E1
:102B200037163350381634503916426A42503EC078
:102B300012F03FC013F040C014F041C015F0E82A75
:102B400005D0D8901532143213321232E82EF9D74C
:102B5000010E121642503AC016F03BC017F03CC0AE
:102B600018F03DC019F0E82A05D0D8901932183273
:102B700017321632E82EF9D71650010B12181DE045
:102B800042C012F0010E136E146A122A03D0D890BC
:102B900013361436122EFBD7131C156E141C166E2A
:102BA000176A16BE17061750186E155036161650AF
:102BB00037161750381618503916422A1F0E42641D
:102BC000B5D73E503A163F503B1640503C16415048
:102BD0003D1643504FE0426A43C012F04350136E1B
:102BE000146AD89013361436D89013361436D89009
:102BF00013361436430E1324086E000E1420096E8B
:102C000070EC26F0156E122A02D0D8901532122ED2
:102C1000FCD7010E151643C016F035C017F0162A62
:102C200002D0D8901732162EFCD71750010B15186A
:102C30001DE043C012F0010E136E146A122A03D075
:102C4000D89013361436122EFBD713C015F014C0CB
:102C500016F0000E16BEFF0E176E186E15503616C3
:102C6000165037161750381618503916422A070EC4
:102C70004264B2D74350126E136AD890123613369C
:102C8000D89012361336D89012361336430E1224CB
:102C9000086E000E1320096E70EC26F0356E432A84
:102CA000070E4364FDD5800E1CEC26F00F010F0EBD
:102CB000096E1C0E086E36C00AF037C00BF038C023
:102CC0000CF039C00DF0010E0E6E07EC1EF00D0178
:102CD000D4830F010F0E096E040E086E3AC00AF07D
:102CE0003BC00BF03CC00CF03DC00DF0010E0E6E71
:102CF00007EC1EF0000E1CEF26F00001646B656B04
:102D0000666B676B736B726B716B686B696B0101E0
:102D1000010E096E000E086E0B6A0A6A0D6A140E27
:102D20000C6EC0EC24F00001000E096E7D0E086EE2
:102D30000B6A0A6A0D6A140E0C6EC0EC24F0356A38
:102D40005B0E3524086E096A000E092270EC26F02D
:102D5000106E10A033D035C010F0010E116E126A43
:102D6000102A03D0D89011361236102EFBD71150EE
:102D70000001681312506913710E3524086E096A38
:102D8000000E092270EC26F0116E106A720E3524C6
:102D9000086E096A000E092270EC26F01026000E5B
:102DA00011223550020D0101000EF324D96E010EDF
:102DB000F420DA6E10C0DEFF11C0DDFF600E352496
:102DC000086E096A000E092270EC26F0106E10A43D
:102DD00020D0710E3524086E096A000E092270ECAD
:102DE00026F0116E106A720E3524086E096A000E04
:102DF000092270EC26F01026000E11223550020D2B
:102E0000F35000017D0FD96EDA6A10C0DEFF11C0E9
:102E1000DDFF352A090E356493D7096A4F0E086E17
:102E200070EC26F0346E3450030B926E096A500E2B
:102E3000086E70EC26F0346E3450030B0809936E64
:102E40003438E842070B040B346E34509212096A8E
:102E50006F0E086E70EC26F0106E10B0F19E096ACD
:102E6000500E086E70EC26F0106ED8901034F80BEF
:102E7000346E34500109946E0001000E096EAC0EE0
:102E8000086E0B6A0A6A0D6A0A0E0C6EC0EC24F01A
:102E90000001706B8150010B106E8130010B116EBF
:102EA000D8901134126E136A13368230E832E83249
:102EB000010B146E156AD89014361536D890143656
:102EC00015368238010B166E176AD89016361736EB
:102ED000D89016361736D890163617368238E8321C
:102EE000010B186E196A183A193AF00E1916185093
:102EF0000F0B1912F00E18168238E832E832010B67
:102F00001A6E1B6A050ED8901A361B36E82EFBD7B0
:102F10008234E836010B1C6E1D6A060ED8901C36F2
:102F20001D36E82EFBD78030E832010B1E6E1F6A7B
:102F3000070ED8901E361F36E82EFBD78030010BC7
:102F4000216E206A8050010B226E236A090ED890F0
:102F500022362336E82EFBD720502224246E21501F
:102F60002320256E1E502424266E1F502520276EF8
:102F70001C502624286E1D502720296E1A50282404
:102F80002A6E1B5029202B6E18502A242C6E1950A3
:102F90002B202D6E16502C242E6E17502D202F6EA8
:102FA00014502E24306E15502F20316E12503024C4
:102FB000326E13503120336E105032246A6F000E7F
:102FC00033206B6F12009451931101E155D1E26BE4
:102FD000E251D16FD26BD890D137D237D890D13758
:102FE000D237D890D137D2379A0ED125086E000E3D
:102FF000D221096E70EC26F00001E16FE1AF37D10C
:10300000E1AD18D0E251D16FD26BD890D137D23721
:10301000D890D137D237D890D137D237990ED12521
:10302000086E000ED221096E70EC26F00001961990
:1030300001E01DD1E1A90BD0982909E0096A430EEE
:10304000086E70EC26F00001981901E010D1E1A79C
:103050000BD0992909E0096A440E086E70EC26F03D
:103060000001991901E003D1E251080D9C0EF324EF
:10307000086E000EF420096E70EC26F00001D16F8E
:10308000E151010BD36FD26BD151D225D46F000E19
:10309000D321D56FE251080D9B0EF324086E000E6C
:1030A000F420096E70EC26F00001D16FE151020BA3
:1030B000D26FD36B070ED890D237D337E82EFBD719
:1030C000D151D225D66F000ED321D76FE251080D12
:1030D0009E0EF324086E000EF420096E70EC26F0AC
:1030E0000001D86FE251080D9D0EF324086E000E0A
:1030F000F420096E70EC26F00001D96F20EE93F0F9
:10310000DECFD1F0DDCFD2F0D451D11BD551D21BBF
:10311000D651D117D751D217D251D11101E0A7D032
:103120009551D819D91501E186D0A1D00001E251FD
:10313000080DA00EF324086E000EF420096E70EC4A
:1031400026F00001DA6FDAC04FF0E15149EC1FF0D0
:103150008ED00001E251080DA00EF324086E000E7F
:10316000F420096E70EC26F00001DB6FDBC04FF03D
:10317000E151C8EC21F07BD00001E251080DA00E16
:10318000F324086E000EF420096E70EC26F00001A6
:10319000DC6FDCC04FF0E151AFEC1EF068D00001F5
:1031A000E251080DA00EF324086E000EF420096E03
:1031B00070EC26F00001DD6FDDC04FF0E1515DECF9
:1031C00020F055D00001E251080DA00EF324086E46
:1031D000000EF420096E70EC26F00001DE6FDEC0F8
:1031E0004FF0E15159EC21F042D00001E251080DBD
:1031F000A00EF324086E000EF420096E70EC26F089
:103200000001DF6FDFC0CCF0E151D9EC25F02FD009
:103210000001E251080DA00EF324086E000EF42008
:10322000096E70EC26F00001E06FE0C04FF0E15154
:10323000DDEC20F01CD0E251080D9F0EF324086E47
:10324000000EF420096E70EC26F0000A10E0010A6E
:1032500001E16CD7030A01E17CD7010A8DE0070A7E
:103260009EE0010AD5E0030AADE0010ABEE00001DC
:10327000E22B070EE265ACD61200E8CF14F0546AD8
:103280007750C00B166E166632D060AE12D0A49086
:1032900074AE06D01150D96EDA6A000EDB86749EC9
:1032A00060A002D0548001D054900F0E196E600EB1
:1032B0001AD00F0150AF19D0A49274AC06D011509F
:1032C000D96EDA6A000EDB86749C5051070B546E7F
:1032D000020E546005D01150D96EDA6A000EDB8EF2
:1032E0000F0E196E500E186E65D0000ECCD0165011
:1032F000400A46E160AE04D00F0E196E600E3ED05B
:103300000F0150AF04D00F0E196E500E37D00D01C3
:10331000F8B507D00E0120AF04D00E0E196E200EA6
:103320002DD00D01F8B707D00E0130AF04D00E0E2E
:10333000196E300E23D00D01F8B907D00E0140AF41
:1033400004D00E0E196E400E19D00D01F8BB05D039
:103350000E0150AF02D00E0ED7D70D01F8BD05D02B
:103360000E0160AF02D00E0EC8D70D01F8BFBDD759
:103370000E0170AFBAD70E0E196E700E186E0AD00D
:1033800074AEB3D76F50070B72EC23F008C018F07F
:1033900009C019F018C0D9FF19C0DAFFDF501F0BA0
:1033A000546EA49274AC06D01150D96EDA6A000E35
:1033B000DB86749C18C012F019C013F01150D96E3E
:1033C000DA6ADF6A20EE05F01850D9261950DA22A1
:1033D000DF50176E1050D96EDA6A17500F0BDF6E80
:1033E00017AC05D01150D96EDA6A000EDB8C20EED6
:1033F00002F01850D9261950DA22DF50176E17A69E
:1034000008D01150D96EDA6A000EDB8A010E176EF1
:1034100001D0176A1828086E000E1920096E14C012
:103420000AF017C00BF0A5EC1CF0060E1826000ED3
:1034300019221050D96EDA6ADF50176E156A0DD056
:1034400018C0D9FF19C0DAFF0F50E16EE26ADFCF72
:10345000E7FF184A192A0F2A152A1750155CF0E3BE
:10346000A4AE06D01150D96EDA6A000EDB88A49E95
:1034700012C0D9FF13C0DAFF7F0EDF161650800A84
:10348000D8B4749E010E1200E8CF1CF01B6A1C50C9
:10349000800A04E155C01BF0556ACBD01C50810A4C
:1034A00002E1010E81D01C50820A02E1050E7CD09F
:1034B0001C50830A02E11B6ABCD01C50940A03E131
:1034C000AFEC26F071D01C50950A03E1AEEC26F06B
:1034D0006BD01C50960A03E1ADEC26F065D0890E46
:1034E0001C6005D01C507C0F53EC26F05DD0880E7C
:1034F0001C6408D0910E1C6005D01C50770F49EC5D
:1035000026F052D01C50910A03E178C01BF091D0F4
:103510001C50930A03E152C01BF08BD01C50920A3E
:1035200002E1535041D01C50970A03E1ACEC26F065
:103530003BD01C50980A03E1ABEC26F035D01C5070
:10354000990A03E1AAEC26F02FD0990E1C642ED024
:103550009E0E1C602BD091EC26F00BC014F00AC01C
:1035600013F009C012F008C011F01C50660F196E5C
:10357000195003080C6ED8900C36D8900C36D890A1
:103580000C360C5011C00DF012C00EF013C00FF02D
:1035900014C010F0E82A05D0D89010320F320E3245
:1035A0000D32E82EF9D730D01B6E43D09D0E1C642F
:1035B0002DD0A20E1C602AD08CEC26F00BC018F087
:1035C0000AC017F009C016F008C015F01C50620FB1
:1035D0001A6E1A5003080C6ED8900C36D8900C3620
:1035E000D8900C360C5015C00DF016C00EF017C058
:1035F0000FF018C010F0E82A05D0D89010320F3222
:103600000E320D32E82EF9D70D50CED7CF0E1C64F6
:1036100008D0E00E1C6005D01C50300F5DEC26F089
:10362000C3D7DF0E1C6405D01C50200F10EC26F011
:10363000BBD71B501200E8CF12F0116A5350521042
:1036400001E0ADD0126606D0096A430E086E70EC38
:1036500026F0C3D0120406E1096A440E086E70EC2D
:1036600026F0BBD0010E12640CD00C0E126009D0F3
:10367000430E1224086E096A000E092270EC26F02F
:10368000ACD012500C0A08E19230010B0A6E925035
:10369000010B020DF35035D012500D0A34E1935056
:1036A000010B0A6E9330010B020DF3CF0BF0943037
:1036B000E832E832010B040DF3CF0CF09438010B23
:1036C000080DF3CF0DF09438E832010B100DF3CF55
:1036D0000EF09438E832E832010B200DF3CF0FF0F2
:1036E0009434E836010B400DF3CF10F09230E832FD
:1036F000010B800DF35010240F240E240D240C24F4
:103700000B240A246AD00D0E126442D0180E1260E7
:103710003FD028D0000E81B0010E5FD0000E81B2E4
:10372000010E5BD0000E82B6010E57D0000E82B89B
:10373000010E53D0000E82BA010E4FD0000E82BC93
:10374000010E4BD0000E82BE010E47D0000E80B499
:10375000010E43D0000E80B2010E3FD0000E80B0AB
:10376000010E3BD012500E0AD5E0010AD7E01F0A25
:10377000D9E0010ADBE0030ADDE0010ADFE0070A25
:10378000E1E0010AE3E0030AE5E0010AE7E026D010
:10379000170E126423D02E0E126020D069D7520467
:1037A00053100CE1280E126019D0710E1224086E0D
:1037B000096A000E092270EC26F00FD05250020A5E
:1037C00053100CE1400E126009D0990E1224086EBD
:1037D000096A000E092270EC26F0116E11501200D9
:1037E0000F0E1C6E400E1B6E0F0E1E6E300E1D6EE9
:1037F0000F0E206E200E1F6E0E0E226E200E216EFA
:103800000E0E246E300E236E0E0E266E400E256EAA
:103810000E0E286E500E276E0E0E2A6E600E296E4A
:103820000E0E2C6E700E2B6E7750C00B2D6E2D660B
:1038300002D0020E01D0080E2E6E0D01D890F83184
:10384000306E346A7DD03450020DF3501B0FD96EA8
:10385000DA6ADECF35F0DDCF36F035C031F036C074
:1038600032F0020E346404D0D890303230A067D0E9
:1038700035C0D9FF36C0DAFFDF501A6E1AB65FD0F6
:1038800035C0D9FF36C0DAFFFC0EDF1619C01AF0BA
:10389000030E1A1635C0D9FF36C0DAFF1A50DF12F0
:1038A00019AC04D018504009336E02D018C033F060
:1038B00020EE05F03550D9263650DA2233C0DFFF2E
:1038C00019AA03D0010E336E01D0336A3528086E71
:1038D000000E3620096E12C00AF013C00BF014C09F
:1038E0000CF015C00DF033C00EF007EC1EF0060E04
:1038F0003526000E36222F6A0FD016C0D9FF17C00A
:10390000DAFF35C0E1FF36C0E2FFDFCFE7FF164A3E
:10391000172A354A362A2F2A18502F5CEEE331C079
:10392000D9FF32C0DAFFDF501A6E1AB406D031C0A8
:10393000D9FF32C0DAFF000EDB86010E05D0342A33
:103940002E50345C80E3000E12000AC00EF00B66AD
:1039500046D00E50D96EDA6A08C0E1FF09C0E2FF16
:10396000E7500C6ED8900C36D8900C36D8900C34AA
:10397000DF6E0E50D96EDA6AD92ADA6A08C0E1FF22
:1039800009C0E2FFE7500C6E050E0D6ED8900C32A8
:103990000D2EFCD70C50DF6E084A092A08C0D9FF4B
:1039A00009C0DAFFDF500C6E050E0D6ED8900C3298
:1039B0000D2EFCD70E50D96EDA6A0C50DF120E5065
:1039C000D96EDA6A020ED926DA6ADF6A0E50D96E2B
:1039D000DA6A030ED926DA6A000EDF6E67D00E505F
:1039E000D96EDA6A020ED926DA6A08C0E1FF09C088
:1039F000E2FFE7500C6E050E0D6ED8900C360D2EC2
:103A0000FCD70C50DF6E0E50D96EDA6A030ED92641
:103A1000DA6A08C0E1FF09C0E2FFE7500C6ED890F7
:103A20000C32D8900C32D8900C30DF6E084A092A3C
:103A300008C0D9FF09C0DAFFDF500C6E030E0C1668
:103A40000E50D96EDA6A020ED926DA6A0C50DF12ED
:103A500008C0D9FF09C0DAFFDF500C6ED8900C32D5
:103A6000D8900C32D8900C321C0E0C160E50D96E19
:103A7000DA6A020ED926DA6A0C50DF12084A092ADD
:103A800008C0D9FF09C0DAFF0E50E16EE26AE12AF0
:103A9000E26ADFCFE7FF084A092A08C0D9FF09C058
:103AA000DAFF0E50E16EE26ADFCFE7FF1200A4EC0E
:103AB00026F0096A430E086E000E0A6A60EC24F0D4
:103AC000A4EC26F0096A440E086E000E0A6A60EC47
:103AD00024F0476AA4EC26F0450E4724086E096AD4
:103AE000000E092247C00AF060EC24F0472A090EB4
:103AF0004764F0D7A4EC26F0096A4F0E086E000E5A
:103B00000A6A60EC24F0A4EC26F0096A500E086EF4
:103B1000000E0A6A60EC24F0476AA4EC26F05B0E03
:103B20004724086E096A000E0922980E0A6E60EC9E
:103B300024F0472A090E4764F0D7476AA4EC26F020
:103B4000650E4724086E096A000E0922830E0A6E6C
:103B500060EC24F0472A090E4764F0D7A4EC26F065
:103B6000096A6F0E086E000E0A6A60EC24F0A4EC7D
:103B700026F0096A700E086E000E0A6A60EC24F0E6
:103B8000476AA4EC26F0710E4724086E096A000EFD
:103B900009220A6A60EC24F0472A130E4764F1D721
:103BA000476AA4EC26F0850E4724086E096A000EC9
:103BB00009220A6A60EC24F0472A130E4764F1D701
:103BC000476A466AA4EC26F0465047C044F0456A6E
:103BD000D89044364536D89044364536D890443649
:103BE00045364426000E4522990E4424086E000EE8
:103BF0004520096E000E0A6A60EC24F0462A070E82
:103C00004664E0D7472A4764DCD747EF14F00A0E32
:103C1000116E0E6637D01150D96EDA6ADF500F6E12
:103C2000D8900F32D8900F32D8900F3008C0D9FFFB
:103C300009C0DAFFDF6E1150D96EDA6AD92ADA6A62
:103C4000DF500F6E050E106ED8900F36102EFCD779
:103C500008C0D9FF09C0DAFF0F50DF12084A092A4D
:103C60001150D96EDA6ADF500F6E050E106ED890C3
:103C70000F36102EFCD70F5008C0D9FF09C0DAFF4D
:103C8000DF6E6CD01150D96EDA6A020ED926DA6A6C
:103C9000DF500F6E050E106ED8900F32102EFCD72D
:103CA0000F5008C0D9FF09C0DAFFDF6E1150D96E7E
:103CB000DA6A030ED926DA6ADF500F6ED8900F3613
:103CC000D8900F36D8900F3608C0D9FF09C0DAFF58
:103CD0000F50DF12084A092A1150D96EDA6A020E13
:103CE000D926DA6ADF500F6ED8900F36D8900F368B
:103CF000D8900F34E00B08C0D9FF09C0DAFFDF6E9F
:103D000008C0D9FF09C0DAFF000EDB861150D96E5A
:103D1000DA6A020ED926DA6ADF500F6E030E0F162A
:103D200008C0D9FF09C0DAFF0F50DF12084A092A7C
:103D30001150D96EDA6AD92ADA6A08C0E1FF09C0DF
:103D4000E2FFDFCFE7FF084A092A1150D96EDA6A8D
:103D500008C0E1FF09C0E2FFDFCFE7FF1200516AB0
:103D6000090E4F6401D094D05B0E4F24086E096A8F
:103D7000000E092270EC26F0506E50AE89D039D07A
:103D800081A002D0010E516E819047D081A202D055
:103D9000010E516E819241D082A602D0010E516E69
:103DA00082963BD082A802D0010E516E829835D007
:103DB00082AA02D0010E516E829A2FD082AC02D01C
:103DC000010E516E829C29D082AE02D0010E516E3E
:103DD000829E23D080A402D0010E516E80941DD00B
:103DE00080A202D0010E516E809217D080B0F4D71D
:103DF000F5D74F50C5E0010AC9E0030ACDE0010A3A
:103E0000D1E0070AD5E0010AD9E0030ADDE0010AA2
:103E1000E1E00F0AE5E0010AE9E05150D8A450A81A
:103E200008D0140E0001CA6F040ECB6F4F50ADECDA
:103E300023F04FC0CCF0010E0001CD6FCE6BCC2B28
:103E400003D0D890CD37CE37CC2FFBD7CD516813C8
:103E5000CE516913720E4F24086E096A000E0922B2
:103E600070EC26F00001CC6F710E4F24086E096AC9
:103E7000000E092270EC26F00001CE6FCD6BCC5104
:103E8000CD250101006F0001000ECE210101016F5F
:103E90001200CD6B090E4F6401D08BD05B0E4F2406
:103EA000086E096A000E092270EC26F00001CC6F42
:103EB000CCAF7FD039D081B002D0010ECD6F8180E0
:103EC00047D081B202D0010ECD6F818241D082B63F
:103ED00002D0010ECD6F82863BD082B802D0010E97
:103EE000CD6F828835D082BA02D0010ECD6F828A22
:103EF0002FD082BC02D0010ECD6F828C29D082BE21
:103F000002D0010ECD6F828E23D080B402D0010E7C
:103F1000CD6F80841DD080B202D0010ECD6F808223
:103F200017D080A0F4D7F5D74F50C5E0010AC9E0FB
:103F3000030ACDE0010AD1E0070AD5E0010AD9E081
:103F4000030ADDE0010AE1E00F0AE5E0010AE9E029
:103F5000CCA524D04F50020D850EF324086E000E20
:103F6000F420096E70EC26F0516E506A4F50020D2D
:103F7000860EF324086E000EF420096E70EC26F015
:103F80005026000E51224F50020DF35000017D0FBC
:103F9000D96EDA6A50C0DEFF51C0DDFFCD51D8A422
:103FA000CCA707D0140ECA6F030ECB6F4F50ADECE9
:103FB00023F01200E8CF4EF0481C4D6E830E4E6485
:103FC0000ED0890E4E600BD048C00CF04E507C0FC6
:103FD000E7EC25F04E507C0F53EC26F069D04E50A4
:103FE000920A0DE148504A6E496A52504B6E4C6A33
:103FF0004910526E4A504C10536E535059D04E5087
:10400000930A0BE1496A53504A6E48504910526E68
:104010004A50536E52C04DF04ED0880E4E6419D0A7
:10402000910E4E6016D053C049F049C04AF04B6A19
:104030004A2802E1522802E0481C3AD048C00CF05D
:104040004E50770F3DEC25F04E50770F49EC26F09F
:104050002FD0CF0E4E6417D0E00E4E6014D053C058
:1040600049F049C04AF04B6A4A28E6E15228E4E1A7
:1040700048C00CF04E50300F50EC25F04E50300F31
:104080005DEC26F015D04E50A20AD6E14850550AF4
:1040900004E16C6B6D6B550E0BD04850AA0A0BE116
:1040A000E80E6C5D030E6D5905E2A0EC26F0AA0E39
:1040B0004D6E01D04D6A4D501200516A090E4F6489
:1040C00001D07AD05B0E4F24086E096A000E0922D7
:1040D00070EC26F0506E50AE6FD039D081A002D077
:1040E000010E516E819047D081A202D0010E516E17
:1040F000819241D082A602D0010E516E82963BD0B1
:1041000082A802D0010E516E829835D082AA02D0C8
:10411000010E516E829A2FD082AC02D0010E516EE8
:10412000829C29D082AE02D0010E516E829E23D095
:1041300080A402D0010E516E80941DD080A202D0C6
:10414000010E516E809217D080B0F4D7F5D74F5042
:10415000C5E0010AC9E0030ACDE0010AD1E0070A7F
:10416000D5E0010AD9E0030ADDE0010AE1E00F0A27
:10417000E5E0010AE9E05150D8A450A808D0140E97
:104180000001CA6F040ECB6F4F50ADEC23F04FC04F
:10419000CCF0010E0001CD6FCE6BCC2B03D0D890AC
:1041A000CD37CE37CC2FFBD7CD1DCF6FCE1DD06FE7
:1041B000CF516817D05169171200516A090E4F6428
:1041C00001D076D05B0E4F24086E096A000E0922DA
:1041D00070EC26F0506E50AE6BD03FD081A002D074
:1041E000819037D08180010E516E4BD081A202D0D8
:1041F00081922FD08182F7D782A602D0829629D0D1
:104200008286F1D782A802D0829823D08288EBD709
:1042100082AA02D0829A1DD0828AE5D782AC02D0CF
:10422000829C17D0828CDFD782AE02D0829E11D0C2
:10423000828ED9D780A402D080940BD08084D3D72B
:1042400080A202D0809205D08082CDD780A003D0FA
:104250008090516A16D08080C6D74F50BFE0010AC7
:10426000C5E0030AC9E0010ACDE0070AD1E0010A6E
:10427000D5E0030AD9E0010ADDE00F0AE1E0010A16
:10428000E5E051500BE050A613D0140E0001CA6FA8
:10429000030ECB6F4F50ADEC23F00AD050A808D0DE
:1042A000140E0001CA6F040ECB6F4F50ADEC23F01B
:1042B0001200516A090E4F6401D069D05B0E4F2481
:1042C000086E096A000E092270EC26F0506E50AE9E
:1042D0005ED032D0000E81B0010E516E41D0000E82
:1042E00081B2010E516E3CD0000E82B6010E516EAD
:1042F00037D0000E82B8010E516E32D0000E82BA55
:10430000010E516E2DD0000E82BC010E516E28D0D0
:10431000000E82BE010E516E23D0000E80B4010E3D
:10432000516E1ED0000E80B2010E516E19D0000EDB
:1043300080B0010E516E14D04F50CCE0010ACFE096
:10434000030AD2E0010AD5E0070AD8E0010ADBE05F
:10435000030ADEE0010AE1E00F0AE4E0010AE7E017
:1043600051500BE050A813D0140E0001CA6F040E78
:10437000CB6F4F50ADEC23F00AD050A808D0140EEC
:104380000001CA6F040ECB6F4F50ADEC23F012004A
:10439000516A090E4F6401D065D05B0E4F24086E40
:1043A000096A000E092270EC26F0506E50AE5AD009
:1043B00039D081A002D0010E516E819047D081A2E8
:1043C00002D0010E516E819241D082A602D0010E20
:1043D000516E82963BD082A802D0010E516E829817
:1043E00035D082AA02D0010E516E829A2FD082ACB3
:1043F00002D0010E516E829C29D082AE02D0010EF5
:10440000516E829E23D080A402D0010E516E809402
:104410001DD080A202D0010E516E809217D080B0C4
:10442000F4D7F5D74F50C5E0010AC9E0030ACDE043
:10443000010AD1E0070AD5E0010AD9E0030ADDE06C
:10444000010AE1E00F0AE5E0010AE9E05150D8A4D1
:1044500050A808D0140E0001CA6F040ECB6F4F5045
:10446000ADEC23F0120053D0572810E0810E9F6F5F
:10447000A06BA16BA26B020EA36F57C0A4F063ECFC
:1044800025F0010E7A6F6E6B6F6B48D0040E796F5A
:10449000810E9F6FA469070EA06FA16BA26B030E24
:1044A000A36F63EC25F03AD091AF0FD094519311E4
:1044B00035E19551030A32E1576603D0020E796F58
:1044C000E2D7572A7A6B7B6B29D0E90E6E5D030E1B
:1044D0006F5924E37B2B020E7B6517D0576605D0FE
:1044E000572A7A6B6E6B6F6BEED757C078F0030E5E
:1044F000796F7A6B78513EEC26F0400E33EC26F063
:1045000000017B6BBBEC25F009D07A6B07D0000172
:104510007A51AAE0010AC8E0030AF7E1916B1200A0
:1045200041C0B6F0B76BB86BB96BB8C0B9F0B7C0E3
:10453000B8F0B6C0B7F0B66B3F50BA6F4050BB6F23
:10454000BC6BBD6BBBC0BDF0BAC0BCF0BB6BBA6B83
:1045500043C0BEF0BF6BC06BC16B1A0ED890BE37A4
:10456000BF37C037C137E82EF9D7BA51BE11C26F75
:10457000BB51BF11C36FBC51C011C46FBD51C1113C
:10458000C56FB651C211C66FB751C311C76FB851CD
:10459000C411C86FB951C511C96F4250C611476ED9
:1045A000C751486EC851496EC9514A6E47C037F06D
:1045B00048C038F049C039F04AC03AF044C03BF036
:1045C00045C03CF046C03DF0A9EC24F00009000EC7
:1045D000D8A4010E1200800E1CEC26F0090E706E9D
:1045E000FC0E716E010E726E200E736E778E779CCC
:1045F000606A0F01506B0E01206B306B406B506B8B
:10460000606B706BE00E0D01F86F0F01006B080E10
:10461000016F026B036B046BE80E056F1A0E066FD9
:10462000076B030E0D01D46FD56BE06B110EE16FBC
:10463000E26FE36BE46BE56BE66BE76B540EF06FD8
:10464000050EF16FF26BF26B0F0E0F01186FE00E9B
:10465000196F1A6B1B6B19870F0E1C6FE00E1D6F05
:104660001E691F6B1D87000E1CEF26F0E8CF27F098
:1046700021C01AF022C01BF0280ED6EC24F000094D
:1046800002E1000E2ED01F50D96EDA6A28C0DFFF7B
:104690001E50D96EDA6A29C0DFFF2A50236E010E40
:1046A0002B14246E2750D96EDA6A23C0DEFF24C093
:1046B000DDFF2050D96EDA6A28C023F029C024F02B
:1046C0002AC025F02BC026F01B0E05D0D89026322C
:1046D000253224322332E82EF9D72350070BDF6E20
:1046E000010E1200E8CF0BF024D00F0E0D6E600EFD
:1046F0001ED00F010F0E0D6E500E19D00E010E0EB2
:104700000D6E200E14D00E010E0E0D6E300E0FD059
:104710000E010E0E0D6E400E0AD00E010E0EEBD7DE
:104720000E010E0EE3D70E010E0E0D6E700E0C6E06
:104730000FD00B50DAE0010ADCE0030ADFE0010AE7
:10474000E2E0070AE5E0010AE8E0030AE9E0EBD766
:104750000CC008F00DC009F01200E8CF4EF04EC0BA
:104760004BF0096A430E086E70EC26F04C6E450E55
:104770004E24086E096A000E092270EC26F04D6E78
:104780000001CAC03FF0406ACBC041F078C042F09F
:10479000030E436E446E4B0E456E000E466E0F0EBA
:1047A000466E5F0E4564466A90EF22F07C2B3B0E0E
:1047B0007C650DD07C6B772B7951030A08E182EC84
:1047C00026F00001CA6F87EC26F02AEC25F03B0E9C
:1047D000776502D0776B752B170E756501D0756BF9
:1047E0007951030A09E1742B74C04DF00F0E4D1678
:1047F000020E4D5CD8B0746B1200020E566E96EC31
:1048000026F00001786F786701D07869916B926B20
:10481000936B946B956B9F6BA06BA16BA26BA36B5F
:10482000556A576A796B7A6B7B6B526A536A6E6B07
:104830006F6B6C6B6D6B7C6B776B756B12000F0E17
:10484000C16E926A806A080E936E816A010E946E40
:10485000826A920ECAEC25F0FB0E096E1D0E086EE0
:1048600067EC26F08190819282968298829A829C4F
:10487000829E809480928090EBEC22F0F28CF28EFB
:1048800012009BEC26F0000916E1000191510F0B7C
:10489000050A15E19BEC26F00001971910E09751ED
:1048A00033EC26F000017869FF0E3EEC26F0010E95
:1048B0000001796F04D00001975133EC26F012000B
:1048C00008C0A9FF0AC0A8FFA69EA69CA684000E49
:1048D000F2BE010E0B6EF29E550EA76EAA0EA76ECB
:1048E000A682A6B2FED70BB002D0F29E01D0F28E05
:1048F000A694120091510F0B0D6E0D5012E07851DD
:1049000020EE97F0DF620DD00D0405E0010E0D647E
:1049100008D0986706D07869FF0E3EEC26F0FDECD3
:1049200023F0120001EE00F0140EEE6AE806FDE13D
:1049300000EE60F0560EEE6AE806FDE100EE52F081
:10494000070EEE6AE806FDE1000EF86E00018FEF3B
:1049500011F037C012F038C013F039C014F03AC06B
:1049600015F03CC016F03DC017F03BC018F0200E0B
:10497000196EF0EC1BF00009ECE000019F6B010CDC
:1049800008C00EF009C00FF008D00EC0D9FF0FC04C
:10499000DAFF0AC0DFFF0E4A0F2A0C06D8A00D0668
:1049A0000C28D8B40D28D8B41200EFD7E8CF1CF0EB
:1049B00091AF02D0000E0FD01BC00FF01AC010F044
:1049C0001D0E116E1C503DEC19F00009F3E01DACFA
:1049D0001DAAF0D7010E120091C04CF00F0E4C161C
:1049E0004C040EE1785120EE97F0DF6209D0800E82
:1049F0009F6FA06BA16BA26B030EA36F63EC25F0FE
:104A0000120091BF12D0950E1E6E960E1F6E920E62
:104A1000206E910E216E970E226E930E36EC23F0CF
:104A20002C6E2C5002E00001918F1200E8CF09F0AB
:104A3000080E0A6E0B6AD89009340B340B6ED890AE
:104A4000093608500B5C02E308500B5E0A2EF3D7C0
:104A50000B501200E8CF4CF0830E00019F6F070E41
:104A6000A06FA26B140EA16F090EA36FA46B4CC0B4
:104A7000A5F0CAC0A6F063EF25F0E8CF0DF0070E51
:104A80000D6401D00CD0A4EC26F00B0E0D24086EA2
:104A9000096A000E09220CC00AF060EC24F0120032
:104AA000E8CF0DF00F0E0D6401D00CD0A4EC26F071
:104AB000130E0D24086E096A000E09220CC00AF0BC
:104AC00060EC24F01200A1C03FF0A2C040F0A3C0EF
:104AD00041F078C042F0A0C043F09F510F0B446EEC
:104AE000000E466EA40E456E90EF22F091510F0B12
:104AF000020A0DE1785120EE97F0DF6208D098C0ED
:104B000078F078513EEC26F0400E33EC26F012009F
:104B10009BEC26F0C00B400A02E1010E0AD0FF0E0A
:104B20003EEC26F0000E33EC26F0A00E28EC26F02A
:104B3000000E1200E8CF50F07F0E506406D0D8C0AF
:104B400048F05050DAEC1FF005D0D8C04FF050506C
:104B500011EC03F01200070EA46F480EA56F020EB1
:104B6000086E0850A40FD96EDA6ADF6A082A070EA9
:104B70000864F7D7070C810E00019F6FA06BA16B33
:104B8000A26B020EA36F78C0A4F063EC25F0010EB7
:104B9000566E010CE8CF08F008507F0BD56ED76A2F
:104BA000D66AF29408AE02D0F28A01D0F29AD58E7B
:104BB0001200E8CFCDF0CE6BCEC04FF0CD5159EC06
:104BC00021F00001CE2B080ECE65F6D7080CE8CFF9
:104BD0000DF0A4EC26F0060E0D24086E096A000EF6
:104BE00009220CC00AF060EF24F0E8CF0CF00C04AE
:104BF00009E1A4EC26F0096A086AFF0E0A6860EC75
:104C000024F0FF001200E8CF1DF07F0E1D6404D0D9
:104C10001D5044EC1AF003D01D501BEC1BF0120089
:104C2000E8CF09F00950000F086E08C0F6FF060E25
:104C3000F76E0800F5501200E8CF08F01F0E6F164F
:104C400008506F126F50E00B0818D8B41200FAD752
:104C5000E8CF0CF0A4EC26F0096A030E086E0CC035
:104C60000AF060EF24F0E8CF0CF0A4EC26F0096A1B
:104C7000020E086E0CC00AF060EF24F0E8CF0CF0D2
:104C8000A4EC26F0096A010E086E0CC00AF060EF71
:104C900024F0E8CF0AF00B0E0A24086E096A000E11
:104CA000092270EF26F0E8CF0AF0060E0A24086EFB
:104CB000096A000E092270EF26F0E8CF0AF0130E01
:104CC0000A24086E096A000E092270EF26F008C057
:104CD0000AF009C00BF00BC0D7FF0AC0D6FF1200C4
:104CE00008C0A9FFA69CA69EA68000F000F0A850D0
:104CF000120001C003F002C004F004C0D7FF03C0DB
:104D0000D6FF1200096A440E086E70EF26F0096A99
:104D1000430E086E70EF26F0086A096A0A6A0B6A89
:104D20001200086A096A0A6A0B6A1200096A010E0F
:104D3000086E70EF26F0096A020E086E70EF26F01A
:104D400057EC1DF07DEF16F0A6A21200FDD7566AB3
:104D500012001200030C080C010C010C000C010CD9
:020000040020DA
:08000000FFFFFFFFFFFFFFFF00
:020000040030CA
:0E000000FF061C1EFF8281FF0FC00FE00F40A5
:00000001FF
