:04080000E9EF04F028
:10081800D8CF05F0E8CF06F0E0CF07F0F2A401D07A
:1008280001D0CCD0FB0E026E1D0E016E41EC2AF0F9
:10083800544A552A00016E4B6F2B010E6027000E9B
:100848006123000E6223000E6323010E6427000E4D
:100858006523000E6623000E67236C4B6D2B82A068
:1008680001D001D003D0706B716B02D0704B712B2B
:10087800582A5650020AD8A401D001D00ED0640ECE
:10088800586401D001D009D082A201D001D002D091
:10089800829201D08282586A0ED05604D8A401D020
:1008A80001D003D08282586A06D0566601D001D0A2
:1008B80002D08292586AB251D8B401D001D008D07F
:1008C800B207B26701D001D003D08190800E756F56
:1008D800B351D8B401D001D008D0B307B36701D061
:1008E80001D003D08192810E756FB451D8B401D074
:1008F80001D008D0B407B46701D001D003D08296E4
:10090800820E756FB551D8B401D001D008D0B507A3
:10091800B56701D001D003D08298830E756FB651A8
:10092800D8B401D001D008D0B607B66701D001D03D
:1009380003D0829A840E756FB751D8B401D001D014
:1009480008D0B707B76701D001D003D0829C850EC5
:10095800756FB851D8B401D001D008D0B807B867BE
:1009680001D001D003D0829E860E756FB951D8B4DC
:1009780001D001D008D0B907B96701D001D003D0A0
:100988008094870E756FBA51D8B401D001D008D0C1
:10099800BA07BA6701D001D003D08092880E756F6C
:1009A800BB51D8B401D001D008D0BB07BB6701D078
:1009B80001D003D08090890E756FF29407C0E0FFD4
:1009C80006C0E8FF05C0D8FF1000ABEF28F0777726
:1009D800772E6575726F736F757263652E73652FE9
:1009E8006265696A696E675F322E786D6C00000017
:1009F800E8CFDDF0DA6BDC6B4F1CDB6F5350521025
:100A080002E0FFEF0AF0DD6710D067EC2AF0096A10
:100A1800430E086E4FC00AF079EC28F0096A430EBD
:100A2800086E38EC2AF09CEF0CF0DD0510E167EC5D
:100A38002AF0096A440E086E4FC00AF079EC28F0D3
:100A4800096A440E086E38EC2AF09CEF0CF0010E8F
:100A5800DD651BD00C0EDD6118D067EC2AF0430E63
:100A68000001DD25086E096A000E09224FC00AF050
:100A780079EC28F0430E0001DD25086E096A000EA6
:100A8800092238EC2AF09CEF0CF0DD510C0A26E123
:100A980067EC2AF0096A4F0E086E4F50030B0A6E76
:100AA80079EC28F0010E4FA2000E0001D26F92508F
:100AB800D219FE0BD219926E010E4FA0000ED26F02
:100AC800D2479250D219FD0BD219926E9230010B77
:100AD800D26F9250010B020DF35096D0DD510D0AE2
:100AE80001E095D067EC2AF0096A500E086E4FC0F5
:100AF8000AF079EC28F0010E4FAE000E0001D26F1B
:100B0800D247D2479250D219FB0BD219926E010EDE
:100B18004FAC000ED26FD233D2339450D2197F0B20
:100B2800D219946E010E4FAA000ED26FD23BD24753
:100B3800D2479450D219BF0BD219946E010E4FA808
:100B4800000ED26FD23BD2479450D219DF0BD21984
:100B5800946E010E4FA6000ED26FD23B9450D2195C
:100B6800EF0BD219946E010E4FA4000ED26FD2472C
:100B7800D247D2479450D219F70BD219946E010E6E
:100B88004FA2000ED26FD2479350D219FD0BD21943
:100B9800936E010E4FA0000ED26F9350D219FE0B28
:100BA800D219936E9350010BD26F9330010B020D43
:100BB800F3CFD3F09430E832E832010B040DF3CFD1
:100BC800D4F09438010B080DF3CFD5F09438E832FF
:100BD800010B100DF3CFD6F09438E832E832010B50
:100BE800200DF3CFD7F09434E836010B400DF3CF46
:100BF800D8F09230E832010B800DF350D825D72574
:100C0800D625D525D425D325D2259DEF0CF00D0E5C
:100C1800DD653BD2180EDD6138D24D0EDD25086E3C
:100C2800096A000E092238EC2AF00001D26FD2BFFF
:100C38000CD29EEF0CF0010EDA6F4F0428E1818090
:100C4800000E81B0010EDB6F010EDC6F096A5B0ECE
:100C5800086E38EC2AF00001D26FD2A59EEF0CF096
:100C6800096A880E086E38EC2AF00001D26F096A0A
:100C7800870E086E38EC2AF00001D46FD36BD2517E
:100C8800D325826F000ED421836F9EEF0CF04F6640
:100C98009EEF0CF08190000E81B0010EDB6FDC6BD3
:100CA8009EEF0CF0010EDA6F4F041EE18182000EF8
:100CB80081B2010EDB6F010EDC6F096A5C0E086EF3
:100CC80038EC2AF00001D26FD2A59EEF0CF0096A29
:100CD8008A0E086E38EC2AF00001D26F096A890E74
:100CE800086E38EC2AF062D24F669EEF0CF08192C3
:100CF800000E81B2010EDB6FD2D7010EDA6F4F04FE
:100D080028E18286000E82B6010EDB6F010EDC6FD1
:100D1800096A5D0E086E38EC2AF00001D26FD2A580
:100D28009EEF0CF0096A8C0E086E38EC2AF0000170
:100D3800D26F096A8B0E086E38EC2AF00001D46F66
:100D4800D36BD251D325866F000ED421876F9EEFC7
:100D58000CF04F669EEF0CF08296000E82B6010EE4
:100D6800DB6F9DD7010EDA6F4F0428E18288000EF1
:100D780082B8010EDB6F010EDC6F096A5E0E086E29
:100D880038EC2AF00001D26FD2A59EEF0CF0096A68
:100D98008E0E086E38EC2AF00001D26F096A8D0EAB
:100DA800086E38EC2AF00001D46FD36BD251D325EA
:100DB800886F000ED421896F9EEF0CF04F669EEF6E
:100DC8000CF08298000E82B8010EDB6F68D7010E16
:100DD800DA6F4F0428E1828A000E82BA010EDB6FB7
:100DE800010EDC6F096A5F0E086E38EC2AF000010C
:100DF800D26FD2A59EEF0CF0096A900E086E38ECFF
:100E08002AF00001D26F096A8F0E086E38EC2AF0BA
:100E18000001D46FD36BD251D3258A6F000ED42131
:100E28008B6F9EEF0CF04F669EEF0CF0829A000ECF
:100E380082BA010EDB6F33D7010EDA6F4F0428E157
:100E4800828C000E82BC010EDB6F010EDC6F096A1A
:100E5800600E086E38EC2AF00001D26FD2A59EEF22
:100E68000CF0096A920E086E38EC2AF00001D26F75
:100E7800096A910E086E38EC2AF00001D46FD36B22
:100E8800D251D3258C6F000ED4218D6F9EEF0CF0BC
:100E98004F669EEF0CF0829C000E82BC010EDB6F49
:100EA800FED6010EDA6F4F0428E1828E000E82BE54
:100EB800010EDB6F010EDC6F096A610E086E38ECFB
:100EC8002AF00001D26FD2A59EEF0CF0096A940EA9
:100ED800086E38EC2AF00001D26F096A930E086E8A
:100EE80038EC2AF00001D46FD36BD251D3258E6F22
:100EF800000ED4218F6F9EEF0CF04F669EEF0CF022
:100F0800829E000E82BE010EDB6FC9D6010EDA6F1B
:100F18004F0428E18084000E80B4010EDB6F010EBF
:100F2800DC6F096A620E086E38EC2AF00001D26F95
:100F3800D2A59EEF0CF0096A960E086E38EC2AF0DE
:100F48000001D26F096A950E086E38EC2AF000018C
:100F5800D46FD36BD251D325906F000ED421916FEB
:100F68009EEF0CF04F669EEF0CF08094000E80B45C
:100F7800010EDB6F94D6010EDA6F4F0428E18082F0
:100F8800000E80B2010EDB6F010EDC6F096A630E82
:100F9800086E38EC2AF00001D26FD2A59EEF0CF053
:100FA800096A980E086E38EC2AF00001D26F096AB7
:100FB800970E086E38EC2AF00001D46FD36BD2512B
:100FC800D325926F000ED421936F9EEF0CF04F66DD
:100FD8009EEF0CF08092000E80B2010EDB6F5FD6A0
:100FE800010EDA6F4F0428E18080000E80B0010EF8
:100FF800DB6F010EDC6F096A640E086E38EC2AF0AC
:101008000001D26FD2A59EEF0CF0096A9A0E086E05
:1010180038EC2AF00001D26F096A990E086E38EC94
:101028002AF00001D46FD36BD251D325946F000EF0
:10103800D421956F9EEF0CF04F669EEF0CF08090D8
:10104800000E80B0010EDB6F2AD6DD510E0A01E1D9
:10105800F2D5010A01E126D61F0A01E14ED6010A9E
:1010680001E180D6030A01E1B2D6010A01E1E4D622
:10107800070A01E116D7010A01E148D7030A01E18D
:101088007AD7010AADE09EEF0CF0170EDD65ABD202
:10109800220EDD61A8D288D267EC2AF0430E000147
:1010A800DD25086E096A000E09224FC00AF079ECA6
:1010B80028F0430E0001DD25086E096A000E09229A
:1010C80038EC2AF00001DB6F4FA01CD08190DC6B5C
:1010D8006881096A730E086E38EC2AF00001D26F35
:1010E800096A730E086E38EC2AF00001D46FD36BCE
:1010F800D251D3250101006F0001000ED421010156
:10110800016F06D0FE0E6817030E69178190DC6B1D
:101118004FB4A6D59EEF0CF067EC2AF0430E000101
:10112800DD25086E096A000E09224FC00AF079EC25
:1011380028F0430E0001DD25086E096A000E092219
:1011480038EC2AF00001DB6F4FA01CD08192DC6BD9
:101158006883096A740E086E38EC2AF00001D26FB1
:10116800096A730E086E38EC2AF00001D46FD36B4D
:10117800D251D3250101026F0001000ED4210101D3
:10118800036F06D0FD0E6817030E69178192DC6B9A
:101198004FA4D0D3096A880E086E38EC2AF00001F3
:1011A800D26F096A870E086E38EC2AF00001D46FF6
:1011B800D36BD251D325846F000ED421856FBAD357
:1011C80067EC2AF0430E0001DD25086E096A000E5F
:1011D80009224FC00AF079EC28F0430E0001DD2502
:1011E800086E096A000E092238EC2AF00001DB6F4C
:1011F8004FA01CD08296DC6B6885096A780E086E51
:1012080038EC2AF00001D26F096A770E086E38ECC4
:101218002AF00001D46FD36BD251D3250101046F9A
:101228000001000ED4210101056F06D0FB0E6817DE
:10123800030E69178296DC6B4FB474D57BD367ECC9
:101248002AF0430E0001DD25086E096A000E092206
:101258004FC00AF079EC28F0430E0001DD25086E36
:10126800096A000E092238EC2AF00001DB6F4FA052
:101278001CD08298DC6B6887096A7A0E086E38EC95
:101288002AF00001D26F096A790E086E38EC2AF04C
:101298000001D46FD36BD251D3250101066F000131
:1012A800000ED4210101076F06D0F70E6817030E50
:1012B80069178298DC6B4FB46AD53CD367EC2AF087
:1012C800430E0001DD25086E096A000E09224FC091
:1012D8000AF079EC28F0430E0001DD25086E096A52
:1012E800000E092238EC2AF00001DB6F4FA41CD055
:1012F800829ADC6B6889096A7C0E086E38EC2AF0E1
:101308000001D26F096A7B0E086E38EC2AF00001E2
:10131800D46FD36BD251D3250101086F0001000EA1
:10132800D4210101096F06D0EF0E6817030E691763
:10133800829ADC6B4FB460D5FDD267EC2AF0430E7D
:101348000001DD25086E096A000E09224FC00AF067
:1013580079EC28F0430E0001DD25086E096A000EBD
:10136800092238EC2AF00001DB6F4FA01CD0829CC8
:10137800DC6B688B096A7E0E086E38EC2AF0000177
:10138800D26F096A7D0E086E38EC2AF00001D46F1E
:10139800D36BD251D32501010A6F0001000ED4216D
:1013A80001010B6F06D0DF0E6817030E6917829CC8
:1013B800DC6B4FB456D5BED267EC2AF0430E000161
:1013C800DD25086E096A000E09224FC00AF079EC83
:1013D80028F0430E0001DD25086E096A000E092277
:1013E80038EC2AF00001DB6F4FA01CD0829EDC6B2A
:1013F800688D096A800E086E38EC2AF00001D26FF9
:10140800096A7F0E086E38EC2AF00001D46FD36B9E
:10141800D251D32501010C6F0001000ED421010126
:101428000D6F06D0BF0E6817030E6917829EDC6B1E
:101438004FB44CD57FD267EC2AF0430E0001DD256E
:10144800086E096A000E09224FC00AF079EC28F0EC
:10145800430E0001DD25086E096A000E092238ECEA
:101468002AF00001DB6F4FA01CD08094DC6B688FE2
:10147800096A820E086E38EC2AF00001D26F096AF8
:10148800810E086E38EC2AF00001D46FD36BD2516C
:10149800D32501010E6F0001000ED42101010F6F49
:1014A80006D07F0E6817030E69178094DC6B4FB463
:1014B80042D540D267EC2AF0430E0001DD25086EC4
:1014C800096A000E09224FC00AF079EC28F0430E91
:1014D8000001DD25086E096A000E092238EC2AF0A1
:1014E8000001DB6F4FA01CD08092DC6B6981096A18
:1014F800840E086E38EC2AF00001D26F096A830E58
:10150800086E38EC2AF00001D46FD36BD251D32582
:101518000101106F0001000ED4210101116F04D0E8
:10152800020E69178092DC6B4FB43AD503D267EC90
:101538002AF0430E0001DD25086E096A000E092213
:101548004FC00AF079EC28F0430E0001DD25086E43
:10155800096A000E092238EC2AF00001DB6F4FA05F
:101568001CD08090DC6B6983096A860E086E38ECA3
:101578002AF00001D26F096A850E086E38EC2AF04D
:101588000001D46FD36BD251D3250101126F000132
:10159800000ED4210101136F04D0010E6917809049
:1015A800DC6B4FB432D5C6D1DD51180A01E174D5D0
:1015B800010A01E1B1D5030A01E102D6010A01E1FC
:1015C8003ED6070A01E17AD6010A01E1B6D6030A36
:1015D80001E1F2D6010A01E12ED73F0A01E16AD7FB
:1015E800010AA5E0A7D1210EDD65A4D1300EDD6189
:1015F800A1D131EF05F05204531001E07AD1140E55
:10160800DD612FD167EC2AF0730E0001DD25086E2D
:10161800096A000E09224FC00AF079EC28F0730E0F
:101628000001DD25086E096A000E092238EC2AF04F
:101638000001DB6FFAD0096A740E086E38EC2AF0E4
:101648000001D26F096A730E086E38EC2AF00001A7
:10165800D46FD36BD251D3250101006F0001000E66
:10166800D4210101016F66D1096A760E086E38EC43
:101678002AF00001D26F096A750E086E38EC2AF05C
:101688000001D46FD36BD251D3250101026F000141
:10169800000ED4210101036F4DD1096A780E086E3E
:1016A80038EC2AF00001D26F096A770E086E38EC20
:1016B8002AF00001D46FD36BD251D3250101046FF6
:1016C8000001000ED4210101056F34D1096A7A0E98
:1016D800086E38EC2AF00001D26F096A790E086E9C
:1016E80038EC2AF00001D46FD36BD251D325010115
:1016F800066F0001000ED4210101076F1BD1096A92
:101708007C0E086E38EC2AF00001D26F096A7B0E55
:10171800086E38EC2AF00001D46FD36BD251D32570
:101728000101086F0001000ED4210101096F02D1E7
:10173800096A7E0E086E38EC2AF00001D26F096A39
:101748007D0E086E38EC2AF00001D46FD36BD251AD
:10175800D32501010A6F0001000ED42101010B6F8E
:10176800E9D0096A800E086E38EC2AF00001D26FC1
:10177800096A7F0E086E38EC2AF00001D46FD36B2B
:10178800D251D32501010C6F0001000ED4210101B3
:101798000D6FD0D0096A820E086E38EC2AF000016D
:1017A800D26F096A810E086E38EC2AF00001D46FF6
:1017B800D36BD251D32501010E6F0001000ED42145
:1017C80001010F6FB7D0096A840E086E38EC2AF051
:1017D8000001D26F096A830E086E38EC2AF0000106
:1017E800D46FD36BD251D3250101106F0001000EC5
:1017F800D4210101116F9ED0096A860E086E38EC5B
:101808002AF00001D26F096A850E086E38EC2AF0BA
:101818000001D46FD36BD251D3250101126F00019F
:10182800000ED4210101136F85D0DD51010A01E1B9
:1018380002D7020A01E118D7060A01E12ED7020AE7
:1018480001E144D70E0A01E15AD7020A01E170D733
:10185800060A87E0020A9EE01E0AB5E0020ACCE00A
:1018680069D0130EDD6566D0280EDD6163D067ECA4
:101878002AF0730E0001DD25086E096A000E0922A0
:101888004FC00AF079EC28F0730E0001DD25086ED0
:10189800096A000E092238EC2AF00001DB6FDD51DD
:1018A800150A02E134EF06F0020A02E16BEF06F0D6
:1018B8000E0A02E196EF06F0020A02E1CBEF06F00B
:1018C800060A02E100EF07F0020A02E135EF07F02D
:1018D8003E0A02E16AEF07F0020A02E19FEF07F011
:1018E800060A02E1D4EF07F0020A02E109EF08F064
:1018F80021D05250020A53101DE1400EDD611AD06A
:1019080067EC2AF09B0E0001DD25086E096A000EBF
:1019180009224FC00AF079EC28F08EEC13F09B0EE8
:101928000001DD25086E096A000E092238EC2AF04C
:101938000001DB6F0001DA5121E0430EDD25086E5E
:10194800096A000E092238EC2AF00001D96FDC512F
:101958000BE0D9A713D0140ED06F030ED16FDD5151
:10196800F20F8FEC27F00AD0D9A908D0140ED06F47
:10197800040ED16FDD51F20F8FEC27F0DB5112000E
:10198800FC6B096A500E086E38EC2AF00001D26F21
:10199800096A4F0E086E38EC2AF00001D46FD36B39
:1019A800D251D325F66F000ED421F76FFE6B090EC6
:1019B800FE6501D08CD2FEC0D2F0010ED36FD46B7D
:1019C800D22B03D0D890D337D437D22FFBD7F651A8
:1019D800D317F751D417D451D31101E1E4D0650ED0
:1019E800FE25086E096A000E092238EC2AF000016B
:1019F800FD6FFDAF69D232D0000E81B0010EFB6FD2
:101A080041D0000E81B2010EFB6F3CD0000E82B6B1
:101A1800010EFB6F37D0000E82B8010EFB6F32D07B
:101A2800000E82BA010EFB6F2DD0000E82BC010E93
:101A3800FB6F28D0000E82BE010EFB6F23D0000E74
:101A480080B4010EFB6F1ED0000E80B2010EFB6F3A
:101A580019D0000E80B0010EFB6F14D0FE51CCE0FF
:101A6800010ACFE0030AD2E0010AD5E0070AD8E06C
:101A7800010ADBE0030ADEE0010AE1E00F0AE4E024
:101A8800010AE7E0FDA126D0FB5124E0FEC0D2F018
:101A9800010ED36FD46BD22B03D0D890D337D43761
:101AA800D22FFBD76A51D3176B51D417D451D31106
:101AB80011E1FDA508D01E0ED06F050ED16FFE51A5
:101AC8008FEC27F007D0140ED06F030ED16FFE51A4
:101AD8008FEC27F0FDB3FB6724D0FEC0D2F0010ED7
:101AE800D36FD46BD22B03D0D890D337D437D22F1F
:101AF800FBD76A51D3176B51D417D451D31111E0C6
:101B0800FDA508D01E0ED06F060ED16FFE518FECCA
:101B180027F007D0140ED06F040ED16FFE518FEC52
:101B280027F0FDA91FD0FB511DE0FEC0D2F0010E29
:101B3800D36FD46BD22B03D0D890D337D437D22FCE
:101B4800FBD76A51D3176B51D417D451D31102E084
:101B5800FDAB08D0010ED06F020ED16FFE518FEC95
:101B680027F07883FDB7FB67AFD1FEC0D2F0010E36
:101B7800D36FD46BD22B03D0D890D337D437D22F8E
:101B8800FBD76A51D3176B51D417D451D31102E143
:101B9800FDAB9AD1010ED06F020ED16FFE518FECC2
:101BA80027F0788591D15B0EFE25086E096A000E34
:101BB800092238EC2AF00001FD6FFDAF85D1FE51F6
:101BC800020DF350820FD96EDA6ADE50DD1039E06B
:101BD800FE51020DF350820FD96EDA6ADE06000E4E
:101BE800DD5AFE51020DF350820FD96EDA6ADE50CB
:101BF800DD1048E15B0EFE25086E096A000E092219
:101C080038EC2AF00001D26FD2A53CD0FEC0D2F049
:101C1800010ED36FD22B02D0D890D337D22FFCD756
:101C2800D3514F6E000E4AEC25F00001FDA307D0FA
:101C3800010ED06F020ED16FFE518FEC27F0788124
:101C480021D0870EFE25086E096A000E092238EC9D
:101C58002AF00001D36FD26B880EFE25086E096A40
:101C6800000E092238EC2AF00001D227000ED323F7
:101C7800FE51020DF350820FD96EDA6AD2C0DEFF30
:101C8800D3C0DDFFFEC0D2F0010ED36FD46BD22BD0
:101C980003D0D890D337D437D22FFBD76851D31776
:101CA8006951D417D451D31101E10ED1FE51020D5F
:101CB800000EF324D96E010EF420DA6EDE50DD102A
:101CC80001E1DAD00001FE51020D000EF324D96EB5
:101CD800010EF420DA6EDE06000EDD5AFE51020D0A
:101CE800000EF324D96E010EF420DA6EDE50DD10FA
:101CF80040E0EAD081A002D0819037D08180010EE7
:101D0800FC6F4CD081A202D081922FD08182F7D76C
:101D180082A602D0829629D08286F1D782A802D0E4
:101D2800829823D08288EBD782AA02D0829A1DD0CB
:101D3800828AE5D782AC02D0829C17D0828CDFD70A
:101D480082AE02D0829E11D0828ED9D780A402D0D2
:101D580080940BD08084D3D780A202D0809205D003
:101D68008082CDD780A003D08090FC6B17D0808074
:101D7800C6D70001FE51BEE0010AC4E0030AC8E06C
:101D8800010ACCE0070AD0E0010AD4E0030AD8E04F
:101D9800010ADCE00F0AE0E0010AE4E0FE51020D6E
:101DA800730EF324086E000EF420096E38EC2AF046
:101DB8000001D36FD26BFE51020D730EF324086E2F
:101DC800000EF420096E38EC2AF00001D227000E2C
:101DD800D323FE51020D000EF324D96E010EF42018
:101DE800DA6ED2C0DEFFD3C0DDFFFC513BE05B0EF4
:101DF800FE25086E096A000E092238EC2AF0000157
:101E0800D26FD2A525D0FE51020D870EF324086E9D
:101E1800000EF420096E38EC2AF00001D36FD26B63
:101E2800FE51020D880EF324086E000EF420096E90
:101E380038EC2AF00001D227000ED323FE51020D00
:101E4800F350820FD96EDA6AD2C0DEFFD3C0DDFF4D
:101E5800FDA73AD0140ED06F030ED16FFE518FEC50
:101E680027F032D0FDA930D0140ED06F040ED16FF8
:101E7800FE518FEC27F028D00001FE51020D730EA1
:101E8800F324086E000EF420096E38EC2AF00001E5
:101E9800D36FD26BFE51020D740EF324086E000E40
:101EA800F420096E38EC2AF00001D227000ED32363
:101EB800FE51020D000EF324D96E010EF420DA6EE5
:101EC800D2C0DEFFD3C0DDFF0001FE2B70D5096A4A
:101ED800700E086E38EC2AF000094FE00001F86B2C
:101EE8008030010BD26F8050010B020DF350D225C8
:101EF800F96F8150010BD26F8130010B020DF3CFC6
:101F0800D3F08230E832E832010B040DF3CFD4F07D
:101F18008238010B080DF3CFD5F08238E832010B77
:101F2800100DF3CFD6F08238E832E832010B200DDD
:101F3800F3CFD7F08234E836010B400DF3CFD8F059
:101F48008030E832010B800DF350D825D725D625EF
:101F5800D525D425D325D225FA6F406A0F0E3F6EBA
:101F6800010E416E7DC042F0030E436E446E000EBA
:101F7800466EF80E456E14EC26F08150010B0001F8
:101F8800D26F8130010BD36FD890D335D46FD56B16
:101F9800D5378230E832E832010BD66FD76BD8904C
:101FA800D637D737D890D637D7378238010BD86F7E
:101FB800D96BD890D837D937D890D837D937D8905F
:101FC800D837D9378238E832010BDA6FDB6BDA3B66
:101FD800DB3BF00EDB17DA510F0BDB13F00EDA17D1
:101FE8008238E832E832010BDC6FDD6B050ED890E1
:101FF800DC37DD37E82EFBD78234E836010BDE6F9D
:10200800DF6B060ED890DE37DF37E82EFBD780303F
:10201800E832010BE06FE16B070ED890E037E1374B
:10202800E82EFBD78030010BE36FE26B8050010B89
:10203800E46FE56B090ED890E437E537E82EFBD757
:10204800E251E425E66FE351E521E76FE051E6252B
:10205800E86FE151E721E96FDE51E825EA6FDF51CA
:10206800E921EB6FDC51EA25EC6FDD51EB21ED6FD7
:10207800DA51EC25EE6FDB51ED21EF6FD851EE25EB
:10208800F06FD951EF21F16FD651F025F26FD7518A
:10209800F121F36FD451F225F46FD551F321F56F87
:1020A800D251F4256A6F000EF5216B6F1200995119
:1020B800981101E1FDD22DD375EC2AF02AD3EEEC6C
:1020C80028F027D344EC28F024D393EC28F021D32C
:1020D80096510F0B020A01E01CD37D5120EE9CF0B3
:1020E800DF6217D3800E9D6112D09D51FFEC1DF069
:1020F8000001AB6F9DC0AAF0030EA56F820EA46FFE
:10210800A66BA76B0A0EA86F5FEC28F002D39D514F
:1021180027EC1DF0EDD796510F0B030A01E0F9D219
:102128007D5120EE9CF0DF62F4D2800E9D6106D0D6
:102138009EC04FF09D51FCEC04F0DBD79EC048F0E8
:102148009D51D6EC22F0D4D77D5120EE9CF0DF6271
:10215800E0D2000E25EC2AF000019E1901E0D9D248
:10216800030E25EC2AF000019F1901E0D2D2050EDA
:1021780025EC2AF00001A01901E0CBD2070E25ECCE
:102188002AF00001A11901E0C4D25350A21901E0BC
:10219800C0D2525020EEA3F0DF62BBD29D51D3ECE7
:1021A80029F0B7D2000E25EC2AF000019D1973E141
:1021B800010E25EC2AF000019E196DE1020E25ECB6
:1021C8002AF000019F1967E1030E25EC2AF00001AF
:1021D800A01961E17A895FD0040E25EC2AF000018C
:1021E8009D1959E1050E25EC2AF000019E1953E1CD
:1021F800060E25EC2AF000019F194DE1070E25EC8B
:102208002AF00001A01947E17A8B45D0080E25EC89
:102218002AF000019D193FE1090E25EC2AF0000182
:102228009E1939E10A0E25EC2AF000019F1933E1C5
:102238000B0E25EC2AF00001A0192DE17A8D2BD088
:102248000C0E25EC2AF000019D1925E10D0E25EC58
:102258002AF000019E191FE10E0E25EC2AF000015C
:102268009F1919E10F0E25EC2AF00001A01913E1BE
:102278007A8F11D07A6B0FD09C390F0BDF6FE06B20
:10228800E051F8E1DF518EE0010AA6E0030ABEE062
:10229800010AD6E0EFD77A51F00BF00A01E039D203
:1022A80065EC27F036D27D5120EE9CF0DF6231D20A
:1022B800ED6B9DC0ECF09EC0EFF0FB6B48D0070EB5
:1022C800086EFB5118EC29F00001DF6FDF51AB0FEE
:1022D800D96EDA6AEC51FB25E1EC29F0DF6E070EC6
:1022E800086E0001FB5118EC29F0060A0BE0FF0EFE
:1022F8000001EF25DF6FE06BFF0EE023FB51DF19D4
:10230800E01124E1070E086E0001FB5118EC29F0DA
:10231800060A03E1070E000109D0070E086E000146
:10232800FB5118EC29F00001DF6FDF29EE6FEE5149
:10233800810FA46F070EA56FA66BA76B1A0EA86F67
:10234800EDC0AAF05FEC28F00001ED2BFB2BEF515C
:10235800FB5D01E3DED1B3D77D5120EE9CF0DF6257
:10236800D8D19DC0F0F09651FE0F070BF16FF66BB8
:1023780016D0F6519E0FD96EDA6ADF50DE6FF05133
:10238800F62578EC29F00001F651AB0FD96EDA6A20
:10239800F051F625E1EC29F0DF6E0001F62BF15142
:1023A800F65DE7E3070EA56FA66BA76B1A0EA86F7D
:1023B800AA6BF151810FA46FA7D67D5120EE9CF036
:1023C800DF62A7D19D51FFEC1DF00001DF6FDF290F
:1023D8004F6E9D51FCEC04F08CD67D5120EE9CF0A4
:1023E800DF6297D19D51FFEC1DF00001DF6FDF0523
:1023F8004F6E9D51FCEC04F07CD69C517D1903E096
:102408009C2901E086D1F56B030EA56F880EA46F99
:10241800A66BA76B200EA86FFA6BFAC0AAF0010E84
:10242800FC6FFC51AA0FD96EDA6AF5510F0825EC3A
:102438002AF0DF6E0001F52B100EF56501D004D0EF
:10244800FC2B070EFC65EDD7100EF56501D007D003
:102458005FEC28F00001FA2B020EFA65DED7FC6B60
:10246800FC51EEEC29F0000908E0FC51AD0FD96EE3
:10247800DA6AFC51EEEC29F005D0FC51AD0FD96EAB
:10248800DA6A000EDF6EFC2B040EFC65E9D75FEC00
:1024980028F0050E0001F56F030EFA6FFAC0AAF0D6
:1024A800010EFC6FFC51AA0FD96EDA6AF551EEECF9
:1024B80029F0DF6EF52BFC2B070EFC65F3D75FECDC
:1024C80028F00001FA2B060EFA65E8D722D17D51D3
:1024D80020EE9CF0DF621DD1030EA56F870EA46F5E
:1024E800A66BA76B220EA86FAA0E31EC27F00CD6AC
:1024F8007D5120EE9CF0DF620CD1F76B96C0DFF0C7
:102508000F0EDF17040EDF5D12E3A0C0F8F0F96BC1
:10251800F951F81103E1010EF96FF86B010EF85D3E
:10252800010EF95907E3010EF96F000E02D0F96B9D
:10253800010EF86F52C0E6F053C0E7F09E519DC0FF
:10254800DFF0E06BDFC0E0F0DF6BDF11526EE051CF
:10255800536E070EA56FA66BA76B270EA86FAA6B05
:102568009DC0ABF09EC0ACF0F751F85DDF6F000E78
:10257800F959E06F040EDF5D000EE05902E3040E26
:1025880002D0F751F85DF26FF251840FA46F9F519A
:10259800F725AD6FF36B0CD0F351AE0FD96EDA6A35
:1025A8009F51F725F325E1EC29F0DF6E0001F32BAD
:1025B800F251F35DF1E354C0E8F055C0E9F05FEC87
:1025C80028F0020E0001E825DF6F000EE921E06F18
:1025D800DF51545CE0515558F4E3F251F727AA2B28
:1025E800F751DF6FE06BF851DF5DF951E059BCE35B
:1025F800E6C052F0E7C053F08CD07D5120EE9CF03D
:10260800DF6287D052C0EAF053C0EBF09E519DC004
:10261800DFF0E06BDFC0E0F0DF6BDF11526EE051FE
:10262800536E9FC0F4F014D09F51A008F425D96EC2
:10263800DA6ADF50DE6FF45178EC29F00001DF6FC1
:102648009F51AE08F425D96EDA6ADFC0DFFFF42B9C
:1026580096510F0BDF6FE06B9F51DF27000EE023D1
:10266800FC0EDF25E16FFF0EE021E26FF451E36F0E
:10267800E46BE451800AE56FE151E35DE251800AC1
:10268800E559D2E3EAC052F0EBC053F0070EA56F4C
:1026980096510F0B800FA46FA66BA76B270EA86F20
:1026A800AA6B9DC0ABF09EC0ACF09FC0ADF02CD51E
:1026B8009A51010A01E100D5030A01E100D5040A93
:1026C80001E100D50E0A01E100D5010A01E100D5BA
:1026D800020A01E120D5070A01E136D51B0A01E10A
:1026E800CBD50F0A01E1DFD5010A01E135D6040A8D
:1026F80001E163D6030A01E170D6010A01E17DD642
:102708003E0A01E1E4D6040A01E1F2D6030A01E136
:1027180074D7120036683768386839683A6A3B6A8D
:102728003C6A3D6A436A4350126E136AD890123667
:102738001336D89012361336D89012361336440E04
:102748001224086E000E1320096E38EC2AF0146E5D
:1027580014AEE8D14350126E136AD890123613366D
:10276800D89012361336D89012361336470E1224E4
:10277800086E000E1320096E38EC2AF0146E14C08F
:1027880015F0166A176A186A17C018F016C017F0FD
:1027980015C016F0156A4350196E1A6AD890193682
:1027A8001A36D89019361A36D89019361A36450E70
:1027B8001924086E000E1A20096E38EC2AF01B6ED8
:1027C8001BC01CF01D6A1E6A1F6A1DC01FF01CC0BA
:1027D8001EF01D6A1C6A4350206E216AD89020366C
:1027E8002136D89020362136D89020362136440E0E
:1027F8002024086E000E2120096E38EC2AF0226E83
:10280800020E221622C023F0246A256A266A170EB1
:10281800D8902336243625362636E82EF9D71C508C
:102828002310276E1D502410286E1E502510296E67
:102838001F5026102A6E155027102B6E1650281080
:102848002C6E175029102D6E18502A102E6EFF0E60
:102858002B10316E2C50326E2D50336E2E50346E3C
:102868004350126E136AD89012361336D890123627
:102878001336D89012361336480E1224086E000EFE
:102888001320096E38EC2AF0146E14C015F0166A7D
:10289800176A186A17C018F016C017F015C016F096
:1028A800156A4350196E1A6AD89019361A36D89094
:1028B80019361A36D89019361A36460E1924086E63
:1028C800000E1A20096E38EC2AF01B6E1BC01CF093
:1028D8001D6A1E6A1F6A1DC01FF01CC01EF01D6AFB
:1028E8001C6A4350206E216AD89020362136D89031
:1028F80020362136D89020362136440E2024086E02
:10290800000E2120096E38EC2AF0226E010E2216E4
:1029180022C023F0246A256A266A23C026F0256A85
:10292800246A236A1C502310276E1D502410286E19
:102938001E502510296E1F5026102A6E155027107C
:102948002B6E165028102C6E175029102D6E18500B
:102958002A102E6E43502F6E306AD8902F3630369C
:10296800D8902F363036D8902F363036430E2F2455
:10297800086E000E3020096E38EC2AF02B103E6EDF
:102988002C503F6E2D50406E2E50416E436608D03D
:102998003EC03AF03FC03BF040C03CF041C03DF083
:1029A80031503616325037163350381634503916DF
:1029B800426A42503EC012F03FC013F040C014F0CB
:1029C80041C015F0E82A05D0D890153214321332D8
:1029D8001232E82EF9D7010E121642503AC016F0FC
:1029E8003BC017F03CC018F03DC019F0E82A05D0EC
:1029F800D8901932183217321632E82EF9D71650F5
:102A0800010B12181DE042C012F0010E136E146A79
:102A1800122A03D0D89013361436122EFBD7131C63
:102A2800156E141C166E176A16BE17061750186E08
:102A380015503616165037161750381618503916BE
:102A4800422A1F0E4264B5D73E503A163F503B16F5
:102A580040503C1641503D1643504FE0426A43C037
:102A680012F04350136E146AD89013361436D89067
:102A780013361436D89013361436430E1324086EC2
:102A8800000E1420096E38EC2AF0156E122A02D0B6
:102A9800D8901532122EFCD7010E151643C016F029
:102AA80035C017F0162A02D0D8901732162EFCD748
:102AB8001750010B15181DE043C012F0010E136EDC
:102AC800146A122A03D0D89013361436122EFBD764
:102AD80013C015F014C016F0000E16BEFF0E176EC8
:102AE800186E1550361616503716175038161850D7
:102AF8003916422A070E4264B2D74350126E136A3F
:102B0800D89012361336D89012361336D89012361B
:102B18001336430E1224086E000E1320096E38EC8B
:102B28002AF0356E432A070E4364FDD5800EFAEC71
:102B380029F00F010F0E096E1C0E086E36C00AF040
:102B480037C00BF038C00CF039C00DF0010E0E6E16
:102B5800FDEC20F00D01D4830F010F0E096E040E59
:102B6800086E3AC00AF03BC00BF03CC00CF03DC008
:102B78000DF0010E0E6EFDEC20F0000EFAEF29F0BC
:102B8800D36B090E4F6401D026D25B0E4F24086E1A
:102B9800096A000E092238EC2AF00001D26F096A8E
:102BA800720E086E38EC2AF00001D46FD2AF13D23F
:102BB800DED1D46726D081805B0E4F24086E096A67
:102BC800000E092238EC2AF0506E50A608D0140ED8
:102BD8000001D06F030ED16F000E8FEC27F08190AB
:102BE800096A5B0E086E38EC2AF0506E50A8DBD1EB
:102BF800140E0001D06F040ED16F000E8FEC27F079
:102C0800D2D181B002D0010ED36F8180D4C0B2F08E
:102C1800CAD1D46726D081825B0E4F24086E096A18
:102C2800000E092238EC2AF0506E50A608D0140E77
:102C38000001D06F030ED16F010E8FEC27F0819247
:102C4800096A5C0E086E38EC2AF0506E50A8ABD1B9
:102C5800140E0001D06F040ED16F010E8FEC27F017
:102C6800A2D181B202D0010ED36F8182D4C0B3F059
:102C78009AD1D46726D082865B0E4F24086E096AE3
:102C8800000E092238EC2AF0506E50A608D0140E17
:102C98000001D06F030ED16F020E8FEC27F08296E1
:102CA800096A5D0E086E38EC2AF0506E50A87BD188
:102CB800140E0001D06F040ED16F020E8FEC27F0B6
:102CC80072D182B602D0010ED36F8286D4C0B4F01E
:102CD8006AD1D46725D082885B0E4F24086E096AB2
:102CE800000E092238EC2AF0506E50A607D0140EB8
:102CF8000001D06F030ED16F8FEC27F08298096A1C
:102D08005E0E086E38EC2AF0506E50A84CD1140EA6
:102D18000001D06F040ED16F030E8FEC27F043D162
:102D280082B802D0010ED36F8288D4C0B5F03BD1EF
:102D3800D46725D0828A5B0E4F24086E096A000E7C
:102D4800092238EC2AF0506E50A608D0140E000163
:102D5800D06F030ED16F040E8FEC27F0829A096AA8
:102D68005F0E086E38EC2AF0506E50A81CD1140E75
:102D78000001D06F040ED16F8FEC27F014D182BA06
:102D880002D0010ED36F828AD4C0B6F00CD1D467BA
:102D980026D0828C5B0E4F24086E096A000E092229
:102DA80038EC2AF0506E50A608D0140E0001D06FEF
:102DB800030ED16F050E8FEC27F0829C096A600E16
:102DC800086E38EC2AF0506E50A8EDD0140E0001B1
:102DD800D06F040ED16F050E8FEC27F0E4D082BCC3
:102DE80002D0010ED36F828CD4C0B7F0DCD0D46788
:102DF80026D0828E5B0E4F24086E096A000E0922C7
:102E080038EC2AF0506E50A608D0140E0001D06F8E
:102E1800030ED16F060E8FEC27F0829E096A610EB1
:102E2800086E38EC2AF0506E50A8BDD0140E000180
:102E3800D06F040ED16F060E8FEC27F0B4D082BE8F
:102E480002D0010ED36F828ED4C0B8F0ACD0D46754
:102E580026D080845B0E4F24086E096A000E092272
:102E680038EC2AF0506E50A608D0140E0001D06F2E
:102E7800030ED16F070E8FEC27F08094096A620E5B
:102E8800086E38EC2AF0506E50A88DD0140E000150
:102E9800D06F040ED16F070E8FEC27F084D080B46A
:102EA80002D0010ED36F8084D4C0B9F07CD0D4672F
:102EB80026D080825B0E4F24086E096A000E092214
:102EC80038EC2AF0506E50A608D0140E0001D06FCE
:102ED800030ED16F080E8FEC27F08092096A630EFB
:102EE800086E38EC2AF0506E50A85DD0140E000120
:102EF800D06F040ED16F080E8FEC27F054D080B23B
:102F080002D0010ED36F8082D4C0BAF04CD0D467FF
:102F180026D080805B0E4F24086E096A000E0922B5
:102F280038EC2AF0506E50A608D0140E0001D06F6D
:102F3800030ED16F090E8FEC27F08090096A640E9A
:102F4800086E38EC2AF0506E50A82DD0140E0001EF
:102F5800D06F040ED16F090E8FEC27F024D080B00B
:102F680002D0010ED36F8080D4C0BBF01CD04F506C
:102F780001E11FD6010A01E14CD6030A01E179D625
:102F8800010A01E1A6D6070A01E1D2D6010A01E148
:102F9800FED6030A01E12BD7010A01E158D70F0A2F
:102FA80086E0010AB4E00001D351D8A4D2A713D017
:102FB8005B0E4F24086E096A000E092238EC2AF0CD
:102FC800506E50A608D0140E0001D06F030ED16FBA
:102FD8004F508FEC27F012000001646B656B666B35
:102FE800676B776B766B746B686B696B0101010EAD
:102FF800096E000E086E0B6A0A6A0D6A140E0C6ED2
:10300800C2EC28F00001000E096E820E086E0B6AF1
:103018000A6A0D6A140E0C6EC2EC28F0356A5B0E53
:103028003524086E096A000E092238EC2AF0106E61
:1030380010A033D035C010F0010E116E126A102A9C
:1030480003D0D89011361236102EFBD7115000013C
:10305800681312506913730E3524086E096A000E3E
:10306800092238EC2AF0116E106A740E3524086EA5
:10307800096A000E092238EC2AF01026000E1122E7
:103088003550020D0101000EF324D96E010EF42013
:10309800DA6E10C0DEFF11C0DDFF5B0E3524086E4E
:1030A800096A000E092238EC2AF0106E10A420D00C
:1030B800730E3524086E096A000E092238EC2AF0CE
:1030C800116E106A740E3524086E096A000E092202
:1030D80038EC2AF01026000E11223550020DF3505C
:1030E8000001820FD96EDA6A10C0DEFF11C0DDFF61
:1030F800352A090E356493D70001000E096EB20E09
:10310800086E0B6A0A6A0D6A0A0E0C6EC2EC28F089
:10311800096A4F0E086E38EC2AF0346E3450030BEF
:10312800926E096A500E086E38EC2AF0346E3450EC
:10313800030B0809936E3438E842070B040B346E0E
:1031480034509212096A6F0E086E38EC2AF0106E2D
:1031580010BEF19E096A500E086E38EC2AF0106E07
:10316800D8901034F80B346E34500109946E010174
:10317800010E096E140E086E0B6A0A6A0D6A0A0EB1
:103188000C6EC2EC28F00101010E096E1E0E086ECD
:103198000B6A0A6A0D6A0A0E0C6EC2EC28F000016E
:1031A800736B8150010B106E8130010B116ED8903A
:1031B8001134126E136A13368230E832E832010B8A
:1031C800146E156AD89014361536D89014361536FC
:1031D8008238010B166E176AD89016361736D890B3
:1031E80016361736D890163617368238E832010B5D
:1031F800186E196A183A193AF00E191618500F0B6A
:103208001912F00E18168238E832E832010B1A6EDD
:103218001B6A050ED8901A361B36E82EFBD7823467
:10322800E836010B1C6E1D6A060ED8901C361D363A
:10323800E82EFBD78030E832010B1E6E1F6A070E9E
:10324800D8901E361F36E82EFBD78030010B216E32
:10325800206A8050010B226E236A090ED89022360C
:103268002336E82EFBD720502224246E2150232019
:10327800256E1E502424266E1F502520276E1C50B4
:103288002624286E1D502720296E1A5028242A6EBD
:103298001B5029202B6E18502A242C6E19502B20D5
:1032A8002D6E16502C242E6E17502D202F6E145074
:1032B8002E24306E15502F20316E12503024326E6D
:1032C80013503120336E105032246A6F000E3320B1
:1032D8006B6F12009951981101E177D1E96BE951AF
:1032E800D76FD86BD890D737D837D890D737D83743
:1032F800D890D737D8379C0ED725086E000ED8211E
:10330800096E38EC2AF00001E86FE8AF59D1E8AD52
:1033180018D0E951D76FD86BD890D737D837D8900D
:10332800D737D837D890D737D8379B0ED725086ED8
:10333800000ED821096E38EC2AF000019B1901E033
:103348003FD1E8A90BD09D2909E0096A430E086E10
:1033580038EC2AF000019D1901E032D1E8A70BD022
:103368009E2909E0096A440E086E38EC2AF000012B
:103378009E1901E025D1E951080D9E0EF324086E2F
:10338800000EF420096E38EC2AF00001D76FE851DE
:10339800010BD96FD86BD751D825DA6F000ED92118
:1033A800DB6FE951080D9D0EF324086E000EF42022
:1033B800096E38EC2AF00001D76FE851020BD86F7C
:1033C800D96B070ED890D837D937E82EFBD7D75105
:1033D800D825DC6F000ED921DD6FE951080DA00E4C
:1033E800F324086E000EF420096E38EC2AF0000170
:1033F800DE6FE951080D9F0EF324086E000EF420CD
:10340800096E38EC2AF00001DF6F20EE98F0DECF6D
:10341800D7F0DDCFD8F0DA51D71BDB51D81BDC5100
:10342800D717DD51D817D851D71101E0C9D09A5113
:10343800DE19DF1501E1A4D0C3D00001E951080D60
:10344800A20EF324086E000EF420096E38EC2AF060
:103458000001E06FE0C04FF0E85142EC22F0B0D03C
:103468000001E951080DA20EF324086E000EF420A5
:10347800096E38EC2AF00001E16FE1C04FF0E85125
:103488004AEC25F09DD00001E951080DA20EF32465
:10349800086E000EF420096E38EC2AF00001E26F85
:1034A800E2C04FF0E851A5EC21F08AD00001E951C3
:1034B800080DA20EF324086E000EF420096E38ECF5
:1034C8002AF00001E36FE3C04FF0E8515EEC23F00F
:1034D80077D00001E951080DA20EF324086E000E02
:1034E800F420096E38EC2AF00001E46FE4C04FF0D4
:1034F800E851DBEC24F064D00001E951080DA20E7C
:10350800F324086E000EF420096E38EC2AF000014E
:10351800E56FE5C0D2F0E851B7EC29F051D00001D1
:10352800E951080DA20EF324086E000EF420096E6E
:1035380038EC2AF00001E66FE6C04FF0E8515FEC86
:1035480024F03ED00001E951080DA20EF324086EC4
:10355800000EF420096E38EC2AF00001E76F450EE2
:10356800E725086E096A000E092238EC2AF00001E6
:103578009C1926E1E7C04FF0E851C4EC15F020D0C3
:10358800E951080DA10EF324086E000EF420096E0F
:1035980038EC2AF0000A14E0010A01E14ED7030AC8
:1035A80001E15ED7010A01E16ED7070A01E17ED782
:1035B800010AB5E0030A8DE0010A9EE00F0AC2E0A5
:1035C8000001E92B070EE9658AD6120005EC28F000
:1035D80028EC28F0F0EC17F065EC27F08EEC13F0EF
:1035E8000400C50E0001705D090E715910E37E05D7
:1035F8000EE0020E566E7D6967EC2AF0096A010E2C
:10360800086EFF0E0A6879EC28F065EC27F0966BD7
:1036180003EC29F0D6D07D2903E1010E7E6FE1D0BD
:10362800030E7E6F99EC29F0DCD0B8EC25F0D9D0E8
:1036380096AF08D09951981103E15BEC10F002D0D5
:103648006EEC19F0000175AF1CD075C028F10F0E93
:10365800010128175B0E2825086E096A000E092249
:1036680038EC2AF00101296F29A909D0140E0001AC
:10367800D06F040ED16F75510F0B8FEC27F000013E
:10368800756B0A0E605D000E6159000E6259000EDE
:10369800635901E2A6D0606B616B626B636B096A68
:1036A800500E086E38EC2AF00101286F096A4F0E97
:1036B800086E38EC2AF001012C6F28512B6F73C06B
:1036C80028F1010E296F2A6B282B03D0D8902937AF
:1036D8002A37282FFBD72B5129172C512A172A5163
:1036E800291163E0650E00017325086E096A000E52
:1036F800092238EC2AF00101286F28AD56D0650E52
:1037080000017325086E096A000E092238EC2AF0B8
:103718000101286F28BF33D048D081B003D0E1EC35
:1037280023F043D0140E00017325D96EDA6A010E16
:10373800DA22DF6A1E0E7325D96EDA6A010EDA22E2
:10374800DF6A33D081A2EBD7EDD782A6E8D7EAD7D4
:1037580082A8E5D7E7D782AAE2D7E4D782ACDFD739
:10376800E1D782AEDCD7DED780A4D9D7DBD780A259
:10377800D6D7D8D780A0D3D7D5D7736B16D00001AA
:103788007351CBE0010ADEE0030ADFE0010AE0E062
:10379800070AE1E0010AE2E0030AE3E0010AE4E0E3
:1037A8000F0AE5E0010AE6E0E8D70001732B090EED
:1037B800736517D0736B15D06AEC2AF012D07E6B44
:1037C80010D000017E5101E126D7010A01E12DD771
:1037D800030A01E127D7010A01E12AD7070AECE029
:1037E800EED7E90E0001645D030E6559000E6659B7
:1037F800000E67590CE3646B656B666B676B772B20
:10380800B8EC27F07E51030AD8B4C4EC0CF03B0E98
:1038180077650BD0776B762B3B0E766502D0766B8F
:10382800742B170E746501D0746B6EEC2AF0D8D621
:10383800E8CF12F0726B7750C00B166E166635D053
:1038480060AE13D0A49074AE06D01150D96EDA6A67
:10385800000EDB86749E60A002D0728102D0000147
:1038680072910F0E196E600E1CD00F0150AF1BD055
:10387800A49274AC06D01150D96EDA6A000EDB86B9
:10388800749C5051070B0001726F020E726105D0D3
:103898001150D96EDA6A000EDB8E0F010F0E196E09
:1038A800500E186E66D0000ECDD01650400A46E174
:1038B80060AE04D00F0E196E600E3ED00F0150AFEF
:1038C80004D00F0E196E500E37D00D01F8B507D081
:1038D8000E0120AF04D00E0E196E200E2DD00D0152
:1038E800F8B707D00E0130AF04D00E0E196E300EA7
:1038F80023D00D01F8B907D00E0140AF04D00E0E49
:10390800196E400E19D00D01F8BB05D00E0150AF4D
:1039180002D00E0ED7D70D01F8BD05D00E0160AF4D
:1039280002D00E0EC8D70D01F8BFBDD70E0170AF7B
:10393800BAD70E0E196E700E186E0AD074AEB3D7C1
:103948006F50070BF6EC26F008C018F009C019F004
:1039580018C0D9FF19C0DAFFDF501F0B0001726FC2
:10396800A49274AC06D01150D96EDA6A000EDB86C8
:10397800749C18C013F019C014F01150D96EDA6A8B
:10398800DF6A20EE05F01850D9261950DA22DF50E8
:10399800176E1050D96EDA6A17500F0BDF6E17AC1E
:1039A80005D01150D96EDA6A000EDB8C20EE02F0D9
:1039B8001850D9261950DA22DF50176E17A608D0EA
:1039C8001150D96EDA6A000EDB8A010E176E01D02B
:1039D800176A1828086E000E1920096E12C00AF01E
:1039E80017C00BF04BEC20F0060E1826000E19221B
:1039F8001050D96EDA6ADF50176E156A0DD018C0EC
:103A0800D9FF19C0DAFF0F50E16EE26ADFCFE7FF96
:103A1800184A192A0F2A152A1750155CF0E3A4AE84
:103A280006D01150D96EDA6A000EDB88A49E13C046
:103A3800D9FF14C0DAFF7F0EDF161650800AD8B4FB
:103A4800749E010E1200E8CF1CF01B6A1C50800AFD
:103A580004E178C01BF0786BCCD01C50810A02E1DD
:103A6800010E82D01C50820A02E1060E7DD01C5045
:103A7800830A03E179C01BF0BCD01C50940A03E10F
:103A880074EC2AF071D01C50950A03E173EC2AF00B
:103A98006BD01C50960A03E172EC2AF065D0890EAF
:103AA8001C6005D01C507C0F1BEC2AF05DD0880EE2
:103AB8001C6408D0910E1C6005D01C50770F11ECC7
:103AC8002AF052D01C50910A03E17DC01BF091D01E
:103AD8001C50930A03E152C01BF08BD01C50920A71
:103AE80002E1535041D01C50970A03E171EC2AF0CF
:103AF8003BD01C50980A03E170EC2AF035D01C50DA
:103B0800990A03E16FEC2AF02FD0990E1C642ED08D
:103B18009E0E1C602BD059EC2AF00BC014F00AC082
:103B280013F009C012F008C011F01C50660F196E8E
:103B3800195003080C6ED8900C36D8900C36D890D3
:103B48000C360C5011C00DF012C00EF013C00FF05F
:103B580014C010F0E82A05D0D89010320F320E3277
:103B68000D32E82EF9D730D01B6E43D09D0E1C6461
:103B78002DD0A20E1C602AD054EC2AF00BC018F0ED
:103B88000AC017F009C016F008C015F01C50620FE3
:103B98001A6E1A5003080C6ED8900C36D8900C3652
:103BA800D8900C360C5015C00DF016C00EF017C08A
:103BB8000FF018C010F0E82A05D0D89010320F3254
:103BC8000E320D32E82EF9D70D50CED7CF0E1C6429
:103BD80008D0E00E1C6005D01C50300F25EC2AF0F0
:103BE800C3D7DF0E1C6405D01C50200FEEEC29F063
:103BF800BBD71B501200E8CF12F0116A5350521075
:103C080001E0ADD0126606D0096A430E086E38ECA2
:103C18002AF0C3D0120406E1096A440E086E38EC93
:103C28002AF0BBD0010E12640CD00C0E126009D021
:103C3800430E1224086E096A000E092238EC2AF095
:103C4800ACD012500C0A08E19230010B0A6E925067
:103C5800010B020DF35035D012500D0A34E1935088
:103C6800010B0A6E9330010B020DF3CF0BF0943069
:103C7800E832E832010B040DF3CF0CF09438010B55
:103C8800080DF3CF0DF09438E832010B100DF3CF87
:103C98000EF09438E832E832010B200DF3CF0FF024
:103CA8009434E836010B400DF3CF10F09230E8322F
:103CB800010B800DF35010240F240E240D240C2426
:103CC8000B240A246AD00D0E126442D0180E12601A
:103CD8003FD028D0000E81B0010E5FD0000E81B217
:103CE800010E5BD0000E82B6010E57D0000E82B8CE
:103CF800010E53D0000E82BA010E4FD0000E82BCC6
:103D0800010E4BD0000E82BE010E47D0000E80B4CB
:103D1800010E43D0000E80B2010E3FD0000E80B0DD
:103D2800010E3BD012500E0AD5E0010AD7E01F0A57
:103D3800D9E0010ADBE0030ADDE0010ADFE0070A57
:103D4800E1E0010AE3E0030AE5E0010AE7E026D042
:103D5800170E126423D0300E126020D069D7520497
:103D680053100CE1280E126019D0730E1224086E3D
:103D7800096A000E092238EC2AF00FD05250020AC4
:103D880053100CE1400E126009D09B0E1224086EED
:103D9800096A000E092238EC2AF0116E115012003F
:103DA80067EC2AF0096A430E086E000E0A6A79EC7D
:103DB80028F067EC2AF0096A440E086E000E0A6AB9
:103DC80079EC28F0476A67EC2AF0450E4724086E1C
:103DD800096A000E092247C00AF079EC28F0472A40
:103DE800090E4764F0D767EC2AF0096A4F0E086E8F
:103DF800000E0A6A79EC28F067EC2AF0096A500E7E
:103E0800086E000E0A6A79EC28F0476A67EC2AF017
:103E18005B0E4724086E096A000E0922980E0A6E86
:103E280079EC28F0472A090E4764F0D7476A67EC0F
:103E38002AF0650E4724086E096A000E0922830ECF
:103E48000A6E79EC28F0472A090E4764F0D767EC28
:103E58002AF0096A6F0E086E000E0A6A79EC28F0DB
:103E680067EC2AF0096A700E086E000E0A6A79EC8F
:103E780028F0476A67EC2AF0730E4724086E096A2F
:103E8800000E09220A6A79EC28F0472A130E4764C3
:103E9800F1D7476A67EC2AF0870E4724086E096A4B
:103EA800000E09220A6A79EC28F0472A130E4764A3
:103EB800F1D767EC2AF0096A710E086E030E0A6ED4
:103EC80079EC28F067EC2AF0096A720E086E020E87
:103ED8000A6E79EC28F0476A466A67EC2AF0465081
:103EE80047C044F0456AD89044364536D8904436A1
:103EF8004536D890443645364426000E45229B0E5A
:103F08004424086E000E4520096E000E0A6A79ECFA
:103F180028F0462A070E4664E0D7472A4764DCD7CC
:103F28008EEF13F00F0E1C6E400E1B6E0F0E1E6EE2
:103F3800300E1D6E0F0E206E200E1F6E0E0E226E9E
:103F4800200E216E0E0E246E300E236E0E0E266E7F
:103F5800400E256E0E0E286E500E276E0E0E2A6E1F
:103F6800600E296E0E0E2C6E700E2B6E7750C00BE5
:103F78002D6E2D6602D0020E01D0080E2E6E0D0198
:103F8800D890F831306E346A7DD03450020DF35039
:103F98001B0FD96EDA6ADECF35F0DDCF36F035C0CB
:103FA80031F036C032F0020E346404D0D89030328A
:103FB80030A067D035C0D9FF36C0DAFFDF501A6E9F
:103FC8001AB65FD035C0D9FF36C0DAFFFC0EDF164F
:103FD80019C01AF0030E1A1635C0D9FF36C0DAFF19
:103FE8001A50DF1219AC04D018504009336E02D0B1
:103FF80018C033F020EE05F03550D9263650DA22B5
:1040080033C0DFFF19AA03D0010E336E01D0336A23
:104018003528086E000E3620096E12C00AF013C04B
:104028000BF014C00CF015C00DF033C00EF0FDEC11
:1040380020F0060E3526000E36222F6A0FD016C045
:10404800D9FF17C0DAFF35C0E1FF36C0E2FFDFCF86
:10405800E7FF164A172A354A362A2F2A18502F5CA6
:10406800EEE331C0D9FF32C0DAFFDF501A6E1AB45E
:1040780006D031C0D9FF32C0DAFF000EDB86010E50
:1040880005D0342A2E50345C80E3000E12000AC09A
:104098000EF00B6646D00E50D96EDA6A08C0E1FF02
:1040A80009C0E2FFE7500C6ED8900C36D8900C3659
:1040B800D8900C34DF6E0E50D96EDA6AD92ADA6AD3
:1040C80008C0E1FF09C0E2FFE7500C6E050E0D6E57
:1040D800D8900C320D2EFCD70C50DF6E084A092AF6
:1040E80008C0D9FF09C0DAFFDF500C6E050E0D6E4F
:1040F800D8900C320D2EFCD70E50D96EDA6A0C50BF
:10410800DF120E50D96EDA6A020ED926DA6ADF6A31
:104118000E50D96EDA6A030ED926DA6A000EDF6EFF
:1041280067D00E50D96EDA6A020ED926DA6A08C04C
:10413800E1FF09C0E2FFE7500C6E050E0D6ED89046
:104148000C360D2EFCD70C50DF6E0E50D96EDA6A85
:10415800030ED926DA6A08C0E1FF09C0E2FFE7507A
:104168000C6ED8900C32D8900C32D8900C30DF6E90
:10417800084A092A08C0D9FF09C0DAFFDF500C6EC7
:10418800030E0C160E50D96EDA6A020ED926DA6AB8
:104198000C50DF1208C0D9FF09C0DAFFDF500C6EDF
:1041A800D8900C32D8900C32D8900C321C0E0C16C9
:1041B8000E50D96EDA6A020ED926DA6A0C50DF126E
:1041C800084A092A08C0D9FF09C0DAFF0E50E16E73
:1041D800E26AE12AE26ADFCFE7FF084A092A08C053
:1041E800D9FF09C0DAFF0E50E16EE26ADFCFE7FFC0
:1041F80012000A0E116E0E6637D01150D96EDA6AA7
:10420800DF500F6ED8900F32D8900F32D8900F3001
:1042180008C0D9FF09C0DAFFDF6E1150D96EDA6A1B
:10422800D92ADA6ADF500F6E050E106ED8900F3655
:10423800102EFCD708C0D9FF09C0DAFF0F50DF12D3
:10424800084A092A1150D96EDA6ADF500F6E050E36
:10425800106ED8900F36102EFCD70F5008C0D9FF1B
:1042680009C0DAFFDF6E6CD01150D96EDA6A020E1F
:10427800D926DA6ADF500F6E050E106ED8900F320D
:10428800102EFCD70F5008C0D9FF09C0DAFFDF6E27
:104298001150D96EDA6A030ED926DA6ADF500F6E2A
:1042A800D8900F36D8900F36D8900F3608C0D9FF5F
:1042B80009C0DAFF0F50DF12084A092A1150D96ED7
:1042C800DA6A020ED926DA6ADF500F6ED8900F36F6
:1042D800D8900F36D8900F34E00B08C0D9FF09C02A
:1042E800DAFFDF6E08C0D9FF09C0DAFF000EDB86EF
:1042F8001150D96EDA6A020ED926DA6ADF500F6ECB
:10430800030E0F1608C0D9FF09C0DAFF0F50DF12DD
:10431800084A092A1150D96EDA6AD92ADA6A08C015
:10432800E1FF09C0E2FFDFCFE7FF084A092A115081
:10433800D96EDA6A08C0E1FF09C0E2FFDFCFE7FF04
:104348001200516A090E4F6401D097D05B0E4F24BA
:10435800086E096A000E092238EC2AF0506E50AE39
:104368008CD03CD081A002D0010E516E81904AD0F1
:1043780081A202D0010E516E819244D082A602D051
:10438800010E516E82963ED082A802D0010E516E67
:10439800829838D082AA02D0010E516E829A32D009
:1043A80082AC02D0010E516E829C2CD082AE02D01B
:1043B800010E516E829E26D080A402D0010E516E4D
:1043C800809420D080A202D0010E516E80921AD023
:1043D80080A002D0010E516E809014D04F50C2E0E0
:1043E800010AC6E0030ACAE0010ACEE0070AD2E0E1
:1043F800010AD6E0030ADAE0010ADEE00F0AE2E089
:10440800010AE6E05150D8A450A808D0140E0001C3
:10441800D06F040ED16F4F508FEC27F04FC0D2F001
:10442800010E0001D36FD46BD22B03D0D890D337B1
:10443800D437D22FFBD7D3516813D4516913740ED4
:104448004F24086E096A000E092238EC2AF0000190
:10445800D26F730E4F24086E096A000E092238ECD9
:104468002AF00001D46FD36BD251D3250101006F1C
:104478000001000ED4210101016F1200D36B090E57
:104488004F6401D08ED05B0E4F24086E096A000E6F
:10449800092238EC2AF00001D26FD2AF82D03CD08A
:1044A80081B002D0010ED36F81804AD081B202D090
:1044B800010ED36F818244D082B602D0010ED36F31
:1044C80082863ED082B802D0010ED36F828838D05F
:1044D80082BA02D0010ED36F828A32D082BC02D057
:1044E800010ED36F828C2CD082BE02D0010ED36F06
:1044F800828E26D080B402D0010ED36F808420D063
:1045080080B202D0010ED36F80821AD080B002D060
:10451800010ED36F808014D04F50C2E0010AC6E06C
:10452800030ACAE0010ACEE0070AD2E0010AD6E08F
:10453800030ADAE0010ADEE00F0AE2E0010AE6E037
:10454800D2A524D04F50020D870EF324086E000E1A
:10455800F420096E38EC2AF0516E506A4F50020D63
:10456800880EF324086E000EF420096E38EC2AF049
:104578005026000E51224F50020DF3500001820FB9
:10458800D96EDA6A50C0DEFF51C0DDFFD351D8A41E
:10459800D2A707D0140ED06F030ED16F4F508FECF7
:1045A80027F01200E8CF4EF0481C4D6E4E50830A9B
:1045B80002E1796B7CD0830E4E640ED0890E4E607A
:1045C8000BD048C00CF04E507C0FC5EC29F04E5073
:1045D8007C0F1BEC2AF069D04E50920A0DE148502E
:1045E8004A6E496A52504B6E4C6A4910526E4A5094
:1045F8004C10536E535059D04E50930A0BE1496AF0
:1046080053504A6E48504910526E4A50536E52C029
:104618004DF04ED0880E4E6419D0910E4E6016D0D3
:1046280053C049F049C04AF04B6A4A2802E152286F
:1046380002E0481C3AD048C00CF04E50770F3FECCF
:1046480029F04E50770F11EC2AF02FD0CF0E4E6480
:1046580017D0E00E4E6014D053C049F049C04AF05C
:104668004B6A4A28E6E15228E4E148C00CF04E5073
:10467800300F52EC29F04E50300F25EC2AF015D0AF
:104688004E50A20AD6E14850550A04E16E6B6F6B92
:10469800550E0BD04850AA0A0BE1E80E6E5D030ECA
:1046A8006F5905E263EC2AF0AA0E4D6E01D04D6AEF
:1046B8004D501200516A090E4F6401D07DD05B0E37
:1046C8004F24086E096A000E092238EC2AF0506E51
:1046D80050AE72D03CD081A002D0010E516E8190B4
:1046E8004AD081A202D0010E516E819244D082A696
:1046F80002D0010E516E82963ED082A802D0010EE1
:10470800516E829838D082AA02D0010E516E829AD8
:1047180032D082AC02D0010E516E829C2CD082AE77
:1047280002D0010E516E829E26D080A402D0010EC6
:10473800516E809420D080A202D0010E516E8092DA
:104748001AD080A002D0010E516E809014D04F5024
:10475800C2E0010AC6E0030ACAE0010ACEE0070A7D
:10476800D2E0010AD6E0030ADAE0010ADEE00F0A25
:10477800E2E0010AE6E05150D8A450A808D0140E8F
:104788000001D06F040ED16F4F508FEC27F04FC04F
:10479800D2F0010E0001D36FD46BD22B03D0D89086
:1047A800D337D437D22FFBD7D31DD56FD41DD66FAF
:1047B800D5516817D65169171200140E00017325D8
:1047C800D96EDA6A0101010EDA22DF2A096A710E4E
:1047D800086E38EC2AF04F6E140E00017325D96E5E
:1047E800DA6A0101010EDA22DF504F5C63E2140E2F
:1047F80000017325D96EDA6A010EDA22DF6A650EC6
:104808007325086E096A000E092238EC2AF04F6EEB
:104818004FA42DD0096A6F0E086E38EC2AF04F6E3F
:104828004FA012D01E0E00017325D96EDA6A01015D
:10483800010EDA22DF503EE1096A6F0E086E38EC8D
:104848002AF04F6E4FA036D01E0E0001D06F060E14
:10485800D16F73518FEC27F01E0E00017325D96EAE
:10486800DA6A0101010EDA22010EDF6E23D0096A2D
:104878006F0E086E38EC2AF04F6E4FA012D01E0E45
:1048880000017325D96EDA6A0101010EDA22DF50C0
:1048980011E1096A6F0E086E38EC2AF04F6E4FA0CE
:1048A80009D01E0E0001D06F050ED16F73518FEC29
:1048B80027F0D2D71200516A090E4F6401D076D082
:1048C8005B0E4F24086E096A000E092238EC2AF0A4
:1048D800506E50AE6BD03FD081A002D0819037D0BF
:1048E8008180010E516E4BD081A202D081922FD0CF
:1048F8008182F7D782A602D0829629D08286F1D704
:1049080082A802D0829823D08288EBD782AA02D0CC
:10491800829A1DD0828AE5D782AC02D0829C17D0B9
:10492800828CDFD782AE02D0829E11D0828ED9D7F8
:1049380080A402D080940BD08084D3D780A202D0E8
:10494800809205D08082CDD780A003D08090516A14
:1049580016D08080C6D74F50BFE0010AC5E0030AD1
:10496800C9E0010ACDE0070AD1E0010AD5E0030A4F
:10497800D9E0010ADDE00F0AE1E0010AE5E0515063
:104988000BE050A613D0140E0001D06F030ED16FA8
:104998004F508FEC27F00AD050A808D0140E000111
:1049A800D06F040ED16F4F508FEC27F01200516A70
:1049B800090E4F6401D069D05B0E4F24086E096A56
:1049C800000E092238EC2AF0506E50AE5ED032D07C
:1049D800000E81B0010E516E41D0000E81B2010E61
:1049E800516E3CD0000E82B6010E516E37D0000ECB
:1049F80082B8010E516E32D0000E82BA010E516E8D
:104A08002DD0000E82BC010E516E28D0000E82BE41
:104A1800010E516E23D0000E80B4010E516E1ED0CF
:104A2800000E80B2010E516E19D0000E80B0010E3A
:104A3800516E14D04F50CCE0010ACFE0030AD2E007
:104A4800010AD5E0070AD8E0010ADBE0030ADEE044
:104A5800010AE1E00F0AE4E0010AE7E051500BE047
:104A680050A813D0140E0001D06F040ED16F4F5010
:104A78008FEC27F00AD050A808D0140E0001D06F90
:104A8800040ED16F4F508FEC27F01200516A090EB7
:104A98004F6401D068D05B0E4F24086E096A000E7F
:104AA800092238EC2AF0506E50AE5DD03CD081A07F
:104AB80002D0010E516E81904AD081A202D0010E1F
:104AC800516E819244D082A602D0010E516E829618
:104AD8003ED082A802D0010E516E829838D082AAA8
:104AE80002D0010E516E829A32D082AC02D0010EF1
:104AF800516E829C2CD082AE02D0010E516E829EE5
:104B080026D080A402D0010E516E809420D080A2BD
:104B180002D0010E516E80921AD080A002D0010EF0
:104B2800516E809014D04F50C2E0010AC6E0030ACB
:104B3800CAE0010ACEE0070AD2E0010AD6E0030A79
:104B4800DAE0010ADEE00F0AE2E0010AE6E051508D
:104B5800D8A450A808D0140E0001D06F040ED16F4D
:104B68004F508FEC27F0120051D0572811E0810EDA
:104B7800A46FA56BA66BA76B020EA86F57C0AAF00F
:104B88005FEC28F0010E00017F6F546A556A45D02A
:104B9800040E7E6F810EA46FAA69070EA56FA66B1F
:104BA800A76B030EA86F5FEC28F037D096AF0FD035
:104BB8009951981132E19A51030A2FE1576603D0AF
:104BC800020E7E6FE2D7572A7F6B806B26D0E90EE4
:104BD800545C030E555821E3802B020E806514D0D7
:104BE800576605D0572A7F6B546A556AEED757C067
:104BF8007DF0030E7E6F7F6B7D5106EC2AF000017D
:104C0800806B99EC29F009D07F6B07D000017F51A8
:104C1800ACE0010ACBE0030AF7E10001966B120051
:104C280041C0BCF0BD6BBE6BBF6BBEC0BFF0BDC0AA
:104C3800BEF0BCC0BDF0BC6B3F50C06F4050C16FF0
:104C4800C26BC36BC1C0C3F0C0C0C2F0C16BC06B44
:104C580043C0C4F0C56BC66BC76B1A0ED890C43777
:104C6800C537C637C737E82EF9D7C051C411C86F42
:104C7800C151C511C96FC251C611CA6FC351C711FD
:104C8800CB6FBC51C811CC6FBD51C911CD6FBE518E
:104C9800CA11CE6FBF51CB11CF6F4250CC11476EA6
:104CA800CD51486ECE51496ECF514A6E47C037F04C
:104CB80048C038F049C039F04AC03AF044C03BF027
:104CC80045C03CF046C03DF0E0EC27F00009000E7E
:104CD800D8A4010E1200800EFAEC29F0090E706EAD
:104CE800FC0E716E010E726E200E736E778E779CBD
:104CF800606A0F01506B0E01206B306B406B506B7C
:104D0800606B706BE00E0D01F86F0F01006B080E01
:104D1800016F026B036B046BE80E056F1A0E066FCA
:104D2800076B030E0D01D46FD56BE06B110EE16FAD
:104D3800E26FE36BE46BE56BE66BE76B540EF06FC9
:104D4800050EF16FF26BF26B0F0E0F01186FE00E8C
:104D5800196F1A6B1B6B19870F0E1C6FE00E1D6FF6
:104D68001E691F6B1D87000EFAEF29F0E8CF27F0A8
:104D780021C01AF022C01BF0280ED8EC28F0000938
:104D880002E1000E2ED01F50D96EDA6A28C0DFFF6C
:104D98001E50D96EDA6A29C0DFFF2A50236E010E31
:104DA8002B14246E2750D96EDA6A23C0DEFF24C084
:104DB800DDFF2050D96EDA6A28C023F029C024F01C
:104DC8002AC025F02BC026F01B0E05D0D89026321D
:104DD800253224322332E82EF9D72350070BDF6E11
:104DE800010E1200E8CF0BF024D00F0E0D6E600EEE
:104DF8001ED00F010F0E0D6E500E19D00E010E0EA3
:104E08000D6E200E14D00E010E0E0D6E300E0FD04A
:104E18000E010E0E0D6E400E0AD00E010E0EEBD7CF
:104E28000E010E0EE3D70E010E0E0D6E700E0C6EF7
:104E38000FD00B50DAE0010ADCE0030ADFE0010AD8
:104E4800E2E0070AE5E0010AE8E0030AE9E0EBD757
:104E58000CC008F00DC009F01200E8CF08F00850A7
:104E6800D96EDA6A080EDF6E0850D96EDA6AD92A66
:104E7800DA6ADF6A0850D96EDA6A020ED926DA6A67
:104E8800DF6A0850D96EDA6A030ED926DA6A020E8A
:104E9800DF6E0850D96EDA6A040ED926DA6ADF6A3C
:104EA8000850D96EDA6A050ED926DA6A020EDF6E64
:104EB8000850D96EDA6A060ED926DA6A000EDF6E55
:104EC800000C0001706B716B010E566E5EEC2AF0DF
:104ED80000017D6F7D6701D07D697D2902E1020EA9
:104EE800566E966B976B986B996B9A6BA46BA56BC8
:104EF800A66BA76BA86B796B786B576A7E6B7F6B19
:104F0800806B526A536A546A556A6E6B6F6B816B19
:104F18007C6B7B6B1200E8CF4EF04EC04BF0096AF9
:104F2800430E086E38EC2AF04C6E450E4E24086E7F
:104F3800096A000E092238EC2AF04D6E0001D0C033
:104F48003FF0406AD1C041F07DC042F0030E436E8D
:104F5800446E4B0E456E000E466E0F0E466E5F0E8B
:104F68004564466A14EF26F0812B3B0E81650DD00F
:104F7800816B7C2B7E51030A08E14AEC2AF0000180
:104F8800D06F4FEC2AF02CEC29F03B0E00017C6529
:104F980002D07C6B7B2B170E7B6501D07B6B7E511F
:104FA800030A09E17A2B7AC04DF00F0E4D16020E56
:104FB8004D5CD8B07A6B12003E6A6C6B6D6B17D083
:104FC80037C012F038C013F039C014F03AC015F0E9
:104FD8003CC016F03DC017F03BC018F0200E196E0B
:104FE80096EC1FF0000903E0010E3E6E06D0E80EB5
:104FF80000016C5D030E6D59E3E30001A46B3E50A4
:1050080012000F0EC16E806A100E926E816A080E31
:10501800936E826A010E946E920EA8EC29F0FB0E34
:10502800096E1D0E086E2FEC2AF0819081928296EF
:105038008298829A829C829E8094809280906FEC63
:1050480026F0F28CF28E1200000E89EC29F0550A37
:1050580005E1010E89EC29F0AA0A11E0020E566E4C
:105068006CEC2AF0FF0E06EC2AF0550E0C6E000EC2
:1050780065EC29F0AA0E0C6E010E65EC29F0120001
:1050880096510F0B020A16E17D5120EE9CF0DF626B
:1050980011D09DC07DF07D5106EC2AF0810E0001F3
:1050A800A46FA56BA66BA76B070EA86F7DC0AAF0AF
:1050B8005FEC28F01200A6C03FF0A7C040F0A8C0DF
:1050C80041F07DC042F0A5C043F0A4510F0B446EDF
:1050D800000E466EAA0E456E14EC26F04B6E4B661B
:1050E80002D00001792B4B50120008C0A9FF0AC05A
:1050F800A8FFA69EA69CA684000EF2BE010E0B6E0B
:10510800F29E550EA76EAA0EA76EA682A6B2FED76D
:105118000BB002D0F29E01D0F28EA69412009651E6
:105128000F0B0D6E0D5012E07D5120EE9CF0DF62EA
:105138000DD00D0405E0010E0D6408D09D6706D062
:105148007D69FF0E06EC2AF065EC27F0120001EEEF
:1051580000F0280EEE6AE806FDE100EE60F05C0E55
:10516800EE6AE806FDE100EE52F0070EEE6AE80688
:10517800FDE1000EF86E0001EAEF1AF008C00EF02B
:1051880009C00FF008D00EC0D9FF0FC0DAFF0AC05F
:10519800DFFF0E4A0F2A0C06D8A00D060C28D8B43B
:1051A8000D28D8B41200EFD7E8CF1CF096AF02D084
:1051B800000E0FD01BC00FF01AC010F01D0E116E9C
:1051C8001C501CEC1CF00009F3E01DAC1DAAF0D724
:1051D800010E120096C04CF00F0E4C164C040EE156
:1051E8007D5120EE9CF0DF6209D0800EA46FA56B84
:1051F800A66BA76B030EA86F5FEC28F0120096BF92
:1052080012D09A0E1E6E9B0E1F6E970E206E960E73
:10521800216E9C0E226E980EBAEC26F02C6E2C5045
:1052280002E00001968F1200E8CF09F0080E0A6E1E
:105238000B6AD89009340B340B6ED8900936085095
:105248000B5C02E308500B5E0A2EF3D70B501200DA
:10525800E8CF4CF0830E0001A46F070EA56FA76B73
:10526800140EA66F090EA86FAA6B4CC0ABF0D0C085
:10527800ACF05FEF28F0E8CF0DF0070E0D6401D019
:105288000CD067EC2AF00B0E0D24086E096A000E8C
:1052980009220CC00AF079EC28F01200E8CF0DF0D2
:1052A8000F0E0D6401D00CD067EC2AF0130E0D24FC
:1052B800086E096A000E09220CC00AF079EC28F081
:1052C8001200E8CF0DF0010E0D6401D00CD067EC90
:1052D8002AF0020E0D24086E096A000E09220CC07D
:1052E8000AF079EC28F01200E8CF50F07F0E5064F5
:1052F80006D0DEC048F05050D6EC22F005D0DEC013
:105308004FF05050FCEC04F01200E8CF0AF0010E08
:105318000A6402D0000E08D0020E0A24086E096A38
:10532800000E092238EC2AF01200810E0001A46F49
:10533800A56BA66BA76B020EA86F7DC0AAF05FECE9
:1053480028F0010E566E010CE8CF08F008507F0BCC
:10535800D56ED76AD66AF29408AE02D0F28A01D026
:10536800F29AD58E1200E8CFD3F0D46BD4C04FF0A8
:10537800D351DBEC24F00001D42B080ED465F6D70A
:10538800080CE8CF0DF067EC2AF0060E0D24086E25
:10539800096A000E09220CC00AF079EF28F0E8CF5C
:1053A8000CF00C0409E167EC2AF0096A086AFF0EA0
:1053B8000A6879EC28F0FF001200E8CF1DF07F0E94
:1053C8001D6404D01D5027EC1DF003D01D50FFECC8
:1053D8001DF01200E8CF09F00950D60F086E08C07A
:1053E800F6FF090EF76E0800F5501200E8CF08F036
:1053F8001F0E6F1608506F126F50E00B0818D8B4C4
:105408001200FAD7E8CF0CF067EC2AF0096A010E0F
:10541800086E0CC00AF079EF28F0E8CF0AF00B0EFE
:105428000A24086E096A000E092238EF2AF0E8CF2C
:105438000AF0060E0A24086E096A000E092238EFDF
:105448002AF0E8CF0AF0130E0A24086E096A000E43
:10545800092238EF2AF008C00AF009C00BF00BC087
:10546800D7FF0AC0D6FF120008C0A9FFA69CA69EB7
:10547800A68000F000F0A850120001C003F002C09E
:1054880004F004C0D7FF03C0D6FF1200096A440E17
:10549800086E38EF2AF0096A430E086E38EF2AF0D2
:1054A800086A096A0A6A0B6A1200086A096A0A6ABB
:1054B8000B6A1200096A010E086E38EF2AF0D4EC64
:1054C8001EF0F0EF17F0A6A21200FDD7566A1200E0
:1054D800D4EF1EF01200030C080C010C060C010C92
:0454E800010C1200A1
:020000040020DA
:08000000FFFFFFFFFFFFFFFF00
:020000040030CA
:0E000000FF061D0FFF8295FF0F800FE00F40DF
:00000001FF
