:0408000065EF04F0AC
:10081800D8CF05F0E8CF06F0E0CF07F0F2A401D07A
:1008280001D048D0FB0E026E1D0E016ED7EC26F0EB
:100838000001704B712B6E4B6F2B010E6027000E61
:100848006123000E6223000E6323010E6427000E4D
:100858006523000E6623000E67236C4B6D2B82A068
:1008680001D001D002D0796B01D0792B582A56508B
:10087800020AD8A401D001D00ED0640E586401D069
:1008880001D009D082A201D001D002D0829201D039
:100898008282586A0ED05604D8A401D001D003D061
:1008A8008282586A06D0566601D001D002D0829260
:1008B800586AF29407C0E0FF06C0E8FF05C0D8FFF9
:1008C800100027EF25F07777772E6575726F736FB5
:1008D800757263652E73652F6265696A696E675FF5
:1008E800322E786D6C000000E8CFDBF0D86BDA6B45
:1008F8004F1CD96F5350521002E07BEF0AF0DB67B0
:1009080010D0FDEC26F0096A440E086E4FC00AF0BC
:10091800DCEC24F0096A440E086ECEEC26F018EFE1
:100928000CF0DB0510E1FDEC26F0096A450E086EB7
:100938004FC00AF0DCEC24F0096A450E086ECEECD4
:1009480026F018EF0CF0010EDB651BD00C0EDB61F6
:1009580018D0FDEC26F0440E0001DB25086E096A6C
:10096800000E09224FC00AF0DCEC24F0440E00010E
:10097800DB25086E096A000E0922CEEC26F018EF76
:100988000CF0DB510C0A26E1FDEC26F0096A500E4A
:10099800086E4F50030B0A6EDCEC24F0010E4FA2D8
:1009A800000E0001D06F9250D019FE0BD019926E34
:1009B800010E4FA0000ED06FD0479250D019FD0BFA
:1009C800D019926E9230010BD06F9250010B020D2C
:1009D800F35096D0DB510D0A01E095D0FDEC26F0DE
:1009E800096A510E086E4FC00AF0DCEC24F0010EC3
:1009F8004FAE000E0001D06FD047D0479250D019AB
:100A0800FB0BD019926E010E4FAC000ED06FD03395
:100A1800D0339450D0197F0BD019946E010E4FAA81
:100A2800000ED06FD03BD047D0479450D019BF0BA1
:100A3800D019946E010E4FA8000ED06FD03BD0474E
:100A48009450D019DF0BD019946E010E4FA6000EEA
:100A5800D06FD03B9450D019EF0BD019946E010E83
:100A68004FA4000ED06FD047D047D0479450D0192C
:100A7800F70BD019946E010E4FA2000ED06FD0471D
:100A88009350D019FD0BD019936E010E4FA0000E94
:100A9800D06F9350D019FE0BD019936E9350010B61
:100AA800D06F9330010B020DF3CFD1F09430E832C0
:100AB800E832010B040DF3CFD2F09438010B080D86
:100AC800F3CFD3F09438E832010B100DF3CFD4F004
:100AD8009438E832E832010B200DF3CFD5F0943486
:100AE800E836010B400DF3CFD6F09230E832010B17
:100AF800800DF350D625D525D425D325D225D1254B
:100B0800D02519EF0CF00D0EDB653BD2180EDB611A
:100B180038D24E0EDB25086E096A000E0922CEEC8B
:100B280026F00001D06FD0BF0CD21AEF0CF0010EE6
:100B3800D86F4F0428E18180000E81B0010ED96F73
:100B4800010EDA6F096A5C0E086ECEEC26F0000121
:100B5800D06FD0A51AEF0CF0096A880E086ECEEC9B
:100B680026F00001D06F096A870E086ECEEC26F0D9
:100B78000001D26FD16BD051D125806F000ED221E8
:100B8800816F1AEF0CF04F661AEF0CF08190000E8F
:100B980081B0010ED96FDA6B1AEF0CF0010ED86F25
:100BA8004F041EE18182000E81B2010ED96F010E41
:100BB800DA6F096A5D0E086ECEEC26F00001D06F80
:100BC800D0A51AEF0CF0096A8A0E086ECEEC26F052
:100BD8000001D06F096A890E086ECEEC26F062D249
:100BE8004F661AEF0CF08192000E81B2010ED96F98
:100BF800D2D7010ED86F4F0428E18286000E82B644
:100C0800010ED96F010EDA6F096A5E0E086ECEEC1E
:100C180026F00001D06FD0A51AEF0CF0096A8C0EEF
:100C2800086ECEEC26F00001D06F096A8B0E086EB4
:100C3800CEEC26F00001D26FD16BD051D125846F54
:100C4800000ED221856F1AEF0CF04F661AEF0CF0E8
:100C58008296000E82B6010ED96F9DD7010ED86F0D
:100C68004F0428E18288000E82B8010ED96F010E68
:100C7800DA6F096A5F0E086ECEEC26F00001D06FBD
:100C8800D0A51AEF0CF0096A8E0E086ECEEC26F08D
:100C98000001D06F096A8D0E086ECEEC26F00001B7
:100CA800D26FD16BD051D125866F000ED221876FBC
:100CB8001AEF0CF04F661AEF0CF08298000E82B80B
:100CC800010ED96F68D7010ED86F4F0428E1828AC8
:100CD800000E82BA010ED96F010EDA6F096A600E32
:100CE800086ECEEC26F00001D06FD0A51AEF0CF0FC
:100CF800096A900E086ECEEC26F00001D06F096AE2
:100D08008F0E086ECEEC26F00001D26FD16BD05159
:100D1800D125886F000ED221896F1AEF0CF04F662B
:100D28001AEF0CF0829A000E82BA010ED96F33D7EF
:100D3800010ED86F4F0428E1828C000E82BC010E90
:100D4800D96F010EDA6F096A610E086ECEEC26F0D3
:100D58000001D06FD0A51AEF0CF0096A920E086E48
:100D6800CEEC26F00001D06F096A910E086ECEEC29
:100D780026F00001D26FD16BD051D1258A6F000EB9
:100D8800D2218B6F1AEF0CF04F661AEF0CF0829C91
:100D9800000E82BC010ED96FFED6010ED86F4F042B
:100DA80028E1828E000E82BE010ED96F010EDA6F25
:100DB800096A620E086ECEEC26F00001D06FD0A54D
:100DC8001AEF0CF0096A940E086ECEEC26F00001BA
:100DD800D06F096A930E086ECEEC26F00001D26F30
:100DE800D16BD051D1258C6F000ED2218D6F1AEFA7
:100DF8000CF04F661AEF0CF0829E000E82BE010EB8
:100E0800D96FC9D6010ED86F4F0428E18084000E2F
:100E180080B4010ED96F010EDA6F096A630E086E8D
:100E2800CEEC26F00001D06FD0A51AEF0CF0096ABD
:100E3800960E086ECEEC26F00001D06F096A950E6A
:100E4800086ECEEC26F00001D26FD16BD051D125BF
:100E58008E6F000ED2218F6F1AEF0CF04F661AEFCB
:100E68000CF08094000E80B4010ED96F94D6010E58
:100E7800D86F4F0428E18082000E80B2010ED96F2E
:100E8800010EDA6F096A640E086ECEEC26F00001D6
:100E9800D06FD0A51AEF0CF0096A980E086ECEEC48
:100EA80026F00001D06F096A970E086ECEEC26F086
:100EB8000001D26FD16BD051D125906F000ED22195
:100EC800916F1AEF0CF04F661AEF0CF08092000E3B
:100ED80080B2010ED96F5FD6010ED86F4F0428E19A
:100EE8008080000E80B0010ED96F010EDA6F096A9A
:100EF800650E086ECEEC26F00001D06FD0A51AEF73
:100F08000CF0096A9A0E086ECEEC26F00001D06F3C
:100F1800096A990E086ECEEC26F00001D26FD16BEB
:100F2800D051D125926F000ED221936F1AEF0CF099
:100F38004F661AEF0CF08090000E80B0010ED96F4A
:100F48002AD6DB510E0A01E1F2D5010A01E126D6C3
:100F58001F0A01E14ED6010A01E180D6030A01E128
:100F6800B2D6010A01E1E4D6070A01E116D7010A5F
:100F780001E148D7030A01E17AD7010AADE01AEF87
:100F88000CF0170EDB65ABD2220EDB61A8D288D23B
:100F9800FDEC26F0730E0001DB25086E096A000ED1
:100FA80009224FC00AF0DCEC24F0730E0001DB25A7
:100FB800086E096A000E0922CEEC26F00001D96FEE
:100FC8004FA01CD08190DA6B6881096A730E086E95
:100FD800CEEC26F00001D06F096A730E086ECEECD5
:100FE80026F00001D26FD16BD051D1250101006FDD
:100FF8000001000ED2210101016F06D0FE0E681714
:10100800030E69178190DA6B4FB4A6D51AEF0CF06E
:10101800FDEC26F0730E0001DB25086E096A000E50
:1010280009224FC00AF0DCEC24F0730E0001DB2526
:10103800086E096A000E0922CEEC26F00001D96F6D
:101048004FA21CD08192DA6B6883096A740E086E0D
:10105800CEEC26F00001D06F096A730E086ECEEC54
:1010680026F00001D26FD16BD051D1250101026F5A
:101078000001000ED2210101036F06D0FD0E681792
:10108800030E69178192DA6B4FA4D0D3096A880ED0
:10109800086ECEEC26F00001D06F096A870E086E44
:1010A800CEEC26F00001D26FD16BD051D125826FE2
:1010B800000ED221836FBAD3FDEC26F0730E000127
:1010C800DB25086E096A000E09224FC00AF0DCEC25
:1010D80024F0730E0001DB25086E096A000E092250
:1010E800CEEC26F00001D96F4FA01CD08296DA6BA7
:1010F8006885096A780E086ECEEC26F00001D06F7C
:10110800096A770E086ECEEC26F00001D26FD16B1B
:10111800D051D1250101046F0001000ED221010137
:10112800056F06D0FB0E6817030E69178296DA6BF7
:101138004FB474D57BD3FDEC26F0730E0001DB258C
:10114800086E096A000E09224FC00AF0DCEC24F090
:10115800730E0001DB25086E096A000E0922CEEC29
:1011680026F00001D96F4FA01CD08298DA6B6887EF
:10117800096A7A0E086ECEEC26F00001D06F096A73
:10118800790E086ECEEC26F00001D26FD16BD051EB
:10119800D1250101066F0001000ED2210101076F60
:1011A80006D0F70E6817030E69178298DA6B4FB4EA
:1011B8006AD53CD3FDEC26F0730E0001DB25086EE2
:1011C800096A000E09224FC00AF0DCEC24F0730E05
:1011D8000001DB25086E096A000E0922CEEC26F014
:1011E8000001D96F4FA41CD0829ADA6B6889096A0A
:1011F8007C0E086ECEEC26F00001D06F096A7B0EDB
:10120800086ECEEC26F00001D26FD16BD051D125FB
:101218000101086F0001000ED2210101096F06D0FB
:10122800EF0E6817030E6917829ADA6B4FB460D510
:10123800FDD2FDEC26F0730E0001DB25086E096A6D
:10124800000E09224FC00AF0DCEC24F0730E0001F6
:10125800DB25086E096A000E0922CEEC26F0000193
:10126800D96F4FA01CD0829CDA6B688B096A7E0EFE
:10127800086ECEEC26F00001D06F096A7D0E086E6C
:10128800CEEC26F00001D26FD16BD051D1250101EF
:101298000A6F0001000ED22101010B6F06D0DF0E8C
:1012A8006817030E6917829CDA6B4FB456D5BED205
:1012B800FDEC26F0730E0001DB25086E096A000EAE
:1012C80009224FC00AF0DCEC24F0730E0001DB2584
:1012D800086E096A000E0922CEEC26F00001D96FCB
:1012E8004FA01CD0829EDA6B688D096A800E086E4A
:1012F800CEEC26F00001D06F096A7F0E086ECEECA6
:1013080026F00001D26FD16BD051D12501010C6FAD
:101318000001000ED22101010D6F06D0BF0E681723
:10132800030E6917829EDA6B4FB44CD57FD2FDEC61
:1013380026F0730E0001DB25086E096A000E0922EB
:101348004FC00AF0DCEC24F0730E0001DB25086EB8
:10135800096A000E0922CEEC26F00001D96F4FA0D1
:101368001CD08094DA6B688F096A820E086ECEEC06
:1013780026F00001D06F096A810E086ECEEC26F0C7
:101388000001D26FD16BD051D12501010E6F000140
:10139800000ED22101010F6F06D07F0E6817030ED1
:1013A80069178094DA6B4FB442D540D2FDEC26F031
:1013B800730E0001DB25086E096A000E09224FC072
:1013C8000AF0DCEC24F0730E0001DB25086E096AD4
:1013D800000E0922CEEC26F00001D96F4FA01CD0D8
:1013E8008092DA6B6981096A840E086ECEEC26F069
:1013F8000001D06F096A830E086ECEEC26F000015A
:10140800D26FD16BD051D1250101106F0001000EB0
:10141800D2210101116F04D0020E69178092DA6B94
:101428004FB43AD503D2FDEC26F0730E0001DB254C
:10143800086E096A000E09224FC00AF0DCEC24F09D
:10144800730E0001DB25086E096A000E0922CEEC36
:1014580026F00001D96F4FA01CD08090DA6B698309
:10146800096A860E086ECEEC26F00001D06F096A74
:10147800850E086ECEEC26F00001D26FD16BD051EC
:10148800D1250101126F0001000ED2210101136F55
:1014980004D0010E69178090DA6B4FB432D5C6D1EB
:1014A800DB51180A01E174D5010A01E1B1D5030A3B
:1014B80001E102D6010A01E13ED6070A01E17AD626
:1014C800010A01E1B6D6030A01E1F2D6010A01E1F7
:1014D8002ED73F0A01E16AD7010AA5E0A7D1210E5C
:1014E800DB65A4D12F0EDB61A1D1ADEF04F052046E
:1014F800531001E07AD1140EDB612FD1FDEC26F0F8
:10150800730E0001DB25086E096A000E09224FC020
:101518000AF0DCEC24F0730E0001DB25086E096A82
:10152800000E0922CEEC26F00001D96FFAD0096A24
:10153800740E086ECEEC26F00001D06F096A730EA7
:10154800086ECEEC26F00001D26FD16BD051D125B8
:101558000101006F0001000ED2210101016F66D167
:10156800096A760E086ECEEC26F00001D06F096A83
:10157800750E086ECEEC26F00001D26FD16BD051FB
:10158800D1250101026F0001000ED2210101036F74
:101598004DD1096A780E086ECEEC26F00001D06FA6
:1015A800096A770E086ECEEC26F00001D26FD16B77
:1015B800D051D1250101046F0001000ED221010193
:1015C800056F34D1096A7A0E086ECEEC26F0000158
:1015D800D06F096A790E086ECEEC26F00001D26F42
:1015E800D16BD051D1250101066F0001000ED22127
:1015F8000101076F1BD1096A7C0E086ECEEC26F03C
:101608000001D06F096A7B0E086ECEEC26F000014F
:10161800D26FD16BD051D1250101086F0001000EA6
:10162800D2210101096F02D1096A7E0E086ECEEC43
:1016380026F00001D06F096A7D0E086ECEEC26F008
:101648000001D26FD16BD051D12501010A6F000181
:10165800000ED22101010B6FE9D0096A800E086ED5
:10166800CEEC26F00001D06F096A7F0E086ECEEC32
:1016780026F00001D26FD16BD051D12501010C6F3A
:101688000001000ED22101010D6FD0D0096A820E2F
:10169800086ECEEC26F00001D06F096A810E086E44
:1016A800CEEC26F00001D26FD16BD051D1250101CB
:1016B8000E6F0001000ED22101010F6FB7D0096A29
:1016C800840E086ECEEC26F00001D06F096A830EF6
:1016D800086ECEEC26F00001D26FD16BD051D12527
:1016E8000101106F0001000ED2210101116F9ED07F
:1016F800096A860E086ECEEC26F00001D06F096AE2
:10170800850E086ECEEC26F00001D26FD16BD05159
:10171800D1250101126F0001000ED2210101136FC2
:1017280085D0DB51010A01E102D7020A01E118D78D
:10173800060A01E12ED7020A01E144D70E0A01E1A7
:101748005AD7020A01E170D7060A87E0020A9EE02A
:101758001E0AB5E0020ACCE069D0130EDB6566D03C
:10176800280EDB6163D0FDEC26F0730E0001DB254B
:10177800086E096A000E09224FC00AF0DCEC24F05A
:10178800730E0001DB25086E096A000E0922CEECF3
:1017980026F00001D96FDB51150A02E1B0EF05F020
:1017A800020A02E1E7EF05F00E0A02E112EF06F085
:1017B800020A02E147EF06F0060A02E17CEF06F0B2
:1017C800020A02E1B1EF06F03E0A02E1E6EF06F096
:1017D800020A02E11BEF07F0060A02E150EF07F0E8
:1017E800020A02E185EF07F021D05250020A531095
:1017F8001DE1400EDB611AD0FDEC26F09B0E0001C6
:10180800DB25086E096A000E09224FC00AF0DCECDD
:1018180024F0FBEC12F09B0E0001DB25086E096A30
:10182800000E0922CEEC26F00001D96F0001D85134
:1018380021E0440EDB25086E096A000E0922CEEC71
:1018480026F00001D76FDA510BE0D7A713D0140E9A
:10185800CE6F030ECF6FDB51F20F04EC24F00AD0E9
:10186800D7A908D0140ECE6F040ECF6FDB51F20F3C
:1018780004EC24F0D9511200FA6B096A510E086E73
:10188800CEEC26F00001D06F096A500E086ECEEC3F
:1018980026F00001D26FD16BD051D125F46F000E24
:1018A800D221F56FFC6B090EFC6501D08CD2FCC00F
:1018B800D0F0010ED16FD26BD02B03D0D890D13796
:1018C800D237D02FFBD7F451D117F551D217D251B7
:1018D800D11101E1E4D0660EFC25086E096A000EFC
:1018E8000922CEEC26F00001FB6FFBAF69D232D0A3
:1018F800000E81B0010EF96F41D0000E81B2010EC9
:10190800F96F3CD0000E82B6010EF96F37D0000E89
:1019180082B8010EF96F32D0000E82BA010EF96F4B
:101928002DD0000E82BC010EF96F28D0000E82BEA9
:10193800010EF96F23D0000E80B4010EF96F1ED08E
:10194800000E80B2010EF96F19D0000E80B0010EA2
:10195800F96F14D0FC51CCE0010ACFE0030AD2E0C1
:10196800010AD5E0070AD8E0010ADBE0030ADEE055
:10197800010AE1E00F0AE4E0010AE7E0FBA126D052
:10198800F95124E0FCC0D0F0010ED16FD26BD02BFE
:1019980003D0D890D137D237D02FFBD76A51D1177F
:1019A8006B51D217D251D11111E1FBA508D01E0EEF
:1019B800CE6F050ECF6FFC5104EC24F007D0140E47
:1019C800CE6F030ECF6FFC5104EC24F0FBB3F96724
:1019D80024D0FCC0D0F0010ED16FD26BD02B03D035
:1019E800D890D137D237D02FFBD76A51D1176B5146
:1019F800D217D251D11111E0FBA508D01E0ECE6F1F
:101A0800060ECF6FFC5104EC24F007D0140ECE6FF5
:101A1800040ECF6FFC5104EC24F0FBA91FD0F95140
:101A28001DE0FCC0D0F0010ED16FD26BD02B03D0DB
:101A3800D890D137D237D02FFBD76A51D1176B51F5
:101A4800D217D251D11102E0FBAB08D0010ECE6FF4
:101A5800020ECF6FFC5104EC24F05582FBB7F967F6
:101A6800AFD1FCC0D0F0010ED16FD26BD02B03D018
:101A7800D890D137D237D02FFBD76A51D1176B51B5
:101A8800D217D251D11102E1FBAB9AD1010ECE6F20
:101A9800020ECF6FFC5104EC24F0558491D15C0EFA
:101AA800FC25086E096A000E0922CEEC26F000011A
:101AB800FB6FFBAF85D1FC51020DF350800FD96E3F
:101AC800DA6ADE50DD1039E0FC51020DF350800F68
:101AD800D96EDA6ADE06000EDD5AFC51020DF350AB
:101AE800800FD96EDA6ADE50DD1048E15C0EFC2505
:101AF800086E096A000E0922CEEC26F00001D06FAC
:101B0800D0A53CD0FCC0D0F0010ED16FD02B02D0B4
:101B1800D890D137D02FFCD7D1514F6E000E20EC82
:101B280022F00001FBA307D0010ECE6F020ECF6F8B
:101B3800FC5104EC24F0558021D0870EFC25086E5A
:101B4800096A000E0922CEEC26F00001D16FD06B95
:101B5800880EFC25086E096A000E0922CEEC26F0D4
:101B68000001D027000ED123FC51020DF350800F45
:101B7800D96EDA6AD0C0DEFFD1C0DDFFFCC0D0F07C
:101B8800010ED16FD26BD02B03D0D890D137D2377A
:101B9800D02FFBD76851D1176951D217D251D11123
:101BA80001E10ED1FC51020D000EF324D96E010E95
:101BB800F420DA6EDE50DD1001E1DAD00001FC51CC
:101BC800020D000EF324D96E010EF420DA6EDE0643
:101BD800000EDD5AFC51020D000EF324D96E010EE1
:101BE800F420DA6EDE50DD1040E0EAD081A002D0A9
:101BF800819037D08180010EFA6F4CD081A202D03B
:101C080081922FD08182F7D782A602D0829629D0DE
:101C18008286F1D782A802D0829823D08288EBD717
:101C280082AA02D0829A1DD0828AE5D782AC02D0DD
:101C3800829C17D0828CDFD782AE02D0829E11D0D0
:101C4800828ED9D780A402D080940BD08084D3D739
:101C580080A202D0809205D08082CDD780A003D008
:101C68008090FA6B17D08080C6D70001FC51BEE087
:101C7800010AC4E0030AC8E0010ACCE0070AD0E080
:101C8800010AD4E0030AD8E0010ADCE00F0AE0E028
:101C9800010AE4E0FC51020D730EF324086E000EF5
:101CA800F420096ECEEC26F00001D16FD06BFC5108
:101CB800020D730EF324086E000EF420096ECEECAC
:101CC80026F00001D027000ED123FC51020D000E92
:101CD800F324D96E010EF420DA6ED0C0DEFFD1C035
:101CE800DDFFFA513BE05C0EFC25086E096A000E28
:101CF8000922CEEC26F00001D06FD0A525D0FC51EA
:101D0800020D870EF324086E000EF420096ECEEC47
:101D180026F00001D16FD06BFC51020D880EF32420
:101D2800086E000EF420096ECEEC26F00001D027D4
:101D3800000ED123FC51020DF350800FD96EDA6AE0
:101D4800D0C0DEFFD1C0DDFFFBA73AD0140ECE6FA6
:101D5800030ECF6FFC5104EC24F032D0FBA930D035
:101D6800140ECE6F040ECF6FFC5104EC24F028D073
:101D78000001FC51020D730EF324086E000EF420CE
:101D8800096ECEEC26F00001D16FD06BFC51020D2C
:101D9800740EF324086E000EF420096ECEEC26F0C3
:101DA8000001D027000ED123FC51020D000EF324B0
:101DB800D96E010EF420DA6ED0C0DEFFD1C0DDFF8F
:101DC8000001FC2B70D5096A710E086ECEEC26F066
:101DD80000094FE00001F66B8030010BD06F805096
:101DE800010B020DF350D025F76F8150010BD06F16
:101DF8008130010B020DF3CFD1F08230E832E832A6
:101E0800010B040DF3CFD2F08238010B080DF3CF8C
:101E1800D3F08238E832010B100DF3CFD4F08238BA
:101E2800E832E832010B200DF3CFD5F08234E836E2
:101E3800010B400DF3CFD6F08030E832010B800D56
:101E4800F350D625D525D425D325D225D125D0257F
:101E5800F86F406A0F0E3F6E010E416E7BC042F074
:101E6800030E436E446E000E466EF60E456EE7ECAA
:101E780022F08150010B0001D06F8130010BD16F2E
:101E8800D890D135D26FD36BD3378230E832E8326D
:101E9800010BD46FD56BD890D437D537D890D437B9
:101EA800D5378238010BD66FD76BD890D637D7374E
:101EB800D890D637D737D890D637D7378238E83240
:101EC800010BD86FD96BD83BD93BF00ED917D85135
:101ED8000F0BD913F00ED8178238E832E832010B0D
:101EE800DA6FDB6B050ED890DA37DB37E82EFBD7D5
:101EF8008234E836010BDC6FDD6B060ED890DC37D8
:101F0800DD37E82EFBD78030E832010BDE6FDF6B60
:101F1800070ED890DE37DF37E82EFBD78030010B6D
:101F2800E16FE06B8050010BE26FE36B090ED89014
:101F3800E237E337E82EFBD7E051E225E46FE151C1
:101F4800E321E56FDE51E425E66FDF51E521E76F18
:101F5800DC51E625E86FDD51E721E96FDA51E82524
:101F6800EA6FDB51E921EB6FD851EA25EC6FD951C3
:101F7800EB21ED6FD651EC25EE6FD751ED21EF6FC8
:101F8800D451EE25F06FD551EF21F16FD251F025E4
:101F9800F26FD351F121F36FD051F2256A6F000E21
:101FA800F3216B6F12009751961101E1EED21ED307
:101FB8000BEC27F01BD36AEC25F018D315EC26F0B0
:101FC80015D30FEC25F012D394510F0B020A01E040
:101FD8000DD37B5120EE9AF0DF6208D3800E9B610F
:101FE80012D09B51F1EC1AF00001A96F9BC0A8F028
:101FF800030EA36F820EA26FA46BA56B0A0EA66FC9
:10200800F6EC24F0F3D29B5119EC1AF0EDD7945169
:102018000F0B030A01E0EAD27B5120EE9AF0DF624F
:10202800E5D2800E9B6106D09CC04FF09B5178ECA6
:1020380004F0DBD79CC048F09B51B9EC1FF0D4D713
:102048007B5120EE9AF0DF62D1D2000EBBEC26F075
:1020580000019C1901E0CAD2030EBBEC26F0000176
:102068009D1901E0C3D2050EBBEC26F000019E19B4
:1020780001E0BCD2070EBBEC26F000019F1901E07D
:10208800B5D25350A01901E0B1D2525020EEA1F0C0
:10209800DF62ACD29B515EEC26F0A8D2000EBBECFE
:1020A80026F000019B1973E1010EBBEC26F000013C
:1020B8009C196DE1020EBBEC26F000019D1967E149
:1020C800030EBBEC26F000019E1961E177895FD011
:1020D800040EBBEC26F000019B1959E1050EBBEC80
:1020E80026F000019C1953E1060EBBEC26F0000116
:1020F8009D194DE1070EBBEC26F000019E1947E142
:10210800778B45D0080EBBEC26F000019B193FE108
:10211800090EBBEC26F000019C1939E10A0EBBEC54
:1021280026F000019D1933E10B0EBBEC26F00001EF
:102138009E192DE1778D2BD00C0EBBEC26F00001FB
:102148009B1925E10D0EBBEC26F000019C191FE13F
:102158000E0EBBEC26F000019D1919E10F0EBBEC29
:1021680026F000019E1913E1778F11D0776B0FD0FD
:102178009A390F0BDD6FDE6BDE51F8E1DD518EE031
:10218800010AA6E0030ABEE0010AD6E0EFD77751BC
:10219800F00BF00A01E02AD27AEC24F027D27B5126
:1021A80020EE9AF0DF6222D2E96B9BC0E8F09CC077
:1021B800EBF0F76B48D0070E086EF75194EC25F05A
:1021C8000001DD6FDD51A90FD96EDA6AE851F725F4
:1021D8006CEC26F0DF6E070E086E0001F75194ECE8
:1021E80025F0060A0BE0FF0E0001EB25DD6FDE6B24
:1021F800FF0EDE23F751DD19DE1124E1070E086E0C
:102208000001F75194EC25F0060A03E1070E0001DE
:1022180009D0070E086E0001F75194EC25F0000173
:10222800DD6FDD29EA6FEA51810FA26F070EA36FF8
:10223800A46BA56B1A0EA66FE9C0A8F0F6EC24F003
:102248000001E92BF72BEB51F75D01E3CFD1B3D7B1
:102258007B5120EE9AF0DF62C9D19BC0ECF094511B
:10226800FE0F070BED6FF26B16D0F2519C0FD96E73
:10227800DA6ADF50DC6FEC51F225F4EC25F000014E
:10228800F251A90FD96EDA6AEC51F2256CEC26F0FE
:10229800DF6E0001F22BED51F25DE7E3070EA36F4D
:1022A800A46BA56B1A0EA66FA86BED51810FA26FD8
:1022B800A7D67B5120EE9AF0DF6298D19B51F1ECC2
:1022C8001AF00001DD6FDD294F6E9B5178EC04F0A8
:1022D8008CD67B5120EE9AF0DF6288D19B51F1ECCD
:1022E8001AF00001DD6FDD054F6E9B5178EC04F0AC
:1022F8007CD69A517B1903E09A2901E077D1F16BDA
:10230800030EA36F880EA26FA46BA56B200EA66F99
:10231800F66BF6C0A8F0010EF86FF851A80FD96E49
:10232800DA6AF1510F08BBEC26F0DF6E0001F12BE1
:10233800100EF16501D004D0F82B070EF865EDD723
:10234800100EF16501D007D0F6EC24F00001F62B51
:10235800020EF665DED7F86BF85179EC26F0000925
:1023680008E0F851AB0FD96EDA6AF85179EC26F02B
:1023780005D0F851AB0FD96EDA6A000EDF6EF82B74
:10238800040EF865E9D7F6EC24F0050E0001F16FAC
:10239800030EF66FF6C0A8F0010EF86FF851A80FFB
:1023A800D96EDA6AF15179EC26F0DF6EF12BF82B51
:1023B800070EF865F3D7F6EC24F00001F62B060EAD
:1023C800F665E8D713D17B5120EE9AF0DF620ED183
:1023D800030EA36F870EA26FA46BA56B220EA66FC8
:1023E800A80E91EC26F00CD67B5120EE9AF0DF6215
:1023F800FDD0F36B94C0DDF00F0EDD17040EDD5D2C
:1024080012E39EC0F4F0F56BF551F41103E1010EEF
:10241800F56FF46B010EF45D010EF55907E3010E3B
:10242800F56F000E02D0F56B010EF46F52C0E4F0A8
:1024380053C0E5F09C519BC0DDF0DE6BDDC0DEF0E3
:10244800DD6BDD11526EDE51536E070EA36FA46B68
:10245800A56B270EA66FA86B9BC0A9F09CC0AAF01D
:10246800F351F45DDD6F000EF559DE6F040EDD5D8E
:10247800000EDE5902E3040E02D0F351F45DEE6F54
:10248800EE51840FA26F9D51F325AB6FEF6B0CD00B
:10249800EF51AC0FD96EDA6A9D51F325EF256CEC3C
:1024A80026F0DF6E0001EF2BEE51EF5DF1E3F6EC65
:1024B80024F00001EE51F327A82BF351DD6FDE6BFA
:1024C800F451DD5DF551DE59CBE3E4C052F0E5C0CF
:1024D80053F08CD07B5120EE9AF0DF6287D052C047
:1024E800E6F053C0E7F09C519BC0DDF0DE6BDDC029
:1024F800DEF0DD6BDD11526EDE51536E9DC0F0F0E3
:1025080014D09D519E08F025D96EDA6ADF50DC6F31
:10251800F051F4EC25F00001DD6F9D51AC08F02579
:10252800D96EDA6ADDC0DFFFF02B94510F0BDD6F37
:10253800DE6B9D51DD27000EDE23FC0EDD25DF6FEF
:10254800FF0EDE21E06FF051E16FE26BE251800A8D
:10255800E36FDF51E15DE051800AE359D2E3E6C061
:1025680052F0E7C053F0070EA36F94510F0B800F82
:10257800A26FA46BA56B270EA66FA86B9BC0A9F0D2
:102588009CC0AAF09DC0ABF03BD59851010A01E16F
:102598000FD5030A01E10FD5040A01E10FD50E0A90
:1025A80001E10FD5010A01E10FD5020A01E12FD59A
:1025B800070A01E145D51B0A01E1DAD50F0A01E155
:1025C800EED5010A01E144D6040A01E172D6030AF4
:1025D80001E17FD6010A01E18CD63E0A01E1F3D67A
:1025E800040A01E101D7030A01E174D71200366831
:1025F8003768386839683A6A3B6A3C6A3D6A436AB0
:102608004350126E136AD89012361336D890123689
:102618001336D89012361336450E1224086E000E63
:102628001320096ECEEC26F0146E14AEE8D1435098
:10263800126E136AD89012361336D89012361336A3
:10264800D89012361336480E1224086E000E132046
:10265800096ECEEC26F0146E14C015F0166A176ACF
:10266800186A17C018F016C017F015C016F0156ACA
:102678004350196E1A6AD89019361A36D8901936F6
:102688001A36D89019361A36460E1924086E000ED6
:102698001A20096ECEEC26F01B6E1BC01CF01D6ABA
:1026A8001E6A1F6A1DC01FF01CC01EF01D6A1C6A2E
:1026B8004350206E216AD89020362136D890203693
:1026C8002136D89020362136450E2024086E000E7B
:1026D8002120096ECEEC26F0226E020E221622C0B0
:1026E80023F0246A256A266A170ED89023362436E2
:1026F80025362636E82EF9D71C502310276E1D5094
:102708002410286E1E502510296E1F5026102A6E80
:10271800155027102B6E165028102C6E17502910A4
:102728002D6E18502A102E6EFF0E2B10316E2C5065
:10273800326E2D50336E2E50346E4350126E136A23
:10274800D89012361336D89012361336D8901236DF
:102758001336490E1224086E000E1320096ECEECB3
:1027680026F0146E14C015F0166A176A186A17C096
:1027780018F016C017F015C016F0156A4350196EF8
:102788001A6AD89019361A36D89019361A36D89047
:1027980019361A36470E1924086E000E1A20096ECB
:1027A800CEEC26F01B6E1BC01CF01D6A1E6A1F6A49
:1027B8001DC01FF01CC01EF01D6A1C6A4350206E0D
:1027C800216AD89020362136D89020362136D890E4
:1027D80020362136450E2024086E000E2120096E71
:1027E800CEEC26F0226E010E221622C023F0246AB7
:1027F800256A266A23C026F0256A246A236A1C50A3
:102808002310276E1D502410286E1E502510296E87
:102818001F5026102A6E155027102B6E16502810A0
:102828002C6E175029102D6E18502A102E6E4350FA
:102838002F6E306AD8902F363036D8902F363036F3
:10284800D8902F363036440E2F24086E000E3020D4
:10285800096ECEEC26F02B103E6E2C503F6E2D509C
:10286800406E2E50416E436608D03EC03AF03FC0DD
:102878003BF040C03CF041C03DF03150361632507C
:1028880037163350381634503916426A42503EC013
:1028980012F03FC013F040C014F041C015F0E82A10
:1028A80005D0D8901532143213321232E82EF9D7E7
:1028B800010E121642503AC016F03BC017F03CC049
:1028C80018F03DC019F0E82A05D0D890193218320E
:1028D80017321632E82EF9D71650010B12181DE0E0
:1028E80042C012F0010E136E146A122A03D0D89057
:1028F80013361436122EFBD7131C156E141C166EC5
:10290800176A16BE17061750186E15503616165049
:1029180037161750381618503916422A1F0E4264B7
:10292800B5D73E503A163F503B1640503C164150E2
:102938003D1643504FE0426A43C012F04350136EB5
:10294800146AD89013361436D89013361436D890A3
:1029580013361436440E1324086E000E1420096E24
:10296800CEEC26F0156E122A02D0D8901532122E0F
:10297800FCD7010E151643C016F035C017F0162AFD
:1029880002D0D8901732162EFCD71750010B151805
:102998001DE043C012F0010E136E146A122A03D010
:1029A800D89013361436122EFBD713C015F014C066
:1029B80016F0000E16BEFF0E176E186E155036165E
:1029C800165037161750381618503916422A070E5F
:1029D8004264B2D74350126E136AD8901236133637
:1029E800D89012361336D89012361336440E122465
:1029F800086E000E1320096ECEEC26F0356E432AC1
:102A0800070E4364FDD5800E85EC26F00F010F0EEE
:102A1800096E1C0E086E36C00AF037C00BF038C0BD
:102A28000CF039C00DF0010E0E6EE6EC1DF00D0134
:102A3800D4830F010F0E096E040E086E3AC00AF017
:102A48003BC00BF03CC00CF03DC00DF0010E0E6E0B
:102A5800E6EC1DF0000E85EF26F00001646B656B57
:102A6800666B676B756B746B736B686B696B010175
:102A7800010E096E000E086E0B6A0A6A0D6A140EC2
:102A88000C6E3EEC25F00001000E096E800E086EFB
:102A98000B6A0A6A0D6A140E0C6E3EEC25F0356A54
:102AA8005C0E3524086E096A000E0922CEEC26F069
:102AB800106E10A033D035C010F0010E116E126ADE
:102AC800102A03D0D89011361236102EFBD7115089
:102AD8000001681312506913730E3524086E096AD1
:102AE800000E0922CEEC26F0116E106A740E352401
:102AF800086E096A000E0922CEEC26F01026000E98
:102B080011223550020D0101000EF324D96E010E79
:102B1800F420DA6E10C0DEFF11C0DDFF610E35242F
:102B2800086E096A000E0922CEEC26F0106E10A479
:102B380020D0730E3524086E096A000E0922CEECE7
:102B480026F0116E106A740E3524086E096A000E9C
:102B58000922CEEC26F01026000E11223550020D67
:102B6800F3500001800FD96EDA6A10C0DEFF11C081
:102B7800DDFF352A090E356493D7096A500E086EB1
:102B8800CEEC26F0346E3450030B926E096A510E67
:102B9800086ECEEC26F0346E3450030B0809936EA1
:102BA8003438E842070B040B346E34509212096A29
:102BB800700E086ECEEC26F0106E10BEF19E096AFB
:102BC800510E086ECEEC26F0106ED8901034F80B2B
:102BD800346E34500109946E0101010E096E140E11
:102BE800086E0B6A0A6A0D6A0A0E0C6E3EEC25F036
:102BF8000001000E096EB00E086E0B6A0A6A0D6AB3
:102C08000A0E0C6E3EEC25F00001726B8150010B30
:102C1800106E8130010B116ED8901134126E136A48
:102C280013368230E832E832010B146E156AD890F8
:102C380014361536D890143615368238010B166EB0
:102C4800176AD89016361736D89016361736D89091
:102C5800163617368238E832010B186E196A183A98
:102C6800193AF00E191618500F0B1912F00E181603
:102C78008238E832E832010B1A6E1B6A050ED890CA
:102C88001A361B36E82EFBD78234E836010B1C6E49
:102C98001D6A060ED8901C361D36E82EFBD78030EC
:102CA800E832010B1E6E1F6A070ED8901E361F36BB
:102CB800E82EFBD78030010B216E206A8050010B73
:102CC800226E236A090ED89022362336E82EFBD7C7
:102CD80020502224246E21502320256E1E502424A7
:102CE800266E1F502520276E1C502624286E1D5046
:102CF8002720296E1A5028242A6E1B5029202B6E53
:102D080018502A242C6E19502B202D6E16502C2466
:102D18002E6E17502D202F6E14502E24306E155005
:102D28002F20316E12503024326E13503120336E02
:102D3800105032246A6F000E33206B6F12009751C7
:102D4800961101E155D1E66BE651D56FD66BD89057
:102D5800D537D637D890D537D637D890D537D63750
:102D68009C0ED525086E000ED621096ECEEC26F0F5
:102D78000001E56FE5AF37D1E5AD18D0E651D56F65
:102D8800D66BD890D537D637D890D537D637D89090
:102D9800D537D6379B0ED525086E000ED621096E7D
:102DA800CEEC26F00001991901E01DD1E5A90BD060
:102DB8009B2909E0096A440E086ECEEC26F0000152
:102DC8009B1901E010D1E5A70BD09C2909E0096AFD
:102DD800450E086ECEEC26F000019C1901E003D1E7
:102DE800E651080D9E0EF324086E000EF420096EBD
:102DF800CEEC26F00001D56FE551010BD76FD66BED
:102E0800D551D625D86F000ED721D96FE651080DB8
:102E18009D0EF324086E000EF420096ECEEC26F009
:102E28000001D56FE551020BD66FD76B070ED8900E
:102E3800D637D737E82EFBD7D551D625DA6F000E0F
:102E4800D721DB6FE651080DA00EF324086E000EA3
:102E5800F420096ECEEC26F00001DC6FE651080D77
:102E68009F0EF324086E000EF420096ECEEC26F0B7
:102E78000001DD6F20EE96F0DECFD5F0DDCFD6F085
:102E8800D851D51BD951D61BDA51D517DB51D617D6
:102E9800D651D51101E0A7D09851DC19DD1501E113
:102EA80086D0A1D00001E651080DA20EF324086EC9
:102EB800000EF420096ECEEC26F00001DE6FDEC0B5
:102EC8004FF0E55128EC1FF08ED00001E651080DB7
:102ED800A20EF324086E000EF420096ECEEC26F044
:102EE8000001DF6FDFC04FF0E55120EC22F07BD00E
:102EF8000001E651080DA20EF324086E000EF4201E
:102F0800096ECEEC26F00001E06FE0C04FF0E5510D
:102F18008EEC1EF068D00001E651080DA20EF324D5
:102F2800086E000EF420096ECEEC26F00001E16F69
:102F3800E1C04FF0E55141EC20F055D00001E651D9
:102F4800080DA20EF324086E000EF420096ECEECD4
:102F580026F00001E26FE2C04FF0E551B1EC21F03C
:102F680042D00001E651080DA20EF324086E000EAF
:102F7800F420096ECEEC26F00001E36FE3C0D0F038
:102F8800E55142EC26F02FD00001E651080DA20EC3
:102F9800F324086E000EF420096ECEEC26F0000132
:102FA800E46FE4C04FF0E551C1EC20F01CD0E651CD
:102FB800080DA10EF324086E000EF420096ECEEC65
:102FC80026F0000A10E0010A01E16CD7030A01E1CA
:102FD8007CD7010A8DE0070A9EE0010AD5E0030AC2
:102FE800ADE0010ABEE00001E62B070EE665ACD6AF
:102FF80012009DEC24F0BFEC24F00009D8B4C6EC14
:103008001BF031EC15F07AEC24F0FBEC12F0040024
:10301800FA0E000179650ED07C050CE07B69FDECA9
:1030280026F0096A010E086EFF0E0A68DCEC24F02F
:103038007AEC24F0946B7FEC25F0BAD07B2903E17D
:10304800010E7C6FC5D0030E7C6F24EC26F0C0D037
:103058008BEC22F0BDD094AF08D09751961103E1C4
:10306800D7EC0FF002D0A3EC16F00A0E0001605D59
:10307800000E6159000E6259000E635901E2A8D092
:10308800096A510E086ECEEC26F00001FD6F096A40
:10309800500E086ECEEC26F001011F6F0001FD51A5
:1030A80001011E6F0001606B616B626B636B72C024
:1030B800FDF0010EFE6FFF6BFD2B03D0D890FE379D
:1030C800FF37FD2FFBD701011E510001FE1701013B
:1030D8001F510001FF17FF51FE115EE0660E7225B9
:1030E800086E096A000E0922CEEC26F00001FD6F79
:1030F800FDAD52D0660E7225086E096A000E0922CF
:10310800CEEC26F00001FD6FFDBF31D045D081B077
:1031180003D03DEC21F040D0140E00017225D96E89
:10312800DA6A010EDA22DF6A7251B00FD96EDA6AF2
:10313800DF6A32D081A2EDD7EFD782A6EAD7ECD7E3
:1031480082A8E7D7E9D782AAE4D7E6D782ACE1D745
:10315800E3D782AEDED7E0D780A4DBD7DDD780A265
:10316800D8D7DAD780A0D5D7D7D7726B15D07251F8
:10317800CEE0010ADFE0030AE0E0010AE1E0070A25
:10318800E2E0010AE3E0030AE4E0010AE5E00F0AED
:10319800E6E0010AE7E0E9D70001722B090E726543
:1031A80017D0726B15D000EC27F012D07C6B10D0C2
:1031B80000017C5101E142D7010A01E149D7030A24
:1031C80001E143D7010A01E146D7070AECE0EED74F
:1031D800E90E0001645D030E6559000E6659000E84
:1031E80067590BE3646B656B666B676B2DEC24F0BA
:1031F8007C51030AD8B440EC0CF03B0E75650BD03B
:10320800756B742B3B0E746502D0746B732B170EA1
:10321800736501D0736B04EC27F0F9D6E8CF12F090
:10322800546A7750C00B166E166632D060AE12D054
:10323800A49074AE06D01150D96EDA6A000EDB86FF
:10324800749E60A002D0548001D054900F0E196E65
:10325800600E1AD00F0150AF19D0A49274AC06D0EA
:103268001150D96EDA6A000EDB86749C5051070B38
:10327800546E020E546005D01150D96EDA6A000EF1
:10328800DB8E0F0E196E500E186E65D0000ECCD066
:103298001650400A46E160AE04D00F0E196E600E5B
:1032A8003ED00F0150AF04D00F0E196E500E37D01C
:1032B8000D01F8B507D00E0120AF04D00E0E196E1F
:1032C800200E2DD00D01F8B707D00E0130AF04D075
:1032D8000E0E196E300E23D00D01F8B907D00E016D
:1032E80040AF04D00E0E196E400E19D00D01F8BB78
:1032F80005D00E0150AF02D00E0ED7D70D01F8BD84
:1033080005D00E0160AF02D00E0EC8D70D01F8BF70
:10331800BDD70E0170AFBAD70E0E196E700E186EAB
:103328000AD074AEB3D76F50070BC9EC23F008C0AE
:1033380018F009C019F018C0D9FF19C0DAFFDF501A
:103348001F0B546EA49274AC06D01150D96EDA6A71
:10335800000EDB86749C18C013F019C014F01150CD
:10336800D96EDA6ADF6A20EE05F01850D9261950AE
:10337800DA22DF50176E1050D96EDA6A17500F0B29
:10338800DF6E17AC05D01150D96EDA6A000EDB8CEF
:1033980020EE02F01850D9261950DA22DF50176EA5
:1033A80017A608D01150D96EDA6A000EDB8A010E12
:1033B800176E01D0176A1828086E000E1920096EBA
:1033C80012C00AF017C00BF034EC1DF0060E1826D8
:1033D800000E19221050D96EDA6ADF50176E156A7E
:1033E8000DD018C0D9FF19C0DAFF0F50E16EE26A9C
:1033F800DFCFE7FF184A192A0F2A152A1750155C3C
:10340800F0E3A4AE06D01150D96EDA6A000EDB885C
:10341800A49E13C0D9FF14C0DAFF7F0EDF16165022
:10342800800AD8B4749E010E1200E8CF1CF01B6A03
:103438001C50800A04E155C01BF0556ACCD01C50C2
:10344800810A02E1010E82D01C50820A02E1060EB6
:103458007DD01C50830A03E176C01BF0BCD01C5001
:10346800940A03E10AEC27F071D01C50950A03E195
:1034780009EC27F06BD01C50960A03E108EC27F002
:1034880065D0890E1C6005D01C507C0FB1EC26F06D
:103498005DD0880E1C6408D0910E1C6005D01C50AD
:1034A800770FA7EC26F052D01C50910A03E17BC09D
:1034B8001BF091D01C50930A03E152C01BF08BD033
:1034C8001C50920A02E1535041D01C50970A03E164
:1034D80007EC27F03BD01C50980A03E106EC27F0D4
:1034E80035D01C50990A03E105EC27F02FD0990E2E
:1034F8001C642ED09E0E1C602BD0EFEC26F00BC067
:1035080014F00AC013F009C012F008C011F01C50E2
:10351800660F196E195003080C6ED8900C36D890A7
:103528000C36D8900C360C5011C00DF012C00EF0AD
:1035380013C00FF014C010F0E82A05D0D89010324C
:103548000F320E320D32E82EF9D730D01B6E43D031
:103558009D0E1C642DD0A20E1C602AD0EAEC26F029
:103568000BC018F00AC017F009C016F008C015F013
:103578001C50620F1A6E1A5003080C6ED8900C3645
:10358800D8900C36D8900C360C5015C00DF016C0DB
:103598000EF017C00FF018C010F0E82A05D0D89028
:1035A80010320F320E320D32E82EF9D70D50CED729
:1035B800CF0E1C6408D0E00E1C6005D01C50300FE4
:1035C800BBEC26F0C3D7DF0E1C6405D01C50200FBF
:1035D80079EC26F0BBD71B501200E8CF12F0116A25
:1035E8005350521001E0ADD0126606D0096A440E5D
:1035F800086ECEEC26F0C3D0120406E1096A450E27
:10360800086ECEEC26F0BBD0010E12640CD00C0E66
:10361800126009D0440E1224086E096A000E0922AD
:10362800CEEC26F0ACD012500C0A08E19230010B17
:103638000A6E9250010B020DF35035D012500D0A4C
:1036480034E19350010B0A6E9330010B020DF3CF56
:103658000BF09430E832E832010B040DF3CF0CF094
:103668009438010B080DF3CF0DF09438E832010BB4
:10367800100DF3CF0EF09438E832E832010B200D2C
:10368800F3CF0FF09434E836010B400DF3CF10F070
:103698009230E832010B800DF35010240F240E24D1
:1036A8000D240C240B240A246AD00D0E126442D077
:1036B800180E12603FD028D0000E81B0010E5FD0E6
:1036C800000E81B2010E5BD0000E82B6010E57D0FB
:1036D800000E82B8010E53D0000E82BA010E4FD0F0
:1036E800000E82BC010E4BD0000E82BE010E47D0E8
:1036F800000E80B4010E43D0000E80B2010E3FD000
:10370800000E80B0010E3BD012500E0AD5E0010A1F
:10371800D7E01F0AD9E0010ADBE0030ADDE0010A6D
:10372800DFE0070AE1E0010AE3E0030AE5E0010A55
:10373800E7E026D0170E126423D02F0E126020D097
:1037480069D7520453100CE1280E126019D0730E79
:103758001224086E096A000E0922CEEC26F00FD05A
:103768005250020A53100CE1400E126009D09B0E11
:103778001224086E096A000E0922CEEC26F0116E9A
:1037880011501200FDEC26F0096A440E086E000E76
:103798000A6ADCEC24F0FDEC26F0096A450E086E96
:1037A800000E0A6ADCEC24F0476AFDEC26F0460EAF
:1037B8004724086E096A000E092247C00AF0DCECAB
:1037C80024F0472A090E4764F0D7FDEC26F0096A71
:1037D800500E086E000E0A6ADCEC24F0FDEC26F0B0
:1037E800096A510E086E000E0A6ADCEC24F0476A7A
:1037F800FDEC26F05C0E4724086E096A000E0922CB
:10380800980E0A6EDCEC24F0472A090E4764F0D7BC
:10381800476AFDEC26F0660E4724086E096A000E1A
:103828000922830E0A6EDCEC24F0472A090E47644D
:10383800F0D7FDEC26F0096A700E086E000E0A6AD1
:10384800DCEC24F0FDEC26F0096A710E086E000E1F
:103858000A6ADCEC24F0476AFDEC26F0730E472474
:10386800086E096A000E09220A6ADCEC24F0472A6D
:10387800130E4764F1D7476AFDEC26F0870E4724FC
:10388800086E096A000E09220A6ADCEC24F0472A4D
:10389800130E4764F1D7FDEC26F0096A720E086E24
:1038A800030E0A6EDCEC24F0476A466AFDEC26F04B
:1038B800465047C044F0456AD89044364536D890BB
:1038C80044364536D890443645364426000E4522BF
:1038D8009B0E4424086E000E4520096E000E0A6AED
:1038E800DCEC24F0462A070E4664E0D7472A4764F2
:1038F800DCD7FBEF12F00F0E1C6E400E1B6E0F0E86
:103908001E6E300E1D6E0F0E206E200E1F6E0E0ED8
:10391800226E200E216E0E0E246E300E236E0E0EB9
:10392800266E400E256E0E0E286E500E276E0E0E59
:103938002A6E600E296E0E0E2C6E700E2B6E77504E
:10394800C00B2D6E2D6602D0020E01D0080E2E6E11
:103958000D01D890F831306E346A7DD03450020DA4
:10396800F3501B0FD96EDA6ADECF35F0DDCF36F0B3
:1039780035C031F036C032F0020E346404D0D8902D
:10398800303230A067D035C0D9FF36C0DAFFDF50FB
:103998001A6E1AB65FD035C0D9FF36C0DAFFFC0EF2
:1039A800DF1619C01AF0030E1A1635C0D9FF36C033
:1039B800DAFF1A50DF1219AC04D018504009336EE0
:1039C80002D018C033F020EE05F03550D926365015
:1039D800DA2233C0DFFF19AA03D0010E336E01D0FB
:1039E800336A3528086E000E3620096E12C00AF0B8
:1039F80013C00BF014C00CF015C00DF033C00EF05E
:103A0800E6EC1DF0060E3526000E36222F6A0FD082
:103A180016C0D9FF17C0DAFF35C0E1FF36C0E2FF94
:103A2800DFCFE7FF164A172A354A362A2F2A1850B9
:103A38002F5CEEE331C0D9FF32C0DAFFDF501A6ED7
:103A48001AB406D031C0D9FF32C0DAFF000EDB86C7
:103A5800010E05D0342A2E50345C80E3000E12008B
:103A68000AC00EF00B6646D00E50D96EDA6A08C04E
:103A7800E1FF09C0E2FFE7500C6ED8900C36D890F1
:103A88000C36D8900C34DF6E0E50D96EDA6AD92A0B
:103A9800DA6A08C0E1FF09C0E2FFE7500C6E050EC4
:103AA8000D6ED8900C320D2EFCD70C50DF6E084AE4
:103AB800092A08C0D9FF09C0DAFFDF500C6E050ECD
:103AC8000D6ED8900C320D2EFCD70E50D96EDA6AD6
:103AD8000C50DF120E50D96EDA6A020ED926DA6A55
:103AE800DF6A0E50D96EDA6A030ED926DA6A000E3A
:103AF800DF6E67D00E50D96EDA6A020ED926DA6AFE
:103B080008C0E1FF09C0E2FFE7500C6E050E0D6E1C
:103B1800D8900C360D2EFCD70C50DF6E0E50D96E97
:103B2800DA6A030ED926DA6A08C0E1FF09C0E2FFA3
:103B3800E7500C6ED8900C32D8900C32D8900C30DC
:103B4800DF6E084A092A08C0D9FF09C0DAFFDF502A
:103B58000C6E030E0C160E50D96EDA6A020ED926B8
:103B6800DA6A0C50DF1208C0D9FF09C0DAFFDF504B
:103B78000C6ED8900C32D8900C32D8900C321C0EA7
:103B88000C160E50D96EDA6A020ED926DA6A0C5073
:103B9800DF12084A092A08C0D9FF09C0DAFF0E5007
:103BA800E16EE26AE12AE26ADFCFE7FF084A092A02
:103BB80008C0D9FF09C0DAFF0E50E16EE26ADFCF14
:103BC800E7FF12000A0E116E0E6637D01150D96E3B
:103BD800DA6ADF500F6ED8900F32D8900F32D89033
:103BE8000F3008C0D9FF09C0DAFFDF6E1150D96E57
:103BF800DA6AD92ADA6ADF500F6E050E106ED8908D
:103C08000F36102EFCD708C0D9FF09C0DAFF0F50B5
:103C1800DF12084A092A1150D96EDA6ADF500F6E8E
:103C2800050E106ED8900F36102EFCD70F5008C016
:103C3800D9FF09C0DAFFDF6E6CD01150D96EDA6A8D
:103C4800020ED926DA6ADF500F6E050E106ED89074
:103C58000F32102EFCD70F5008C0D9FF09C0DAFF69
:103C6800DF6E1150D96EDA6A030ED926DA6ADF5090
:103C78000F6ED8900F36D8900F36D8900F3608C0F0
:103C8800D9FF09C0DAFF0F50DF12084A092A11507C
:103C9800D96EDA6A020ED926DA6ADF500F6ED8902A
:103CA8000F36D8900F36D8900F34E00B08C0D9FFE4
:103CB80009C0DAFFDF6E08C0D9FF09C0DAFF000EBD
:103CC800DB861150D96EDA6A020ED926DA6ADF501D
:103CD8000F6E030E0F1608C0D9FF09C0DAFF0F5088
:103CE800DF12084A092A1150D96EDA6AD92ADA6A23
:103CF80008C0E1FF09C0E2FFDFCFE7FF084A092A51
:103D08001150D96EDA6A08C0E1FF09C0E2FFDFCFBF
:103D1800E7FF1200516A090E4F6401D094D05C0E7F
:103D28004F24086E096A000E0922CEEC26F0506E68
:103D380050AE89D039D081A002D0010E516E819049
:103D480047D081A202D0010E516E819241D082A645
:103D580002D0010E516E82963BD082A802D0010E8D
:103D6800516E829835D082AA02D0010E516E829A85
:103D78002FD082AC02D0010E516E829C29D082AE27
:103D880002D0010E516E829E23D080A402D0010E73
:103D9800516E80941DD080A202D0010E516E809287
:103DA80017D080B0F4D7F5D74F50C5E0010AC9E065
:103DB800030ACDE0010AD1E0070AD5E0010AD9E0FB
:103DC800030ADDE0010AE1E00F0AE5E0010AE9E0A3
:103DD8005150D8A450A808D0140E0001CE6F040E7C
:103DE800CF6F4F5004EC24F04FC0D0F0010E00010B
:103DF800D16FD26BD02B03D0D890D137D237D02FF8
:103E0800FBD7D1516813D2516913740E4F24086E31
:103E1800096A000E0922CEEC26F00001D06F730E5D
:103E28004F24086E096A000E0922CEEC26F0000124
:103E3800D26FD16BD051D1250101006F0001000E66
:103E4800D2210101016F1200D16B090E4F6401D01C
:103E58008BD05C0E4F24086E096A000E0922CEEC46
:103E680026F00001D06FD0AF7FD039D081B002D01A
:103E7800010ED16F818047D081B202D0010ED16F7F
:103E8800818241D082B602D0010ED16F82863BD0AA
:103E980082B802D0010ED16F828835D082BA02D0A2
:103EA800010ED16F828A2FD082BC02D0010ED16F51
:103EB800828C29D082BE02D0010ED16F828E23D08F
:103EC80080B402D0010ED16F80841DD080B202D0A0
:103ED800010ED16F808217D080A0F4D7F5D74F504C
:103EE800C5E0010AC9E0030ACDE0010AD1E0070AEA
:103EF800D5E0010AD9E0030ADDE0010AE1E00F0A92
:103F0800E5E0010AE9E0D0A524D04F50020D870E64
:103F1800F324086E000EF420096ECEEC26F0516EE4
:103F2800506A4F50020D880EF324086E000EF420DC
:103F3800096ECEEC26F05026000E51224F50020D8D
:103F4800F3500001800FD96EDA6A50C0DEFF51C00D
:103F5800DDFFD151D8A4D0A707D0140ECE6F030E21
:103F6800CF6F4F5004EC24F01200E8CF4EF0481CFD
:103F78004D6E4E50830A02E1766B7CD0830E4E6400
:103F88000ED0890E4E600BD048C00CF04E507C0FFE
:103F980050EC26F04E507C0FB1EC26F069D04E5014
:103FA800920A0DE148504A6E496A52504B6E4C6A6B
:103FB8004910526E4A504C10536E535059D04E50BF
:103FC800930A0BE1496A53504A6E48504910526EA1
:103FD8004A50536E52C04DF04ED0880E4E6419D0E0
:103FE800910E4E6016D053C049F049C04AF04B6A52
:103FF8004A2802E1522802E0481C3AD048C00CF096
:104008004E50770FBBEC25F04E50770FA7EC26F0FB
:104018002FD0CF0E4E6417D0E00E4E6014D053C090
:1040280049F049C04AF04B6A4A28E6E15228E4E1DF
:1040380048C00CF04E50300FCEEC25F04E50300FEB
:10404800BBEC26F015D04E50A20AD6E14850550ACE
:1040580004E16E6B6F6B550E0BD04850AA0A0BE14A
:10406800E80E6E5D030E6F5905E2F9EC26F0AA0E14
:104078004D6E01D04D6A4D501200516A090E4F64C1
:1040880001D07AD05C0E4F24086E096A000E09220E
:10409800CEEC26F0506E50AE6FD039D081A002D051
:1040A800010E516E819047D081A202D0010E516E4F
:1040B800819241D082A602D0010E516E82963BD0E9
:1040C80082A802D0010E516E829835D082AA02D001
:1040D800010E516E829A2FD082AC02D0010E516E21
:1040E800829C29D082AE02D0010E516E829E23D0CE
:1040F80080A402D0010E516E80941DD080A202D0FF
:10410800010E516E809217D080B0F4D7F5D74F507A
:10411800C5E0010AC9E0030ACDE0010AD1E0070AB7
:10412800D5E0010AD9E0030ADDE0010AE1E00F0A5F
:10413800E5E0010AE9E05150D8A450A808D0140ECF
:104148000001CE6F040ECF6F4F5004EC24F04FC027
:10415800D0F0010E0001D16FD26BD02B03D0D890D4
:10416800D137D237D02FFBD7D11DD36FD21DD46F03
:10417800D3516817D45169171200516A090E4F6458
:1041880001D076D05C0E4F24086E096A000E092211
:10419800CEEC26F0506E50AE6BD03FD081A002D04E
:1041A800819037D08180010E516E4BD081A202D010
:1041B80081922FD08182F7D782A602D0829629D009
:1041C8008286F1D782A802D0829823D08288EBD742
:1041D80082AA02D0829A1DD0828AE5D782AC02D008
:1041E800829C17D0828CDFD782AE02D0829E11D0FB
:1041F800828ED9D780A402D080940BD08084D3D764
:1042080080A202D0809205D08082CDD780A003D032
:104218008090516A16D08080C6D74F50BFE0010AFF
:10422800C5E0030AC9E0010ACDE0070AD1E0010AA6
:10423800D5E0030AD9E0010ADDE00F0AE1E0010A4E
:10424800E5E051500BE050A613D0140E0001CE6FDC
:10425800030ECF6F4F5004EC24F00AD050A808D0BA
:10426800140E0001CE6F040ECF6F4F5004EC24F0F3
:104278001200140E00017225D96EDA6A0101010ECE
:10428800DA22DF2A096A720E086ECEEC26F04F6E2B
:10429800140E00017225D96EDA6A0101010EDA22C4
:1042A800DF504F5C59E2140E00017225D96EDA6AAC
:1042B800010EDA22DF6A660E7225086E096A000EA0
:1042C8000922CEEC26F04F6E4FA426D0096A700E54
:1042D800086ECEEC26F04F6E4FA00FD00001725141
:1042E800B00FD96EDA6ADF5037E1096A700E086ECE
:1042F800CEEC26F04F6E4FA02FD01E0E0001CE6FD1
:10430800060ECF6F725104EC24F07251B00FD96EC3
:10431800DA6A010EDF6E20D0096A700E086ECEECE4
:1043280026F04F6E4FA00FD000017251B00FD96E1A
:10433800DA6ADF5011E1096A700E086ECEEC26F0D9
:104348004F6E4FA009D01E0E0001CE6F050ECF6F25
:10435800725104EC24F0D9D71200516A090E4F6447
:1043680001D069D05C0E4F24086E096A000E09223C
:10437800CEEC26F0506E50AE5ED032D0000E81B03A
:10438800010E516E41D0000E81B2010E516E3CD02B
:10439800000E82B6010E516E37D0000E82B8010EA3
:1043A800516E32D0000E82BA010E516E2DD0000E21
:1043B80082BC010E516E28D0000E82BE010E516ED5
:1043C80023D0000E80B4010E516E1ED0000E80B2B4
:1043D800010E516E19D0000E80B0010E516E14D02E
:1043E8004F50CCE0010ACFE0030AD2E0010AD5E041
:1043F800070AD8E0010ADBE0030ADEE0010AE1E08F
:104408000F0AE4E0010AE7E051500BE050A813D08E
:10441800140E0001CE6F040ECF6F4F5004EC24F041
:104428000AD050A808D0140E0001CE6F040ECF6F2A
:104438004F5004EC24F01200516A090E4F6401D069
:1044480065D05C0E4F24086E096A000E0922CEEC76
:1044580026F0506E50AE5AD039D081A002D0010E4D
:10446800516E819047D081A202D0010E516E819287
:1044780041D082A602D0010E516E82963BD082A80E
:1044880002D0010E516E829835D082AA02D0010E58
:10449800516E829A2FD082AC02D0010E516E829C4E
:1044A80029D082AE02D0010E516E829E23D080A404
:1044B80002D0010E516E80941DD080A202D0010E50
:1044C800516E809217D080B0F4D7F5D74F50C5E021
:1044D800010AC9E0030ACDE0010AD1E0070AD5E0E4
:1044E800010AD9E0030ADDE0010AE1E00F0AE5E08C
:1044F800010AE9E05150D8A450A808D0140E0001D0
:10450800CE6F040ECF6F4F5004EC24F0120051D040
:10451800572811E0810EA26FA36BA46BA56B020E46
:10452800A66F57C0A8F0F6EC24F0010E00017D6FCD
:10453800706B716B45D0040E7C6F810EA26FA869F9
:10454800070EA36FA46BA56B030EA66FF6EC24F001
:1045580037D094AF0FD09751961132E19851030A92
:104568002FE1576603D0020E7C6FE2D7572A7D6B86
:104578007E6B26D0E90E705D030E715921E37E2B08
:10458800020E7E6514D0576605D0572A7D6B706B76
:10459800716BEED757C07BF0030E7C6F7D6B7B5140
:1045A8009CEC26F000017E6B24EC26F009D07D6B94
:1045B80007D000017D51ACE0010ACBE0030AF7E126
:1045C8000001946B120041C0BAF0BB6BBC6BBD6BB1
:1045D800BCC0BDF0BBC0BCF0BAC0BBF0BA6B3F50AA
:1045E800BE6F4050BF6FC06BC16BBFC0C1F0BEC0D3
:1045F800C0F0BF6BBE6B43C0C2F0C36BC46BC56B6E
:104608001A0ED890C237C337C437C537E82EF9D742
:10461800BE51C211C66FBF51C311C76FC051C4117B
:10462800C86FC151C511C96FBA51C611CA6FBB5104
:10463800C711CB6FBC51C811CC6FBD51C911CD6F1B
:104648004250CA11476ECB51486ECC51496ECD517C
:104658004A6E47C037F048C038F049C039F04AC000
:104668003AF044C03BF045C03CF046C03DF055EC44
:1046780024F00009000ED8A4010E1200800E85EC6B
:1046880026F0090E706EFC0E716E010E726E200E11
:10469800736E778E779C606A0F01506B0E01206BEA
:1046A800306B406B506B606B706BE00E0D01F86FF8
:1046B8000F01006B080E016F026B036B046BE80EB1
:1046C800056F1A0E066F076B030E0D01D46FD56BBD
:1046D800E06B110EE16FE26FE36BE46BE56BE66B89
:1046E800E76B540EF06F050EF16FF26BF26B0F0E65
:1046F8000F01186FE00E196F1A6B1B6B19870F0EDD
:104708001C6FE00E1D6F1E691F6B1D87000E85EF65
:1047180026F0E8CF27F021C01AF022C01BF0280E9F
:1047280054EC25F0000902E1000E2ED01F50D96E7E
:10473800DA6A28C0DFFF1E50D96EDA6A29C0DFFFA7
:104748002A50236E010E2B14246E2750D96EDA6A74
:1047580023C0DEFF24C0DDFF2050D96EDA6A28C0EE
:1047680023F029C024F02AC025F02BC026F01B0E08
:1047780005D0D8902632253224322332E82EF9D7B4
:104788002350070BDF6E010E1200E8CF0BF024D088
:104798000F0E0D6E600E1ED00F010F0E0D6E500E17
:1047A80019D00E010E0E0D6E200E14D00E010E0E35
:1047B8000D6E300E0FD00E010E0E0D6E400E0AD08B
:1047C8000E010E0EEBD70E010E0EE3D70E010E0EE4
:1047D8000D6E700E0C6E0FD00B50DAE0010ADCE0A3
:1047E800030ADFE0010AE2E0070AE5E0010AE8E07F
:1047F800030AE9E0EBD70CC008F00DC009F012007D
:10480800E8CF4EF04EC04BF0096A440E086ECEEC6D
:1048180026F04C6E460E4E24086E096A000E0922D8
:10482800CEEC26F04D6E0001CEC03FF0406ACFC0FE
:1048380041F07BC042F0030E436E446E4B0E456E52
:10484800000E466E0F0E466E5F0E4564466AE7EF31
:1048580022F07F2B3B0E7F650DD07F6B7A2B7C512E
:10486800030A08E1E0EC26F00001CE6FE5EC26F043
:10487800A8EC25F03B0E00017A6502D07A6B782B04
:10488800170E786501D0786B7C51030A09E1772B04
:1048980077C04DF00F0E4D16020E4D5CD8B0776BF9
:1048A80012003E6A6C6B6D6B17D037C012F038C0BF
:1048B80013F039C014F03AC015F03CC016F03DC0F2
:1048C80017F03BC018F0200E196E7FEC1CF00009A1
:1048D80003E0010E3E6E06D0E80E00016C5D030E8B
:1048E8006D59E3E30001A26B3E501200020E566EB2
:1048F800F4EC26F000017B6F7B6701D07B69946B39
:10490800956B966B976B986BA26BA36BA46BA56B5F
:10491800A66B766B556A576A7C6B7D6B7E6B526AA9
:10492800536A706B716B6E6B6F6B7F6B7A6B786BA6
:1049380012000F0EC16E926A806A080E936E816A29
:10494800010E946E826A920E33EC26F0FB0E096E0D
:104958001D0E086EC5EC26F0819081928296829891
:10496800829A829C829E80948092809042EC23F06E
:10497800F28CF28E1200000E05EC26F0550A07E1C3
:10498800010E05EC26F0AA0A02E1010E10D002EC95
:1049980027F0FF0E9CEC26F0550E0C6E000EE1EC95
:1049A80025F0AA0E0C6E010EE1EC25F0000E1200A7
:1049B80008C0A9FF0AC0A8FFA69EA69CA684000E50
:1049C800F2BE010E0B6EF29E550EA76EAA0EA76ED2
:1049D800A682A6B2FED70BB002D0F29E01D0F28E0C
:1049E800A6941200A4C03FF0A5C040F0A6C041F0B4
:1049F8007BC042F0A3C043F0A2510F0B446E000EDF
:104A0800466EA80E456EE7EC22F04B6E4B6602D060
:104A18000001762B120094510F0B0D6E0D5012E011
:104A28007B5120EE9AF0DF620DD00D0405E0010EF7
:104A38000D6408D09B6706D07B69FF0E9CEC26F0BE
:104A48007AEC24F0120001EE00F01E0EEE6AE80681
:104A5800FDE100EE60F05A0EEE6AE806FDE100EEB8
:104A680052F0070EEE6AE806FDE1000EF86E00014E
:104A7800FDEF17F008C00EF009C00FF008D00EC007
:104A8800D9FF0FC0DAFF0AC0DFFF0E4A0F2A0C0653
:104A9800D8A00D060C28D8B40D28D8B41200EFD72A
:104AA800E8CF1CF094AF02D0000E0FD01BC00FF05F
:104AB8001AC010F01D0E116E1C5012EC19F00009EE
:104AC800F3E01DAC1DAAF0D7010E120094C04CF003
:104AD8000F0E4C164C040EE17B5120EE9AF0DF626B
:104AE80009D0800EA26FA36BA46BA56B030EA66FF3
:104AF800F6EC24F0120094BF12D0980E1E6E990E98
:104B08001F6E950E206E940E216E9A0E226E960ED2
:104B18008DEC23F02C6E2C5002E00001948F1200D3
:104B2800E8CF09F0080E0A6E0B6AD89009340B34E6
:104B38000B6ED890093608500B5C02E308500B5EE8
:104B48000A2EF3D70B501200E8CF4CF0830E000169
:104B5800A26F070EA36FA56B140EA46F090EA66FA4
:104B6800A86B4CC0A9F0CEC0AAF0F6EF24F0E8CFAD
:104B78000DF0070E0D6401D00CD0FDEC26F00C0EE4
:104B88000D24086E096A000E09220CC00AF0DCEC3C
:104B980024F01200E8CF0DF00F0E0D6401D00CD0F8
:104BA800FDEC26F0140E0D24086E096A000E092289
:104BB8000CC00AF0DCEC24F01200E8CF0DF0010E76
:104BC8000C6401D00CD0FDEC26F0030E0C24086E0A
:104BD800096A000E09220DC00AF0DCEC24F012006C
:104BE800E8CF50F07F0E506406D0DCC048F050503B
:104BF800B9EC1FF005D0DCC04FF0505078EC04F051
:104C08001200E8CF0AF0010E0A6402D0000E08D0A4
:104C1800030E0A24086E096A000E0922CEEC26F05B
:104C2800120094510F0B020A0AE17B5120EE9AF010
:104C3800DF6205D09BC07BF07B519CEC26F0120014
:104C4800810E0001A26FA36BA46BA56B020EA66F69
:104C58007BC0A8F0F6EC24F0010E566E010CE8CFEC
:104C680008F008507F0BD56ED76AD66AF29408AE62
:104C780002D0F28A01D0F29AD58E1200E8CFD1F094
:104C8800D26BD2C04FF0D151B1EC21F00001D22B40
:104C9800080ED265F6D7080CE8CF0DF0FDEC26F02B
:104CA800070E0D24086E096A000E09220CC00AF0CE
:104CB800DCEF24F0E8CF0CF00C0409E1FDEC26F061
:104CC800096A086AFF0E0A68DCEC24F0FF0012008B
:104CD800E8CF1DF07F0E1D6404D01D5019EC1AF0AA
:104CE80003D01D50F1EC1AF01200E8CF09F009507A
:104CF800CE0F086E08C0F6FF080EF76E0800F550D4
:104D08001200E8CF08F01F0E6F1608506F126F5090
:104D1800E00B0818D8B41200FAD7080EA86FA96BD0
:104D2800AA6B020EAB6FAC6B020EAD6FAE6B1200CE
:104D3800E8CF0CF0FDEC26F0096A010E086E0CC0F5
:104D48000AF0DCEF24F0E8CF0AF00C0E0A24086E13
:104D5800096A000E0922CEEF26F0E8CF0AF0070E06
:104D68000A24086E096A000E0922CEEF26F0E8CF61
:104D78000AF0140E0A24086E096A000E0922CEEF02
:104D880026F008C00AF009C00BF00BC0D7FF0AC014
:104D9800D6FF120008C0A9FFA69CA69EA68000F018
:104DA80000F0A850120001C003F002C004F004C0D3
:104DB800D7FF03C0D6FF1200096A450E086ECEEF72
:104DC80026F0096A440E086ECEEF26F0086A096AD2
:104DD8000A6A0B6A1200086A096A0A6A0B6A1200F0
:104DE800096A010E086ECEEF26F0C6EC1BF031EF13
:104DF80015F0A6A21200FDD7566A1200C6EF1BF0E6
:104E08001200030C080C010C030C010C010C12001D
:020000040020DA
:08000000FFFFFFFFFFFFFFFF00
:020000040030CA
:0E000000FF061C1EFF8281FF0FC00FE00F40A5
:00000001FF
