:04080000E9EF04F028
:10081800D8CF05F0E8CF06F0E0CF07F0F2A401D07A
:1008280001D0CCD0FB0E026E1D0E016EABEC2CF08D
:10083800544A552A00016E4B6F2B010E6027000E9B
:100848006123000E6223000E6323010E6427000E4D
:100858006523000E6623000E67236C4B6D2B82A068
:1008680001D001D003D0706B716B02D0704B712B2B
:10087800582A5650020AD8A401D001D00ED0640ECE
:10088800586401D001D009D082A201D001D002D091
:10089800829201D08282586A0ED05604D8A401D020
:1008A80001D003D08282586A06D0566601D001D0A2
:1008B80002D08292586AB251D8B401D001D008D07F
:1008C800B207B26701D001D003D08190800E756F56
:1008D800B351D8B401D001D008D0B307B36701D061
:1008E80001D003D08192810E756FB451D8B401D074
:1008F80001D008D0B407B46701D001D003D08296E4
:10090800820E756FB551D8B401D001D008D0B507A3
:10091800B56701D001D003D08298830E756FB651A8
:10092800D8B401D001D008D0B607B66701D001D03D
:1009380003D0829A840E756FB751D8B401D001D014
:1009480008D0B707B76701D001D003D0829C850EC5
:10095800756FB851D8B401D001D008D0B807B867BE
:1009680001D001D003D0829E860E756FB951D8B4DC
:1009780001D001D008D0B907B96701D001D003D0A0
:100988008094870E756FBA51D8B401D001D008D0C1
:10099800BA07BA6701D001D003D08092880E756F6C
:1009A800BB51D8B401D001D008D0BB07BB6701D078
:1009B80001D003D08090890E756FF29407C0E0FFD4
:0E09C80006C0E8FF05C0D8FF100048EF2BF076
:100F00007777772E6575726F736F757263652E7361
:100F1000652F6265696A696E675F322E786D6C0055
:100F20000000E8CFDDF0DA6BDC6B4F1CDB6F535059
:100F3000521002E094EF0DF0DD6710D0D1EC2CF0F0
:100F4000096A430E086E4FC00AF096EC2AF0096A4F
:100F5000430E086E62EC2CF031EF0FF0DD0510E16E
:100F6000D1EC2CF0096A440E086E4FC00AF096ECE2
:100F70002AF0096A440E086E62EC2CF031EF0FF093
:100F8000010EDD651BD00C0EDD6118D0D1EC2CF00C
:100F9000430E0001DD25086E096A000E09224FC0CC
:100FA0000AF096EC2AF0430E0001DD25086E096A6E
:100FB000000E092262EC2CF031EF0FF0DD510C0A2B
:100FC00026E1D1EC2CF0096A4F0E086E4F50030B4E
:100FD0000A6E96EC2AF0010E4FA2000E0001D26FAD
:100FE0009250D219FE0BD219926E010E4FA0000E34
:100FF000D26FD2479250D219FD0BD219926E923015
:10100000010BD26F9250010B020DF35096D0DD51BF
:101010000D0A01E095D0D1EC2CF0096A500E086E53
:101020004FC00AF096EC2AF0010E4FAE000E000100
:10103000D26FD247D2479250D219FB0BD219926E7F
:10104000010E4FAC000ED26FD233D2339450D2196E
:101050007F0BD219946E010E4FAA000ED26FD23BB5
:10106000D247D2479450D219BF0BD219946E010EB9
:101070004FA8000ED26FD23BD2479450D219DF0B4B
:10108000D219946E010E4FA6000ED26FD23B94502F
:10109000D219EF0BD219946E010E4FA4000ED26F2D
:1010A000D247D247D2479450D219F70BD219946E37
:1010B000010E4FA2000ED26FD2479350D219FD0BF2
:1010C000D219936E010E4FA0000ED26F9350D21919
:1010D000FE0BD219936E9350010BD26F9330010B1C
:1010E000020DF3CFD3F09430E832E832010B040D57
:1010F000F3CFD4F09438010B080DF3CFD5F094382A
:10110000E832010B100DF3CFD6F09438E832E83214
:10111000010B200DF3CFD7F09434E836010B400DCE
:10112000F3CFD8F09230E832010B800DF350D82580
:10113000D725D625D525D425D325D22532EF0FF0B6
:101140000D0EDD653BD2180EDD6138D24D0EDD256A
:10115000086E096A000E092262EC2CF00001D26FC1
:10116000D2BF0CD233EF0FF0010EDA6F4F0428E13B
:101170008180000E81B0010EDB6F010EDC6F096A09
:101180005B0E086E62EC2CF00001D26FD2A533EF3B
:101190000FF0096A880E086E62EC2CF00001D26F25
:1011A000096A870E086E62EC2CF00001D46FD36BD5
:1011B000D251D325826F000ED421836F33EF0FF00D
:1011C0004F6633EF0FF08190000E81B0010EDB6FA0
:1011D000DC6B33EF0FF0010EDA6F4F041EE18182FA
:1011E000000E81B2010EDB6F010EDC6F096A5C0E2E
:1011F000086E62EC2CF00001D26FD2A533EF0FF035
:10120000096A8A0E086E62EC2CF00001D26F096A3E
:10121000890E086E62EC2CF062D24F6633EF0FF04D
:101220008192000E81B2010EDB6FD2D7010EDA6F10
:101230004F0428E18286000E82B6010EDB6F010E9C
:10124000DC6F096A5D0E086E62EC2CF00001D26F53
:10125000D2A533EF0FF0096A8C0E086E62EC2CF009
:101260000001D26F096A8B0E086E62EC2CF000014F
:10127000D46FD36BD251D325866F000ED421876FE4
:1012800033EF0FF04F6633EF0FF08296000E82B609
:10129000010EDB6F9DD7010EDA6F4F0428E18288C3
:1012A000000E82B8010EDB6F010EDC6F096A5E0E64
:1012B000086E62EC2CF00001D26FD2A533EF0FF074
:1012C000096A8E0E086E62EC2CF00001D26F096A7A
:1012D0008D0E086E62EC2CF00001D46FD36BD251EE
:1012E000D325886F000ED421896F33EF0FF04F663E
:1012F00033EF0FF08298000E82B8010EDB6F68D7D3
:10130000010EDA6F4F0428E1828A000E82BA010EC4
:10131000DB6F010EDC6F096A5F0E086E62EC2CF069
:101320000001D26FD2A533EF0FF0096A900E086E5C
:1013300062EC2CF00001D26F096A8F0E086E62EC2D
:101340002CF00001D46FD36BD251D3258A6F000EDD
:10135000D4218B6F33EF0FF04F6633EF0FF0829A8B
:10136000000E82BA010EDB6F33D7010EDA6F4F0425
:1013700028E1828C000E82BC010EDB6F010EDC6F57
:10138000096A600E086E62EC2CF00001D26FD2A5E3
:1013900033EF0FF0096A920E086E62EC2CF0000138
:1013A000D26F096A910E086E62EC2CF00001D46FC6
:1013B000D36BD251D3258C6F000ED4218D6F33EFB8
:1013C0000FF04F6633EF0FF0829C000E82BC010ECF
:1013D000DB6FFED6010EDA6F4F0428E1828E000E1D
:1013E00082BE010EDB6F010EDC6F096A610E086EB2
:1013F00062EC2CF00001D26FD2A533EF0FF0096A36
:10140000940E086E62EC2CF00001D26F096A930E04
:10141000086E62EC2CF00001D46FD36BD251D3254F
:101420008E6F000ED4218F6F33EF0FF04F6633EFC6
:101430000FF0829E000E82BE010EDB6FC9D6010E38
:10144000DA6F4F0428E18084000E80B4010EDB6F58
:10145000010EDC6F096A620E086E62EC2CF000016E
:10146000D26FD2A533EF0FF0096A960E086E62ECC8
:101470002CF00001D26F096A950E086E62EC2CF018
:101480000001D46FD36BD251D325906F000ED421BD
:10149000916F33EF0FF04F6633EF0FF08094000E33
:1014A00080B4010EDB6F94D6010EDA6F4F0428E191
:1014B0008082000E80B2010EDB6F010EDC6F096AC4
:1014C000630E086E62EC2CF00001D26FD2A533EFF0
:1014D0000FF0096A980E086E62EC2CF00001D26FD2
:1014E000096A970E086E62EC2CF00001D46FD36B82
:1014F000D251D325926F000ED421936F33EF0FF0AA
:101500004F6633EF0FF08092000E80B2010EDB6F5A
:101510005FD6010EDA6F4F0428E18080000E80B0A4
:10152000010EDB6F010EDC6F096A640E086E62EC5F
:101530002CF00001D26FD2A533EF0FF0096A9A0E9A
:10154000086E62EC2CF00001D26F096A990E086EE9
:1015500062EC2CF00001D46FD36BD251D325946F81
:10156000000ED421956F33EF0FF04F6633EF0FF07D
:101570008090000E80B0010EDB6F2AD6DD510E0A7E
:1015800001E1F2D5010A01E126D61F0A01E14ED69A
:10159000010A01E180D6030A01E1B2D6010A01E1A4
:1015A000E4D6070A01E116D7010A01E148D7030A88
:1015B00001E17AD7010AADE033EF0FF0170EDD65D8
:1015C000ABD2220EDD61A8D288D2D1EC2CF0430E32
:1015D0000001DD25086E096A000E09224FC00AF0DD
:1015E00096EC2AF0430E0001DD25086E096A000E14
:1015F000092262EC2CF00001DB6F4FA01CD081901F
:10160000DC6B6881096A730E086E62EC2CF00001D5
:10161000D26F096A730E086E62EC2CF00001D46F71
:10162000D36BD251D3250101006F0001000ED421EC
:101630000101016F06D0FE0E6817030E6917819035
:10164000DC6B4FB4A6D533EF0FF0D1EC2CF0430E8A
:101650000001DD25086E096A000E09224FC00AF05C
:1016600096EC2AF0430E0001DD25086E096A000E93
:10167000092262EC2CF00001DB6F4FA01CD081929C
:10168000DC6B6883096A740E086E62EC2CF0000152
:10169000D26F096A730E086E62EC2CF00001D46FF1
:1016A000D36BD251D3250101026F0001000ED4216A
:1016B0000101036F06D0FD0E6817030E69178192B2
:1016C000DC6B4FA4D0D3096A880E086E62EC2CF054
:1016D0000001D26F096A870E086E62EC2CF00001DF
:1016E000D46FD36BD251D325846F000ED421856F74
:1016F000BAD3D1EC2CF0430E0001DD25086E096A47
:10170000000E09224FC00AF096EC2AF0430E0001A9
:10171000DD25086E096A000E092262EC2CF000013A
:10172000DB6F4FA01CD08296DC6B6885096A780E4F
:10173000086E62EC2CF00001D26F096A770E086E19
:1017400062EC2CF00001D46FD36BD251D325010190
:10175000046F0001000ED4210101056F06D0FB0EBD
:101760006817030E69178296DC6B4FB474D57BD370
:10177000D1EC2CF0430E0001DD25086E096A000E45
:1017800009224FC00AF096EC2AF0430E0001DD2535
:10179000086E096A000E092262EC2CF00001DB6F72
:1017A0004FA01CD08298DC6B6887096A7A0E086E9D
:1017B00062EC2CF00001D26F096A790E086E62ECBF
:1017C0002CF00001D46FD36BD251D3250101066FE9
:1017D0000001000ED4210101076F06D0F70E681733
:1017E000030E69178298DC6B4FB46AD53CD3D1ECF9
:1017F0002CF0430E0001DD25086E096A000E092257
:101800004FC00AF096EC2AF0430E0001DD25086E69
:10181000096A000E092262EC2CF00001DB6F4FA474
:101820001CD0829ADC6B6889096A7C0E086E62ECB7
:101830002CF00001D26F096A7B0E086E62EC2CF06E
:101840000001D46FD36BD251D3250101086F000181
:10185000000ED4210101096F06D0EF0E6817030EA8
:101860006917829ADC6B4FB460D5FDD2D1EC2CF0B5
:10187000430E0001DD25086E096A000E09224FC0E3
:101880000AF096EC2AF0430E0001DD25086E096A85
:10189000000E092262EC2CF00001DB6F4FA01CD07F
:1018A000829CDC6B688B096A7E0E086E62EC2CF001
:1018B0000001D26F096A7D0E086E62EC2CF0000107
:1018C000D46FD36BD251D32501010A6F0001000EF2
:1018D000D42101010B6F06D0DF0E6817030E6917C4
:1018E000829CDC6B4FB456D5BED2D1EC2CF0430EAB
:1018F0000001DD25086E096A000E09224FC00AF0BA
:1019000096EC2AF0430E0001DD25086E096A000EF0
:10191000092262EC2CF00001DB6F4FA01CD0829EEC
:10192000DC6B688D096A800E086E62EC2CF0000199
:10193000D26F096A7F0E086E62EC2CF00001D46F42
:10194000D36BD251D32501010C6F0001000ED421BD
:1019500001010D6F06D0BF0E6817030E6917829E36
:10196000DC6B4FB44CD57FD2D1EC2CF0430E000190
:10197000DD25086E096A000E09224FC00AF096ECB8
:101980002AF0430E0001DD25086E096A000E0922C7
:1019900062EC2CF00001DB6F4FA01CD08094DC6B5C
:1019A000688F096A820E086E62EC2CF00001D26F1B
:1019B000096A810E086E62EC2CF00001D46FD36BC3
:1019C000D251D32501010E6F0001000ED421010177
:1019D0000F6F06D07F0E6817030E69178094DC6BBB
:1019E0004FB442D540D2D1EC2CF0430E0001DD259E
:1019F000086E096A000E09224FC00AF096EC2AF020
:101A0000430E0001DD25086E096A000E092262EC12
:101A10002CF00001DB6F4FA01CD08092DC6B698141
:101A2000096A840E086E62EC2CF00001D26F096A1C
:101A3000830E086E62EC2CF00001D46FD36BD25190
:101A4000D3250101106F0001000ED4210101116F97
:101A500004D0020E69178092DC6B4FB43AD503D2E2
:101A6000D1EC2CF0430E0001DD25086E096A000E52
:101A700009224FC00AF096EC2AF0430E0001DD2542
:101A8000086E096A000E092262EC2CF00001DB6F7F
:101A90004FA01CD08090DC6B6983096A860E086EAB
:101AA00062EC2CF00001D26F096A850E086E62ECC0
:101AB0002CF00001D46FD36BD251D3250101126FEA
:101AC0000001000ED4210101136F04D0010E69172B
:101AD0008090DC6B4FB432D5C6D1DD51180A01E1DC
:101AE00074D5010A01E1B1D5030A01E102D6010A68
:101AF00001E13ED6070A01E17AD6010A01E1B6D634
:101B0000030A01E1F2D6010A01E12ED73F0A01E101
:101B10006AD7010AA5E0A7D1210EDD65A4D1300E58
:101B2000DD61A1D1C6EF07F05204531001E07AD174
:101B3000140EDD612FD1D1EC2CF0730E0001DD25E8
:101B4000086E096A000E09224FC00AF096EC2AF0CE
:101B5000730E0001DD25086E096A000E092262EC91
:101B60002CF00001DB6FFAD0096A740E086E62EC8B
:101B70002CF00001D26F096A730E086E62EC2CF033
:101B80000001D46FD36BD251D3250101006F000146
:101B9000000ED4210101016F66D1096A760E086E2C
:101BA00062EC2CF00001D26F096A750E086E62ECCF
:101BB0002CF00001D46FD36BD251D3250101026FF9
:101BC0000001000ED4210101036F4DD1096A780E86
:101BD000086E62EC2CF00001D26F096A770E086E75
:101BE00062EC2CF00001D46FD36BD251D3250101EC
:101BF000046F0001000ED4210101056F34D1096A80
:101C00007A0E086E62EC2CF00001D26F096A790E30
:101C1000086E62EC2CF00001D46FD36BD251D32547
:101C20000101066F0001000ED4210101076F1BD1D5
:101C3000096A7C0E086E62EC2CF00001D26F096A12
:101C40007B0E086E62EC2CF00001D46FD36BD25186
:101C5000D3250101086F0001000ED4210101096F95
:101C600002D1096A7E0E086E62EC2CF00001D26F80
:101C7000096A7D0E086E62EC2CF00001D46FD36B04
:101C8000D251D32501010A6F0001000ED4210101B8
:101C90000B6FE9D0096A800E086E62EC2CF000012F
:101CA000D26F096A7F0E086E62EC2CF00001D46FCF
:101CB000D36BD251D32501010C6F0001000ED4214A
:101CC00001010D6FD0D0096A820E086E62EC2CF013
:101CD0000001D26F096A810E086E62EC2CF00001DF
:101CE000D46FD36BD251D32501010E6F0001000ECA
:101CF000D42101010F6FB7D0096A840E086E62EC1F
:101D00002CF00001D26F096A830E086E62EC2CF091
:101D10000001D46FD36BD251D3250101106F0001A4
:101D2000000ED4210101116F9ED0096A860E086E43
:101D300062EC2CF00001D26F096A850E086E62EC2D
:101D40002CF00001D46FD36BD251D3250101126F57
:101D50000001000ED4210101136F85D0DD51010A6D
:101D600001E102D7020A01E118D7060A01E12ED7E4
:101D7000020A01E144D70E0A01E15AD7020A01E141
:101D800070D7060A87E0020A9EE01E0AB5E0020A42
:101D9000CCE069D0130EDD6566D0280EDD6163D01E
:101DA000D1EC2CF0730E0001DD25086E096A000EDF
:101DB00009224FC00AF096EC2AF0730E0001DD25CF
:101DC000086E096A000E092262EC2CF00001DB6F3C
:101DD000DD51150A02E1C9EF08F0020A02E100EF45
:101DE00009F00E0A02E12BEF09F0020A02E160EFAE
:101DF00009F0060A02E195EF09F0020A02E1CAEFD2
:101E000009F03E0A02E1FFEF09F0020A02E134EFB5
:101E10000AF0060A02E169EF0AF0020A02E19EEF07
:101E20000AF021D05250020A53101DE1400EDD612C
:101E30001AD0D1EC2CF09B0E0001DD25086E096A4A
:101E4000000E09224FC00AF096EC2AF01EEC16F0A4
:101E50009B0E0001DD25086E096A000E092262EC66
:101E60002CF00001DB6F0001DA5121E0430EDD258B
:101E7000086E096A000E092262EC2CF00001D96F8D
:101E8000DC510BE0D9A713D0140ED06F030ED16F25
:101E9000DD51F20F25EC2AF00AD0D9A908D0140E92
:101EA000D06F040ED16FDD51F20F25EC2AF0DB511B
:101EB0001200FC6B096A500E086E62EC2CF00001F7
:101EC000D26F096A4F0E086E62EC2CF00001D46FDD
:101ED000D36BD251D325F66F000ED421F76FFE6B72
:101EE000090EFE6501D08CD2FEC0D2F0010ED36F78
:101EF000D46BD22B03D0D890D337D437D22FFBD783
:101F0000F651D317F751D417D451D31101E1E4D0CE
:101F1000650EFE25086E096A000E092262EC2CF09F
:101F20000001FD6FFDAF69D232D0000E81B0010E0D
:101F3000FB6F41D0000E81B2010EFB6F3CD0000E52
:101F400082B6010EFB6F37D0000E82B8010EFB6F18
:101F500032D0000E82BA010EFB6F2DD0000E82BC73
:101F6000010EFB6F28D0000E82BE010EFB6F23D046
:101F7000000E80B4010EFB6F1ED0000E80B2010E69
:101F8000FB6F19D0000E80B0010EFB6F14D0FE5114
:101F9000CCE0010ACFE0030AD2E0010AD5E0070A4B
:101FA000D8E0010ADBE0030ADEE0010AE1E00F0A03
:101FB000E4E0010AE7E0FDA126D0FB5124E0FEC0E9
:101FC000D2F0010ED36FD46BD22B03D0D890D3377D
:101FD000D437D22FFBD76A51D3176B51D417D451B2
:101FE000D31111E1FDA508D01E0ED06F050ED16FE3
:101FF000FE5125EC2AF007D0140ED06F030ED16FDE
:10200000FE5125EC2AF0FDB3FB6724D0FEC0D2F0D0
:10201000010ED36FD46BD22B03D0D890D337D437E3
:10202000D22FFBD76A51D3176B51D417D451D31188
:1020300011E0FDA508D01E0ED06F060ED16FFE5127
:1020400025EC2AF007D0140ED06F040ED16FFE518C
:1020500025EC2AF0FDA91FD0FB511DE0FEC0D2F0F7
:10206000010ED36FD46BD22B03D0D890D337D43793
:10207000D22FFBD76A51D3176B51D417D451D31138
:1020800002E0FDAB08D0010ED06F020ED16FFE5101
:1020900025EC2AF07883FDB7FB67AFD1FEC0D2F004
:1020A000010ED36FD46BD22B03D0D890D337D43753
:1020B000D22FFBD76A51D3176B51D417D451D311F8
:1020C00002E1FDAB9AD1010ED06F020ED16FFE512D
:1020D00025EC2AF0788591D15B0EFE25086E096A01
:1020E000000E092262EC2CF00001FD6FFDAF85D1DE
:1020F000FE51020DF350820FD96EDA6ADE50DD1008
:1021000039E0FE51020DF350820FD96EDA6ADE0615
:10211000000EDD5AFE51020DF350820FD96EDA6ABD
:10212000DE50DD1048E15B0EFE25086E096A000EE8
:10213000092262EC2CF00001D26FD2A53CD0FEC087
:10214000D2F0010ED36FD22B02D0D890D337D22F3A
:10215000FCD7D3514F6E000E57EC27F00001FDA3C2
:1021600007D0010ED06F020ED16FFE5125EC2AF080
:10217000788121D0870EFE25086E096A000E09229B
:1021800062EC2CF00001D36FD26B880EFE25086E36
:10219000096A000E092262EC2CF00001D227000E21
:1021A000D323FE51020DF350820FD96EDA6AD2C0EA
:1021B000DEFFD3C0DDFFFEC0D2F0010ED36FD46BC3
:1021C000D22B03D0D890D337D437D22FFBD7685136
:1021D000D3176951D417D451D31101E10ED1FE5157
:1021E000020D000EF324D96E010EF420DA6EDE50DB
:1021F000DD1001E1DAD00001FE51020D000EF324E2
:10220000D96E010EF420DA6EDE06000EDD5AFE51A4
:10221000020D000EF324D96E010EF420DA6EDE50AA
:10222000DD1040E0EAD081A002D0819037D08180DB
:10223000010EFC6F4CD081A202D081922FD08182FE
:10224000F7D782A602D0829629D08286F1D782A8BB
:1022500002D0829823D08288EBD782AA02D0829AB9
:102260001DD0828AE5D782AC02D0829C17D0828CA6
:10227000DFD782AE02D0829E11D0828ED9D780A4C1
:1022800002D080940BD08084D3D780A202D08092D9
:1022900005D08082CDD780A003D08090FC6B17D072
:1022A0008080C6D70001FE51BEE0010AC4E0030AE7
:1022B000C8E0010ACCE0070AD0E0010AD4E0030A32
:1022C000D8E0010ADCE00F0AE0E0010AE4E0FE5198
:1022D000020D730EF324086E000EF420096E62ECFA
:1022E0002CF00001D36FD26BFE51020D730EF3245C
:1022F000086E000EF420096E62EC2CF00001D2276B
:10230000000ED323FE51020D000EF324D96E010EF0
:10231000F420DA6ED2C0DEFFD3C0DDFFFC513BE01B
:102320005B0EFE25086E096A000E092262EC2CF095
:102330000001D26FD2A525D0FE51020D870EF324E5
:10234000086E000EF420096E62EC2CF00001D36FD1
:10235000D26BFE51020D880EF324086E000EF4209D
:10236000096E62EC2CF00001D227000ED323FE513F
:10237000020DF350820FD96EDA6AD2C0DEFFD3C0ED
:10238000DDFFFDA73AD0140ED06F030ED16FFE51C2
:1023900025EC2AF032D0FDA930D0140ED06F040EF7
:1023A000D16FFE5125EC2AF028D00001FE51020D1C
:1023B000730EF324086E000EF420096E62EC2CF00C
:1023C0000001D36FD26BFE51020D740EF324086E20
:1023D000000EF420096E62EC2CF00001D227000EF2
:1023E000D323FE51020D000EF324D96E010EF4200A
:1023F000DA6ED2C0DEFFD3C0DDFF0001FE2B70D548
:10240000096A700E086E62EC2CF000094FE00001C2
:10241000F86B8030010BD26F8050010B020DF3502E
:10242000D225F96F8150010BD26F8130010B020D63
:10243000F3CFD3F08230E832E832010B040DF3CF52
:10244000D4F08238010B080DF3CFD5F08238E83292
:10245000010B100DF3CFD6F08238E832E832010BD1
:10246000200DF3CFD7F08234E836010B400DF3CFC7
:10247000D8F08030E832010B800DF350D825D725F5
:10248000D625D525D425D325D225FA6F406A0F0E3F
:102490003F6E010E416E7DC042F0030E436E446EEE
:1024A000000E466EF80E456E83EC28F08150010B4D
:1024B0000001D26F8130010BD36FD890D335D46F28
:1024C000D56BD5378230E832E832010BD66FD76B47
:1024D000D890D637D737D890D637D7378238010B30
:1024E000D86FD96BD890D837D937D890D837D93753
:1024F000D890D837D9378238E832010BDA6FDB6BE6
:10250000DA3BDB3BF00EDB17DA510F0BDB13F00E7F
:10251000DA178238E832E832010BDC6FDD6B050E2A
:10252000D890DC37DD37E82EFBD78234E836010B54
:10253000DE6FDF6B060ED890DE37DF37E82EFBD775
:102540008030E832010BE06FE16B070ED890E03786
:10255000E137E82EFBD78030010BE36FE26B805050
:10256000010BE46FE56B090ED890E437E537E82EF0
:10257000FBD7E251E425E66FE351E521E76FE05137
:10258000E625E86FE151E721E96FDE51E825EA6FC2
:10259000DF51E921EB6FDC51EA25EC6FDD51EB21D6
:1025A000ED6FDA51EC25EE6FDB51ED21EF6FD85175
:1025B000EE25F06FD951EF21F16FD651F025F26F72
:1025C000D751F121F36FD451F225F46FD551F32196
:1025D000F56FD251F4256A6F000EF5216B6F120072
:1025E00099519811D8A41200F7D212005DEF2BF088
:1025F000CFEF2AF004EF2BF096510F0B020AD8A46C
:1026000012007D5120EE9CF0DF621200800E9D6171
:1026100011D09D5182EC20F00001AB6F9DC0AAF05B
:10262000030EA56F820EA46FA66BA76B0A0EA86F90
:10263000EAEF2AF09D51AAEC1FF0EED796510F0B4E
:10264000030AD8A412007D5120EE9CF0DF62120034
:10265000800E9D6106D09EC04FF09D5191EC07F019
:10266000DCD79EC048F09D5155EC25F0D5D77D5163
:1026700020EE9CF0DF621200000E98EC2CF00001BE
:102680009E19D8A41200030E98EC2CF000019F199B
:10269000D8A41200050E98EC2CF00001A019D8A4C3
:1026A0001200070E98EC2CF00001A119D8A412001A
:1026B0005350A219D8A41200525020EEA3F0DF62AA
:1026C00012009D51F1EF2BF0000E98EC2CF0000160
:1026D0009D1973E1010E98EC2CF000019E196DE13B
:1026E000020E98EC2CF000019F1967E1030E98ECA4
:1026F0002CF00001A01961E17A895FD0040E98ECFA
:102700002CF000019D1959E1050E98EC2CF0000108
:102710009E1953E1060E98EC2CF000019F194DE133
:10272000070E98EC2CF00001A01947E17A8B45D0F8
:10273000080E98EC2CF000019D193FE1090E98EC71
:102740002CF000019E1939E10A0E98EC2CF00001E2
:102750009F1933E10B0E98EC2CF00001A0192DE12C
:102760007A8D2BD00C0E98EC2CF000019D1925E1F0
:102770000D0E98EC2CF000019E191FE10E0E98EC46
:102780002CF000019F1919E10F0E98EC2CF00001BC
:10279000A01913E17A8F11D07A6B0FD09C390F0BEF
:1027A000DF6FE06BE051F8E1DF518EE0010AA6E057
:1027B000030ABEE0010AD6E0EFD77A51F00BF00A27
:1027C000D8B4D2EC29F012007D5120EE9CF0DF62EB
:1027D0001200ED6B9DC0ECF09EC0EFF0FB6B48D09B
:1027E000070E086EFB5172EC2BF00001DF6FDF511A
:1027F000AB0FD96EDA6AEC51FB256EEC2CF0DF6E74
:10280000070E086E0001FB5172EC2BF0060A0BE07C
:10281000FF0E0001EF25DF6FE06BFF0EE023FB51A1
:10282000DF19E01124E1070E086E0001FB5172EC84
:102830002BF0060A03E1070E000109D0070E086E0F
:102840000001FB5172EC2BF00001DF6FDF29EE6F0E
:10285000EE51810FA46F070EA56FA66BA76B1A0E22
:10286000A86FEDC0AAF0EAEC2AF00001ED2BFB2BDB
:10287000EF51FB5DD8B01200B3D77D5120EE9CF034
:10288000DF6212009DC0F0F09651FE0F070BF16F52
:10289000F66B16D0F6519E0FD96EDA6ADF50DE6FF6
:1028A000F051F625E2EC2BF00001F651AB0FD96E9A
:1028B000DA6AF051F6256EEC2CF0DF6E0001F62B93
:1028C000F151F65DE7E3070EA56FA66BA76B1A0E35
:1028D000A86FAA6BF151810FA46FEAEF2AF07D5126
:1028E00020EE9CF0DF6212009D5182EC20F000018E
:1028F000DF6FDF294F6E9D5191EC07F08ED67D5131
:1029000020EE9CF0DF6212009D5182EC20F000016D
:10291000DF6FDF054F6E9D5191EC07F07ED69C5125
:102920007D1903E09C29D8A41200F56B030EA56F56
:10293000880EA46FA66BA76B200EA86FFA6BFAC067
:10294000AAF0010EFC6FFC51AA0FD96EDA6AF5519C
:102950000F0898EC2CF0DF6E0001F52B100EF565DA
:1029600001D004D0FC2B070EFC65EDD7100EF565E9
:1029700001D007D0EAEC2AF00001FA2B020EFA652A
:10298000DED7FC6BFC513AEC2CF0000908E0FC515E
:10299000AD0FD96EDA6AFC513AEC2CF005D0FC513F
:1029A000AD0FD96EDA6A000EDF6EFC2B040EFC65EB
:1029B000E9D7EAEC2AF0050E0001F56F030EFA6F75
:1029C000FAC0AAF0010EFC6FFC51AA0FD96EDA6AA8
:1029D000F5513AEC2CF0DF6EF52BFC2B070EFC6565
:1029E000F3D7EAEC2AF00001FA2B060EFA65E8D7D5
:1029F000060C7D5120EE9CF0DF621200030EA56FE5
:102A0000870EA46FA66BA76B220EA86FAA0E9EEC72
:102A100029F0EAEF2AF07D5120EE9CF0DF621200EF
:102A2000F76B96C0DFF00F0EDF17040EDF5D12E3C9
:102A3000A0C0F8F0F96BF951F81103E1010EF96F3C
:102A4000F86B010EF85D010EF95907E3010EF96FFD
:102A5000000E02D0F96B010EF86F52C0E6F053C0C1
:102A6000E7F09E519DC0DFF0E06BDFC0E0F0DF6B70
:102A7000DF11526EE051536E070EA56FA66BA76B68
:102A8000270EA86FAA6B9DC0ABF09EC0ACF0F751AB
:102A9000F85DDF6F000EF959E06F040EDF5D000E88
:102AA000E05902E3040E02D0F751F85DF26FF251E3
:102AB000840FA46F9F51F725AD6FF36B0CD0F351CA
:102AC000AE0FD96EDA6A9F51F725F3256EEC2CF024
:102AD000DF6E0001F32BF251F35DF1E354C0E8F037
:102AE00055C0E9F0EAEC2AF0020E0001E825DF6F9C
:102AF000000EE921E06FDF51545CE0515558F4E3DA
:102B0000F251F727AA2BF751DF6FE06BF851DF5D29
:102B1000F951E059BCE3E6C052F0E7C053F01200AF
:102B20007D5120EE9CF0DF62120052C0EAF053C0EB
:102B3000EBF09E519DC0DFF0E06BDFC0E0F0DF6B9B
:102B4000DF11526EE051536E9FC0F4F014D09F51CC
:102B5000A008F425D96EDA6ADF50DE6FF451E2EC9A
:102B60002BF00001DF6F9F51AE08F425D96EDA6AB1
:102B7000DFC0DFFFF42B96510F0BDF6FE06B9F512F
:102B8000DF27000EE023FC0EDF25E16FFF0EE021C2
:102B9000E26FF451E36FE46BE451800AE56FE151B9
:102BA000E35DE251800AE559D2E3EAC052F0EBC09E
:102BB00053F0070EA56F96510F0B800FA46FA66BF5
:102BC000A76B270EA86FAA6B9DC0ABF09EC0ACF0A0
:102BD0009FC0ADF0EAEF2AF09A51010A01E105D554
:102BE000030A01E103D5040A01E102D50E0A01E15D
:102BF00001D5010A01E100D5020A01E11FD5070A4A
:102C000001E135D51B0A01E1C9D50F0A01E1DCD587
:102C1000010A01E132D6040A01E161D6030A01E1A9
:102C20006ED6010A01E17BD63E0A01E1E2D6040A32
:102C300001E1F1D6030AD8A4120072D736683768CA
:102C4000386839683A6A3B6A3C6A3D6A436A43506D
:102C5000126E136AD89012361336D8901236133685
:102C6000D89012361336440E1224086E000E13202C
:102C7000096E62EC2CF0146E14AEE8D14350126E63
:102C8000136AD89012361336D89012361336D8906D
:102C900012361336470E1224086E000E1320096EEA
:102CA00062EC2CF0146E14C015F0166A176A186ADC
:102CB00017C018F016C017F015C016F0156A43506B
:102CC000196E1A6AD89019361A36D89019361A36EB
:102CD000D89019361A36450E1924086E000E1A209F
:102CE000096E62EC2CF01B6E1BC01CF01D6A1E6A84
:102CF0001F6A1DC01FF01CC01EF01D6A1C6A4350D5
:102D0000206E216AD89020362136D8902036213680
:102D1000D89020362136440E2024086E000E212043
:102D2000096E62EC2CF0226E020E221622C023F0F5
:102D3000246A256A266A170ED8902336243625364B
:102D40002636E82EF9D71C502310276E1D5024106C
:102D5000286E1E502510296E1F5026102A6E155001
:102D600027102B6E165028102C6E175029102D6E20
:102D700018502A102E6EFF0E2B10316E2C50326E12
:102D80002D50336E2E50346E4350126E136AD8900D
:102D900012361336D89012361336D89012361336B0
:102DA000480E1224086E000E1320096E62EC2CF0FF
:102DB000146E14C015F0166A176A186A17C018F056
:102DC00016C017F015C016F0156A4350196E1A6A2E
:102DD000D89019361A36D89019361A36D89019362E
:102DE0001A36460E1924086E000E1A20096E62EC7F
:102DF0002CF01B6E1BC01CF01D6A1E6A1F6A1DC0D2
:102E00001FF01CC01EF01D6A1C6A4350206E216A10
:102E1000D89020362136D89020362136D8902036CA
:102E20002136440E2024086E000E2120096E62EC2B
:102E30002CF0226E010E221622C023F0246A256A8D
:102E4000266A23C026F0256A246A236A1C502310B0
:102E5000276E1D502410286E1E502510296E1F50FD
:102E600026102A6E155027102B6E165028102C6E27
:102E7000175029102D6E18502A102E6E43502F6EA9
:102E8000306AD8902F363036D8902F363036D890DA
:102E90002F363036430E2F24086E000E3020096E78
:102EA00062EC2CF02B103E6E2C503F6E2D50406E7D
:102EB0002E50416E436608D03EC03AF03FC03BF012
:102EC00040C03CF041C03DF031503616325037160C
:102ED0003350381634503916426A42503EC012F010
:102EE0003FC013F040C014F041C015F0E82A05D0EF
:102EF000D8901532143213321232E82EF9D7010E5F
:102F0000121642503AC016F03BC017F03CC018F001
:102F10003DC019F0E82A05D0D8901932183217327E
:102F20001632E82EF9D71650010B12181DE042C0D8
:102F300012F0010E136E146A122A03D0D8901336C1
:102F40001436122EFBD7131C156E141C166E176A3E
:102F500016BE17061750186E15503616165037162F
:102F60001750381618503916422A1F0E4264B5D72A
:102F70003E503A163F503B1640503C1641503D16CD
:102F800043504FE0426A43C012F04350136E146A3C
:102F9000D89013361436D89013361436D89013368A
:102FA0001436430E1324086E000E1420096E62ECD2
:102FB0002CF0156E122A02D0D8901532122EFCD7A2
:102FC000010E151643C016F035C017F0162A02D0B0
:102FD000D8901732162EFCD71750010B15181DE08C
:102FE00043C012F0010E136E146A122A03D0D89057
:102FF00013361436122EFBD713C015F014C016F07A
:10300000000E16BEFF0E176E186E155036161650AF
:1030100037161750381618503916422A070E4264D0
:10302000B2D74350126E136AD89012361336D89026
:1030300012361336D89012361336430E1224086E09
:10304000000E1320096E62EC2CF0356E432A070E39
:103050004364FDD5800E56EC2CF00E010E0E096E69
:10306000FC0E086E36C00AF037C00BF038C00CF00A
:1030700039C00DF0010E0E6E7DEC23F00E0146837B
:103080000E0E096EE40E086E3AC00AF03BC00BF05B
:103090003CC00CF03DC00DF0010E0E6E7DEC23F037
:1030A000000E56EF2CF0D36B090E4F6401D0090CC3
:1030B0005B0E4F24086E096A000E092262EC2CF0A8
:1030C0000001D26F096A720E086E62EC2CF00001EA
:1030D000D46FD2AF1200DED1D46726D081805B0ED0
:1030E0004F24086E096A000E092262EC2CF0506E23
:1030F00050A608D0140E0001D06F030ED16F000E41
:1031000025EC2AF08190096A5B0E086E62EC2CF0C7
:10311000506E50A8DBD1140E0001D06F040ED16F99
:10312000000E25EC2AF0D2D181B002D0010ED36F6F
:103130008180D4C0B2F0CAD1D46726D081825B0E20
:103140004F24086E096A000E092262EC2CF0506EC2
:1031500050A608D0140E0001D06F030ED16F010EDF
:1031600025EC2AF08192096A5C0E086E62EC2CF064
:10317000506E50A8ABD1140E0001D06F040ED16F69
:10318000010E25EC2AF0A2D181B202D0010ED36F3C
:103190008182D4C0B3F09AD1D46726D082865B0EE8
:1031A0004F24086E096A000E092262EC2CF0506E62
:1031B00050A608D0140E0001D06F030ED16F020E7E
:1031C00025EC2AF08296096A5D0E086E62EC2CF0FE
:1031D000506E50A87BD1140E0001D06F040ED16F39
:1031E000020E25EC2AF072D182B602D0010ED36F06
:1031F0008286D4C0B4F06AD1D46725D082885B0EB1
:103200004F24086E096A000E092262EC2CF0506E01
:1032100050A607D0140E0001D06F030ED16F25EC1D
:103220002AF08298096A5E0E086E62EC2CF0506EED
:1032300050A84CD1140E0001D06F040ED16F030EB4
:1032400025EC2AF043D182B802D0010ED36F8288D8
:10325000D4C0B5F03BD1D46725D0828A5B0E4F2411
:10326000086E096A000E092262EC2CF0506E50A61E
:1032700008D0140E0001D06F030ED16F040E25ECA0
:103280002AF0829A096A5F0E086E62EC2CF0506E8A
:1032900050A81CD1140E0001D06F040ED16F25EC84
:1032A0002AF014D182BA02D0010ED36F828AD4C020
:1032B000B6F00CD1D46726D0828C5B0E4F24086EFA
:1032C000096A000E092262EC2CF0506E50A608D05C
:1032D000140E0001D06F030ED16F050E25EC2AF0FD
:1032E000829C096A600E086E62EC2CF0506E50A849
:1032F000EDD0140E0001D06F040ED16F050E25EC39
:103300002AF0E4D082BC02D0010ED36F828CD4C0EC
:10331000B7F0DCD0D46726D0828E5B0E4F24086EC7
:10332000096A000E092262EC2CF0506E50A608D0FB
:10333000140E0001D06F030ED16F060E25EC2AF09B
:10334000829E096A610E086E62EC2CF0506E50A8E5
:10335000BDD0140E0001D06F040ED16F060E25EC07
:103360002AF0B4D082BE02D0010ED36F828ED4C0B8
:10337000B8F0ACD0D46726D080845B0E4F24086EA2
:10338000096A000E092262EC2CF0506E50A608D09B
:10339000140E0001D06F030ED16F070E25EC2AF03A
:1033A0008094096A620E086E62EC2CF0506E50A890
:1033B0008DD0140E0001D06F040ED16F070E25ECD6
:1033C0002AF084D080B402D0010ED36F8084D4C0A0
:1033D000B9F07CD0D46726D080825B0E4F24086E73
:1033E000096A000E092262EC2CF0506E50A608D03B
:1033F000140E0001D06F030ED16F080E25EC2AF0D9
:103400008092096A630E086E62EC2CF0506E50A830
:103410005DD0140E0001D06F040ED16F080E25ECA4
:103420002AF054D080B202D0010ED36F8082D4C073
:10343000BAF04CD0D46726D080805B0E4F24086E43
:10344000096A000E092262EC2CF0506E50A608D0DA
:10345000140E0001D06F030ED16F090E25EC2AF077
:103460008090096A640E086E62EC2CF0506E50A8D1
:103470002DD0140E0001D06F040ED16F090E25EC73
:103480002AF024D080B002D0010ED36F8080D4C047
:10349000BBF01CD04F5001E11FD6010A01E14CD610
:1034A000030A01E179D6010A01E1A6D6070A01E182
:1034B000D2D6010A01E1FED6030A01E12BD7010AA7
:1034C00001E158D70F0A86E0010AB4E00001D351A8
:1034D000D8A4D2A712005B0E4F24086E096A000E12
:1034E000092262EC2CF0506E50A61200140E00015E
:1034F000D06F030ED16F4F5025EF2AF00001646B9F
:10350000656B666B676B776B766B746B686B696BFF
:103510000101010E096E000E086E0B6A0A6A0D6A3F
:10352000140E0C6E1CEC2BF00001000E096E820EC6
:10353000086E0B6A0A6A0D6A140E0C6E1CEC2BF0F6
:10354000356A5B0E3524086E096A000E092262ECAA
:103550002CF0106E10A033D035C010F0010E116E9B
:10356000126A102A03D0D89011361236102EFBD7CB
:1035700011500001681312506913730E3524086E40
:10358000096A000E092262EC2CF0116E106A740EAA
:103590003524086E096A000E092262EC2CF0102610
:1035A000000E11223550020D0101000EF324D96ED8
:1035B000010EF420DA6E10C0DEFF11C0DDFF5B0EDD
:1035C0003524086E096A000E092262EC2CF0106E98
:1035D00010A420D0730E3524086E096A000E09224B
:1035E00062EC2CF0116E106A740E3524086E096AB4
:1035F000000E092262EC2CF01026000E112235502C
:10360000020DF3500001820FD96EDA6A10C0DEFF9E
:1036100011C0DDFF352A090E356493D70001000E75
:10362000096EB20E086E0B6A0A6A0D6A0A0E0C6EFB
:103630001CEC2BF0096A4F0E086E62EC2CF0346E15
:103640003450030B926E096A500E086E62EC2CF037
:10365000346E3450030B0809936E3438E842070B7C
:10366000040B346E34509212096A6F0E086E62ECCD
:103670002CF0106E10BEF19E096A500E086E62ECBE
:103680002CF0106ED8901034F80B346E34500109C1
:10369000946E0101010E096E140E086E0B6A0A6A1F
:1036A0000D6A0A0E0C6E1CEC2BF00101010E096E66
:1036B0001E0E086E0B6A0A6A0D6A0A0E0C6E1CEC6E
:1036C0002BF00001736B8150010B106E8130010BE8
:1036D000116ED8901134126E136A13368230E832AC
:1036E000E832010B146E156AD89014361536D8904E
:1036F000143615368238010B166E176AD8901636B6
:103700001736D89016361736D890163617368238B0
:10371000E832010B186E196A183A193AF00E1916A8
:1037200018500F0B1912F00E18168238E832E832D2
:10373000010B1A6E1B6A050ED8901A361B36E82E3E
:10374000FBD78234E836010B1C6E1D6A060ED8903A
:103750001C361D36E82EFBD78030E832010B1E6E7A
:103760001F6A070ED8901E361F36E82EFBD7803012
:10377000010B216E206A8050010B226E236A090E14
:10378000D89022362336E82EFBD720502224246EF0
:1037900021502320256E1E502424266E1F502520E4
:1037A000276E1C502624286E1D502720296E1A5083
:1037B00028242A6E1B5029202B6E18502A242C6E88
:1037C00019502B202D6E16502C242E6E17502D20A4
:1037D0002F6E14502E24306E15502F20316E125043
:1037E0003024326E13503120336E105032246A6F01
:1037F000000E33206B6F120099519811D8B412004B
:10380000E96BE951D76FD86BD890D737D837D890B4
:10381000D737D837D890D737D8379C0ED725086EEA
:10382000000ED821096E62EC2CF00001E86FE8AFC1
:1038300059D1E8AD18D0E951D76FD86BD890D737A8
:10384000D837D890D737D837D890D737D8379B0EB6
:10385000D725086E000ED821096E62EC2CF000010D
:103860009B1901E03FD1E8A90BD09D2909E0096A25
:10387000430E086E62EC2CF000019D1901E032D17C
:10388000E8A70BD09E2909E0096A440E086E62EC95
:103890002CF000019E1901E025D1E951080D9E0E82
:1038A000F324086E000EF420096E62EC2CF0000187
:1038B000D76FE851010BD96FD86BD751D825DA6F84
:1038C000000ED921DB6FE951080D9D0EF324086E1F
:1038D000000EF420096E62EC2CF00001D76FE85165
:1038E000020BD86FD96B070ED890D837D937E82E8E
:1038F000FBD7D751D825DC6F000ED921DD6FE951F8
:10390000080DA00EF324086E000EF420096E62EC80
:103910002CF00001DE6FE951080D9F0EF324086EB4
:10392000000EF420096E62EC2CF00001DF6F20EE37
:1039300098F0DECFD7F0DDCFD8F0DA51D71BDB51CE
:10394000D81BDC51D717DD51D817D851D71101E05A
:10395000C9D09A51DE19DF1501E1A4D0C3D000010E
:10396000E951080DA20EF324086E000EF420096E32
:1039700062EC2CF00001E06FE0C04FF0E851C2ECC7
:1039800024F0B0D00001E951080DA20EF324086E16
:10399000000EF420096E62EC2CF00001E16FE1C032
:1039A0004FF0E85157EC27F09DD00001E951080D88
:1039B000A20EF324086E000EF420096E62EC2CF0C7
:1039C0000001E26FE2C04FF0E85125EC24F08AD00C
:1039D0000001E951080DA20EF324086E000EF42038
:1039E000096E62EC2CF00001E36FE3C04FF0E85188
:1039F000DDEC25F077D00001E951080DA20EF3248B
:103A0000086E000EF420096E62EC2CF00001E46FE9
:103A1000E4C04FF0E851C4EC27F064D00001E95154
:103A2000080DA20EF324086E000EF420096E62EC5D
:103A30002CF00001E56FE5C0D2F0E8511EEC2CF04F
:103A400051D00001E951080DA20EF324086E000EBA
:103A5000F420096E62EC2CF00001E66FE6C04FF036
:103A6000E851E0EC26F03ED00001E951080DA20E2D
:103A7000F324086E000EF420096E62EC2CF00001B5
:103A8000E76F450EE725086E096A000E092262EC11
:103A90002CF000019C1926E1E7C04FF0E85153ECEF
:103AA00018F020D0E951080DA10EF324086E000E85
:103AB000F420096E62EC2CF0000A14E0010A01E126
:103AC0004ED7030A01E15ED7010A01E16ED7070A6A
:103AD00001E17ED7010AB5E0030A8DE0010A9EE00C
:103AE0000F0AC2E00001E92B070EE9658AD6070C30
:103AF00073EC2AF0B3EC2AF07EEC1AF0D2EC29F049
:103B00001EEC16F00400C50E0001705D090E71591F
:103B100010E37E050EE0020E566E7D69D1EC2CF0AE
:103B2000096A010E086EFF0E0A6896EC2AF0D2ECC4
:103B300029F0966B32EC2BF0D6D07D2903E1010EF3
:103B40007E6FE1D0030E7E6F00EC2CF0DCD027EC12
:103B500028F0D9D096AF08D09951981103E1F0EC34
:103B600012F002D0FCEC1BF0000175AF1CD075C048
:103B700028F10F0E010128175B0E2825086E096A2F
:103B8000000E092262EC2CF00101296F29A909D04D
:103B9000140E0001D06F040ED16F75510F0B25EC80
:103BA0002AF00001756B0A0E605D000E6159000E6F
:103BB0006259000E635901E2A6D0606B616B626BC3
:103BC000636B096A500E086E62EC2CF00101286FDD
:103BD000096A4F0E086E62EC2CF001012C6F28511F
:103BE0002B6F73C028F1010E296F2A6B282B03D08D
:103BF000D89029372A37282FFBD72B5129172C513A
:103C00002A172A51291163E0650E00017325086EF9
:103C1000096A000E092262EC2CF00101286F28AD20
:103C200056D0650E00017325086E096A000E092240
:103C300062EC2CF00101286F28BF33D048D081B04E
:103C400003D060EC26F043D0140E00017325D96E2A
:103C5000DA6A010EDA22DF6A1E0E7325D96EDA6A7D
:103C6000010EDA22DF6A33D081A2EBD7EDD782A62C
:103C7000E8D7EAD782A8E5D7E7D782AAE2D7E4D780
:103C800082ACDFD7E1D782AEDCD7DED780A4D9D72C
:103C9000DBD780A2D6D7D8D780A0D3D7D5D7736BA0
:103CA00016D000017351CBE0010ADEE0030ADFE029
:103CB000010AE0E0070AE1E0010AE2E0030AE3E0CA
:103CC000010AE4E00F0AE5E0010AE6E0E8D70001B6
:103CD000732B090E736517D0736B15D0D4EC2CF0D1
:103CE00012D07E6B10D000017E5101E126D7010A6F
:103CF00001E12DD7030A01E127D7010A01E12AD703
:103D0000070AECE0EED7E90E0001645D030E655989
:103D1000000E6659000E67590CE3646B656B666BA9
:103D2000676B772BFCEC29F07E51030AD8B459EC71
:103D30000FF03B0E77650BD0776B762B3B0E7665DD
:103D400002D0766B742B170E746501D0746BD8ECAF
:103D50002CF0D8D6E8CF12F0726B7250C00B166EF2
:103D6000166633D060AE13D0779071AE06D0115086
:103D7000D96EDA6A000EDB86719E60A002D0728175
:103D800002D0000172910F0E196E600E1CD00F014F
:103D900030AF000C779271AC06D01150D96EDA6A50
:103DA000000EDB86719C3051070B0001726F020E12
:103DB000726105D01150D96EDA6A000EDB8E0F01E8
:103DC0000F0E196E300E186E5CD01650400A3EE190
:103DD00060AE04D00F0E196E600E36D00F0130AFFA
:103DE00004D00F0E196E300E2FD00E017DA580AFBE
:103DF00004D00E0E196E800E27D00E017DA790AF55
:103E000004D00E0E196E900E1FD00E017DA9A0AF2A
:103E100004D00E0E196EA00E17D00E017DABB0AF00
:103E200004D00E0E196EB00E0FD00E017DADC0AFD6
:103E300004D00E0E196EC00E07D00E017DAFD0AFAC
:103E4000000C0E0E196ED00E186E0AD071AE000C5A
:103E50006F50070B25EC29F008C018F009C019F0C5
:103E600018C0D9FF19C0DAFFDF501F0B0001726FB5
:103E7000779271AC06D01150D96EDA6A000EDB86EB
:103E8000719C18C013F019C014F01150D96EDA6A81
:103E9000DF6A20EE05F01850D9261950DA22DF50DB
:103EA000176E1050D96EDA6A17500F0BDF6E17AC11
:103EB00005D01150D96EDA6A000EDB8C20EE02F0CC
:103EC0001850D9261950DA22DF50176E17A608D0DD
:103ED0001150D96EDA6A000EDB8A010E176E01D01E
:103EE000176A1828086E000E1920096E12C00AF011
:103EF00017C00BF0CBEC22F0060E1826000E19228C
:103F00001050D96EDA6ADF50176E156A0DD018C0DE
:103F1000D9FF19C0DAFF0F50E16EE26ADFCFE7FF89
:103F2000184A192A0F2A152A1750155CF0E377AEA4
:103F300006D01150D96EDA6A000EDB88779E13C066
:103F4000D9FF14C0DAFF7F0EDF161650800AD8B4EE
:103F5000719E010CE8CF1CF01B6A1C50800A04E122
:103F600078C01BF0786BCCD01C50810A02E1010EA6
:103F700082D01C50820A02E1060E7DD01C50830ABA
:103F800003E179C01BF0BCD01C50940A03E1DEECC5
:103F90002CF071D01C50950A03E1DDEC2CF06BD0B5
:103FA0001C50960A03E1DCEC2CF065D0890E1C60F5
:103FB00005D01C507C0F8EEC2CF05DD0880E1C645C
:103FC00008D0910E1C6005D01C50770F84EC2CF0AB
:103FD00052D01C50910A03E17DC01BF091D01C50BF
:103FE000930A03E152C01BF08BD01C50920A02E1ED
:103FF000535041D01C50970A03E1DBEC2CF03BD02E
:104000001C50980A03E1DAEC2CF035D01C50990AC8
:1040100003E1D9EC2CF02FD0990E1C642ED09E0E0B
:104020001C602BD0C3EC2CF00BC014F00AC013F0B2
:1040300009C012F008C011F01C50660F196E19501B
:1040400003080C6ED8900C36D8900C36D8900C36ED
:104050000C5011C00DF012C00EF013C00FF014C0C0
:1040600010F0E82A05D0D89010320F320E320D32FF
:10407000E82EF9D730D01B6E43D09D0E1C642DD096
:10408000A20E1C602AD0BEEC2CF00BC018F00AC0A7
:1040900017F009C016F008C015F01C50620F1A6E18
:1040A0001A5003080C6ED8900C36D8900C36D89065
:1040B0000C360C5015C00DF016C00EF017C00FF0E6
:1040C00018C010F0E82A05D0D89010320F320E3206
:1040D0000D32E82EF9D70D50CED7CF0E1C6408D084
:1040E000E00E1C6005D01C50300F98EC2CF0C3D7AC
:1040F000DF0E1C6405D01C50200F3AEC2CF0BBD70F
:104100001B501200E8CF12F0116A5350521001E018
:10411000ADD0126606D0096A430E086E62EC2CF030
:10412000C3D0120406E1096A440E086E62EC2CF05A
:10413000BBD0010E12640CD00C0E126009D0430EDD
:104140001224086E096A000E092262EC2CF0ACD031
:1041500012500C0A08E19230010B0A6E9250010BCA
:10416000020DF35035D012500D0A34E19350010B7B
:104170000A6E9330010B020DF3CF0BF09430E8324E
:10418000E832010B040DF3CF0CF09438010B080D4D
:10419000F3CF0DF09438E832010B100DF3CF0EF091
:1041A0009438E832E832010B200DF3CF0FF094344D
:1041B000E836010B400DF3CF10F09230E832010BDE
:1041C000800DF35010240F240E240D240C240B24F6
:1041D0000A246AD00D0E126442D0180E12603FD02D
:1041E00028D0000E81B0010E5FD0000E81B2010E0A
:1041F0005BD0000E82B6010E57D0000E82B8010EC1
:1042000053D0000E82BA010E4FD0000E82BC010EB8
:104210004BD0000E82BE010E47D0000E80B4010EBE
:1042200043D0000E80B2010E3FD0000E80B0010ED0
:104230003BD012500E0AD5E0010AD7E01F0AD9E0A0
:10424000010ADBE0030ADDE0010ADFE0070AE1E042
:10425000010AE3E0030AE5E0010AE7E026D0170ED1
:10426000126423D0300E126020D069D7520453104C
:104270000CE1280E126019D0730E1224086E096A20
:10428000000E092262EC2CF00FD05250020A53109B
:104290000CE1400E126009D09B0E1224086E096AD0
:1042A000000E092262EC2CF0116E11501200D1ECBC
:1042B0002CF0096A430E086E000E0A6A96EC2AF08A
:1042C000D1EC2CF0096A440E086E000E0A6A96ECD6
:1042D0002AF0476AD1EC2CF0450E4724086E096A93
:1042E000000E092247C00AF096EC2AF0472A090E70
:1042F0004764F0D7D1EC2CF0096A4F0E086E000E1F
:104300000A6A96EC2AF0D1EC2CF0096A500E086E7D
:10431000000E0A6A96EC2AF0476AD1EC2CF05B0E8C
:104320004724086E096A000E0922980E0A6E96EC60
:104330002AF0472A090E4764F0D7476AD1EC2CF0DF
:10434000650E4724086E096A000E0922830E0A6E64
:1043500096EC2AF0472A090E4764F0D7D1EC2CF0EE
:10436000096A6F0E086E000E0A6A96EC2AF0D1EC0C
:104370002CF0096A700E086E000E0A6A96EC2AF09C
:10438000476AD1EC2CF0730E4724086E096A000EC0
:1043900009220A6A96EC2AF0472A130E4764F1D7DD
:1043A000476AD1EC2CF0870E4724086E096A000E8C
:1043B00009220A6A96EC2AF0472A130E4764F1D7BD
:1043C000D1EC2CF0096A710E086E030E0A6E96ECA1
:1043D0002AF0D1EC2CF0096A720E086E020E0A6EF9
:1043E00096EC2AF0476A466AD1EC2CF0465047C05A
:1043F00044F0456AD89044364536D8904436453620
:10440000D890443645364426000E45229B0E44245F
:10441000086E000E4520096E000E0A6A96EC2AF01E
:10442000462A070E4664E0D7472A4764DCD71EEFCA
:1044300016F00F0E1C6E200E1B6E0F0E1E6E100E51
:104440001D6E0F0E206E1F6A0E010E0E226E800E64
:10445000216E0E0E246E900E236E0E0E266EA00E92
:10446000256E0E0E286EB00E276E0E0E2A6EC00E32
:10447000296E0E0E2C6ED00E2B6E7250C00B2D6E50
:104480002D6602D0020E01D0080E2E6ED8907D311E
:10449000306E346A7CD03450020DF3501B0FD96E4D
:1044A000DA6ADECF35F0DDCF36F035C031F036C018
:1044B00032F0020E346404D0D890303230A066D08E
:1044C00035C0D9FF36C0DAFFDF501A6E1AB65ED09B
:1044D00035C0D9FF36C0DAFFFC0EDF1619C01AF05E
:1044E000030E1A1635C0D9FF36C0DAFF1A50DF1294
:1044F00019AC04D018504009336E02D018C033F004
:1045000020EE05F03550D9263650DA2233C0DFFFD1
:1045100019AA03D0010E336E01D0336A3528086E14
:10452000000E3620096E12C00AF013C00BF014C042
:104530000CF015C00DF033C00EF07DEC23F0060E2C
:104540003526000E36222F6A0FD016C0D9FF17C0AD
:10455000DAFF35C0E1FF36C0E2FFDFCFE7FF164AE2
:10456000172A354A362A2F2A18502F5CEEE331C01D
:10457000D9FF32C0DAFFDF501A6E1AB4010C31C015
:10458000D9FF32C0DAFF000EDB86010C342A2E5030
:10459000345C81E3000C0AC00EF00B6646D00E506E
:1045A000D96EDA6A08C0E1FF09C0E2FFE7500C6E7D
:1045B000D8900C36D8900C36D8900C34DF6E0E5054
:1045C000D96EDA6AD92ADA6A08C0E1FF09C0E2FFC7
:1045D000E7500C6E050E0D6ED8900C320D2EFCD7E8
:1045E0000C50DF6E084A092A08C0D9FF09C0DAFF5B
:1045F000DF500C6E050E0D6ED8900C320D2EFCD7D0
:104600000E50D96EDA6A0C50DF120E50D96EDA6A8B
:10461000020ED926DA6ADF6A0E50D96EDA6A030E04
:10462000D926DA6A000EDF6E000C0E50D96EDA6AF7
:10463000020ED926DA6A08C0E1FF09C0E2FFE7509E
:104640000C6E050E0D6ED8900C360D2EFCD70C504E
:10465000DF6E0E50D96EDA6A030ED926DA6A08C008
:10466000E1FF09C0E2FFE7500C6ED8900C32D89001
:104670000C32D8900C30DF6E084A092A08C0D9FFE6
:1046800009C0DAFFDF500C6E030E0C160E50D96E07
:10469000DA6A020ED926DA6A0C50DF1208C0D9FF96
:1046A00009C0DAFFDF500C6ED8900C32D8900C3273
:1046B000D8900C321C0E0C160E50D96EDA6A020E0F
:1046C000D926DA6A0C50DF12084A092A08C0D9FF35
:1046D00009C0DAFF0E50E16EE26AE12AE26ADFCF3A
:1046E000E7FF084A092A08C0D9FF09C0DAFF0E50BF
:1046F000E16EE26ADFCFE7FF12000A0E116E0E666E
:1047000037D01150D96EDA6ADF500F6ED8900F3261
:10471000D8900F32D8900F3008C0D9FF09C0DAFF07
:10472000DF6E1150D96EDA6AD92ADA6ADF500F6E5D
:10473000050E106ED8900F36102EFCD708C0D9FF8A
:1047400009C0DAFF0F50DF12084A092A1150D96E4A
:10475000DA6ADF500F6E050E106ED8900F36102EED
:10476000FCD70F5008C0D9FF09C0DAFFDF6E120076
:104770001150D96EDA6A020ED926DA6ADF500F6E4E
:10478000050E106ED8900F32102EFCD70F5008C0B7
:10479000D9FF09C0DAFFDF6E1150D96EDA6A030E55
:1047A000D926DA6ADF500F6ED8900F36D8900F36C0
:1047B000D8900F3608C0D9FF09C0DAFF0F50DF12BA
:1047C000084A092A1150D96EDA6A020ED926DA6A25
:1047D000DF500F6ED8900F36D8900F36D8900F3428
:1047E000E00B08C0D9FF09C0DAFFDF6E08C0D9FFAF
:1047F00009C0DAFF000EDB861150D96EDA6A020EAC
:10480000D926DA6ADF500F6E030E0F1608C0D9FFE3
:1048100009C0DAFF0F50DF12084A092A1150D96E79
:10482000DA6AD92ADA6A08C0E1FF09C0E2FFDFCFFD
:10483000E7FF084A092A1150D96EDA6A08C0E1FF79
:1048400009C0E2FFDFCFE7FF1200516A090E4F6493
:1048500001D0090C5B0E4F24086E096A000E092274
:1048600062EC2CF0506E50AE12003CD081A002D011
:10487000010E516E81904AD081A202D0010E516E7C
:10488000819244D082A602D0010E516E82963ED013
:1048900082A802D0010E516E829838D082AA02D02E
:1048A000010E516E829A32D082AC02D0010E516E4E
:1048B000829C2CD082AE02D0010E516E829E26D0F8
:1048C00080A402D0010E516E809420D080A202D02C
:1048D000010E516E80921AD080A002D0010E516E4E
:1048E000809014D04F50C2E0010AC6E0030ACAE02B
:1048F000010ACEE0070AD2E0010AD6E0030ADAE0B4
:10490000010ADEE00F0AE2E0010AE6E05150D8A415
:1049100050A808D0140E0001D06F040ED16F4F5074
:1049200025EC2AF04FC0D2F0010E0001D36FD46BFA
:10493000D22B03D0D890D337D437D22FFBD7D35133
:104940006813D4516913740E4F24086E096A000E5F
:10495000092262EC2CF00001D26F730E4F24086E16
:10496000096A000E092262EC2CF00001D46FD36BAF
:10497000D251D3250101006F0001000ED4210101A5
:10498000016F1200D36B090E4F6401D0090C5B0E4E
:104990004F24086E096A000E092262EC2CF0000117
:1049A000D26FD2AF12003CD081B002D0010ED36FD3
:1049B00081804AD081B202D0010ED36F818244D06F
:1049C00082B602D0010ED36F82863ED082B802D06A
:1049D000010ED36F828838D082BA02D0010ED36F15
:1049E000828A32D082BC02D0010ED36F828C2CD04E
:1049F00082BE02D0010ED36F828E26D080B402D048
:104A0000010ED36F808420D080B202D0010ED36F0C
:104A100080821AD080B002D0010ED36F808014D073
:104A20004F50C2E0010AC6E0030ACAE0010ACEE024
:104A3000070AD2E0010AD6E0030ADAE0010ADEE062
:104A40000F0AE2E0010AE6E0D2A524D04F50020DA1
:104A5000870EF324086E000EF420096E62EC2CF031
:104A6000516E506A4F50020D880EF324086E000EEE
:104A7000F420096E62EC2CF05026000E51224F50AB
:104A8000020DF3500001820FD96EDA6A50C0DEFFCA
:104A900051C0DDFFD351D8A4D2A71200140ED06F9D
:104AA000030ED16F4F5025EF2AF0E8CF4EF0481C8F
:104AB0004D6E4E50830A02E1796B7CD0830E4E64BA
:104AC0000ED0890E4E600BD048C00CF04E507C0FBB
:104AD0002CEC2CF04E507C0F8EEC2CF069D04E500C
:104AE000920A0DE148504A6E496A52504B6E4C6A28
:104AF0004910526E4A504C10536E535059D04E507C
:104B0000930A0BE1496A53504A6E48504910526E5D
:104B10004A50536E52C04DF04ED0880E4E6419D09C
:104B2000910E4E6016D053C049F049C04AF04B6A0E
:104B30004A2802E1522802E0481C3AD048C00CF052
:104B40004E50770FACEC2BF04E50770F84EC2CF0DE
:104B50002FD0CF0E4E6417D0E00E4E6014D053C04D
:104B600049F049C04AF04B6A4A28E6E15228E4E19C
:104B700048C00CF04E50300FBEEC2BF04E50300FB2
:104B800098EC2CF015D04E50A20AD6E14850550AA8
:104B900004E16E6B6F6B550E0BD04850AA0A0BE107
:104BA000E80E6E5D030E6F5905E2CDEC2CF0AA0EF7
:104BB0004D6E01D04D6A4D501200516A090E4F647E
:104BC00001D0090C5B0E4F24086E096A000E092201
:104BD00062EC2CF0506E50AE12003CD081A002D09E
:104BE000010E516E81904AD081A202D0010E516E09
:104BF000819244D082A602D0010E516E82963ED0A0
:104C000082A802D0010E516E829838D082AA02D0BA
:104C1000010E516E829A32D082AC02D0010E516EDA
:104C2000829C2CD082AE02D0010E516E829E26D084
:104C300080A402D0010E516E809420D080A202D0B8
:104C4000010E516E80921AD080A002D0010E516EDA
:104C5000809014D04F50C2E0010AC6E0030ACAE0B7
:104C6000010ACEE0070AD2E0010AD6E0030ADAE040
:104C7000010ADEE00F0AE2E0010AE6E05150D8A4A2
:104C800050A808D0140E0001D06F040ED16F4F5001
:104C900025EC2AF04FC0D2F0010E0001D36FD46B87
:104CA000D22B03D0D890D337D437D22FFBD7D31DF4
:104CB000D56FD41DD66FD5516817D651691712001C
:104CC000140E00017325D96EDA6A0101010EDA2291
:104CD000DF2A096A710E086E62EC2CF04F6E140E1A
:104CE00000017325D96EDA6A0101010EDA22DF5064
:104CF0004F5CD8B01200140E00017325D96EDA6A29
:104D0000010EDA22DF6A650E7325086E096A000E4D
:104D1000092262EC2CF04F6E4FA42ED0096A6F0E60
:104D2000086E62EC2CF04F6E4FA013D01E0E0001E7
:104D30007325D96EDA6A0101010EDA22DF50D8A498
:104D40001200096A6F0E086E62EC2CF04F6E4FA0D5
:104D500012001E0E0001D06F060ED16F735125ECAC
:104D60002AF01E0E00017325D96EDA6A0101010EC8
:104D7000DA22010EDF6E010C096A6F0E086E62EC1A
:104D80002CF04F6E4FA013D01E0E00017325D96E6C
:104D9000DA6A0101010EDA22DF50D8A41200096A92
:104DA0006F0E086E62EC2CF04F6E4FA012001E0EBC
:104DB0000001D06F050ED16F735125EC2AF0D1D7C9
:104DC000516A090E4F6401D0090C5B0E4F24086E26
:104DD000096A000E092262EC2CF0506E50AE1200EF
:104DE0003FD081A002D0819037D08180010E516EDA
:104DF0004BD081A202D081922FD08182F7D782A698
:104E000002D0829629D08286F1D782A802D08298D9
:104E100023D08288EBD782AA02D0829A1DD0828AC0
:104E2000E5D782AC02D0829C17D0828CDFD782AECD
:104E300002D0829E11D0828ED9D780A402D08094D5
:104E40000BD08084D3D780A202D0809205D08082FC
:104E5000CDD780A003D08090516A16D08080C6D76D
:104E60004F50BFE0010AC5E0030AC9E0010ACDE0E6
:104E7000070AD1E0010AD5E0030AD9E0010ADDE022
:104E80000F0AE1E0010AE5E0515007E050A61200E8
:104E9000140E0001D06F030E06D050A81200140E9D
:104EA0000001D06F040ED16F4F5025EF2AF0516AE8
:104EB000090E4F6401D0090C5B0E4F24086E096A7D
:104EC000000E092262EC2CF0506E50AE12003CD065
:104ED00081A002D0010E516E81904AD081A202D0F1
:104EE000010E516E819244D082A602D0010E516E05
:104EF00082963ED082A802D0010E516E829838D0A0
:104F000082AA02D0010E516E829A32D082AC02D0B7
:104F1000010E516E829C2CD082AE02D0010E516ED9
:104F2000829E26D080A402D0010E516E809420D0A3
:104F300080A202D0010E516E80921AD080A002D0C1
:104F4000010E516E809014D04F50C2E0010AC6E0AD
:104F5000030ACAE0010ACEE0070AD2E0010AD6E05D
:104F6000030ADAE0010ADEE00F0AE2E0010AE6E005
:104F70005150D8A450A81200140E0001D06F040E96
:104F8000D16F4F5025EF2AF0516A090E4F6401D0BE
:104F9000090C5B0E4F24086E096A000E092262ECB0
:104FA0002CF0506E50AE120032D0000E81B0010EC7
:104FB000516E41D0000E81B2010E516E3CD0000EF8
:104FC00082B6010E516E37D0000E82B8010E516EBE
:104FD00032D0000E82BA010E516E2DD0000E82BC6E
:104FE000010E516E28D0000E82BE010E516E23D0EC
:104FF000000E80B4010E516E1ED0000E80B2010E64
:10500000516E19D0000E80B0010E516E14D04F5069
:10501000CCE0010ACFE0030AD2E0010AD5E0070A9A
:10502000D8E0010ADBE0030ADEE0010AE1E00F0A52
:10503000E4E0010AE7E0515000E050A81200140E2D
:105040000001D06F040ED16F4F5025EF2AF051D0E0
:10505000572811E0810EA46FA56BA66BA76B020EFB
:10506000A86F57C0AAF0EAEC2AF0010E00017F6F8A
:10507000546A556A45D0040E7E6F810EA46FAA69EA
:10508000070EA56FA66BA76B030EA86FEAEC2AF0BC
:1050900037D096AF0FD09951981132E19A51030A47
:1050A0002FE1576603D0020E7E6FE2D7572A7F6B3F
:1050B000806B26D0E90E545C030E555821E3802BFB
:1050C000020E806514D0576605D0572A7F6B546A4C
:1050D000556AEED757C07DF0030E7E6F7F6B7D5112
:1050E00079EC2CF00001806B00EC2CF009D07F6B88
:1050F00007D000017F51ACE0010ACBE0030AF7E1E1
:105100000001966B120041C0BCF0BD6BBE6BBF6B63
:10511000BEC0BFF0BDC0BEF0BCC0BDF0BC6B3F5058
:10512000C06F4050C16FC26BC36BC1C0C3F0C0C081
:10513000C2F0C16BC06B43C0C4F0C56BC66BC76B1C
:105140001A0ED890C437C537C637C737E82EF9D7F7
:10515000C051C411C86FC151C511C96FC251C61128
:10516000CA6FC351C711CB6FBC51C811CC6FBD51B1
:10517000C911CD6FBE51CA11CE6FBF51CB11CF6FC8
:105180004250CC11476ECD51486ECE51496ECF5131
:105190004A6E47C037F048C038F049C039F04AC0BD
:1051A0003AF044C03BF045C03CF046C03DF04EEC08
:1051B0002AF0000901E1000C010C800E56EC2CF0E5
:1051C000090E0E01436FFC0E446F010E456F200E59
:1051D000706E728E729C606A0F01306B0E01806B74
:1051E000906BA06BB06BC06BD06BE00E7D6FE06B13
:1051F000080EE16FE26BE36BE46BE80EE56F1A0EED
:10520000E66FE76B030E466F476B716B110E726FA3
:10521000736F746B756B766B776B786B540E796FFD
:10522000050E7A6F7B6B7B6B0F0EF86FE00EF96FDC
:10523000FA6BFB6BF9870F0EFC6FE00EFD6FFE69DA
:10524000FF6BFD87000E56EF2CF0E8CF0BF028D057
:105250000F0E0D6E600E22D00F010F0E0D6E300E70
:105260001DD00E010E0E0D6E800E18D00E010E0E0A
:105270000D6E900E13D00E010E0E0D6EA00E0ED000
:105280000E010E0E0D6EB00E09D00E010E0E0D6E3B
:10529000C00E04D00E010E0E0D6ED00E0C6E0FD08F
:1052A0000B50D6E0010AD8E0030ADBE0010ADEE099
:1052B000070AE1E0010AE4E0030AE7E0EBD70CC0EB
:1052C00008F00DC009F01200E8CF27F021C01AF055
:1052D00022C01BF0280E99EC2BF0000901E1000C14
:1052E0001F50D96EDA6A28C0DFFF1E50D96EDA6A05
:1052F00029C0DFFF2A50236E010E2B14246E275085
:10530000D96EDA6A23C0DEFF24C0DDFF2050D96EDB
:10531000DA6A28C023F029C024F02AC025F02BC067
:1053200026F01B0E05D0D8902632253224322332A7
:10533000E82EF9D72350070BDF6E010CE8CF08F0F9
:105340000850D96EDA6A080EDF6E0850D96EDA6A34
:10535000D92ADA6ADF6A0850D96EDA6A020ED926CB
:10536000DA6ADF6A0850D96EDA6A030ED926DA6A79
:10537000020EDF6E0850D96EDA6A040ED926DA6A98
:10538000DF6A0850D96EDA6A050ED926DA6A020E8B
:10539000DF6E0850D96EDA6A060ED926DA6A000E78
:1053A000DF6E000C0001706B716B010E566EC8EC65
:1053B0002CF000017D6F7D6701D07D697D2902E1C0
:1053C000020E566E966B976B986B996B9A6BA46BEB
:1053D000A56BA66BA76BA86B796B786B576A7E6B16
:1053E0007F6B806B526A536A546A556A6E6B6F6B3F
:1053F000816B7C6B7B6B1200812B3B0E81650DD02A
:10540000816B7C2B7E51030A08E1B4EC2CF0000187
:10541000D06FB9EC2CF086EC2BF03B0E00017C65D4
:1054200002D07C6B7B2B170E7B6501D07B6B7E5192
:10543000030AD8A412007A2B7AC04DF00F0E4D1635
:10544000020E4D5CD8B07A6B1200E8CF4EF04EC021
:105450004BF0096A430E086E62EC2CF04C6E450E60
:105460004E24086E096A000E092262EC2CF04D6E83
:105470000001D0C03FF0406AD1C041F07DC042F091
:10548000030E436E446E4B0E456E000E466E0F0EBD
:10549000466E5F0E4564466A83EF28F03E6A6C6B89
:1054A0006D6B17D037C012F038C013F039C014F04C
:1054B0003AC015F03CC016F03DC017F03BC018F0E4
:1054C000200E196E19EC22F0000903E0010E3E6E69
:1054D00006D0E80E00016C5D030E6D59E3E3000198
:1054E000A46B3E5012000F0EC16E806A100E926EB9
:1054F000816A080E936E826A010E946E920E0FEC12
:105500002CF0FB0E096E1D0E086EA2EC2CF08190A3
:10551000819282968298829A829C829E80948092C6
:105520008090DDEC28F0F28CF28E12000950030B13
:10553000756E08C074FF0AC073FF7F9E7F9C7F84D6
:10554000000EF2BE010E0B6EF29E550E7E6EAA0E7E
:105550007E6E7F827FB2FED70BB002D0F29E01D06A
:10556000F28E7F941200000E48EC2CF0550A06E1F2
:10557000010E48EC2CF0AA0AD8B41200020E566EA6
:10558000D6EC2CF0FF0E79EC2CF0550E0C6E000EC4
:10559000D0EC2BF0AA0E0C6E010ED0EF2BF0965132
:1055A0000F0B020AD8A412007D5120EE9CF0DF629E
:1055B00012009DC07DF07D5179EC2CF0810E000130
:1055C000A46FA56BA66BA76B070EA86F7DC0AAF092
:1055D000EAEF2AF0A6C03FF0A7C040F0A8C041F013
:1055E0007DC042F0A5C043F0A4510F0B446E000EE5
:1055F000466EAA0E456E83EC28F04B6E4B6602D0C9
:105600000001792B4B50120096510F0B0D6E0D506F
:10561000D8B412007D5120EE9CF0DF6212000D0420
:1056200005E0010E0D64010C9D67010C7D69FF0E04
:1056300079EC2CF0D2EF29F008C00EF009C00FF081
:1056400008D00EC0D9FF0FC0DAFF0AC0DFFF0E4A34
:105650000F2A0C06D8A00D060C28D8B40D28D8B4F3
:105660001200EFD796BF12009A0E1E6E9B0E1F6E91
:10567000970E206E960E216E9C0E226E980E64EC94
:1056800029F02C6E2C50D8B412000001968F120015
:1056900001EE00F0280EEE6AE806FDE100EE60F093
:1056A0005C0EEE6AE806FDE100EE52F0070EEE6ACF
:1056B000E806FDE1000178EF1DF096C04CF00F0EFA
:1056C0004C164C04D8A412007D5120EE9CF0DF62F1
:1056D0001200800EA46FA56BA66BA76B030EA86FBC
:1056E000EAEF2AF0E8CF09F0080E0A6E0B6AD890AC
:1056F00009340B340B6ED890093608500B5C02E36A
:1057000008500B5E0A2EF3D70B501200E8CF4CF076
:10571000830E0001A46F070EA56FA76B140EA66F72
:10572000090EA86FAA6B4CC0ABF0D0C0ACF0EAEF8A
:105730002AF0E8CF1CF096BF000C1BC00FF01AC077
:1057400010F01D0E116E1C50AAEC1EF00009F4E0C2
:105750001DAC1DAA000C010CE8CF0DF0070E0D6466
:1057600001D0070CD1EC2CF00B0E0D24086E096A49
:10577000000E09220CC00AF096EF2AF0E8CF0DF0D7
:105780000F0E0D6401D00F0CD1EC2CF0130E0D2474
:10579000086E096A000E09220CC00AF096EF2AF082
:1057A000E8CF0DF0010E0D6401D0010CD1EC2CF00E
:1057B000020E0D24086E096A000E09220CC00AF0C0
:1057C00096EF2AF0E8CF50F07F0E506405D0DEC08F
:1057D00048F0505055EF25F0DEC04FF0505091EF9B
:1057E00007F0E8CF0CF00C04D8A41200D1EC2CF098
:1057F000096A086AFF0E0A6896EC2AF0FF00120098
:10580000810E0001A46FA56BA66BA76B020EA86F9B
:105810007DC0AAF0EAEC2AF0010E566E010CE8CF2A
:1058200008F008507F0BD56ED76AD66AF29408AE9E
:1058300002D0F28A01D0F29AD58E1200E8CFD3F0CE
:10584000D46BD4C04FF0D351C4EC27F00001D42B5B
:10585000080ED465F6D7080CE8CF0DF0D1EC2CF08B
:10586000060E0D24086E096A000E09220CC00AF00B
:1058700096EF2AF0E8CF09F00950000F086E08C033
:10588000F6FF0F0EF76E000EF86E0800F5501200CE
:10589000E8CF0AF0010E0A6401D0000C020E0A24BF
:1058A000086E096A000E092262EF2CF0E8CF08F0BA
:1058B0001F0E6F1608506F126F50E00B0818D8B407
:1058C0001200FAD70950030B756E08C074FF7F9C55
:1058D0007F9E7F8000F000F073501200E8CF1DF033
:1058E0007F0E1D6403D01D50AAEF1FF01D5082EFE4
:1058F00020F0E8CF0CF0D1EC2CF0096A010E086E14
:105900000CC00AF096EF2AF0E8CF0AF00B0E0A243A
:10591000086E096A000E092262EF2CF0E8CF0AF047
:10592000060E0A24086E096A000E092262EF2CF0A6
:10593000E8CF0AF0130E0A24086E096A000E092245
:1059400062EF2CF008C00AF009C00BF00BC0D7FFC3
:105950000AC0D6FF120001C003F002C004F004C068
:10596000D7FF03C0D6FF1200096A440E086E62EF2B
:105970002CF0096A430E086E62EF2CF0086A096A7F
:105980000A6A0B6A1200086A096A0A6A0B6A12003C
:10599000096A010E086E62EF2CF057EC21F07EEFE1
:1059A0001AF07FA21200FDD7566A120057EF21F0BD
:1059B0001200030C080C010C060C010C010C120067
:020000040020DA
:08000000FFFFFFFFFFFFFFFF00
:020000040030CA
:0E0000001512677EFF8991FF0FC00FE00F40C1
:00000001FF
