:04080000BAEF04F057
:10081800D8CF05F0E8CF06F0E0CF07F0FACF08F020
:10082800FBCF09F0E9CF0AF0EACF0BF0E1CF0CF0EB
:10083800E2CF0DF0D9CF0EF0DACF0FF0F3CF10F0F2
:10084800F4CF11F0F6CF12F0F7CF13F0F8CF14F081
:10085800F5CF15F0F2A401D001D065D0FB0E026EE1
:100868001D0E016E20EC3EF000010001CD4BCE2B99
:1008780000010001CB4BCC2B010E01010101002727
:10088800000E01010123000E01010223000E0101E7
:100898000323010E010101010427000E01010523B4
:1008A800000E01010623000E0101072300010001CB
:1008B800C94BCA2B82A001D001D005D0000E00017F
:1008C8000001D66F03D000010001D62B3C2A3A5014
:1008D800020AD8A401D001D010D0640E3C6401D023
:1008E80001D00BD082A201D001D002D0829202D0D6
:1008F800828200D0000E3C6E13D03A04D8A401D0F6
:1009080001D004D08282000E3C6E0AD03A6601D033
:1009180001D006D08292000E3C6E02D001D000D0E9
:10092800F29401D000D015C0F5FF14C0F8FF13C031
:10093800F7FF12C0F6FF11C0F4FF10C0F3FF0FC09D
:10094800DAFF0EC0D9FF0DC0E2FF0CC0E1FF0BC0FB
:10095800EAFF0AC0E9FF09C0FBFF08C0FAFF07C0A9
:10096800E0FF06C0E8FF05C0D8FF1000DAEF3CF052
:100978007777772E6575726F736F757263652E73EF
:10098800652F6265696A696E675F322E786D6C00E3
:1009980000000001A46F000E00010001B06F00010B
:1009A800A4510001A46F000E00010001B26F000104
:1009B800A45100010001A351FF0A00010001B16F19
:1009C80037503610D8A495EF0EF000010001A26749
:1009D80012D04BEC3EF0000E176E430E166EA3C0FD
:1009E80018F06BEC3CF0000E176E430E166E17EC09
:1009F8003EF004EF12F000010001A205D8A412D0C5
:100A08004BEC3EF0000E176E440E166EA3C018F0A5
:100A18006BEC3CF0000E176E440E166E17EC3EF0B1
:100A280004EF12F0010E00010001A2651FD00C0EA8
:100A380000010001A2611AD04BEC3EF0430E000108
:100A48000001A225166E176A000E1722A3C018F01F
:100A58006BEC3CF0430E00010001A225166E176AEC
:100A6800000E172217EC3EF004EF12F0000100010F
:100A7800A2510C0AD8A439D04BEC3EF0000E176EE8
:100A88004F0E166E00010001A351030B186E6BEC9C
:100A98003CF000010001A3A302D0010E01D0000E1A
:100AA8000001A46F92500001A419FE0BA419926EC4
:100AB80000010001A3A102D0010E01D0000E000127
:100AC800A46F0001A44792500001A419FD0BA419BA
:100AD800926E9230010B0001A46F9250010B00013D
:100AE800A56F0001D890A535FFD000010001A251E3
:100AF8000D0AD8A4FDD04BEC3EF0000E176E500E38
:100B0800166EA3C018F06BEC3CF000010001A3AF17
:100B180002D0010E01D0000E0001A46F0001A4470D
:100B2800A44792500001A419FB0BA419926E00016E
:100B38000001A3AD02D0010E01D0000E0001A46F88
:100B48000001A433A43394500001A4197F0BA41905
:100B5800946E00010001A3AB02D0010E01D0000E7B
:100B68000001A46F0001A43BA447A4479450A41912
:100B7800BF0BA419946E00010001A3A902D0010EB5
:100B880001D0000E0001A46F0001A43BA4479450BB
:100B98000001A419DF0BA419946E00010001A3A79A
:100BA80002D0010E01D0000E0001A46F0001A43B89
:100BB80094500001A419EF0BA419946E00010001D0
:100BC800A3A502D0010E01D0000E0001A46F000100
:100BD800A447A447A44794500001A419F70BA419EB
:100BE800946E00010001A3A302D0010E01D0000EF3
:100BF8000001A46F0001A44793500001A419FD0B44
:100C0800A419936E00010001A3A102D0010E01D026
:100C1800000E0001A46F93500001A419FE0BA41943
:100C2800936E9350010B0001A46F9330010B0001E8
:100C3800A56F0001D890A5350001A66F9430E83261
:100C4800E832010B0001A76F0001D890A737000117
:100C5800D890A7379438010B0001A86F0001D890ED
:100C6800A8370001D890A8370001D890A837943841
:100C7800E832010B0001A96F0001A93BF00EA9178A
:100C88009438E832E832010B0001AA6F050E000122
:100C9800AB6F0001D890AA370001AB2FFAD7943474
:100CA800E836010B0001AC6F060E0001AD6F0001C4
:100CB800D890AC370001AD2FFAD79230E832010B4B
:100CC8000001AE6F000EAEB1800EAE6F0001AE51E6
:100CD8000001AC250001AA250001A9250001A825CD
:100CE8000001A7250001A6250001A42504EF12F0A4
:100CF8000D0E00010001A26545D3180E0001000188
:100D0800A26140D34D0E00010001A225166E176A9C
:100D1800000E172217EC3EF00001A46F0001A4BFDB
:100D28000ED307EF12F00001A46F010E00010001BD
:100D3800B06F0001A45100010001A305D8A42BD075
:100D48008180000E81B0010E00010001B16F000129
:100D5800A46F010E00010001B26F0001A451000E42
:100D6800176E5B0E166E17EC3EF00001A46F0001C3
:100D7800A4A507EF12F0000E176E870E166E17EC7B
:100D88003EF00001A46F000E176E860E166E17EC6B
:100D98003EF06EEF10F000010001A36707EF12F0BC
:100DA8008190000E81B0010E00010001B16F0001B9
:100DB800A46F000E00010001B26F0001A45107EFFB
:100DC80012F00001A46F010E00010001B06F0001D4
:100DD800A45100010001A305D8A42BD08182000EE4
:100DE80081B2010E00010001B16F0001A46F010E74
:100DF80000010001B26F0001A451000E176E5C0ED5
:100E0800166E17EC3EF00001A46F0001A4A507EFD1
:100E180012F0000E176E890E166E17EC3EF00001E8
:100E2800A46F000E176E880E166E17EC3EF091EF49
:100E380010F000010001A36707EF12F08192000E85
:100E480081B2010E00010001B16F0001A46F000E14
:100E580000010001B26F0001A45107EF12F0000178
:100E6800A46F010E00010001B06F0001A451000140
:100E78000001A305D8A42BD08286000E82B6010EED
:100E880000010001B16F0001A46F010E0001000113
:100E9800B26F0001A451000E176E5D0E166E17ECAE
:100EA8003EF00001A46F0001A4A507EF12F0000EA8
:100EB800176E8B0E166E17EC3EF00001A46F000E35
:100EC800176E8A0E166E17EC3EF0B4EF10F00001A4
:100ED8000001A36707EF12F08296000E82B6010E9A
:100EE80000010001B16F0001A46F000E00010001B4
:100EF800B26F0001A45107EF12F00001A46F010EB8
:100F080000010001B06F0001A45100010001A30518
:100F1800D8A42BD08288000E82B8010E00010001EF
:100F2800B16F0001A46F010E00010001B26F000152
:100F3800A451000E176E5E0E166E17EC3EF00001FF
:100F4800A46F0001A4A507EF12F0000E176E8D0E16
:100F5800166E17EC3EF00001A46F000E176E8C0E93
:100F6800166E17EC3EF0D7EF10F000010001A367F2
:100F780007EF12F08298000E82B8010E00010001FE
:100F8800B16F0001A46F000E00010001B26F0001F3
:100F9800A45107EF12F00001A46F010E0001000137
:100FA800B06F0001A45100010001A305D8A42BD003
:100FB800828A000E82BA010E00010001B16F0001A1
:100FC800A46F010E00010001B26F0001A451000ED0
:100FD800176E5F0E166E17EC3EF00001A46F00014D
:100FE800A4A507EF12F0000E176E8F0E166E17EC01
:100FF8003EF00001A46F000E176E8E0E166E17ECF1
:101008003EF0FAEF10F000010001A36707EF12F0BD
:10101800829A000E82BA010E00010001B16F000130
:10102800A46F000E00010001B26F0001A45107EF88
:1010380012F00001A46F010E00010001B06F000161
:10104800A45100010001A305D8A42BD0828C000E66
:1010580082BC010E00010001B16F0001A46F010EF6
:1010680000010001B26F0001A451000E176E600E5E
:10107800166E17EC3EF00001A46F0001A4A507EF5F
:1010880012F0000E176E910E166E17EC3EF000016E
:10109800A46F000E176E900E166E17EC3EF01DEF43
:1010A80011F000010001A36707EF12F0829C000E07
:1010B80082BC010E00010001B16F0001A46F000E97
:1010C80000010001B26F0001A45107EF12F0000106
:1010D800A46F010E00010001B06F0001A4510001CE
:1010E8000001A305D8A42BD0828E000E82BE010E6B
:1010F80000010001B16F0001A46F010E00010001A1
:10110800B26F0001A451000E176E610E166E17EC37
:101118003EF00001A46F0001A4A507EF12F0000E35
:10112800176E930E166E17EC3EF00001A46F000EBA
:10113800176E920E166E17EC3EF040EF11F000019C
:101148000001A36707EF12F0829E000E82BE010E17
:1011580000010001B16F0001A46F000E0001000141
:10116800B26F0001A45107EF12F00001A46F010E45
:1011780000010001B06F0001A45100010001A305A6
:10118800D8A42BD08084000E80B4010E0001000189
:10119800B16F0001A46F010E00010001B26F0001E0
:1011A800A451000E176E620E166E17EC3EF0000189
:1011B800A46F0001A4A507EF12F0000E176E950E9C
:1011C800166E17EC3EF00001A46F000E176E940E19
:1011D800166E17EC3EF063EF11F000010001A367F3
:1011E80007EF12F08094000E80B4010E0001000198
:1011F800B16F0001A46F000E00010001B26F000181
:10120800A45107EF12F00001A46F010E00010001C4
:10121800B06F0001A45100010001A305D8A42BD090
:101228008082000E80B2010E00010001B16F000142
:10123800A46F010E00010001B26F0001A451000E5D
:10124800176E630E166E17EC3EF00001A46F0001D6
:10125800A4A507EF12F0000E176E970E166E17EC86
:101268003EF00001A46F000E176E960E166E17EC76
:101278003EF086EF11F000010001A36707EF12F0BE
:101288008092000E80B2010E00010001B16F0001D2
:10129800A46F000E00010001B26F0001A45107EF16
:1012A80012F00001A46F010E00010001B06F0001EF
:1012B800A45100010001A305D8A42BD08080000E02
:1012C80080B0010E00010001B16F0001A46F010E92
:1012D80000010001B26F0001A451000E176E640EE8
:1012E800166E17EC3EF00001A46F0001A4A507EFED
:1012F80012F0000E176E990E166E17EC3EF00001F4
:10130800A46F000E176E980E166E17EC3EF0A9EF3C
:1013180011F000010001A36707EF12F08090000EA2
:1013280080B0010E00010001B16F0001A46F000E32
:1013380000010001B26F0001A45107EF12F0000193
:101348000001A2510E0AD8B4EED4010AD8B439D596
:101358001F0AD8B484D5010AD8B4CFD5030AD8B4A3
:101368001AD6010AD8B465D6070AD8B4B0D6010A85
:10137800D8B4FBD6030AD8B446D7010AD8B491D753
:1013880007EF12F0170E00010001A26572EF0EF0D0
:10139800220E00010001A26172EF0EF04EEF0EF076
:1013A8004BEC3EF0720E00010001A225166E176A82
:1013B800000E1722A3C018F06BEC3CF0720E00016F
:1013C8000001A225166E176A000E172217EC3EF0D0
:1013D80000010001B16F00010001A3A12FD081908D
:1013E8000001A46F000E00010001B26F0001A451BA
:1013F80000010001C581000E176E720E166E17EC03
:101408003EF00001A46F000E176E720E166E17ECF8
:101418003EF00001A56F0001A5510001A76FA66B62
:101428000001A4510001A62501010101086F000176
:10143800000E0001A7210101096F10D00001FE0E66
:101448000001C517030E0001C61781900001A46FA3
:10145800000E00010001B26F0001A451000100015B
:10146800A3A507EF12F0000E176E870E166E17EC85
:101478003EF00001A46F000E176E860E166E17EC74
:101488003EF06EEF10F04BEC3EF0720E00010001E2
:10149800A225166E176A000E1722A3C018F06BEC6F
:1014A8003CF0720E00010001A225166E176A000EAC
:1014B800172217EC3EF000010001B16F0001000196
:1014C800A3A32FD081920001A46F000E0001000198
:1014D800B26F0001A45100010001C583000E176E10
:1014E800730E166E17EC3EF00001A46F000E176E17
:1014F800720E166E17EC3EF00001A56F0001A551A3
:101508000001A76FA66B0001A4510001A6250101E7
:1015180001010A6F0001000E0001A72101010B6FF4
:1015280010D00001FD0E0001C517030E0001C617FB
:1015380081920001A46F000E00010001B26F00014A
:10154800A45100010001A3A507EF12F0000E176EC9
:10155800870E166E17EC3EF00001A46F000E176E92
:10156800860E166E17EC3EF091EF10F04BEC3EF045
:10157800720E00010001A225166E176A000E1722CE
:10158800A3C018F06BEC3CF0720E00010001A2251C
:10159800166E176A000E172217EC3EF000010001C4
:1015A800B16F00010001A3A12FD082960001A46FA2
:1015B800000E00010001B26F0001A45100010001FA
:1015C800C585000E176E770E166E17EC3EF00001FB
:1015D800A46F000E176E760E166E17EC3EF0000123
:1015E800A56F0001A5510001A76FA66B0001A451CA
:1015F8000001A625010101010C6F0001000E000188
:10160800A72101010D6F10D00001FB0E0001C517C5
:10161800030E0001C61782960001A46F000E000198
:101628000001B26F0001A45100010001A3A507EF5A
:1016380012F0000E176E8B0E166E17EC3EF00001BE
:10164800A46F000E176E8A0E166E17EC3EF0B4EFFC
:1016580010F04BEC3EF0720E00010001A225166E50
:10166800176A000E1722A3C018F06BEC3CF0720E3C
:1016780000010001A225166E176A000E172217EC4A
:101688003EF000010001B16F00010001A3A12FD0BD
:1016980082980001A46F000E00010001B26F0001E2
:1016A800A45100010001C587000E176E790E166E51
:1016B80017EC3EF00001A46F000E176E780E166E40
:1016C80017EC3EF00001A56F0001A5510001A76FBE
:1016D800A66B0001A4510001A625010101010E6FAE
:1016E8000001000E0001A72101010F6F10D00001B9
:1016F800F70E0001C517030E0001C61782980001F6
:10170800A46F000E00010001B26F0001A451000196
:101718000001A3A507EF12F0000E176E8D0E166ECE
:1017280017EC3EF00001A46F000E176E8C0E166EBB
:1017380017EC3EF0D7EF10F04BEC3EF0720E0001C4
:101748000001A225166E176A000E1722A3C018F012
:101758006BEC3CF0720E00010001A225166E176AB0
:10176800000E172217EC3EF000010001B16F0001D6
:101778000001A3A52FD0829A0001A46F000E0001DA
:101788000001B26F0001A45100010001C589000EDB
:10179800176E7B0E166E17EC3EF00001A46F000E5C
:1017A800176E7A0E166E17EC3EF00001A56F000159
:1017B800A5510001A76FA66B0001A4510001A62541
:1017C80001010101106F0001000E0001A7210101B4
:1017D800116F10D00001EF0E0001C517030E0001B4
:1017E800C617829A0001A46F000E00010001B26FB3
:1017F8000001A45100010001A3A507EF12F0000E9B
:10180800176E8F0E166E17EC3EF00001A46F000ED7
:10181800176E8E0E166E17EC3EF0FAEF10F04BECCA
:101828003EF0720E00010001A225166E176A000E26
:101838001722A3C018F06BEC3CF0720E00010001F7
:10184800A225166E176A000E172217EC3EF000014B
:101858000001B16F00010001A3A12FD0829C0001FB
:10186800A46F000E00010001B26F0001A451000135
:101878000001C58B000E176E7D0E166E17EC3EF03C
:101888000001A46F000E176E7C0E166E17EC3EF06A
:101898000001A56F0001A5510001A76FA66B00010B
:1018A800A4510001A62501010101126F0001000EDB
:1018B8000001A7210101136F10D00001DF0E000104
:1018C800C517030E0001C617829C0001A46F000E05
:1018D80000010001B26F0001A45100010001A3A59D
:1018E80007EF12F0000E176E910E166E17EC3EF011
:1018F8000001A46F000E176E900E166E17EC3EF0E6
:101908001DEF11F04BEC3EF0720E00010001A22514
:10191800166E176A000E1722A3C018F06BEC3CF085
:10192800720E00010001A225166E176A000E17221A
:1019380017EC3EF000010001B16F00010001A3A106
:101948002FD0829E0001A46F000E00010001B26F2B
:101958000001A45100010001C58D000E176E7F0E15
:10196800166E17EC3EF00001A46F000E176E7E0E87
:10197800166E17EC3EF00001A56F0001A55100019D
:10198800A76FA66B0001A4510001A6250101010162
:10199800146F0001000E0001A7210101156F10D07E
:1019A8000001BF0E0001C517030E0001C617829E75
:1019B8000001A46F000E00010001B26F0001A451E4
:1019C80000010001A3A507EF12F0000E176E930E99
:1019D800166E17EC3EF00001A46F000E176E920E03
:1019E800166E17EC3EF040EF11F04BEC3EF0720E25
:1019F80000010001A225166E176A000E1722A3C067
:101A080018F06BEC3CF0720E00010001A225166E76
:101A1800176A000E172217EC3EF000010001B16FA3
:101A280000010001A3A12FD080940001A46F000E33
:101A380000010001B26F0001A45100010001C58F2F
:101A4800000E176E810E166E17EC3EF00001A46FA3
:101A5800000E176E800E166E17EC3EF00001A56F93
:101A68000001A5510001A76FA66B0001A451000158
:101A7800A62501010101166F0001000E0001A72132
:101A88000101176F10D000017F0E0001C517030E6A
:101A98000001C61780940001A46F000E0001000128
:101AA800B26F0001A45100010001A3A507EF12F0D5
:101AB800000E176E950E166E17EC3EF00001A46F1F
:101AC800000E176E940E166E17EC3EF0F8D34BEC22
:101AD8003EF0720E00010001A225166E176A000E74
:101AE8001722A3C018F06BEC3CF0720E0001000145
:101AF800A225166E176A000E172217EC3EF0000199
:101B08000001B16F00010001A3A12FD08092000154
:101B1800A46F000E00010001B26F0001A451000182
:101B28000001C681000E176E830E166E17EC3EF08C
:101B38000001A46F000E176E820E166E17EC3EF0B1
:101B48000001A56F0001A5510001A76FA66B000158
:101B5800A4510001A62501010101186F0001000E22
:101B68000001A7210101196F10D00001FF0E00012B
:101B7800C517020E0001C61780920001A46F000E5F
:101B880000010001B26F0001A45100010001A3A5EA
:101B980007EF12F0000E176E970E166E17EC3EF058
:101BA8000001A46F000E176E960E166E17EC3EF02D
:101BB800A9D34BEC3EF0720E00010001A225166E6F
:101BC800176A000E1722A3C018F06BEC3CF0720ED7
:101BD80000010001A225166E176A000E172217ECE5
:101BE8003EF000010001B16F00010001A3A12FD058
:101BF80080900001A46F000E00010001B26F000187
:101C0800A45100010001C683000E176E850E166EE2
:101C180017EC3EF00001A46F000E176E840E166ECE
:101C280017EC3EF00001A56F0001A5510001A76F58
:101C3800A66B0001A4510001A625010101011A6F3C
:101C48000001000E0001A72101011B6F10D0000147
:101C5800FF0E0001C517010E0001C6178090000194
:101C6800A46F000E00010001B26F0001A451000131
:101C78000001A3A5C8D3000E176E990E166E17ECB7
:101C88003EF00001A46F000E176E980E166E17EC4A
:101C98003EF05BD300010001A251180AD8B4D4EF7A
:101CA80009F0010AD8B447EF0AF0030AD8B45ED4A1
:101CB800010AD8B4CED4070AD8B43ED5010AD8B49C
:101CC800AED5030AD8B41ED6010AD8B48ED63F0AB8
:101CD800D8B4FDD6010AD8B46CD795D3210E00012B
:101CE8000001A26590D32F0E00010001A2618BD3E1
:101CF8004BEC3EF0430E00010001A225166E176A58
:101D0800000E1722A3C018F06BEC3CF0430E000144
:101D18000001A225166E176A000E172217EC3EF076
:101D28006FD336043710D8A447D3140E000100012E
:101D3800A2619CD14BEC3EF0720E00010001A2257D
:101D4800166E176A000E1722A3C018F06BEC3CF051
:101D5800720E00010001A225166E176A000E1722E6
:101D680017EC3EF000010001B16F5ED1000E176E56
:101D7800730E166E17EC3EF00001A46F000E176E7E
:101D8800720E166E17EC3EF00001A56F0001A5510A
:101D98000001A76FA66B0001A4510001A62501014F
:101DA8000101086F0001000E0001A7210101096F60
:101DB8002AD3000E176E750E166E17EC3EF0000152
:101DC800A46F000E176E740E166E17EC3EF000012D
:101DD800A56F0001A5510001A76FA66B0001A451D2
:101DE8000001A625010101010A6F0001000E000192
:101DF800A72101010B6F07D3000E176E770E166E21
:101E080017EC3EF00001A46F000E176E760E166EEA
:101E180017EC3EF00001A56F0001A5510001A76F66
:101E2800A66B0001A4510001A625010101010C6F58
:101E38000001000E0001A72101010D6FE4D2000E80
:101E4800176E790E166E17EC3EF00001A46F000EA7
:101E5800176E780E166E17EC3EF00001A56F0001A4
:101E6800A5510001A76FA66B0001A4510001A6258A
:101E7800010101010E6F0001000E0001A7210101FF
:101E88000F6FC1D2000E176E7B0E166E17EC3EF068
:101E98000001A46F000E176E7A0E166E17EC3EF056
:101EA8000001A56F0001A5510001A76FA66B0001F5
:101EB800A4510001A62501010101106F0001000EC7
:101EC8000001A7210101116F9ED2000E176E7D0E31
:101ED800166E17EC3EF00001A46F000E176E7C0E14
:101EE800166E17EC3EF00001A56F0001A551000128
:101EF800A76FA66B0001A4510001A62501010101ED
:101F0800126F0001000E0001A7210101136F7BD29F
:101F1800000E176E7F0E166E17EC3EF00001A46FD0
:101F2800000E176E7E0E166E17EC3EF00001A56FC0
:101F38000001A5510001A76FA66B0001A451000183
:101F4800A62501010101146F0001000E0001A7215F
:101F58000101156F58D2000E176E810E166E17EC20
:101F68003EF00001A46F000E176E800E166E17EC7F
:101F78003EF00001A56F0001A5510001A76FA66BF7
:101F88000001A4510001A62501010101166F0001FD
:101F9800000E0001A7210101176F35D2000E176E40
:101FA800830E166E17EC3EF00001A46F000E176E3C
:101FB800820E166E17EC3EF00001A56F0001A551C8
:101FC8000001A76FA66B0001A4510001A62501011D
:101FD8000101186F0001000E0001A7210101196F0E
:101FE80012D2000E176E850E166E17EC3EF0000129
:101FF800A46F000E176E840E166E17EC3EF00001EB
:10200800A56F0001A5510001A76FA66B0001A4519F
:102018000001A625010101011A6F0001000E00014F
:10202800A72101011B6FEFD100010001A251010A94
:10203800D8B49CD6020AD8B4BCD6060AD8B4DCD622
:10204800020AD8B4FCD60E0AD8B41CD7020AD8B4EF
:102058003CD7060AD8B45CD7020AD8B47CD71E0A83
:10206800D8B49CD7020AD8B4BCD7CDD1130E00017E
:102078000001A265C8D1280E00010001A261C3D1E8
:102088004BEC3EF0720E00010001A225166E176A95
:10209800000E1722A3C018F06BEC3CF0720E000182
:1020A8000001A225166E176A000E172217EC3EF0E3
:1020B80000010001B16F5ED1000E176E870E166E1B
:1020C80017EC3EF00001A46F000E176E860E166E18
:1020D80017EC3EF00001A56F0001A5510001A76FA4
:1020E800A66B0001A4510001A62500010001DD6FC7
:1020F8000001000E0001A7210001DE6F84D1000E4F
:10210800176E890E166E17EC3EF00001A46F000ED4
:10211800176E880E166E17EC3EF00001A56F0001D1
:10212800A5510001A76FA66B0001A4510001A625C7
:1021380000010001DF6F0001000E0001A72100016E
:10214800E06F61D1000E176E8B0E166E17EC3EF025
:102158000001A46F000E176E8A0E166E17EC3EF083
:102168000001A56F0001A5510001A76FA66B000132
:10217800A4510001A62500010001E16F0001000E35
:102188000001A7210001E26F3ED1000E176E8D0EEF
:10219800166E17EC3EF00001A46F000E176E8C0E41
:1021A800166E17EC3EF00001A56F0001A551000165
:1021B800A76FA66B0001A4510001A625000100012C
:1021C800E36F0001000E0001A7210001E46F1BD19D
:1021D800000E176E8F0E166E17EC3EF00001A46FFE
:1021E800000E176E8E0E166E17EC3EF00001A56FEE
:1021F8000001A5510001A76FA66B0001A4510001C1
:10220800A62500010001E56F0001000E0001A721CD
:102218000001E66FF8D0000E176E910E166E17ECDF
:102228003EF00001A46F000E176E900E166E17ECAC
:102238003EF00001A56F0001A5510001A76FA66B34
:102248000001A4510001A62500010001E76F00016B
:10225800000E0001A7210001E86FD5D0000E176E0F
:10226800930E166E17EC3EF00001A46F000E176E69
:10227800920E166E17EC3EF00001A56F0001A551F5
:102288000001A76FA66B0001A4510001A62500015B
:102298000001E96F0001000E0001A7210001EA6FAB
:1022A800B2D0000E176E950E166E17EC3EF00001B8
:1022B800A46F000E176E940E166E17EC3EF0000118
:1022C800A56F0001A5510001A76FA66B0001A451DD
:1022D8000001A62500010001EB6F0001000E0001BE
:1022E800A7210001EC6F8FD0000E176E970E166EA7
:1022F80017EC3EF00001A46F000E176E960E166ED6
:1023080017EC3EF00001A56F0001A5510001A76F71
:10231800A66B0001A4510001A62500010001ED6F84
:102328000001000E0001A7210001EE6F6CD0000E25
:10233800176E990E166E17EC3EF00001A46F000E92
:10234800176E980E166E17EC3EF00001A56F00018F
:10235800A5510001A76FA66B0001A4510001A62595
:1023680000010001EF6F0001000E0001A72100012C
:10237800F06F49D000010001A251150AD8B49CD6CB
:10238800020AD8B4BCD60E0AD8B4DCD6020AD8B42D
:10239800FCD6060AD8B41CD7020AD8B43CD73E0AE1
:1023A800D8B45CD7020AD8B47CD7060AD8B49CD76C
:1023B800020AD8B4BCD727D03650020A3710D8A49E
:1023C80022D0400E00010001A2611DD04BEC3EF06E
:1023D8009A0E00010001A225166E176A000E172238
:1023E800A3C018F06BEC3CF040EC1FF09A0E000113
:1023F8000001A225166E176A000E172217EC3EF090
:1024080000010001B16F00010001B051D8B441D002
:10241800430E00010001A225166E176A000E17224E
:1024280017EC3EF000010001AF6F00010001B2514E
:10243800D8B418D000010001AFA72BD000010001CB
:10244800A251F20F306E0001A46F140E316E00011C
:10245800A4510001A56F030E326E0001A5514CEC8A
:102468003BF017D000010001AFA913D00001000113
:10247800A251F20F306E0001A46F140E316E0001EC
:10248800A4510001A56F040E326E0001A5514CEC59
:102498003BF000010001B151120000010001F451AC
:1024A800F311D8B424EF19F061EF19F05BEC3EF0AA
:1024B80061EF19F00AEC3CF061EF19F01DEC3DF00A
:1024C80061EF19F0E4EC3BF061EF19F00001000155
:1024D800F1510F0B020AD8A461EF19F000010001B5
:1024E800D851000120EEF7F0DF6261EF19F0800E9D
:1024F80000010001F86121D0F8C018F0D4EC2FF0E9
:10250800446EF8C043F00001B56F030E3E6E000143
:10251800B5510001B56F820E3D6E0001B551000E38
:10252800406E000E3F6E0001B56F0A0E416E00014D
:10253800B5514CEC3CF061EF19F0F8C01AF0D8EC4A
:1025480030F0446EF8C043F00001B56F030E3E6EE4
:102558000001B5510001B56F820E3D6E0001B55105
:10256800000E406E000E3F6E0001B56F0A0E416E00
:102578000001B5514CEC3CF061EF19F0000100018D
:10258800F1510F0B030AD8A461EF19F00001000103
:10259800D851000120EEF7F0DF6261EF19F0800EEC
:1025A80000010001F86123D0F8C0A2F0F9C0A3F03F
:1025B800CDEC04F0446EF8C043F00001B56F030E93
:1025C8003E6E0001B5510001B56F820E3D6E0001EF
:1025D800B551000E406E000E3F6E0001B56F0A0E39
:1025E800416E0001B5514CEC3CF061EF19F0F8C0B8
:1025F80085F0F9C086F0ACEC2CF0446EF8C043F0DE
:102608000001B56F030E3E6E0001B5510001B56FB4
:10261800820E3D6E0001B551000E406E000E3F6EF9
:102628000001B56F0A0E416E0001B5514CEC3CF04B
:1026380061EF19F000010001D851000120EEF7F018
:10264800DF6261EF19F00001B56F000E186E00012E
:10265800B55105EC3EF000010001F919D8A461EF6D
:1026680019F00001B56F030E186E0001B55105ECA5
:102678003EF000010001FA19D8A461EF19F0000139
:10268800B56F050E186E0001B55105EC3EF000015E
:102698000001FB19D8A461EF19F00001B56F070E0E
:1026A800186E0001B55105EC3EF000010001FC195F
:1026B800D8A461EF19F037C0B5F0B5C0B6F0000185
:1026C800B76BFF0E0001B617000EB7170001000127
:1026D800FD510001B619B711D8A461EF19F0FF0E2A
:1026E80036140001B56F000E37140001B66F0001F3
:1026F8000001FE510001B519B611D8A461EF19F017
:10270800F8C01BF068EC3DF061EF19F00001B56FFF
:10271800000E186E0001B55105EC3EF000010001F5
:10272800F819D8A4EDD00001B56F010E186E00019C
:10273800B55105EC3EF000010001F919D8A4E0D02C
:102748000001B56F020E186E0001B55105EC3EF0A0
:1027580000010001FA19D8A4D3D00001B56F030E07
:10276800186E0001B55105EC3EF000010001FB199F
:10277800D8A4C6D03988C4D00001B56F040E186E2D
:102788000001B55105EC3EF000010001F819D8A48C
:10279800B7D00001B56F050E186E0001B55105ECF4
:1027A8003EF000010001F919D8A4AAD00001B56FC4
:1027B800060E186E0001B55105EC3EF0000100014F
:1027C800FA19D8A49DD00001B56F070E186E000144
:1027D800B55105EC3EF000010001FB19D8A490D0DA
:1027E800398A8ED00001B56F080E186E0001B551F8
:1027F80005EC3EF000010001F819D8A481D00001D1
:10280800B56F090E186E0001B55105EC3EF00001D8
:102818000001F919D8A474D00001B56F0A0E186E1A
:102828000001B55105EC3EF000010001FA19D8A4E9
:1028380067D00001B56F0B0E186E0001B55105EC9D
:102848003EF000010001FB19D8A45AD0398C58D0A9
:102858000001B56F0C0E186E0001B55105EC3EF085
:1028680000010001F819D8A44BD00001B56F0D0E76
:10287800186E0001B55105EC3EF000010001F91990
:10288800D8A43ED00001B56F0E0E186E0001B551E8
:1028980005EC3EF000010001FA19D8A431D000017E
:1028A800B56F0F0E186E0001B55105EC3EF0000132
:1028B8000001FB19D8A424D0398E22D00001B56FAD
:1028C800000E396E0001B5511BD000010001F73927
:1028D8000F0B0001B56FB66B0001B651000AD8A402
:1028E800EDD70001B551000AD8B410D7010AD8B401
:1028F80043D7030AD8B476D7010AD8B4A9D7DED704
:102908003950F00BF00AD8A461EF19F010EC39F047
:1029180061EF19F000010001D851000120EEF7F035
:10292800DF6261EF19F00001B56F000E01010101CE
:10293800356F0001B551F8C034F1F9C037F1000125
:10294800B56F000E01010101436F0001B55186D03A
:10295800010143C116F0176A000E196E070E186EB2
:102968000EEC3BF0010E1626000E1722430E16241D
:10297800D96E000E1720DA6E0101010134510101F0
:10298800010143252B6EB4EC3DF0DF6E010143C11C
:1029980016F0176A000E196E070E186E0EEC3BF053
:1029A8001650060A1710D8B413D0FF0E0101010102
:1029B80037250001B56F00010001B66BFF0EB62385
:1029C8000101010143510001B519B611D8A443D042
:1029D800010143C116F0176A000E196E070E186E32
:1029E8000EEC3BF01650060A1710D8A409D00001C7
:1029F800B56F070E01010101366F0001B5510FD007
:102A0800010143C116F0176A000E196E070E186E01
:102A18000EEC3BF00001162901010101366F01019E
:102A280001013651810F3D6E0001B56F070E3E6EF4
:102A38000001B551000E406E000E3F6E0001B56FEB
:102A48001A0E416E0001B55135C143F04CEC3CF013
:102A580001010101352B01010101432B0101010194
:102A6800375101010101435DD8B061EF19F070D70A
:102A780000010001D851000120EEF7F0DF6261EF9C
:102A880019F0F8C038F100010001F151FE0F070BF1
:102A980001010101396F0001B56F000E010101014B
:102AA8003E6F0001B55144D00101010138510101C7
:102AB80001013E2500010001B36F010101013E51F2
:102AC8000001B56FB66B020E0001B527000EB623E4
:102AD8000001F70E0001B525D96E0001000E0001B6
:102AE800B621DA6EDF5000010001B46F33EC3DF01F
:102AF800010101013E510001B56FB66B010E0001E5
:102B0800B527000EB623430E0001B525D96E000E79
:102B18000001B621DA6E01010101385101010101FC
:102B28003E252B6EB4EC3DF0DF6E010101013E2B1A
:102B3800010101013951010101013E5DD8A0B4D75D
:102B48000001B56F070E3E6E0001B551000E406ED4
:102B5800000E3F6E0001B56F1A0E416E0001B551AF
:102B68000001B56F000E436E0001B551010101016E
:102B78003951810F3D6E4CEC3CF09FD300010001B0
:102B8800D851000120EEF7F0DF6297D3F8C0A2F029
:102B9800F8C018F0D4EC2FF00001B56F0001B5298A
:102BA80000010001A36FCDEC04F0446EF8C043F0BF
:102BB8000001B56F030E3E6E0001B5510001B56FFF
:102BC800820E3D6E0001B551000E406E000E3F6E44
:102BD8000001B56F0A0E416E0001B5514CEC3CF096
:102BE8006CD300010001D851000120EEF7F0DF623C
:102BF80064D3F8C0A2F0F8C018F0D4EC2FF00001AC
:102C0800B56F0001B50500010001A36FCDEC04F01C
:102C1800446EF8C043F00001B56F030E3E6E00012C
:102C2800B5510001B56F820E3D6E0001B551000E21
:102C3800406E000E3F6E0001B56F0A0E416E000136
:102C4800B5514CEC3CF039D300010001F7510001BB
:102C58000001D819D8B405D000010001F729D8A47B
:102C68002CD30001B56F000E010101013D6F000179
:102C7800B5510001B56F030E3E6E0001B55100015C
:102C8800B56F880E3D6E0001B551000E406E000E06
:102C98003F6E0001B56F200E416E0001B551000175
:102CA800B56F000E01010101426F0001B5513AD024
:102CB80042C143F00001B56F010E01010101446FEB
:102CC8000001B5511FD0010101014451010D430E0E
:102CD800F324D96E000EF420DA6E010101013D5192
:102CE80000080F0F186E05EC3EF0DF6E01010101C0
:102CF8003D2B100E010101013D6501D008D00101F5
:102D08000101442B070E010101014465DCD7100EB7
:102D1800010101013D6501D00AD04CEC3CF00101F4
:102D28000101422B020E010101014265C1D70001D8
:102D3800B56F000E01010101446F0001B55137D094
:102D480044C116F0C1EC3DF00009D8B418D0010117
:102D5800010144510001B56FB66B030E0001B527A0
:102D6800000EB623430E0001B525D96E000E0001F2
:102D7800B621DA6E44C116F0C1EC3DF014D0010161
:102D8800010144510001B56FB66B030E0001B52770
:102D9800000EB623430E0001B525D96E000E0001C2
:102DA800B621DA6E000EDF6E01010101442B040E1C
:102DB800010101014465C4D74CEC3CF00001B56F3A
:102DC800050E010101013D6F0001B5510001B56F0C
:102DD800030E01010101426F0001B5512AD042C121
:102DE80043F00001B56F010E01010101446F0001BC
:102DF800B55115D0010101014451010D430EF324D1
:102E0800D96E000EF420DA6E3DC116F0C1EC3DF02B
:102E1800DF6E010101013D2B01010101442B070E69
:102E2800010101014465E6D74CEC3CF001010101C8
:102E3800422B060E010101014265D1D73ED20001A5
:102E48000001D851000120EEF7F0DF6236D2000110
:102E5800B56F030E3E6E0001B5510001B56F870EC8
:102E68003D6E0001B551000E406E000E3F6E000130
:102E7800B56F220E416E0001B551000E176E430E5C
:102E8800166E89EC3CF04CEC3CF017D200010001C6
:102E9800D851000120EEF7F0DF620FD2000E0101D9
:102EA8000101416F000E0101406F0001B56F000E76
:102EB800010101013F6F0001B551F1C0B5F00F0EDE
:102EC8000001B517040E0001B55DD8A023D000019C
:102ED8000101FBC040F101010101416B0101010148
:102EE80041514011D8A407D0010E01010101416FE1
:102EF800000E0101406F010E01010101405D010E4C
:102F080001014159D8A00DD0010E01010101416F05
:102F1800000E05D0000E01010101416F010E0101F3
:102F2800406F36C030F137C031F100010001F9516E
:102F38000001F8C0B5F00001B66BB5C0B6F00001ED
:102F4800B56B0001B511366E0001B651376E000140
:102F5800B56F070E3E6E0001B551000E406E000EB3
:102F68003F6E0001B56F270E416E0001B55100019B
:102F7800B56F000E436E0001B551F8C044F0F9C0BA
:102F880045F0010101013F510001B56FB66B000129
:102F9800B51FB61FB54BB62B010101014051000109
:102FA800B5270101010141510001B623040E0001BA
:102FB800B55D000EB659D8A009D00001B56F040E52
:102FC800010101013A6F0001B5510AD00101010167
:102FD8003F510008010101014025010101013A6F3B
:102FE800010101013A51840F3D6E00010001FA51BF
:102FF800010101013F25466E0001B56F000E010178
:1030080001013B6F0001B55123D0010101013B5182
:103018000001B56FB66B040E0001B527000EB6238C
:10302800430E0001B525D96E000E0001B621DA6EF7
:1030380000010001FA51010101013F2501010101CF
:103048003B252B6EB4EC3DF0DF6E010101013B2BFB
:10305800010101013A51010101013B5DD8A0D5D719
:103068004CEC3CF0010101013A51010101013F27FB
:10307800432A010101013F510001B56FB66B0101FF
:10308800010140510001B55D0101010141510001FB
:10309800B659D8A076D730C136F031C137F00DD146
:1030A80000010001D851000120EEF7F0DF6205D1E0
:1030B80036C032F137C033F100010001F951000187
:1030C800F8C0B5F00001B66BB5C0B6F00001B56B3D
:1030D8000001B511366E0001B651376EFAC03CF1E9
:1030E80059D03CC1B3F000010001FA510001B56F9D
:1030F800B66B0001B51FB61FB54BB62B0101010118
:103108003C510001B5250001B76F00010001000E18
:10311800B621B86F040E0001B727000EB8230001CE
:10312800F70E0001B725D96E0001000E0001B82185
:10313800DA6EDF5000010001B46F33EC3DF000019E
:10314800B96F00010001FA510001BA6FBB6B0001B1
:10315800BA1FBB1FBA4BBB2B010101013C51000137
:10316800BA250001BC6F00010001000EBB21BD6F34
:10317800040E0001BC27000EBD23430E0001BC2530
:10318800D96E000E0001BD21DA6EB9C0DFFF010162
:1031980001013C2B00010001F1510F0B0001B56F3B
:1031A800B66B00010001FA510001B527000EB623E5
:1031B800FC0E0001B5250001B76FFF0E0001B62116
:1031C8000001B86F010101013C510001B96FBA6BF0
:1031D8000001BA51800A0001BB6FB7510001B95D07
:1031E8000001B851800A0001BB59D8A07AD732C172
:1031F80036F033C137F00001B56F070E3E6E00019F
:10320800B55100010001F1510F0B800F3D6E000E0A
:10321800406E000E3F6E0001B56F270E416E000133
:10322800B5510001B56F000E436E0001B551F8C0ED
:1032380044F0F9C045F0FAC046F04CEC3CF03DD003
:1032480000010001F551010AD8B45AEF12F0030A3F
:10325800D8B45EEF12F0040AD8B462EF12F00E0A86
:10326800D8B466EF12F0010AD8B46AEF12F0020A75
:10327800D8B4C2EF12F0070AD8B41EEF13F01B0A35
:10328800D8B469EF14F00F0AD8B48EEF14F0010A1D
:10329800D8B43CEF15F0040AD8B470D4030AD8B4F3
:1032A800A0D4010AD8B4D0D43E0AD8B4C8D5040AE8
:1032B800D8B4ECD5030AD8B4F3D612000101306FA4
:1032C800000E00010001AE6F01013051000E176EB3
:1032D800500E166E17EC3EF00101306F000E176E9F
:1032E8004F0E166E17EC3EF00101316F010131519E
:1032F8000101336F326B01013051010132250001A8
:103308000001A86F0101000E010133210001A96F1E
:103318000101306F000E00010001B06F0101305152
:1033280099EF1DF0B0C030F1010E0101316F326B21
:103338000101302B04D0D890010131373237010117
:10334800302FF9D700010001A85101013117000100
:103358000001A95101013217010132513111D8B4CC
:1033680090D1650E00010001B025166E176A000E97
:10337800172217EC3EF000010001AF6F00010001B9
:10338800AFAFD0D346D0000E81B0010E00010001CE
:10339800AD6F60D0000E81B2010E00010001AD6F6B
:1033A80059D0000E82B6010E00010001AD6F52D057
:1033B800000E82B8010E00010001AD6F4BD0000E67
:1033C80082BA010E00010001AD6F44D0000E82BC2C
:1033D800010E00010001AD6F3DD0000E82BE010E4E
:1033E80000010001AD6F36D0000E80B4010E00015F
:1033F8000001AD6F2FD0000E80B2010E0001000158
:10340800AD6F28D0000E80B0010E00010001AD6F35
:1034180021D000010001B051000AD8B4B4D7010A84
:10342800D8B4B8D7030AD8B4BCD7010AD8B4C0D71F
:10343800070AD8B4C4D7010AD8B4C8D7030AD8B47D
:10344800CCD7010AD8B4D0D70F0AD8B4D4D7010A38
:10345800D8B4D8D700010001AFA149D000010001BC
:10346800AD51D8B444D0B0C030F1010E0101316F74
:10347800326B0101302B04D0D8900101313732373B
:103488000101302FF9D700010001C751010131179F
:1034980000010001C85101013217010132513111F7
:1034A800D8A425D000010001AFA511D0B0C030F0DC
:1034B8000101306F1E0E316E010130510101316F73
:1034C800050E326E010131514CEC3BF010D0B0C00A
:1034D80030F00101306F140E316E010130510101DD
:1034E800316F030E326E010131514CEC3BF000019B
:1034F8000001AFA348D000010001AD6744D0B0C0BF
:1035080030F1010E0101316F326B0101302B04D013
:10351800D8900101313732370101302FF9D7000136
:103528000001C7510101311700010001C851010113
:103538003217010132513111D8B425D000010001F0
:10354800AFA511D0B0C030F00101306F1E0E316E42
:10355800010130510101316F060E326E0101315106
:103568004CEC3BF010D0B0C030F00101306F140EBD
:10357800316E010130510101316F040E326E0101CB
:1035880031514CEC3BF000010001AFA93BD00001E8
:103598000001AD51D8B436D0B0C030F1010E0101F0
:1035A800316F326B0101302B04D0D89001013137D3
:1035B80032370101302FF9D700010001C75101014D
:1035C800311700010001C8510101321701013251C0
:1035D8003111D8B404D000010001AFAB13D0B0C092
:1035E80030F00101306F010E316E010130510101DF
:1035F800316F020E326E010131514CEC3BF000018B
:103608000001D38300010001AFA78CD200010001A3
:10361800AD6788D2B0C030F1010E0101316F326B55
:103628000101302B04D0D890010131373237010124
:10363800302FF9D700010001C751010131170001EE
:103648000001C85101013217010132513111D8A4CA
:1036580004D000010001AFAB65D2B0C030F0010169
:10366800306F010E316E010130510101316F020ED0
:10367800326E010131514CEC3BF000010001D38561
:1036880051D25B0E00010001B025166E176A000EBC
:10369800172217EC3EF000010001AF6F0001000196
:1036A800AFAF40D200010001B051020D0001DD0EA4
:1036B800F324D96E0001000EF420DA6EDE50DD101E
:1036C800D8B463D000010001B051020D0001DD0E35
:1036D800F324D96E0001000EF420DA6EDE06000E27
:1036E800DD5A00010001B051020D0001DD0EF32486
:1036F800D96E0001000EF420DA6EDE50DD10D8A479
:1037080077D05B0E00010001B025166E176A000E17
:10371800172217EC3EF00101306F010130A568D087
:103728000101306F000E00010001A26F010130514C
:10373800B0C031F1010E0101326F0101312B03D00C
:103748000101D89032370101312FFAD701013251E6
:1037580000010001A36FB7EC32F000010001AFA334
:1037680010D0B0C030F00101306F010E316E010190
:1037780030510101316F020E326E010131514CECB2
:103788003BF000010001D38133D0860E0001000117
:10379800B025166E176A000E172217EC3EF00101CD
:1037A800306F010130510101326F316B870E00011A
:1037B8000001B025166E176A000E172217EC3EF0AE
:1037C8000101336F0101335101013127000E32230A
:1037D80000010001B051020D0001DD0EF324D96E85
:1037E8000001000EF420DA6E31C1DEFF32C1DDFFC8
:1037F800B0C030F1010E0101316F326B0101302B85
:1038080004D0D8900101313732370101302FF9D770
:1038180000010001C5510101311700010001C65125
:1038280001013217010132513111D8B47BD10001A5
:103838000001B051020D0101080EF324D96E0101F7
:10384800010EF420DA6EDE50DD10D8B434D1000158
:103858000001B051020D0101080EF324D96E0101D7
:10386800010EF420DA6EDE06000EDD5A00010001BA
:10387800B051020D0101080EF324D96E0101010EA9
:10388800F420DA6EDE50DD10D8B448D04BD181A0D8
:1038980002D0819005D0818038D081A205D0819254
:1038A8000101306F000E34D081822FD082A602D061
:1038B8008296F6D7828629D082A802D08298F0D73D
:1038C800828823D082AA02D0829AEAD7828A1DD01F
:1038D80082AC02D0829CE4D7828C17D082AE02D010
:1038E800829EDED7828E11D080A402D08094D8D751
:1038F80080840BD080A202D08092D2D7808205D05B
:1039080080A002D08090CCD780800101306F010E5A
:1039180000010001AE6F0101305121D0000100010A
:10392800B051000AD8B4B3D7010AD8B4B6D7030A3D
:10393800D8B4BCD7010AD8B4BFD7070AD8B4C2D7FD
:10394800010AD8B4C5D7030AD8B4C8D7010AD8B46D
:10395800CBD70F0AD8B4CED7010AD8B4D1D7000133
:103968000001B051020D720EF324166E000EF42001
:10397800176E17EC3EF00101306F01013051010163
:10398800326F316B00010001B051020D720EF32449
:10399800166E000EF420176E17EC3EF00101336F1F
:1039A8000101335101013127000E322300010001CA
:1039B800B051020D0101080EF324D96E0101010E68
:1039C800F420DA6E31C1DEFF32C1DDFF00010001F3
:1039D800AE51D8B45BD05B0E00010001B025166E65
:1039E800176A000E172217EC3EF00101306F010133
:1039F80030A537D000010001B051020D860EF32426
:103A0800166E000EF420176E17EC3EF00101306FB1
:103A1800010130510101326F316B00010001B051D9
:103A2800020D870EF324166E000EF420176E17ECA5
:103A38003EF00101336F0101335101013127000EBE
:103A4800322300010001B051020D0001DD0EF32404
:103A5800D96E0001000EF420DA6E31C1DEFF32C1EA
:103A6800DDFF00010001AFA75DD0B0C030F001015B
:103A7800306F140E316E010130510101316F030EA8
:103A8800326E010131514CEC3BF04CD00001000189
:103A9800AFA948D0B0C030F00101306F140E316EBC
:103AA800010130510101316F040E326E01013151B3
:103AB8004CEC3BF037D000010001B051020D720E02
:103AC800F324166E000EF420176E17EC3EF0010179
:103AD800306F010130510101326F316B000100017B
:103AE800B051020D730EF324166E000EF420176EFB
:103AF80017EC3EF00101336F010133510101312709
:103B0800000E322300010001B051020D0101080E20
:103B1800F324D96E0101010EF420DA6E31C1DEFF03
:103B280032C1DDFF00010001B02B090E00010001C8
:103B3800B06596EF19F0000E176E700E166E17EC42
:103B48003EF00009D8B4ACD00101306F000E00017E
:103B58000001AA6F010130518030010B0101306F63
:103B68008050010B0101316F0101D89031350101FD
:103B7800302500010001AB6F8150010B0101306F4E
:103B88008130010B0101316F0101D89031350101FC
:103B9800326F8230E832E832010B0101336F0101E4
:103BA800D89033370101D89033378238010B01019F
:103BB800346F0101D89034370101D89034370101AE
:103BC800D89034378238E832010B0101356F010192
:103BD800353BF00E35178238E832E832010B010127
:103BE800366F050E0101376F0101D8903637010194
:103BF800372FFAD78234E836010B0101386F060EE9
:103C08000101396F0101D89038370101392FFAD7EE
:103C18008030E832010B01013A6F000E3AB1800E94
:103C28003A6F01013A510101382501013625010198
:103C38003525010134250101332501013225010112
:103C4800302500010001AC6F000E00010001846FF7
:103C58000F0E0001836F0101306F010E000100019A
:103C6800856F01013051D8C086F00101316F030E14
:103C780000010001876F010131510101326F030E0C
:103C880000010001886F010132510001000E00019E
:103C980000018A6F0001AA0E0001896F86EC38F0D6
:103CA8008150010B0101306F8130010B0101316F2F
:103CB800D890010131350101326F0101336B0101E7
:103CC80033378230E832E832010B0101346F356B4B
:103CD8000101D890343735370101D890343735375A
:103CE8008238010B0101366F376B0101D8903637E6
:103CF80037370101D890363737370101D890363732
:103D080037378238E832010B0101386F396B01010E
:103D1800383B393BF00E391738510F0B3913F00E79
:103D280038178238E832E832010B01013A6F3B6BF1
:103D3800050ED89001013A373B37E82EFAD782347E
:103D4800E836010B01013C6F3D6B060ED89001016E
:103D58003C373D37E82EFAD78030E832010B0101B5
:103D68003E6F3F6B070ED89001013E373F37E82E74
:103D7800FAD78030010B0101406F01014051010168
:103D8800426F416B8050010B0101436F446B090E78
:103D9800D890010143374437E82EFAD70101415141
:103DA800010143250101456F0101425101014421EF
:103DB8000101466F01013E51010145250101476F8F
:103DC80001013F51010146210101486F01013C51A8
:103DD800010147250101496F01013D5101014821B8
:103DE80001014A6F01013A510101492501014B6F57
:103DF80001013B5101014A2101014C6F0101385178
:103E080001014B2501014D6F0101395101014C217F
:103E180001014E6F0101365101014D2501014F6F1E
:103E28000101375101014E210101506F0101345147
:103E380001014F250101516F010135510101502147
:103E48000101526F01013251010151250101536FE6
:103E580001013351010152210101546F0101305117
:103E68000101532500010001C76F0101000E010186
:103E780054210001C86F120026682768286829683D
:103E8800000E2A6E000E2B6E000E2C6E000E2D6E8C
:103E98000001606F000E336E0001605113D3335080
:103EA8000001606F616B0001D890603761370001D5
:103EB800D890603761370001D89060376137440E79
:103EC80000016025166E000E00016121176E17ECC7
:103ED8003EF00001626F000162AFF3D2335000017F
:103EE800606F616B0001D890603761370001D8902E
:103EF800603761370001D89060376137470E00019D
:103F08006025166E000E00016121176E17EC3EF059
:103F18000001626F62C063F00001646B656B666BE1
:103F280065C066F064C065F063C064F00001636B4F
:103F380033500001676F686B0001D89067376837A6
:103F48000001D890673768370001D890673768371D
:103F5800450E00016725166E000E00016821176ED8
:103F680017EC3EF00001696F69C06AF000016B6BE5
:103F78006C6B6D6B6BC06DF06AC06CF000016B6BA5
:103F88006A6B335000016E6F6F6B0001D8906E370B
:103F98006F370001D8906E376F370001D8906E37B1
:103FA8006F37440E00016E25166E000E00016F215A
:103FB800176E17EC3EF00001706F020E00017017CB
:103FC80070C071F00001726B736B746B170ED89030
:103FD80000017137723773377437E82EF8D700014C
:103FE8006A51000171110001756F00016B510001E8
:103FF80072110001766F00016C510001731100010C
:10400800776F00016D51000174110001786F000194
:104018006351000175110001796F000164510001BD
:10402800761100017A6F00016551000177110001D6
:104038007B6F000166510001781100017C6FFF0E53
:1040480000017911216E00017A51226E00017B5125
:10405800236E00017C51246E33500001606F616B48
:104068000001D890603761370001D8906037613718
:104078000001D89060376137480E00016025166E40
:10408800000E00016121176E17EC3EF00001626F0F
:1040980062C063F00001646B656B666B65C066F0B7
:1040A80064C065F063C064F00001636B33500001C5
:1040B800676F686B0001D890673768370001D89040
:1040C800673768370001D89067376837460E0001B0
:1040D8006725166E000E00016821176E17EC3EF07A
:1040E8000001696F69C06AF000016B6B6C6B6D6BE6
:1040F8006BC06DF06AC06CF000016B6B6A6B33507B
:1041080000016E6F6F6B0001D8906E376F3700013A
:10411800D8906E376F370001D8906E376F37440EDE
:1041280000016E25166E000E00016F21176E17EC48
:104138003EF00001706F010E0001701770C071F041
:104148000001726B736B746B71C074F00001736B58
:10415800726B716B00016A51000171110001756F7A
:1041680000016B51000172110001766F00016C5162
:10417800000173110001776F00016D510001741186
:104188000001786F00016351000175110001796F1A
:10419800000164510001761100017A6F0001655138
:1041A8000001771100017B6F000166510001781151
:1041B80000017C6F335000017D6F7E6B0001D89049
:1041C8007D377E370001D8907D377E370001D89043
:1041D8007D377E37430E00017D25166E000E0001E7
:1041E8007E21176E17EC3EF000017F6F00017F51B2
:1041F800000179112E6E00017A512F6E00017B515A
:10420800306E00017C51316E336608D02EC02AF022
:104218002FC02BF030C02CF031C02DF021502616C5
:104228002250271623502816245029160001606FA3
:10423800000E326E0001605191D032502EC060F0F5
:104248002FC061F030C062F031C063F0E82A06D0B8
:104258000001D8906333623361336033E82EF8D7B6
:10426800010E000160150001646F000E0001611568
:104278000001656F000E000162150001666F000EF7
:10428800000163150001676F32502AC068F02BC027
:1042980069F02CC06AF02DC06BF0E82A06D0000146
:1042A800D8906B336A3369336833E82EF8D7010E38
:1042B8000001681500016C6F000E0001691500010E
:1042C8006D6F000E00016A1500016E6F000E00018F
:1042D8006B1500016F6F0001675100016F190EE146
:1042E8000001665100016E1909E1000165510001E4
:1042F8006D1904E10001645100016C19D8B42DD086
:1043080032C060F0010E0001616F626B0001602B2A
:1043180004D0D8900001613762370001602FF9D7C7
:104328000001611D0001636F00010001621D646FDF
:104338000001656B000164BF65070001655100015C
:10434800666F0001635126160001645127160001AB
:1043580065512816000166512916322A1F0E32644B
:104368006CD72E502A162F502B1630502C16315041
:104378002D163350D8B48AD00001606F000E326E0B
:104388000001605165D033C060F033500001616FA7
:10439800626B0001D890613762370001D8906137AD
:1043A80062370001D89061376237430E00016125FA
:1043B800166E000E00016221176E17EC3EF0000128
:1043C800636F0001602B03D00001D89063330001B4
:1043D800602FFAD7010E0001631733C064F025C0BF
:1043E80065F00001642B03D00001D890653300010B
:1043F800642FFAD700016551010B00016319D8B485
:1044080026D033C060F0010E0001616F626B0001BD
:10441800602B04D0D8900001613762370001602F0B
:10442800F9D761C063F062C064F0000E000164BF98
:10443800FF0E656F666F0001635126160001645117
:104448002716000165512816000166512916322ADF
:10445800070E326498D733500001606F616B00011A
:10446800D890603761370001D89060376137000114
:10447800D89060376137430E00016025166E000E34
:1044880000016121176E17EC3EF01AD0335000017D
:10449800606F616B0001D890603761370001D89078
:1044A800603761370001D89060376137430E0001EB
:1044B8006025166E000E00016121176E17EC3EF0A4
:1044C800256E332A070E3364EAD40001606F800E2C
:1044D800166E00016051D7EC3DF00F010F0E176EFC
:1044E8000F011C0E166E26C018F027C019F028C040
:1044F8001AF029C01BF00001606F010E1C6E00014C
:104508006051D7EC37F00D010D01D4830F010F0E68
:10451800176E0F01040E166E2AC018F02BC019F082
:104528002CC01AF02DC01BF00001606F010E1C6E2C
:1045380000016051D7EC37F00001606F000E166E75
:1045480000016051D7EC3DF0120000010001F45168
:10455800F311D8B478D20001AB6F000E000100014E
:10456800BF6F0001AB516AD200010001BF51080DB5
:104578009B0EF324166E000EF420176E17EC3EF017
:1045880000010001BE6F00010001BEAF54D200015E
:104598000001BEAD11D000010001BF51080D9A0EF7
:1045A800F324166E000EF420176E17EC3EF000018F
:1045B8000001F619D8A43FD200010001BEA910D00D
:1045C80000010001F829D8B40BD0000E176E430E75
:1045D800166E17EC3EF000010001F819D8A42BD292
:1045E80000010001BEA710D000010001F929D8B4CC
:1045F8000BD0000E176E440E166E17EC3EF000013D
:104608000001F919D8A417D200010001BF51000117
:10461800AB6FAC6B0001D890AB37AC370001D890CA
:10462800AB37AC370001D890AB37AC379D0E0001E3
:10463800AB25166E000E0001AC21176E17EC3EF08C
:104648000001AD6FBEC0AEF0010E0001AE17000153
:10465800AE510001B06FAF6B0001AD510001AF2545
:1046680000010001B16F0001000E0001B02100013E
:10467800B26F00010001BF510001AB6FAC6B0001CC
:10468800D890AB37AC370001D890AB37AC370001C6
:10469800D890AB37AC379C0E0001AB25166E000ED8
:1046A8000001AC21176E17EC3EF00001AD6F000160
:1046B8000001BE51020B0001AE6FAF6B070ED89020
:1046C8000001AE37AF37E82EFAD70001AD5100012F
:1046D800AE2500010001B36F0001000E0001AF21FB
:1046E8000001B46F00010001BF510001AB6FAC6B5A
:1046F8000001D890AB37AC370001D890AB37AC3756
:104708000001D890AB37AC379F0E0001AB25166E71
:10471800000E0001AC21176E17EC3EF000010001FD
:10472800B56F00010001BF510001AB6FAC6B000118
:10473800D890AB37AC370001D890AB37AC37000115
:10474800D890AB37AC379E0E0001AB25166E000E25
:104758000001AC21176E17EC3EF000010001B66FA6
:10476800000120EEF3F0DECFABF0DDCFACF00001BE
:104778000001B1510001AB1B00010001B251000161
:10478800AC1B00010001B3510001AB17000100018F
:10479800B4510001AC170001AC51AB11D8A44BD1F6
:1047A80000010001F55100010001B51900010001E7
:1047B800B6150009D8B40BD13ED100010001BF5194
:1047C8000001AB6FAC6B0001D890AB37AC37000180
:1047D800D890AB37AC370001D890AB37AC37A10EC7
:1047E8000001AB25166E000E0001AC21176E17EC08
:1047F8003EF000010001B76FBEC0A2F0B7C0A3F041
:10480800CFEC2EF018D100010001BF510001AB6FB1
:10481800AC6B0001D890AB37AC370001D890AB3700
:10482800AC370001D890AB37AC37A10E0001AB25EF
:10483800166E000E0001AC21176E17EC3EF0000159
:104848000001B86FBEC0A2F0B8C0A3F0B7EC32F058
:10485800F2D000010001BF510001AB6FAC6B000149
:10486800D890AB37AC370001D890AB37AC370001E4
:10487800D890AB37AC37A10E0001AB25166E000EF1
:104888000001AC21176E17EC3EF000010001B96F72
:10489800BEC0A2F0B9C0A3F0C1EC2DF0CCD000018D
:1048A8000001BF510001AB6FAC6B0001D890AB3772
:1048B800AC370001D890AB37AC370001D890AB3794
:1048C800AC37A10E0001AB25166E000E0001AC211D
:1048D800176E17EC3EF000010001BA6FBEC0A2F0DF
:1048E800BAC0A3F0CBEC31F0A6D000010001BF5153
:1048F8000001AB6FAC6B0001D890AB37AC3700014F
:10490800D890AB37AC370001D890AB37AC37A10E95
:104918000001AB25166E000E0001AC21176E17ECD6
:104928003EF000010001BB6FBEC0A2F0BBC0A3F007
:104938006BEC36F080D000010001BF510001AB6F75
:10494800AC6B0001D890AB37AC370001D890AB37CF
:10495800AC370001D890AB37AC37A10E0001AB25BE
:10496800166E000E0001AC21176E17EC3EF0000128
:104978000001BC6FBEC0A8F0BCC0A9F0F1EC3CF0CF
:104988005AD000010001BF510001AB6FAC6B0001B0
:10499800D890AB37AC370001D890AB37AC370001B3
:1049A800D890AB37AC37A10E0001AB25166E000EC0
:1049B8000001AC21176E17EC3EF000010001BD6F3D
:1049C800BEC0A2F0BDC0A3F0B4EC35F034D00001F5
:1049D8000001BF510001AB6FAC6B0001D890AB3741
:1049E800AC370001D890AB37AC370001D890AB3763
:1049F800AC37A00E0001AB25166E000E0001AC21ED
:104A0800176E17EC3EF0000AD8B415D0010AD8B4D6
:104A1800D4D6030AD8B4F7D6010AD8B41AD7070AE5
:104A2800D8B43DD7010AD8B4ACD7030AD8B45DD7F7
:104A3800010AD8B480D700010001BF2B070E00017E
:104A48000001BF6591D51200000E01010101046F3C
:104A5800000E0101056F000E0101066F000E010135
:104A6800076F0001606F000E00010001D26F0001A6
:104A780060510001606F000E00010001D16F00015C
:104A880060510001606F000E00010001D06F00014D
:104A98006051000E00010001C66F000E0001C56FD5
:104AA8000101010E176E0101080E166E000E196E37
:104AB800000E186E000E1B6E140E1A6E07EC3DF0F9
:104AC8000001000E176E0001DD0E166E000E196E45
:104AD800000E186E000E1B6E140E1A6E07EC3DF0D9
:104AE8000001606F000E1F6E000160518FD05B0ED9
:104AF8001F24166E176A000E172217EC3EF00001ED
:104B0800606F000160A147D01FC060F0010E000176
:104B1800616F626B0001602B04D0D890000161378F
:104B280062370001602FF9D70001615100010001CF
:104B3800C5130001625100010001C613720E1F2443
:104B4800166E176A000E172217EC3EF00001606F10
:104B5800000160510001626F616B730E1F24166EB5
:104B6800176A000E172217EC3EF00001636F000170
:104B7800635100016127000E62231F50020D0101DD
:104B8800080EF324D96E0101010EF420DA6E61C01B
:104B9800DEFF62C0DDFF600E1F24166E176A000E6E
:104BA800172217EC3EF00001606F000160A52DD0C0
:104BB800720E1F24166E176A000E172217EC3EF0AD
:104BC8000001606F000160510001626F616B730E3C
:104BD8001F24166E176A000E172217EC3EF000010C
:104BE800636F0001635100016127000E62231F50AB
:104BF800020D0001DD0EF324D96E0001000EF42031
:104C0800DA6E61C0DEFF62C0DDFF1F2A090E1F6475
:104C18006ED7000E176E4F0E166E17EC3EF01E6E16
:104C28001E50030B926E000E176E500E166E17EC88
:104C38003EF01E6E1E50030B0809936E1E38E842A4
:104C4800070B040B1E6E1E509212000E176E6F0E8D
:104C5800166E17EC3EF00001606F000160BFF19E18
:104C6800000E176E500E166E17EC3EF00001606FC6
:104C78000001D8906035F80B1E6E1E500109946E25
:104C88000101010E176E01011C0E166E000E196E41
:104C9800000E186E000E1B6E0A0E1A6E07EC3DF021
:104CA8000101010E176E0101260E166E000E196E17
:104CB800000E186E000E1B6E0A0E1A6E07EC3DF001
:104CC8000001606F000E00010001CF6F000160510C
:104CD8008150010B0001606F8130010B0001616F91
:104CE800D890000161350001626F0001636B00011B
:104CF80063378230E832E832010B0001646F656B7C
:104D08000001D890643765370001D890643765375B
:104D18008238010B0001666F676B0001D890663717
:104D280067370001D890663767370001D890663733
:104D380067378238E832010B0001686F696B000140
:104D4800683B693BF00E691768510F0B6913F00E49
:104D580068178238E832E832010B00016A6F6B6B22
:104D6800050ED89000016A376B37E82EFAD78234DF
:104D7800E836010B00016C6F6D6B060ED8900001D0
:104D88006C376D37E82EFAD78030E832010B000116
:104D98006E6F6F6B070ED89000016E376F37E82E75
:104DA800FAD78030010B0001706F000170510001CB
:104DB800726F716B8050010B0001736F746B090E79
:104DC800D890000173377437E82EFAD70001715173
:104DD800000173250001756F0001725100017421F3
:104DE8000001766F00016E51000175250001776F93
:104DF80000016F51000176210001786F00016C51AC
:104E0800000177250001796F00016D5100017821BB
:104E180000017A6F00016A510001792500017B6F5A
:104E280000016B5100017A2100017C6F000168517B
:104E380000017B2500017D6F0001695100017C2183
:104E480000017E6F0001665100017D2500017F6F22
:104E58000001675100017E210001806F000164514B
:104E680000017F250001816F00016551000180214B
:104E78000001826F00016251000181250001836FEA
:104E880000016351000182210001846F000160511B
:104E98000001832500010001C76F0001000E000119
:104EA80084210001C86F1200BBEC3BF0CBEC3AF058
:104EB80028EC25F010EC39F040EC1FF00400FA0E55
:104EC80000010001D6651ED000010001D905D8B443
:104ED80019D00001C06F020E3A6E0001C0510001E6
:104EE8000001D8694BEC3EF0000E176E010E166EED
:104EF8000001C06FFF0E186E0001C0516BEC3CF052
:104F080010EC39F00001C06F000E00010001F16FD4
:104F18000001C05184EC3AF02ED100010001D829DB
:104F2800D8A404D00001C06F010E1FD10001C06FCA
:104F3800030E00010001D96F0001C051C1EC3CF023
:104F48002DD13EEC34F02AD1C1EC3CF027D1000140
:104F58000001F1AF0BD000010001F451F311D8A406
:104F680003D051EC12F002D0A9EC22F00A0E010194
:104F78000101005D000E01010159000E01010259F5
:104F8800000E010101010359D8A008D1000E176EC7
:104F9800500E166E17EC3EF00001C06F000E176E33
:104FA8004F0E166E17EC3EF000010001C46F0001B1
:104FB800C0510001C36F000E01010101006F000E16
:104FC8000101016F000E0101026F000E0101036F64
:104FD800CFC0C0F0010E0001C16FC26B0001C02B31
:104FE80004D0D8900001C137C2370001C02FF9D7CB
:104FF80000010001C3510001C11700010001C451A3
:105008000001C2170001C251C111D8B499D0650E70
:1050180000010001CF25166E176A000E172217EC43
:105028003EF00001C06F0001C0AD8AD0650E0001DE
:105038000001CF25166E176A000E172217EC3EF0F6
:105048000001C06F0001C0BF59D07AD081B030D004
:1050580081EC33F075D081B22BD081EC33F070D075
:1050680082B626D081EC33F06BD082B821D081ECA7
:1050780033F066D082BA1CD081EC33F061D082BCA8
:1050880017D081EC33F05CD082BE12D081EC33F0C3
:1050980057D080B40DD081EC33F052D080B208D014
:1050A80081EC33F04DD080B003D081EC33F048D0A0
:1050B80000010001CF51010D01011C0EF324D96E2E
:1050C8000101010EF420DA6E000EDF6E000100010E
:1050D800CF51010D0101260EF324D96E0101010EF5
:1050E800F420DA6E000EDF6E2BD00001C06F000EC8
:1050F80000010001CF6F0001C05122D00001000162
:10510800CF51000AD8B4A2D7010AD8B4A4D7030A49
:10511800D8B4A6D7010AD8B4A8D7070AD8B4AAD74A
:10512800010AD8B4ACD7030AD8B4AED7010AD8B4A8
:10513800B0D70F0AD8B4B2D7010AD8B4B4D7D5D7E4
:1051480000010001CF2B090E00010001CF6526D018
:105158000001C06F000E00010001CF6F09D03EECC6
:105168003EF01CD00001C06F000E00010001D96F95
:105178000001C05113D000010001D951000AD8B470
:10518800CCD6010AD8B4DDD6030AD8B4DDD6010AD4
:10519800D8B4DDD6070AD8B4E2D7E4D7E90E0101BE
:1051A8000101045D030E01010559000E01010659B4
:1051B800000E010101010759D8A016D0000E010107
:1051C8000101046F000E0101056F000E0101066F59
:1051D800000E0101076FEEEC39F000010001D95112
:1051E800030AD8B462EC19F03B0E00010001D26545
:1051F80028D00001C06F000E00010001D26F00012D
:10520800C05100010001D12B3B0E00010001D16506
:105218000BD00001C06F000E00010001D16F00012A
:10522800C05100010001D02B170E00010001D0650C
:1052380008D00001C06F000E00010001D06F00010E
:10524800C0515AEC3EF03AD6276E000E386E275001
:105258007750C00B2B6E2B6638D060AE13D0A4905D
:1052680074AE07D025C0D9FF26C0DAFF000EDB8652
:10527800749E60A002D0388001D038900F0E2E6E38
:10528800600E21D00F010F0150AF86D0A49274ACEC
:1052980007D025C0D9FF26C0DAFF000EDB86749C34
:1052A8000F010F015051070B386E020E386006D0FF
:1052B80025C0D9FF26C0DAFF000EDB8E0F010F0EC6
:1052C8002E6E0F01500E2D6E7AD02B50400AD8A4A6
:1052D80057D060AE04D00F0E2E6E600E4FD00F0167
:1052E8000F0150AF06D00F010F0E2E6E0F01500E9A
:1052F80045D00D01F8B509D00E0120AF06D00E013A
:105308000E0E2E6E0E01200E39D00D01F8B709D001
:105318000E0130AF06D00E010E0E2E6E0E01300EAD
:105328002DD00D01F8B909D00E0140AF06D00E01FD
:105338000E0E2E6E0E01400E21D00D01F8BB08D0C6
:105348000E0150AF05D00E010E0E2E6E0E01CFD7F6
:105358000D01F8BD08D00E0160AF05D00E010E0E8C
:105368002E6E0E01BAD70D01F8BF16D00E0170AF20
:1053780013D00E010E0E2E6E0E01700E2D6E0ED075
:1053880074AE0AD06F50070B166E3AEC3AF016C09E
:105398002DF017C02EF002D0000E8DD02DC0D9FFF1
:1053A8002EC0DAFFDF501F0B386EA49274AC07D002
:1053B80025C0D9FF26C0DAFF000EDB86749C2DC0FD
:1053C80028F02EC029F025C0D9FF26C0DAFF000E2C
:1053D800DF6E20EE05F02D50D9262E50DA22DF5050
:1053E8002C6E2C500F0B23C0D9FF24C0DAFFDF6EC0
:1053F8002CAC06D025C0D9FF26C0DAFF000EDB8C06
:1054080020EE02F02D50D9262E50DA22DF502C6ED5
:105418002CA609D025C0D9FF26C0DAFF000EDB8AEA
:10542800276E010E02D0276E000E2C6E2750010E3B
:105438002D24166E000E2E20176E1FC018F020C0E7
:1054480019F02CC01AF0FAEC34F0060E2D26000ED6
:105458002E2223C0D9FF24C0DAFFDF502C6E276E1E
:10546800000E2A6E27500FD02DC0D9FF2EC0DAFFAC
:1054780021C0E1FF22C0E2FFDFCFE7FF2D4A2E2A3D
:10548800214A222A2A2A2C502A5CD8A0EDD7A4AE79
:1054980007D025C0D9FF26C0DAFF000EDB88A49EFE
:1054A80028C0D9FF29C0DAFF7F0EDF162B50800AEB
:1054B800D8B4749E010E12000F010F0E00010001F6
:1054C800616F0F01400E0001606F0F010F0E0001A8
:1054D8000001636F0F01300E0001626F0F010F0EA4
:1054E80000010001656F0F01200E0001646F0E01BD
:1054F8000E0E00010001676F0E01200E0001666F9D
:105508000E010E0E00010001696F0E01300E000140
:10551800686F0E010E0E000100016B6F0E01400E48
:1055280000016A6F0E010E0E000100016D6F0E0181
:10553800500E00016C6F0E010E0E000100016F6F1E
:105548000E01600E00016E6F0E010E0E00010001CB
:10555800716F0E01700E0001706F7750C00B000163
:105568000001726F00010001726703D0296E020EFC
:1055780002D0296E080E00010001736F29500D0139
:105588000D01D890F83100010001756F296E000EE9
:1055980000010001796F2950ABD000010001795159
:1055A800020D0001600EF324D96E0001000EF420F4
:1055B800DA6E0001DECF7AF00001DDCF7BF07AC031
:1055C80076F07BC077F0020E00010001796507D004
:1055D8000001D89075330001000175A186D07AC00A
:1055E800D9FF7BC0DAFFDF50296E29B67ED07AC09A
:1055F800D9FF7BC0DAFFFC0EDF1628C029F0030EA6
:1056080029167AC0D9FF7BC0DAFF2950DF1228ACEF
:1056180006D02750400900010001786F02D027C04A
:1056280078F0000120EE05F000017A51D92600013A
:105638007B51DA22000178C0DFFF28AA03D0296E47
:10564800010E02D0296E000E00010001786F29506A
:10565800010E000100017A25166E000E00010001FE
:105668007B21176E21C018F022C019F023C01AF050
:1056780024C01BF078C01CF0D7EC37F0060E0001F0
:1056880000017A27000E00017B23296E000E00011D
:105698000001746F295013D025C0D9FF26C0DAFF46
:1056A8007AC0E1FF7BC0E2FFDFCFE7FF254A262A69
:1056B800000100017A4B7B2B00010001742B27505D
:1056C80000010001745DD8A0E7D776C0D9FF77C084
:1056D800DAFFDF50296E29B406D076C0D9FF77C02B
:1056E800DAFF000EDB86010E0CD000010001792BD9
:1056F80000010001735100010001795DD8A04DD768
:10570800000E12004BEC3EF0000E176E430E166EA4
:10571800346E000E186E34506BEC3CF04BEC3EF0DF
:10572800000E176E440E166E346E000E186E34504E
:105738006BEC3CF0346E000E00010001816F3450B8
:1057480011D04BEC3EF0450E000100018125166E8C
:10575800176A000E172281C018F06BEC3CF00001AC
:105768000001812B090E000100018165EAD74BEC8D
:105778003EF0000E176E4F0E166E346E000E186E49
:1057880034506BEC3CF04BEC3EF0000E176E500EB4
:10579800166E346E000E186E34506BEC3CF0346E9E
:1057A800000E00010001816F345013D04BEC3EF025
:1057B8005B0E000100018125166E176A000E172284
:1057C800346E980E186E34506BEC3CF000010001FA
:1057D800812B090E000100018165E8D7346E000EA7
:1057E80000010001816F345013D04BEC3EF0650E80
:1057F800000100018125166E176A000E1722346E0B
:10580800830E186E34506BEC3CF000010001812BC4
:10581800090E000100018165E8D74BEC3EF0000E4F
:10582800176E6F0E166E346E000E186E34506BECD9
:105838003CF04BEC3EF0000E176E700E166E346E98
:10584800000E186E34506BEC3CF0346E000E000104
:105858000001816F345013D04BEC3EF0720E000102
:1058680000018125166E176A000E1722346E000E8D
:10587800186E34506BEC3CF000010001812B130EC4
:10588800000100018165E8D7346E000E00010001B7
:10589800816F345013D04BEC3EF0860E00010001AE
:1058A8008125166E176A000E1722346E000E186EC8
:1058B80034506BEC3CF000010001812B130E000109
:1058C80000018165E8D74BEC3EF0000E176E710EB3
:1058D800166E346E030E186E34506BEC3CF0346E5A
:1058E800000E00010001816F34502AD0346E000E82
:1058F80000010001806F34501BD04BEC3EF00001DA
:1059080000018151080D000100018051F326000EAD
:10591800F4229A0EF324166E000EF420176E346EDD
:10592800000E186E34506BEC3CF000010001802B27
:10593800070E000100018065E0D700010001812BFE
:10594800070E000100018165D1D740EC1FF012005D
:10595800000100018651FF0A356E000100018551E2
:10596800830AD8A40BD00001876F000E0001000144
:10597800D46F00018751D4C035F0FDD0830E0001EB
:105988000001856516D0890E00010001856111D0DE
:105998000001000185517C0F1B6E86C01CF0A7EC2E
:1059A8003DF00001000185517C0F186EFCEC3DF0C4
:1059B800E1D0000100018551920AD8A41AD0000153
:1059C800000186510001886F876BFF0E36140001B5
:1059D800896F000E371400018A6F0001875100019A
:1059E8008911366E0001885100018A11376E3750CF
:1059F800C1D0000100018551930AD8A414D0000E2B
:105A080036140001876FFF0E37140001886F0001FC
:105A18000001865100018711366E00018851376EEA
:105A280036C035F0A8D0880E00010001856533D056
:105A3800910E0001000185612ED037C087F087C024
:105A480088F00001896BFF0E00018817000E891786
:105A5800000188298911D8A489D0FF0E36140001C5
:105A6800876F000E37140001886F0001872988119D
:105A7800D8A47CD0000100018551770F1B6E86C029
:105A88001CF046EC3DF0000100018551770F186EBF
:105A9800F3EC3DF06FD0CF0E00010001856533D0E7
:105AA800E00E0001000185612ED037C087F087C065
:105AB80088F00001896BFF0E00018817000E891716
:105AC800000188298911D8A451D0FF0E361400018D
:105AD800876F000E37140001886F0001872988112D
:105AE800D8A444D0000100018551300F1B6E86C038
:105AF8001CF057EC3DF0000100018551300F186E85
:105B080005EC3EF037D0000100018551A20AD8A467
:105B18002DD0000100018651550AD8A40BD0000EE3
:105B280000010001CC6F000E0001CB6F0001876FF0
:105B3800550E18D0000100018651AA0AD8A41BD01E
:105B4800E80E00010001CB5D030E0001CC59D8B06E
:105B580006D043EC3EF00001876FAA0E03D0000187
:105B6800876F000E356E0001875105D000010001D6
:105B78008651FF0A356E355012000001A46F000EE1
:105B880000010001A96F0001A451090E00010001E4
:105B9800A36501D0FFD05B0E00010001A325166E9E
:105BA800176A000E172217EC3EF000010001A86FDB
:105BB80000010001A8AFEED06FD081A008D000018D
:105BC800A46F010E00010001A96F0001A45181908A
:105BD80084D081A208D00001A46F010E0001000149
:105BE800A96F0001A451819278D082A608D0000143
:105BF800A46F010E00010001A96F0001A451829653
:105C08006CD082A808D00001A46F010E0001000129
:105C1800A96F0001A451829860D082AA08D000011F
:105C2800A46F010E00010001A96F0001A451829A1E
:105C380054D082AC08D00001A46F010E000100010D
:105C4800A96F0001A451829C48D082AE08D00001FF
:105C5800A46F010E00010001A96F0001A451829EEA
:105C68003CD080A417D00ED080A208D00001A46F29
:105C7800010E00010001A96F0001A45180922DD0EE
:105C880080A008D00001A46F010E00010001A96FD7
:105C98000001A451809421D000010001A351000A01
:105CA800D8B48BD7010AD8B494D7030AD8B49DD7EF
:105CB800010AD8B4A6D7070AD8B4AFD7010AD8B40E
:105CC800B8D7030AD8B4C1D7010AD8B4CAD70F0ABB
:105CD800D8B4CAD7010AD8B4D3D700010001A95152
:105CE800D8B414D000010001A8A910D0A3C030F086
:105CF8000001A46F140E316E0001A4510001A56FBC
:105D0800040E326E0001A5514CEC3BF0A3C0A4F088
:105D1800010E0001A56FA66B0001A42B04D0D8903A
:105D28000001A537A6370001A42FF9D70001A55116
:105D380000010001C5130001A65100010001C613AE
:105D4800730E00010001A325166E176A000E1722B4
:105D580017EC3EF00001A46F720E00010001A325AC
:105D6800166E176A000E172217EC3EF00001A56F99
:105D78000001A5510001A76FA66B0001A451000105
:105D8800A62501010101086F0001000E0001A721ED
:105D98000101096F12000001A46F000E000100014B
:105DA800A96F0001A451090E00010001A36501D0EB
:105DB800F6D05B0E00010001A325166E176A000ECF
:105DC800172217EC3EF000010001A86F0001000146
:105DD800A8AFE5D06FD081B008D00001A46F010E44
:105DE80000010001A96F0001A451818084D081B213
:105DF80008D00001A46F010E00010001A96F000185
:105E0800A451818278D082B608D00001A46F010E17
:105E180000010001A96F0001A45182866CD082B8EC
:105E280008D00001A46F010E00010001A96F000154
:105E3800A451828860D082BA08D00001A46F010EF4
:105E480000010001A96F0001A451828A54D082BCCC
:105E580008D00001A46F010E00010001A96F000124
:105E6800A451828C48D082BE08D00001A46F010ED4
:105E780000010001A96F0001A451828E3CD080B4BA
:105E880017D00ED080B208D00001A46F010E000117
:105E98000001A96F0001A45180822DD080B008D0E4
:105EA8000001A46F010E00010001A96F0001A451B7
:105EB800808421D000010001A351000AD8B48BD7F7
:105EC800010AD8B494D7030AD8B49DD7010AD8B424
:105ED800A6D7070AD8B4AFD7010AD8B4B8D7030AE7
:105EE800D8B4C1D7010AD8B4CAD70F0AD8B4CAD708
:105EF800010AD8B4D3D700010001A8A537D0000102
:105F08000001A351020D860EF324166E000EF42034
:105F1800176E17EC3EF00001A46F0001A4510001B8
:105F2800A66FA56B00010001A351020D870EF32493
:105F3800166E000EF420176E17EC3EF00001A76FE6
:105F48000001A7510001A527000EA62300010001AA
:105F5800A351020D0001DD0EF324D96E0001000EDD
:105F6800F420DA6EA5C0DEFFA6C0DDFF0001000147
:105F7800A951D8B414D000010001A8A710D0A3C01B
:105F880030F00001A46F140E316E0001A45100011D
:105F9800A56F030E326E0001A5514CEC3BF01200C8
:105FA800196E000E246E195037503610D8A4D9D067
:105FB800186607D0000E176E430E166E17EC3EF0EB
:105FC800F0D01804D8A407D0000E176E440E166E31
:105FD80017EC3EF0E6D0010E18640CD00C0E1860D9
:105FE80009D0430E1824166E176A000E172217ECF4
:105FF8003EF0D7D018500C0AD8A409D09230010B23
:10600800196E9250010B1A6ED8901A344AD0185053
:106018000D0AD8A448D09350010B196E9330010B88
:106028001A6ED8901A341B6E9430E832E832010B9D
:106038001C6ED8901C36D8901C369438010B1D6EF7
:10604800D8901D36D8901D36D8901D369438E83231
:10605800010B1E6E1E3AF00E1E169438E832E83216
:10606800010B1F6E050E206ED8901F36202EFCD710
:106078009434E836010B216E060E226ED890213634
:10608800222EFCD79230E832010B236E000E23B08B
:10609800800E236E235021241F241E241D241C241B
:1060A8001B2419247ED00D0E18644CD0180E1860CD
:1060B80049D028D0000E81B0010E73D0000E81B2F5
:1060C800010E6FD0000E82B6010E6BD0000E82B8A2
:1060D800010E67D0000E82BA010E63D0000E82BC9A
:1060E800010E5FD0000E82BE010E5BD0000E80B4A0
:1060F800010E57D0000E80B2010E53D0000E80B0B2
:10610800010E4FD018500E0AD8B4D4D7010AD8B40B
:10611800D5D71F0AD8B4D6D7010AD8B4D7D7030A17
:10612800D8B4D8D7010AD8B4D9D7070AD8B4DAD797
:10613800010AD8B4DBD7030AD8B4DCD7010AD8B42B
:10614800DDD730D0170E18642DD02F0E18602AD046
:10615800430E1824166E176A000E172217EC3EF02D
:1061680020D036043710D8A40CD0280E18601AD0C6
:10617800720E1824166E176A000E172217EC3EF0DE
:1061880010D03650020A3710D8A40CD0400E186030
:1061980009D09A0E1824166E176A000E172217ECEB
:1061A8003EF0246E245012001B6E000E2A6E1B5007
:1061B8001A50800AD8A408D0D3C02AF01B6E000E4B
:1061C80000010001D36F07D01A50810AD8A405D066
:1061D8001B6E010E08D01B50D8D01A50820AD8A4C2
:1061E80004D01B6E060E2A6EF6D71A50830AD8A45E
:1061F80003D0D4C02AF0C9D01A50940AD8A403D026
:1062080058EC3EF0C1D01A50950AD8A403D056ECE9
:106218003EF0BAD01A50960AD8A403D054EC3EF0F7
:10622800B3D0890E1A6006D01A507C0F186EFCEC99
:106238003DF0AAD0880E1A6409D0910E1A6006D0D3
:106248001A50770F186EF3EC3DF09ED01A50910A51
:10625800D8A403D0D8C02AF098D01A50930AD8A44A
:1062680003D036C02AF091D01A50920AD8A402D08E
:1062780037508AD01A50970AD8A403D052EC3EF06F
:1062880083D01A50980AD8A403D050EC3EF07CD0A2
:106298001A50990AD8A403D04EEC3EF075D0990E46
:1062A8001A642DD09E0E1A602AD0EAEC3DF019C06F
:1062B80023F018C022F017C021F016C020F01A50A1
:1062C800660F286E285000081B6ED8901B36D89091
:1062D8001B36D8901B361B50180F20C01CF021C04D
:1062E8001DF022C01EF023C01FF0E82A05D0D89068
