:0408000065EF04F0AC
:10081800D8CF05F0E8CF06F0E0CF07F0F2A401D07A
:1008280001D048D0FB0E026E1D0E016EF6EC26F0CC
:100838000001704B712B6E4B6F2B010E6027000E61
:100848006123000E6223000E6323010E6427000E4D
:100858006523000E6623000E67236C4B6D2B82A068
:1008680001D001D002D0786B01D0782B582A56508D
:10087800020AD8A401D001D00ED0640E586401D069
:1008880001D009D082A201D001D002D0829201D039
:100898008282586A0ED05604D8A401D001D003D061
:1008A8008282586A06D0566601D001D002D0829260
:1008B800586AF29407C0E0FF06C0E8FF05C0D8FFF9
:1008C800100025EF25F07777772E6575726F736FB7
:1008D800757263652E73652F6265696A696E675FF5
:1008E800322E786D6C000000E8CFE3F00001E06B79
:1008F800E26B4F1CE16F5350521002E05DEF0AF0BB
:10090800E36710D021EC27F0096A430E086E4FC048
:100918000AF0F3EC24F0096A430E086EEDEC26F0B9
:10092800DBEF0BF0E30510E121EC27F0096A440E38
:10093800086E4FC00AF0F3EC24F0096A440E086E02
:10094800EDEC26F0DBEF0BF0010EE3651BD00C0E8F
:10095800E36118D021EC27F0430E0001E325086E6F
:10096800096A000E09224FC00AF0F3EC24F0430E86
:100978000001E325086E096A000E0922EDEC26F055
:10098800DBEF0BF0E3510C0A26E121EC27F0096AB2
:100998004F0E086E4F50030B0A6EF3EC24F0010E55
:1009A8004FA2000E0001D86F9250D819FE0BD8192B
:1009B800926E010E4FA0000ED86FD8479250D819EA
:1009C800FD0BD819926E9230010BD86F9250010B23
:1009D800020DF35096D0E3510D0A01E095D021ECB9
:1009E80027F0096A500E086E4FC00AF0F3EC24F0A5
:1009F800010E4FAE000E0001D86FD847D84792506D
:100A0800D819FB0BD819926E010E4FAC000ED86F97
:100A1800D833D8339450D8197F0BD819946E010E57
:100A28004FAA000ED86FD83BD847D8479450D8194A
:100A3800BF0BD819946E010E4FA8000ED86FD83B83
:100A4800D8479450D819DF0BD819946E010E4FA6C9
:100A5800000ED86FD83B9450D819EF0BD819946E64
:100A6800010E4FA4000ED86FD847D847D8479450E6
:100A7800D819F70BD819946E010E4FA2000ED86F33
:100A8800D8479350D819FD0BD819936E010E4FA073
:100A9800000ED86F9350D819FE0BD819936E935047
:100AA800010BD86F9330010B020DF3CFD9F09430BE
:100AB800E832E832010B040DF3CFDAF09438010B79
:100AC800080DF3CFDBF09438E832010B100DF3CFAB
:100AD800DCF09438E832E832010B200DF3CFDDF07A
:100AE8009434E836010B400DF3CFDEF09230E83253
:100AF800010B800DF350DE25DD25DC25DB25DA250D
:100B0800D925D825DCEF0BF00D0EE3653BD2180E86
:100B1800E36138D24D0EE325086E096A000E0922FA
:100B2800EDEC26F00001D86FD8BF0CD2DDEF0BF04A
:100B3800010EE06F4F0428E18180000E81B0010EA4
:100B4800E16F010EE26F096A5B0E086EEDEC26F0AC
:100B58000001D86FD8A5DDEF0BF0096A870E086E83
:100B6800EDEC26F00001D86F096A860E086EEDECF0
:100B780026F00001DA6FD96BD851D9257F6F000EA6
:100B8800DA21806FDDEF0BF04F66DDEF0BF081901F
:100B9800000E81B0010EE16FE26BDDEF0BF0010E8C
:100BA800E06F4F041EE18182000E81B2010EE16FF9
:100BB800010EE26F096A5C0E086EEDEC26F000018A
:100BC800D86FD8A5DDEF0BF0096A890E086EEDEC39
:100BD80026F00001D86F096A880E086EEDEC26F041
:100BE8005BD24F66DDEF0BF08192000E81B2010EF1
:100BF800E16FD2D7010EE06F4F0428E18286000E24
:100C080082B6010EE16F010EE26F096A5D0E086E91
:100C1800EDEC26F00001D86FD8A5DDEF0BF0096ADE
:100C28008B0E086EEDEC26F00001D86F096A8A0E6B
:100C3800086EEDEC26F00001DA6FD96BD851D92592
:100C4800836F000EDA21846FDDEF0BF04F66DDEF66
:100C58000BF08296000E82B6010EE16F9DD7010E51
:100C6800E06F4F0428E18288000E82B8010EE16F20
:100C7800010EE26F096A5E0E086EEDEC26F00001C7
:100C8800D86FD8A5DDEF0BF0096A8D0E086EEDEC74
:100C980026F00001D86F096A8C0E086EEDEC26F07C
:100CA8000001DA6FD96BD851D925856F000EDA218A
:100CB800866FDDEF0BF04F66DDEF0BF08298000ECC
:100CC80082B8010EE16F68D7010EE06F4F0428E18A
:100CD800828A000E82BA010EE16F010EE26F096A84
:100CE8005F0E086EEDEC26F00001D86FD8A5DDEF99
:100CF8000BF0096A8F0E086EEDEC26F00001D86F34
:100D0800096A8E0E086EEDEC26F00001DA6FD96BD9
:100D1800D851D925876F000EDA21886FDDEF0BF0E7
:100D28004F66DDEF0BF0829A000E82BA010EE16F7A
:100D380033D7010EE06F4F0428E1828C000E82BC8D
:100D4800010EE16F010EE26F096A600E086EEDECAC
:100D580026F00001D86FD8A5DDEF0BF0096A910ED7
:100D6800086EEDEC26F00001D86F096A900E086E47
:100D7800EDEC26F00001DA6FD96BD851D925896FCF
:100D8800000EDA218A6FDDEF0BF04F66DDEF0BF016
:100D9800829C000E82BC010EE16FFED6010EE06F50
:100DA8004F0428E1828E000E82BE010EE16F010E13
:100DB800E26F096A610E086EEDEC26F00001D86F4B
:100DC800D8A5DDEF0BF0096A930E086EEDEC26F05E
:100DD8000001D86F096A920E086EEDEC26F000014A
:100DE800DA6FD96BD851D9258B6F000EDA218C6F49
:100DF800DDEF0BF04F66DDEF0BF0829E000E82BE3A
:100E0800010EE16FC9D6010EE06F4F0428E180841E
:100E1800000E80B4010EE16F010EE26F096A620EE6
:100E2800086EEDEC26F00001D86FD8A5DDEF0BF0C9
:100E3800096A950E086EEDEC26F00001D86F096A74
:100E4800940E086EEDEC26F00001DA6FD96BD851DC
:100E5800D9258D6F000EDA218E6FDDEF0BF04F660E
:100E6800DDEF0BF08094000E80B4010EE16F94D694
:100E7800010EE06F4F0428E18082000E80B2010E5F
:100E8800E16F010EE26F096A630E086EEDEC26F061
:100E98000001D86FD8A5DDEF0BF0096A970E086E30
:100EA800EDEC26F00001D86F096A960E086EEDEC9D
:100EB80026F00001DA6FD96BD851D9258F6F000E53
:100EC800DA21906FDDEF0BF04F66DDEF0BF08092CB
:100ED800000E80B2010EE16F5FD6010EE06F4F0485
:100EE80028E18080000E80B0010EE16F010EE26FF4
:100EF800096A640E086EEDEC26F00001D86FD8A5DB
:100F0800DDEF0BF0096A990E086EEDEC26F0000192
:100F1800D86F096A980E086EEDEC26F00001DA6FBA
:100F2800D96BD851D925916F000EDA21926FDDEF78
:100F38000BF04F66DDEF0BF08090000E80B0010ED5
:100F4800E16F2AD6E3510E0A01E1F2D5010A01E167
:100F580026D61F0A01E14ED6010A01E180D6030A0E
:100F680001E1B2D6010A01E1E4D6070A01E116D788
:100F7800010A01E148D7030A01E17AD7010AADE085
:100F8800DDEF0BF0170EE3658CD2220EE36189D2F8
:100F980069D221EC27F0720E0001E325086E096A78
:100FA800000E09224FC00AF0F3EC24F0720E000183
:100FB800E325086E096A000E0922EDEC26F000010F
:100FC800E16F4FA019D08190E26B6881096A720EB7
:100FD800086EEDEC26F00001D86F096A720E086EF3
:100FE800EDEC26F00001DA6FD96BD851D925936F53
:100FF800000EDA21946F06D0FE0E6817030E6917EB
:101008008190E26B4FB4A9D5D4D321EC27F0720EAE
:101018000001E325086E096A000E09224FC00AF094
:10102800F3EC24F0720E0001E325086E096A000E45
:101038000922EDEC26F00001E16F4FA219D0819250
:10104800E26B6883096A730E086EEDEC26F0000106
:10105800D86F096A720E086EEDEC26F00001DA6F9F
:10106800D96BD851D925956F000EDA21966F06D025
:10107800FD0E6817030E69178192E26B4FA499D38E
:10108800096A870E086EEDEC26F00001D86F096A30
:10109800860E086EEDEC26F00001DA6FD96BD85198
:1010A800D925816F000EDA21826F83D321EC27F0D6
:1010B800720E0001E325086E096A000E09224FC06E
:1010C8000AF0F3EC24F0720E0001E325086E096AB9
:1010D800000E0922EDEC26F00001E16F4FA019D0B7
:1010E8008296E26B6885096A770E086EEDEC26F049
:1010F8000001D86F096A760E086EEDEC26F0000143
:10110800DA6FD96BD851D925976F000EDA21986F0D
:1011180006D0FB0E6817030E69178296E26B4FB470
:101128007ED547D321EC27F0720E0001E325086E27
:10113800096A000E09224FC00AF0F3EC24F0720E7F
:101148000001E325086E096A000E0922EDEC26F07D
:101158000001E16F4FA019D08298E26B6887096A95
:10116800790E086EEDEC26F00001D86F096A780E4A
:10117800086EEDEC26F00001DA6FD96BD851D9254D
:10118800996F000EDA219A6F06D0F70E6817030ED2
:1011980069178298E26B4FB477D50BD321EC27F00F
:1011A800720E0001E325086E096A000E09224FC07D
:1011B8000AF0F3EC24F0720E0001E325086E096AC8
:1011C800000E0922EDEC26F00001E16F4FA419D0C2
:1011D800829AE26B6889096A7B0E086EEDEC26F04C
:1011E8000001D86F096A7A0E086EEDEC26F000014E
:1011F800DA6FD96BD851D9259B6F000EDA219C6F15
:1012080006D0EF0E6817030E6917829AE26B4FB487
:1012180070D5CFD221EC27F0720E0001E325086EBD
:10122800096A000E09224FC00AF0F3EC24F0720E8E
:101238000001E325086E096A000E0922EDEC26F08C
:101248000001E16F4FA019D0829CE26B688B096A9C
:101258007D0E086EEDEC26F00001D86F096A7C0E51
:10126800086EEDEC26F00001DA6FD96BD851D9255C
:101278009D6F000EDA219E6F06D0DF0E6817030EF1
:101288006917829CE26B4FB469D593D221EC27F0A1
:10129800720E0001E325086E096A000E09224FC08C
:1012A8000AF0F3EC24F0720E0001E325086E096AD7
:1012B800000E0922EDEC26F00001E16F4FA019D0D5
:1012C800829EE26B688D096A7F0E086EEDEC26F04F
:1012D8000001D86F096A7E0E086EEDEC26F0000159
:1012E800DA6FD96BD851D9259F6F000EDA21A06F1C
:1012F80006D0BF0E6817030E6917829EE26B4FB4C3
:1013080062D557D221EC27F0720E0001E325086E52
:10131800096A000E09224FC00AF0F3EC24F0720E9D
:101328000001E325086E096A000E0922EDEC26F09B
:101338000001E16F4FA019D08094E26B688F096AB1
:10134800810E086EEDEC26F00001D86F096A800E58
:10135800086EEDEC26F00001DA6FD96BD851D9256B
:10136800A16F000EDA21A26F06D07F0E6817030E58
:1013780069178094E26B4FB45BD51BD221EC27F040
:10138800720E0001E325086E096A000E09224FC09B
:101398000AF0F3EC24F0720E0001E325086E096AE6
:1013A800000E0922EDEC26F00001E16F4FA019D0E4
:1013B8008092E26B6981096A830E086EEDEC26F073
:1013C8000001D86F096A820E086EEDEC26F0000164
:1013D800DA6FD96BD851D925A36F000EDA21A46F23
:1013E80004D0020E69178092E26B4FB456D5E1D152
:1013F80021EC27F0720E0001E325086E096A000E41
:1014080009224FC00AF0F3EC24F0720E0001E32524
:10141800086E096A000E0922EDEC26F00001E16F62
:101428004FA019D08090E26B6983096A850E086E17
:10143800EDEC26F00001D86F096A840E086EEDEC19
:1014480026F00001DA6FD96BD851D925A56F000EA7
:10145800DA21A66F04D0010E69178090E26B4FB4B1
:1014680051D5A7D1E351180A01E193D5010A01E149
:10147800CCD5030A01E11AD6010A01E153D6070ABD
:1014880001E18CD6010A01E1C5D6030A01E1FED6C5
:10149800010A01E137D73F0A01E170D7010AA8E044
:1014A80088D1210EE36585D12F0EE36182D1AEEF9D
:1014B80004F05204531001E05BD1140EE36110D123
:1014C80021EC27F0720E0001E325086E096A000E70
:1014D80009224FC00AF0F3EC24F0720E0001E32554
:1014E800086E096A000E0922EDEC26F00001E16F92
:1014F800DCD0096A730E086EEDEC26F00001D86F97
:10150800096A720E086EEDEC26F00001DA6FD96BED
:10151800D851D925936F000EDA21946F4AD1096A00
:10152800750E086EEDEC26F00001D86F096A740E8E
:10153800086EEDEC26F00001DA6FD96BD851D92589
:10154800956F000EDA21966F34D1096A770E086E0E
:10155800EDEC26F00001D86F096A760E086EEDEC06
:1015680026F00001DA6FD96BD851D925976F000E94
:10157800DA21986F1ED1096A790E086EEDEC26F013
:101588000001D86F096A780E086EEDEC26F00001AC
:10159800DA6FD96BD851D925996F000EDA219A6F75
:1015A80008D1096A7B0E086EEDEC26F00001D86FB1
:1015B800096A7A0E086EEDEC26F00001DA6FD96B35
:1015C800D851D9259B6F000EDA219C6FF2D0096A99
:1015D8007D0E086EEDEC26F00001D86F096A7C0ECE
:1015E800086EEDEC26F00001DA6FD96BD851D925D9
:1015F8009D6F000EDA219E6FDCD0096A7F0E086E9F
:10160800EDEC26F00001D86F096A7E0E086EEDEC4D
:1016180026F00001DA6FD96BD851D9259F6F000EDB
:10162800DA21A06FC6D0096A810E086EEDEC26F0AB
:101638000001D86F096A800E086EEDEC26F00001F3
:10164800DA6FD96BD851D925A16F000EDA21A26FB4
:10165800B0D0096A830E086EEDEC26F00001D86F51
:10166800096A820E086EEDEC26F00001DA6FD96B7C
:10167800D851D925A36F000EDA21A46F9AD0096A30
:10168800850E086EEDEC26F00001D86F096A840E0D
:10169800086EEDEC26F00001DA6FD96BD851D92528
:1016A800A56F000EDA21A66F84D0E351010A01E18B
:1016B80020D7020A01E133D7060A01E146D7020A18
:1016C80001E159D70E0A01E16CD7020A80E0060A47
:1016D80094E0020AA8E01E0ABCE0020AD0E069D041
:1016E800130EE36566D0280EE36163D021EC27F082
:1016F800720E0001E325086E096A000E09224FC028
:101708000AF0F3EC24F0720E0001E325086E096A72
:10171800000E0922EDEC26F00001E16FE351150AF5
:1017280002E1B1EF05F0020A02E1E8EF05F00E0A66
:1017380002E113EF06F0020A02E148EF06F0060A9A
:1017480002E17DEF06F0020A02E1B2EF06F03E0A7E
:1017580002E1E7EF06F0020A02E11CEF07F0060AD1
:1017680002E151EF07F0020A02E186EF07F021D00B
:101778005250020A53101DE1400EE3611AD021ECC9
:1017880027F09A0E0001E325086E096A000E092267
:101798004FC00AF0F3EC24F020EC13F09A0E00018D
:1017A800E325086E096A000E0922EDEC26F0000117
:1017B800E16FE05121E0430EE325086E096A000E4F
:1017C8000922EDEC26F00001DF6FE2510BE0DFA704
:1017D80013D0140ED66F030ED76FE351F20F1CEC23
:1017E80024F00AD0DFA908D0140ED66F040ED76FE4
:1017F800E351F20F1CEC24F0E15112000101066BD9
:10180800096A500E086EEDEC26F00001D86F096ADF
:101818004F0E086EEDEC26F00001DA6FD96BD85147
:10182800D9250101006F0001000EDA210101016FC5
:10183800086B090E086501D0B2D208C1D8F0010EB4
:101848000001D96FDA6BD82B03D0D890D937DA37A3
:10185800D82FFBD7010100510001D917010101510F
:101868000001DA17DA51D91101E1FCD0650E010146
:101878000825086E096A000E0922EDEC26F0010120
:10188800076F07AF89D232D0000E81B0010E056F05
:1018980041D0000E81B2010E056F3CD0000E82B619
:1018A800010E056F37D0000E82B8010E056F32D0D9
:1018B800000E82BA010E056F2DD0000E82BC010EFB
:1018C800056F28D0000E82BE010E056F23D0000ED2
:1018D80080B4010E056F1ED0000E80B2010E056F98
:1018E80019D0000E80B0010E056F14D00851CCE05D
:1018F800010ACFE0030AD2E0010AD5E0070AD8E0DE
:10190800010ADBE0030ADEE0010AE1E00F0AE4E095
:10191800010AE7E007A12CD005512AE008C1D8F058
:10192800010E0001D96FDA6BD82B03D0D890D937C4
:10193800DA37D82FFBD76A51D9176B51DA17DA5132
:10194800D91116E1010107A50AD01E0E0001D66FB4
:10195800050ED76F010108511CEC24F009D0140EB4
:101968000001D66F030ED76F010108511CEC24F05B
:10197800010107B305672AD008C1D8F0010E00019C
:10198800D96FDA6BD82B03D0D890D937DA37D82F5C
:10199800FBD76A51D9176B51DA17DA51D91116E00A
:1019A800010107A50AD01E0E0001D66F060ED76FDB
:1019B800010108511CEC24F009D0140E0001D66F67
:1019C800040ED76F010108511CEC24F0010107A98E
:1019D80023D0055121E008C1D8F0010E0001D96FCC
:1019E800DA6BD82B03D0D890D937DA37D82FFBD772
:1019F8006A51D9176B51DA17DA51D91103E001018D
:101A080007AB0AD0010E0001D66F020ED76F010195
:101A180008511CEC24F05582010107B70567BCD1B9
:101A280008C1D8F0010E0001D96FDA6BD82B03D0AA
:101A3800D890D937DA37D82FFBD76A51D9176B51D5
:101A4800DA17DA51D91103E1010107ABA5D1010E6B
:101A58000001D66F020ED76F010108511CEC24F06B
:101A680055849AD15B0E01010825086E096A000E9B
:101A78000922EDEC26F00101076F07AF8DD108515F
:101A8800020DF3507F0FD96EDA6ADE50DD103BE0AD
:101A98000851020DF3507F0FD96EDA6ADE06000E88
:101AA800DD5A0851020DF3507F0FD96EDA6ADE5005
:101AB800DD104DE15B0E0825086E096A000E09224B
:101AC800EDEC26F00001D86FD8A541D008C1D8F0B8
:101AD800010ED96FD82B02D0D890D937D82FFCD780
:101AE800D9514F6E000E36EC22F0010107A309D040
:101AF800010E0001D66F020ED76F010108511CECD0
:101B080024F0558024D0860E01010825086E096A44
:101B1800000E0922EDEC26F00001D96FD86B870E74
:101B280001010825086E096A000E0922EDEC26F06D
:101B38000001D827000ED92301010851020DF350E6
:101B48007F0FD96EDA6AD8C0DEFFD9C0DDFF08C1C1
:101B5800D8F0010E0001D96FDA6BD82B03D0D890DA
:101B6800D937DA37D82FFBD76851D9176951DA171F
:101B7800DA51D91101E110D101010851020DF350D8
:101B8800930FD96EDA6ADE50DD1001E1DDD008511D
:101B9800020DF350930FD96EDA6ADE06000EDD5A95
:101BA8000851020DF350930FD96EDA6ADE50DD103A
:101BB80040E0F2D081A002D0819037D08180010E20
:101BC800066F4CD081A202D081922FD08182F7D7A4
:101BD80082A602D0829629D08286F1D782A802D026
:101BE800829823D08288EBD782AA02D0829A1DD00D
:101BF800828AE5D782AC02D0829C17D0828CDFD74C
:101C080082AE02D0829E11D0828ED9D780A402D013
:101C180080940BD08084D3D780A202D0809205D044
:101C28008082CDD780A003D08090066B17D08080AB
:101C3800C6D701010851BEE0010AC4E0030AC8E0A2
:101C4800010ACCE0070AD0E0010AD4E0030AD8E090
:101C5800010ADCE00F0AE0E0010AE4E00851020DA5
:101C6800720EF324086E000EF420096EEDEC26F0D7
:101C78000001D96FD86B01010851020D720EF324CF
:101C8800086E000EF420096EEDEC26F00001D8274E
:101C9800000ED92301010851020DF350930FD96E9C
:101CA800DA6AD8C0DEFFD9C0DDFF065141E05B0E1D
:101CB8000825086E096A000E0922EDEC26F00001DD
:101CC800D86FD8A528D001010851020D860EF3243B
:101CD800086E000EF420096EEDEC26F00001D96FB5
:101CE800D86B01010851020D870EF324086E000E0F
:101CF800F420096EEDEC26F00001D827000ED92358
:101D080001010851020DF3507F0FD96EDA6AD8C06D
:101D1800DEFFD9C0DDFF010107A73ED0140E000188
:101D2800D66F030ED76F010108511CEC24F034D094
:101D380007A932D0140E0001D66F040ED76F010127
:101D480008511CEC24F028D001010851020D720E34
:101D5800F324086E000EF420096EEDEC26F0000165
:101D6800D96FD86B01010851020D730EF324086E68
:101D7800000EF420096EEDEC26F00001D827000EC5
:101D8800D92301010851020DF350930FD96EDA6A75
:101D9800D8C0DEFFD9C0DDFF0101082B4AD5096A8A
:101DA800700E086EEDEC26F0000953E00101026B9D
:101DB8008030010B0001D86F8050010B020DF350E9
:101DC800D8250101036F8150010B0001D86F8130C4
:101DD800010B020DF3CFD9F08230E832E832010B63
:101DE800040DF3CFDAF08238010B080DF3CFDBF0E6
:101DF8008238E832010B100DF3CFDCF08238E8327C
:101E0800E832010B200DF3CFDDF08234E836010B08
:101E1800400DF3CFDEF08030E832010B800DF35037
:101E2800DE25DD25DC25DB25DA25D925D8250101A8
:101E3800046F406A0F0E3F6E010E416E7AC042F089
:101E4800030E436E446E010E466E020E456EFEECA6
:101E580022F08150010B0001D86F8130010BD96F3E
:101E6800D890D935DA6FDB6BDB378230E832E8326D
:101E7800010BDC6FDD6BD890DC37DD37D890DC37B1
:101E8800DD378238010BDE6FDF6BD890DE37DF3746
:101E9800D890DE37DF37D890DE37DF378238E83240
:101EA800010BE06FE16BE03BE13BF00EE117E05125
:101EB8000F0BE113F00EE0178238E832E832010B1D
:101EC800E26FE36B050ED890E237E337E82EFBD7D5
:101ED8008234E836010BE46FE56B060ED890E437E0
:101EE800E537E82EFBD78030E832010BE66FE76B69
:101EF800070ED890E637E737E82EFBD78030010B7E
:101F0800E96FE86B8050010BEA6FEB6B090ED89014
:101F1800EA37EB37E82EFBD7E851EA25EC6FE951B1
:101F2800EB21ED6FE651EC25EE6FE751ED21EF6FF8
:101F3800E451EE25F06FE551EF21F16FE251F02504
:101F4800F26FE351F121F36FE051F225F46FE151A3
:101F5800F321F56FDE51F425F66FDF51F521F76FA8
:101F6800DC51F625F86FDD51F721F96FDA51F825C4
:101F7800FA6FDB51F921FB6FD851FA256A6F000E11
:101F8800FB216B6F1200AA51A91101E123D353D38E
:101F9800D4EC24F050D368EC25F04DD3F3EC25F0C5
:101FA8004AD30DEC25F047D3A7510F0B020A01E0E5
:101FB80042D37A5120EEADF0DF623DD3800EAE61A0
:101FC80012D0AE5103EC1BF00001BB6FAEC0BAF0EB
:101FD800030EB66F820EB56FB76BB86B0A0EB96F8A
:101FE800A6EC25F028D3AE512CEC1AF0EDD7A7516A
:101FF8000F0B030A01E01FD37A5120EEADF0DF6228
:102008001AD3800EAE6106D0AFC04FF0AE5178EC57
:1020180004F0DBD7AFC048F0AE51C8EC1FF0D4D7FE
:102028007A5120EEADF0DF6206D3000EDAEC26F02E
:102038000001AF1901E0FFD2030EDAEC26F000012F
:10204800B01901E0F8D2050EDAEC26F00001B1195A
:1020580001E0F1D2070EDAEC26F00001B21901E036
:10206800EAD25350B31901E0E6D2525020EEB4F050
:10207800DF62E1D2AE5172EC26F0DDD2000EDAEC6E
:1020880026F00001AE1973E1010EDAEC26F000012A
:10209800AF196DE1020EDAEC26F00001B01967E124
:1020A800030EDAEC26F00001B11961E176895FD000
:1020B800040EDAEC26F00001AE1959E1050EDAEC4F
:1020C80026F00001AF1953E1060EDAEC26F0000104
:1020D800B0194DE1070EDAEC26F00001B11947E11D
:1020E800768B45D0080EDAEC26F00001AE193FE1F8
:1020F800090EDAEC26F00001AF1939E10A0EDAEC24
:1021080026F00001B01933E10B0EDAEC26F00001DD
:10211800B1192DE1768D2BD00C0EDAEC26F00001EA
:10212800AE1925E10D0EDAEC26F00001AF191FE11A
:102138000E0EDAEC26F00001B01919E10F0EDAECF8
:1021480026F00001B11913E1768F11D0766B0FD00C
:10215800AD390F0BE56FE66BE651F8E1E5518EE01E
:10216800010AA6E0030ABEE0010AD6E0EFD77651DD
:10217800F00BF00A01E05FD290EC24F05CD27A51C7
:1021880020EEADF0DF6257D20101056BAEC004F15D
:10219800AFC007F1136B4ED0070E086E135192ECC7
:1021A80025F00001E56FE551BB0FD96EDA6A010130
:1021B8000451132580EC26F0DF6E070E086E01012E
:1021C800135192EC25F0060A0EE0FF0E01010725D7
:1021D8000001E56FE66BFF0EE623010113510001D4
:1021E800E519E61125E1070E086E0101135192EC7D
:1021F80025F0060A02E1070E09D0070E086E010154
:10220800135192EC25F00001E56FE5290101066FF5
:102218000651810F0001B56F070EB66FB76BB86B2B
:102228001A0EB96F05C1BAF0A6EC25F00101052B0D
:102238000101132B0751135D01E3FDD1ADD77A518D
:1022480020EEADF0DF62F7D1AEC008F1A751FE0F66
:10225800070B0101096F0E6B18D00E510001AF0F6B
:10226800D96EDA6ADF50E46F010108510E2517ECC8
:1022780026F001010E51BB0FD96EDA6A08510E25FE
:1022880080EC26F0DF6E01010E2B09510E5DE5E3AF
:10229800070E0001B66FB76BB86B1A0EB96FBA6B41
:1022A80001010951810F0001B56F9AD67A5120EECC
:1022B800ADF0DF62C0D1AE5103EC1BF00001E56F59
:1022C800E5294F6EAE5178EC04F07FD67A5120EEB6
:1022D800ADF0DF62B0D1AE5103EC1BF00001E56F49
:1022E800E5054F6EAE5178EC04F06FD6AD517A1912
:1022F80003E0AD2901E09FD101010D6B030E000140
:10230800B66F880EB56FB76BB86B200EB96F010149
:10231800126B12C1BAF0010E146F1451BA0FD96EB4
:10232800DA6A01010D510F08DAEC26F0DF6E0101BF
:102338000D2B100E0D6501D004D0142B070E14655B
:10234800ECD7100E0D6501D007D0A6EC25F00101E1
:10235800122B020E1265DDD7146B14518DEC26F08A
:10236800000909E001011451BD0FD96EDA6A145150
:102378008DEC26F006D001011451BD0FD96EDA6A32
:10238800000EDF6E0101142B040E1465E6D7A6ECCF
:1023980025F0050E01010D6F030E126F12C1BAF080
:1023A800010E146F1451BA0FD96EDA6A01010D517A
:1023B8008DEC26F0DF6E01010D2B142B070E146532
:1023C800F1D7A6EC25F00101122B060E1265E6D70F
:1023D80032D17A5120EEADF0DF622DD1030EB66F07
:1023E800870EB56FB76BB86B220EB96FBA0E28ECB3
:1023F80026F0F6D57A5120EEADF0DF621CD101014E
:102408000F6BA7C0E5F00F0E0001E517040EE55DA0
:1024180013E30101B1C010F1116B1151101103E167
:10242800010E116F106B010E105D010E115908E3BA
:10243800010E116F000E03D00101116B010E106F18
:1024480052C000F153C001F10001AF51AEC0E5F038
:10245800E66BE5C0E6F0E56BE511526EE651536EAA
:10246800070EB66FB76BB86B270EB96FBA6BAEC0F5
:10247800BBF0AFC0BCF001010F51105D0001E56F6A
:10248800000E010111590001E66F040EE55D000E12
:10249800E65903E3040E010103D001010F51105D59
:1024A8000A6F0A51840F0001B56FB05101010F2561
:1024B8000001BD6F01010B6B0ED00B510001BE0F67
:1024C800D96EDA6AB05101010F250B2580EC26F090
:1024D800DF6E01010B2B0A510B5DEFE3A6EC25F033
:1024E80001010A510F270001BA2B01010F51000108
:1024F800E56FE66B010110510001E55D0101115125
:102508000001E659B8E300C152F001C153F093D07D
:102518007A5120EEADF0DF628ED052C002F153C086
:1025280003F1AF51AEC0E5F0E66BE5C0E6F0E56B50
:10253800E511526EE651536EB0C00CF118D0B0518F
:10254800B10801010C25D96EDA6ADF500001E46F89
:1025580001010C5117EC26F00001E56FB051BE08DF
:1025680001010C25D96EDA6AE5C0DFFF0C2B0001EA
:10257800A7510F0BE56FE66BB051E527000EE62378
:10258800FC0EE525E76FFF0EE621E86F01010C510F
:102598000001E96FEA6BEA51800AEB6FE751E95DE8
:1025A800E851800AEB59CBE302C152F003C153F062
:1025B800070EB66FA7510F0B800FB56FB76BB86BCF
:1025C800270EB96FBA6BAEC0BBF0AFC0BCF0B0C0DD
:1025D800BDF006D5AB51010A01E1DAD4030A01E1E5
:1025E800DAD4040A01E1DAD40E0A01E1DAD4010AE4
:1025F80001E1DAD4020A01E1FAD4070A01E110D5AF
:102608001B0A01E1A5D50F0A01E1B9D5010A01E1CB
:1026180016D6040A01E14AD6030A01E157D6010A8F
:1026280001E164D63E0A01E1D4D6040A01E1E2D60A
:10263800030A01E16DD712003668376838683968CF
:102648003A6A3B6A3C6A3D6A436A4350126E136AAF
:10265800D89012361336D89012361336D8901236D0
:102668001336440E1224086E000E1320096EEDEC8A
:1026780026F0146E14AEE8D14350126E136AD89047
:1026880012361336D89012361336D89012361336BF
:10269800470E1224086E000E1320096EEDEC26F08A
:1026A800146E14C015F0166A176A186A17C018F065
:1026B80016C017F015C016F0156A4350196E1A6A3D
:1026C800D89019361A36D89019361A36D89019363D
:1026D8001A36450E1924086E000E1A20096EEDEC04
:1026E80026F01B6E1BC01CF01D6A1E6A1F6A1DC0E7
:1026F8001FF01CC01EF01D6A1C6A4350206E216A20
:10270800D89020362136D89020362136D8902036D9
:102718002136440E2024086E000E2120096EEDECAF
:1027280026F0226E020E221622C023F0246A256AA1
:10273800266A170ED8902336243625362636E82EF4
:10274800F9D71C502310276E1D502410286E1E50D8
:102758002510296E1F5026102A6E155027102B6E33
:10276800165028102C6E175029102D6E18502A104C
:102778002E6EFF0E2B10316E2C50326E2D50336E94
:102788002E50346E4350126E136AD8901236133698
:10279800D89012361336D89012361336480E1224B3
:1027A800086E000E1320096EEDEC26F0146E14C0AE
:1027B80015F0166A176A186A17C018F016C017F0CD
:1027C80015C016F0156A4350196E1A6AD890193652
:1027D8001A36D89019361A36D89019361A36460E3F
:1027E8001924086E000E1A20096EEDEC26F01B6EF7
:1027F8001BC01CF01D6A1E6A1F6A1DC01FF01CC08A
:102808001EF01D6A1C6A4350206E216AD89020363B
:102818002136D89020362136D89020362136440EDD
:102828002024086E000E2120096EEDEC26F0226EA1
:10283800010E221622C023F0246A256A266A23C0C4
:1028480026F0256A246A236A1C502310276E1D501F
:102858002410286E1E502510296E1F5026102A6E2F
:10286800155027102B6E165028102C6E1750291053
:102878002D6E18502A102E6E43502F6E306AD89045
:102888002F363036D8902F363036D8902F3630360F
:10289800430E2F24086E000E3020096EEDEC26F052
:1028A8002B103E6E2C503F6E2D50406E2E50416EB8
:1028B800436608D03EC03AF03FC03BF040C03CF011
:1028C80041C03DF031503616325037163350381665
:1028D80034503916426A42503EC012F03FC013F0DD
:1028E80040C014F041C015F0E82A05D0D890153240
:1028F800143213321232E82EF9D7010E1216425052
:102908003AC016F03BC017F03CC018F03DC019F0B3
:10291800E82A05D0D8901932183217321632E82E24
:10292800F9D71650010B12181DE042C012F0010E23
:10293800136E146A122A03D0D89013361436122E46
:10294800FBD7131C156E141C166E176A16BE1706D5
:102958001750186E15503616165037161750381669
:1029680018503916422A1F0E4264B5D73E503A16FF
:102978003F503B1640503C1641503D1643504FE0E7
:10298800426A43C012F04350136E146AD89013364B
:102998001436D89013361436D89013361436430E9E
:1029A8001324086E000E1420096EEDEC26F0156E47
:1029B800122A02D0D8901532122EFCD7010E151605
:1029C80043C016F035C017F0162A02D0D890173237
:1029D800162EFCD71750010B15181DE043C012F036
:1029E800010E136E146A122A03D0D89013361436C7
:1029F800122EFBD713C015F014C016F0000E16BE29
:102A0800FF0E176E186E15503616165037161750DB
:102A1800381618503916422A070E4264B2D7435066
:102A2800126E136AD89012361336D89012361336AF
:102A3800D89012361336430E1224086E000E132057
:102A4800096EEDEC26F0356E432A070E4364FDD57A
:102A5800800E99EC26F00F010F0E096E1C0E086E01
:102A680036C00AF037C00BF038C00CF039C00DF092
:102A7800010E0E6EF8EC1DF00D01D4830F010F0E40
:102A8800096E040E086E3AC00AF03BC00BF03CC059
:102A98000CF03DC00DF0010E0E6EF8EC1DF0000EAE
:102AA80099EF26F00001646B656B666B676B756B5D
:102AB800746B736B686B696B000E096E930E086E0E
:102AC8000B6A0A6A0D6A140E0C6E3CEC25F00001C4
:102AD800000E096E7F0E086E0B6A0A6A0D6A140EE4
:102AE8000C6E3CEC25F0356A5B0E3524086E096ADD
:102AF800000E0922EDEC26F0106E10A031D035C082
:102B080010F0010E116E126A102A03D0D8901136F7
:102B18001236102EFBD7115000016813125069139A
:102B2800720E3524086E096A000E0922EDEC26F0B3
:102B3800116E106A730E3524086E096A000E092298
:102B4800EDEC26F01026000E11223550020DF35040
:102B58000001930FD96EDA6A10C0DEFF11C0DDFFE5
:102B6800600E3524086E096A000E0922EDEC26F085
:102B7800106E10A420D0720E3524086E096A000E5B
:102B88000922EDEC26F0116E106A730E3524086EDA
:102B9800096A000E0922EDEC26F01026000E11221B
:102BA8003550020DF35000017F0FD96EDA6A10C05C
:102BB800DEFF11C0DDFF352A090E356495D7096A95
:102BC8004F0E086EEDEC26F0346E3450030B926E07
:102BD800096A500E086EEDEC26F0346E3450030B83
:102BE8000809936E3438E842070B040B346E3450EE
:102BF8009212096A6F0E086EEDEC26F0106E10BE88
:102C0800F19E096A500E086EEDEC26F0106ED89011
:102C18001034F80B346E34500109946E0101010E22
:102C2800096E150E086E0B6A0A6A0D6A0A0E0C6E9A
:102C38003CEC25F00101010E096E1F0E086E0B6AAF
:102C48000A6A0D6A0A0E0C6E3CEC25F00001726BE4
:102C58008150010B106E8130010B116ED890113428
:102C6800126E136A13368230E832E832010B146EA2
:102C7800156AD89014361536D89014361536823819
:102C8800010B166E176AD89016361736D890163676
:102C98001736D890163617368238E832010B186E78
:102CA800196A183A193AF00E191618500F0B19121A
:102CB800F00E18168238E832E832010B1A6E1B6AD9
:102CC800050ED8901A361B36E82EFBD78234E83624
:102CD800010B1C6E1D6A060ED8901C361D36E82E98
:102CE800FBD78030E832010B1E6E1F6A070ED890A2
:102CF8001E361F36E82EFBD78030010B216E206A66
:102D08008050010B226E236A090ED8902236233692
:102D1800E82EFBD720502224246E21502320256E34
:102D28001E502424266E1F502520276E1C50262452
:102D3800286E1D502720296E1A5028242A6E1B50F1
:102D480029202B6E18502A242C6E19502B202D6EFA
:102D580016502C242E6E17502D202F6E14502E2412
:102D6800306E15502F20316E12503024326E1350B1
:102D78003120336E105032246A6F000E33206B6F8F
:102D88001200AA51A91101E155D1EE6BEE51DD6F88
:102D9800DE6BD890DD37DE37D890DD37DE37D89058
:102DA800DD37DE379B0EDD25086E000EDE21096E4D
:102DB800EDEC26F00001ED6FEDAF37D1EDAD18D099
:102DC800EE51DD6FDE6BD890DD37DE37D890DD371A
:102DD800DE37D890DD37DE379A0EDD25086E000E17
:102DE800DE21096EEDEC26F00001AC1901E01DD1E1
:102DF800EDA90BD0AE2909E0096A430E086EEDEC87
:102E080026F00001AE1901E010D1EDA70BD0AF29D3
:102E180009E0096A440E086EEDEC26F00001AF19CE
:102E280001E003D1EE51080D9D0EF324086E000E4B
:102E3800F420096EEDEC26F00001DD6FED51010B79
:102E4800DF6FDE6BDD51DE25E06F000EDF21E16F05
:102E5800EE51080D9C0EF324086E000EF420096E46
:102E6800EDEC26F00001DD6FED51020BDE6FDF6B3C
:102E7800070ED890DE37DF37E82EFBD7DD51DE2589
:102E8800E26F000EDF21E36FEE51080D9F0EF32471
:102E9800086E000EF420096EEDEC26F00001E46FD8
:102EA800EE51080D9E0EF324086E000EF420096EF4
:102EB800EDEC26F00001E56F20EEA9F0DECFDDF0A5
:102EC800DDCFDEF0E051DD1BE151DE1BE251DD1705
:102ED800E351DE17DE51DD1101E0A7D0AB51E41953
:102EE800E51501E186D0A1D00001EE51080DA10E33
:102EF800F324086E000EF420096EEDEC26F00001B4
:102F0800E66FE6C04FF0ED5137EC1FF08ED00001B0
:102F1800EE51080DA10EF324086E000EF420096E80
:102F2800EDEC26F00001E76FE7C04FF0ED5136EC0D
:102F380022F07BD00001EE51080DA10EF324086E9B
:102F4800000EF420096EEDEC26F00001E86FE8C0F1
:102F58004FF0ED51A0EC1EF068D00001EE51080DC5
:102F6800A10EF324086E000EF420096EEDEC26F095
:102F78000001E96FE9C04FF0ED514DEC20F055D05C
:102F88000001EE51080DA10EF324086E000EF42086
:102F9800096EEDEC26F00001EA6FEAC04FF0ED5142
:102FA800C7EC21F042D00001EE51080DA10EF32428
:102FB800086E000EF420096EEDEC26F00001EB6FB0
:102FC800EBC0D8F0ED5156EC26F02FD00001EE51B1
:102FD800080DA10EF324086E000EF420096EEDEC26
:102FE80026F00001EC6FECC04FF0ED514BEC21F0F6
:102FF8001CD0EE51080DA00EF324086E000EF4202C
:10300800096EEDEC26F0000A10E0010A01E16CD728
:10301800030A01E17CD7010A8DE0070A9EE0010A54
:10302800D5E0030AADE0010ABEE00001EE2B070E71
:10303800EE65ACD61200E8CF14F0546A7750C00B96
:10304800166E166632D060AE12D0A49074AE06D05A
:103058001150D96EDA6A000EDB86749E60A002D029
:10306800548001D054900F0E196E600E1AD00F01C3
:1030780050AF19D0A49274AC06D01150D96EDA6A48
:10308800000EDB86749C5051070B546E020E546080
:1030980005D01150D96EDA6A000EDB8E0F0E196E4C
:1030A800500E186E65D0000ECCD01650400A46E17E
:1030B80060AE04D00F0E196E600E3ED00F0150AFF7
:1030C80004D00F0E196E500E37D00D01F8B507D089
:1030D8000E0120AF04D00E0E196E200E2DD00D015A
:1030E800F8B707D00E0130AF04D00E0E196E300EAF
:1030F80023D00D01F8B907D00E0140AF04D00E0E51
:10310800196E400E19D00D01F8BB05D00E0150AF55
:1031180002D00E0ED7D70D01F8BD05D00E0160AF55
:1031280002D00E0EC8D70D01F8BFBDD70E0170AF83
:10313800BAD70E0E196E700E186E0AD074AEB3D7C9
:103148006F50070BE1EC23F008C018F009C019F024
:1031580018C0D9FF19C0DAFFDF501F0B546EA492B4
:1031680074AC06D01150D96EDA6A000EDB86749CF6
:1031780018C012F019C013F01150D96EDA6ADF6A5C
:1031880020EE05F01850D9261950DA22DF50176EB4
:103198001050D96EDA6A17500F0BDF6E17AC05D0D6
:1031A8001150D96EDA6A000EDB8C20EE02F018504E
:1031B800D9261950DA22DF50176E17A608D01150F9
:1031C800D96EDA6A000EDB8A010E176E01D0176A13
:1031D8001828086E000E1920096E14C00AF017C0CE
:1031E8000BF046EC1DF0060E1826000E19221050A2
:1031F800D96EDA6ADF50176E156A0DD018C0D9FF7C
:1032080019C0DAFF0F50E16EE26ADFCFE7FF184A14
:10321800192A0F2A152A1750155CF0E3A4AE06D018
:103228001150D96EDA6A000EDB88A49E12C0D9FF4D
:1032380013C0DAFF7F0EDF161650800AD8B4749ECA
:10324800010E1200B2EC24F005EC26F00009D8B407
:10325800D8EC1BF056EC15F090EC24F020EC13F0B1
:103268000400FA0E000178650ED07B050CE07A693F
:1032780021EC27F0096A010E086EFF0E0A68F3ECCC
:1032880024F090EC24F0A76B7DEC25F0ABD07A29E4
:1032980003E1010E7B6FB6D0030E7B6F38EC26F08E
:1032A800B1D0A1EC22F0AED0A7AF08D0AA51A91195
:1032B80003E1C7EC0FF002D0C5EC16F00A0E0001CE
:1032C800605D000E6159000E6259000E635901E2FB
:1032D80099D0096A4F0E086EEDEC26F0096A500E77
:1032E800086EEDEC26F00001FE6F606B616B626B9F
:1032F800636B72C0FCF0010EFD6FFC2B02D0D890FE
:10330800FD37FC2FFCD7FD51FE1560E0650E7225D8
:10331800086E096A000E0922EDEC26F00001FC6F28
:10332800FCAD54D0650E7225086E096A000E09229C
:10333800EDEC26F00001FC6FFCBF33D047D081B024
:1033480003D0CDEC20F042D0150E00017225D96EC5
:10335800DA6A010EDA22DF6A1F0E7225D96EDA6A7E
:10336800010EDA22DF6A32D081A2EBD7EDD782A62E
:10337800E8D7EAD782A8E5D7E7D782AAE2D7E4D781
:1033880082ACDFD7E1D782AEDCD7DED780A4D9D72D
:10339800DBD780A2D6D7D8D780A0D3D7D5D7726BA2
:1033A80015D07251CCE0010ADFE0030AE0E0010A1F
:1033B800E1E0070AE2E0010AE3E0030AE4E0010AC7
:1033C800E5E00F0AE6E0010AE7E0E9D70001722B21
:1033D800090E726517D0726B15D024EC27F012D045
:1033E8007B6B10D000017B5101E151D7010A01E14B
:1033F80058D7030A01E152D7010A01E155D7070A54
:10340800ECE0EED7E90E0001645D030E6559000E8D
:103418006659000E67590BE3646B656B666B676BE7
:1034280044EC24F07B51030AD8B402EC0CF03B0EB8
:1034380075650BD0756B742B3B0E746502D0746B7D
:10344800732B170E736501D0736B26EC27F008D722
:10345800E8CF1CF01B6A1C50800A04E155C01BF021
:10346800556ACBD01C50810A02E1010E81D01C5054
:10347800820A02E1050E7CD01C50830A02E11B6A15
:10348800BCD01C50940A03E12CEC27F071D01C50DE
:10349800950A03E12BEC27F06BD01C50960A03E148
:1034A8002AEC27F065D0890E1C6005D01C507C0FD3
:1034B800D0EC26F05DD0880E1C6408D0910E1C60FC
:1034C80005D01C50770FC6EC26F052D01C50910A3C
:1034D80003E17AC01BF091D01C50930A03E152C05B
:1034E8001BF08BD01C50920A02E1535041D01C5063
:1034F800970A03E129EC27F03BD01C50980A03E116
:1035080028EC27F035D01C50990A03E127EC27F066
:103518002FD0990E1C642ED09E0E1C602BD00EEC62
:1035280027F00BC014F00AC013F009C012F008C04D
:1035380011F01C50660F196E195003080C6ED890C4
:103548000C36D8900C36D8900C360C5011C00DF0B3
:1035580012C00EF013C00FF014C010F0E82A05D006
:10356800D89010320F320E320D32E82EF9D730D003
:103578001B6E43D09D0E1C642DD0A20E1C602AD059
:1035880009EC27F00BC018F00AC017F009C016F0B4
:1035980008C015F01C50620F1A6E1A5003080C6E02
:1035A800D8900C36D8900C36D8900C360C5015C0E4
:1035B8000DF016C00EF017C00FF018C010F0E82A72
:1035C80005D0D89010320F320E320D32E82EF9D7CE
:1035D8000D50CED7CF0E1C6408D0E00E1C6005D06D
:1035E8001C50300FDAEC26F0C3D7DF0E1C6405D070
:1035F8001C50200F8DEC26F0BBD71B501200E8CFD3
:1036080012F0116A5350521001E0ADD0126606D084
:10361800096A430E086EEDEC26F0C3D0120406E1E9
:10362800096A440E086EEDEC26F0BBD0010E126458
:103638000CD00C0E126009D0430E1224086E096AD1
:10364800000E0922EDEC26F0ACD012500C0A08E16D
:103658009230010B0A6E9250010B020DF35035D0D7
:1036680012500D0A34E19350010B0A6E9330010B8E
:10367800020DF3CF0BF09430E832E832010B040D61
:10368800F3CF0CF09438010B080DF3CF0DF09438FC
:10369800E832010B100DF3CF0EF09438E832E8321F
:1036A800010B200DF3CF0FF09434E836010B400DD9
:1036B800F3CF10F09230E832010B800DF350102454
:1036C8000F240E240D240C240B240A246AD00D0E7A
:1036D800126442D0180E12603FD028D0000E81B07C
:1036E800010E5FD0000E81B2010E5BD0000E82B6D3
:1036F800010E57D0000E82B8010E53D0000E82BAC8
:10370800010E4FD0000E82BC010E4BD0000E82BEBF
:10371800010E47D0000E80B4010E43D0000E80B2D7
:10372800010E3FD0000E80B0010E3BD012500E0AA1
:10373800D5E0010AD7E01F0AD9E0010ADBE0030A55
:10374800DDE0010ADFE0070AE1E0010AE3E0030A3D
:10375800E5E0010AE7E026D0170E126423D02F0E09
:10376800126020D069D7520453100CE1280E126061
:1037780019D0720E1224086E096A000E0922EDECA7
:1037880026F00FD05250020A53100CE1400E12607E
:1037980009D09A0E1224086E096A000E0922EDEC6F
:1037A80026F0116E1150120021EC27F0096A430E21
:1037B800086E000E0A6AF3EC24F021EC27F0096A7F
:1037C800440E086E000E0A6AF3EC24F0476A21ECF6
:1037D80027F0450E4724086E096A000E092247C0E3
:1037E8000AF0F3EC24F0472A090E4764F0D721ECDD
:1037F80027F0096A4F0E086E000E0A6AF3EC24F0EF
:1038080021EC27F0096A500E086E000E0A6AF3ECE4
:1038180024F0476A21EC27F05B0E4724086E096AFA
:10382800000E0922980E0A6EF3EC24F0472A090EBE
:103838004764F0D7476A21EC27F0650E4724086EE5
:10384800096A000E0922830E0A6EF3EC24F0472A57
:10385800090E4764F0D721EC27F0096A6F0E086E4D
:10386800000E0A6AF3EC24F021EC27F0096A700EC6
:10387800086E000E0A6AF3EC24F0476A21EC27F080
:10388800720E4724086E096A000E09220A6AF3ECD0
:1038980024F0472A130E4764F1D7476A21EC27F032
:1038A800860E4724086E096A000E09220A6AF3EC9C
:1038B80024F0472A130E4764F1D721EC27F0096A50
:1038C800710E086E030E0A6EF3EC24F0476A466A1E
:1038D80021EC27F0465047C044F0456AD89044365A
:1038E8004536D89044364536D89044364536442631
:1038F800000E45229A0E4424086E000E4520096EDB
:10390800000E0A6AF3EC24F0462A070E4664E0D754
:10391800472A4764DCD720EF13F00F0E1C6E400EC9
:103928001B6E0F0E1E6E300E1D6E0F0E206E200EBB
:103938001F6E0E0E226E200E216E0E0E246E300E9D
:10394800236E0E0E266E400E256E0E0E286E500E3D
:10395800276E0E0E2A6E600E296E0E0E2C6E700EDD
:103968002B6E7750C00B2D6E2D6602D0020E01D043
:10397800080E2E6E0D01D890F831306E346A7DD065
:103988003450020DF3501B0FD96EDA6ADECF35F0D2
:10399800DDCF36F035C031F036C032F0020E346477
:1039A80004D0D890303230A067D035C0D9FF36C0A7
:1039B800DAFFDF501A6E1AB65FD035C0D9FF36C0AD
:1039C800DAFFFC0EDF1619C01AF0030E1A1635C0FE
:1039D800D9FF36C0DAFF1A50DF1219AC04D01850DC
:1039E8004009336E02D018C033F020EE05F0355090
:1039F800D9263650DA2233C0DFFF19AA03D0010EC8
:103A0800336E01D0336A3528086E000E3620096EF1
:103A180012C00AF013C00BF014C00CF015C00DF062
:103A280033C00EF0F8EC1DF0060E3526000E3622D7
:103A38002F6A0FD016C0D9FF17C0DAFF35C0E1FFD3
:103A480036C0E2FFDFCFE7FF164A172A354A362A83
:103A58002F2A18502F5CEEE331C0D9FF32C0DAFFAD
:103A6800DF501A6E1AB406D031C0D9FF32C0DAFF5F
:103A7800000EDB86010E05D0342A2E50345C80E31C
:103A8800000E12000AC00EF00B6646D00E50D96E1A
:103A9800DA6A08C0E1FF09C0E2FFE7500C6ED8906F
:103AA8000C36D8900C36D8900C34DF6E0E50D96E88
:103AB800DA6AD92ADA6A08C0E1FF09C0E2FFE750EA
:103AC8000C6E050E0D6ED8900C320D2EFCD70C50D6
:103AD800DF6E084A092A08C0D9FF09C0DAFFDF509B
:103AE8000C6E050E0D6ED8900C320D2EFCD70E50B4
:103AF800D96EDA6A0C50DF120E50D96EDA6A020EED
:103B0800D926DA6ADF6A0E50D96EDA6A030ED92628
:103B1800DA6A000EDF6E67D00E50D96EDA6A020ECE
:103B2800D926DA6A08C0E1FF09C0E2FFE7500C6E47
:103B3800050E0D6ED8900C360D2EFCD70C50DF6E8E
:103B48000E50D96EDA6A030ED926DA6A08C0E1FF88
:103B580009C0E2FFE7500C6ED8900C32D8900C32B6
:103B6800D8900C30DF6E084A092A08C0D9FF09C06E
:103B7800DAFFDF500C6E030E0C160E50D96EDA6A9F
:103B8800020ED926DA6A0C50DF1208C0D9FF09C024
:103B9800DAFFDF500C6ED8900C32D8900C32D890E7
:103BA8000C321C0E0C160E50D96EDA6A020ED9268B
:103BB800DA6A0C50DF12084A092A08C0D9FF09C07E
:103BC800DAFF0E50E16EE26AE12AE26ADFCFE7FF30
:103BD800084A092A08C0D9FF09C0DAFF0E50E16E69
:103BE800E26ADFCFE7FF12000A0E116E0E6637D0C9
:103BF8001150D96EDA6ADF500F6ED8900F32D89014
:103C08000F32D8900F3008C0D9FF09C0DAFFDF6E35
:103C18001150D96EDA6AD92ADA6ADF500F6E050EAA
:103C2800106ED8900F36102EFCD708C0D9FF09C0E7
:103C3800DAFF0F50DF12084A092A1150D96EDA6AE2
:103C4800DF500F6E050E106ED8900F36102EFCD771
:103C58000F5008C0D9FF09C0DAFFDF6E6CD01150D1
:103C6800D96EDA6A020ED926DA6ADF500F6E050EAF
:103C7800106ED8900F32102EFCD70F5008C0D9FF05
:103C880009C0DAFFDF6E1150D96EDA6A030ED92641
:103C9800DA6ADF500F6ED8900F36D8900F36D8906A
:103CA8000F3608C0D9FF09C0DAFF0F50DF12084AE3
:103CB800092A1150D96EDA6A020ED926DA6ADF505B
:103CC8000F6ED8900F36D8900F36D8900F34E00B7F
:103CD80008C0D9FF09C0DAFFDF6E08C0D9FF09C0E4
:103CE800DAFF000EDB861150D96EDA6A020ED92689
:103CF800DA6ADF500F6E030E0F1608C0D9FF09C02D
:103D0800DAFF0F50DF12084A092A1150D96EDA6A11
:103D1800D92ADA6A08C0E1FF09C0E2FFDFCFE7FF6E
:103D2800084A092A1150D96EDA6A08C0E1FF09C0A9
:103D3800E2FFDFCFE7FF1200516A090E4F6401D09E
:103D480091D05B0E4F24086E096A000E0922EDEC33
:103D580026F0506E50AE86D039D081A002D0010E28
:103D6800516E819047D081A202D0010E516E81928E
:103D780041D082A602D0010E516E82963BD082A815
:103D880002D0010E516E829835D082AA02D0010E5F
:103D9800516E829A2FD082AC02D0010E516E829C55
:103DA80029D082AE02D0010E516E829E23D080A40B
:103DB80002D0010E516E80941DD080A202D0010E57
:103DC800516E809217D080B0F4D7F5D74F50C5E028
:103DD800010AC9E0030ACDE0010AD1E0070AD5E0EB
:103DE800010AD9E0030ADDE0010AE1E00F0AE5E093
:103DF800010AE9E05150D8A450A808D0140E0001D7
:103E0800D66F040ED76F4F501CEC24F04FC0D8F07B
:103E1800010E0001D96FDA6BD82B03D0D890D937AF
:103E2800DA37D82FFBD7D9516813DA516913730ED3
:103E38004F24086E096A000E0922EDEC26F00001F5
:103E4800D86F720E4F24086E096A000E0922EDEC35
:103E580026F00001DA6FD96BD851D925936F000E7F
:103E6800DA21946F1200D96B090E4F6401D08BD000
:103E78005B0E4F24086E096A000E0922EDEC26F04D
:103E88000001D86FD8AF7FD039D081B002D0010EF1
:103E9800D96F818047D081B202D0010ED96F81825B
:103EA80041D082B602D0010ED96F82863BD082B84B
:103EB80002D0010ED96F828835D082BA02D0010EA5
:103EC800D96F828A2FD082BC02D0010ED96F828C22
:103ED80029D082BE02D0010ED96F828E23D080B441
:103EE80002D0010ED96F80841DD080B202D0010E9D
:103EF800D96F808217D080A0F4D7F5D74F50C5E08E
:103F0800010AC9E0030ACDE0010AD1E0070AD5E0B9
:103F1800010AD9E0030ADDE0010AE1E00F0AE5E061
:103F2800010AE9E0D8A524D04F50020D860EF324EB
:103F3800086E000EF420096EEDEC26F0516E506A02
:103F48004F50020D870EF324086E000EF420096E00
:103F5800EDEC26F05026000E51224F50020DF35082
:103F680000017F0FD96EDA6A50C0DEFF51C0DDFF55
:103F7800D951D8A4D8A707D0140ED66F030ED76F7F
:103F88004F501CEC24F01200E8CF4EF0481C4D6E48
:103F9800830E4E640ED0890E4E600BD048C00CF0D4
:103FA8004E507C0F64EC26F04E507C0FD0EC26F07F
:103FB8006BD04E50920A0DE148504A6E496A5250F1
:103FC8004B6E4C6A4910526E4A504C10536E535007
:103FD8005BD04E50930A0BE1496A53504A6E4850E1
:103FE8004910526E4A50536E52C04DF050D0880E50
:103FF8004E6419D0910E4E6016D053C049F049C096
:104008004AF04B6A4A2802E1522802E0481C3CD098
:1040180048C00CF04E50770FCDEC25F04E50770F7E
:10402800C6EC26F031D0CF0E4E6417D0E00E4E60AD
:1040380014D053C049F049C04AF04B6A4A28E6E117
:104048005228E4E148C00CF04E50300FE0EC25F067
:104058004E50300FDAEC26F017D04E50A20AD6E1B7
:104068004850550A05E100016E6B6F6B550E0CD078
:104078004850AA0A0CE1E80E00016E5D030E6F5964
:1040880005E21DEC27F0AA0E4D6E01D04D6A4D5089
:104098001200516A090E4F6401D07AD05B0E4F248A
:1040A800086E096A000E0922EDEC26F0506E50AE3B
:1040B8006FD039D081A002D0010E516E819047D0C7
:1040C80081A202D0010E516E819241D082A602D007
:1040D800010E516E82963BD082A802D0010E516E1D
:1040E800829835D082AA02D0010E516E829A2FD0C2
:1040F80082AC02D0010E516E829C29D082AE02D0D1
:10410800010E516E829E23D080A402D0010E516E02
:1041180080941DD080A202D0010E516E809217D0DB
:1041280080B0F4D7F5D74F50C5E0010AC9E0030ABB
:10413800CDE0010AD1E0070AD5E0010AD9E0030A77
:10414800DDE0010AE1E00F0AE5E0010AE9E051508B
:10415800D8A450A808D0140E0001D66F040ED76F4B
:104168004F501CEC24F04FC0D8F0010E0001D96F5D
:10417800DA6BD82B03D0D890D937DA37D82FFBD7BA
:10418800D91DDB6FDA1DDC6FDB516817DC5169174D
:104198001200150E00017225D96EDA6A0101010EAE
:1041A800DA22DF2A096A710E086EEDEC26F04F6EEE
:1041B800150E00017225D96EDA6A0101010EDA22A4
:1041C800DF504F5C63E2150E00017225D96EDA6A82
:1041D800010EDA22DF6A650E7225086E096A000E82
:1041E8000922EDEC26F04F6E4FA42DD0096A6F0E10
:1041F800086EEDEC26F04F6E4FA012D01F0E000196
:104208007225D96EDA6A0101010EDA22DF503EE129
:10421800096A6F0E086EEDEC26F04F6E4FA036D08F
:10422800140E0001D66F030ED76F72511CEC24F0E8
:104238001F0E00017225D96EDA6A0101010EDA2219
:10424800010EDF6E23D0096A6F0E086EEDEC26F0C2
:104258004F6E4FA012D01F0E00017225D96EDA6A78
:104268000101010EDA22DF5011E1096A6F0E086EB2
:10427800EDEC26F04F6E4FA009D01E0E0001D66F50
:10428800050ED76F72511CEC24F0D2D71200516A78
:10429800090E4F6401D076D05B0E4F24086E096A70
:1042A800000E0922EDEC26F0506E50AE6BD03FD0D8
:1042B80081A002D0819037D08180010E516E4BD001
:1042C80081A202D081922FD08182F7D782A602D014
:1042D800829629D08286F1D782A802D0829823D0EC
:1042E8008288EBD782AA02D0829A1DD0828AE5D72B
:1042F80082AC02D0829C17D0828CDFD782AE02D0EB
:10430800829E11D0828ED9D780A402D080940BD0FF
:104318008084D3D780A202D0809205D08082CDD766
:1043280080A003D08090516A16D08080C6D74F50A5
:10433800BFE0010AC5E0030AC9E0010ACDE0070AA7
:10434800D1E0010AD5E0030AD9E0010ADDE00F0A4D
:10435800E1E0010AE5E051500BE050A613D0140E3D
:104368000001D66F030ED76F4F501CEC24F00AD013
:1043780050A808D0140E0001D66F040ED76F4F5006
:104388001CEC24F01200516A090E4F6401D069D068
:104398005B0E4F24086E096A000E0922EDEC26F028
:1043A800506E50AE5ED032D0000E81B0010E516E0C
:1043B80041D0000E81B2010E516E3CD0000E82B683
:1043C800010E516E37D0000E82B8010E516E32D0F8
:1043D800000E82BA010E516E2DD0000E82BC010E65
:1043E800516E28D0000E82BE010E516E23D0000EF1
:1043F80080B4010E516E1ED0000E80B2010E516EB7
:1044080019D0000E80B0010E516E14D04F50CCE080
:10441800010ACFE0030AD2E0010AD5E0070AD8E092
:10442800010ADBE0030ADEE0010AE1E00F0AE4E04A
:10443800010AE7E051500BE050A813D0140E000118
:10444800D66F040ED76F4F501CEC24F00AD050A83A
:1044580008D0140E0001D66F040ED76F4F501CEC15
:1044680024F01200516A090E4F6401D065D05B0E2A
:104478004F24086E096A000E0922EDEC26F0506EF2
:1044880050AE5AD039D081A002D0010E516E819021
:1044980047D081A202D0010E516E819241D082A6EE
:1044A80002D0010E516E82963BD082A802D0010E36
:1044B800516E829835D082AA02D0010E516E829A2E
:1044C8002FD082AC02D0010E516E829C29D082AED0
:1044D80002D0010E516E829E23D080A402D0010E1C
:1044E800516E80941DD080A202D0010E516E809230
:1044F80017D080B0F4D7F5D74F50C5E0010AC9E00E
:10450800030ACDE0010AD1E0070AD5E0010AD9E0A3
:10451800030ADDE0010AE1E00F0AE5E0010AE9E04B
:104528005150D8A450A808D0140E0001D66F040E1C
:10453800D76F4F501CEC24F0120053D0572810E0CE
:10454800810EB56FB66BB76BB86B020EB96F57C0FB
:10455800BAF0A6EC25F0010E7C6F706B716B48D039
:10456800040E7B6F810EB56FBA69070EB66FB76B15
:10457800B86B030EB96FA6EC25F03AD0A7AF0FD0F1
:10458800AA51A91135E1AB51030A32E1576603D0AC
:10459800020E7B6FE2D7572A7C6B7D6B29D0E90E20
:1045A800705D030E715924E37D2B020E7D6517D0D3
:1045B800576605D0572A7C6B706B716BEED757C066
:1045C8007AF0030E7B6F7C6B7A51BBEC26F0400EC1
:1045D800B0EC26F000017D6B38EC26F009D07C6B3E
:1045E80007D000017C51AAE0010AC8E0030AF7E1FC
:1045F800A76B120041C0C2F00001C36BC46BC56B4E
:10460800C4C0C5F0C3C0C4F0C2C0C3F0C26B3F5041
:10461800C66F4050C76FC86BC96BC7C0C9F0C6C06A
:10462800C8F0C76BC66B43C0CAF0CB6BCC6BCD6B05
:104638001A0ED890CA37CB37CC37CD37E82EF9D7F2
:10464800C651CA11CE6FC751CB11CF6FC851CC110B
:10465800D06FC951CD11D16FC251CE11D26FC35194
:10466800CF11D36FC451D011D46FC551D111D56FAB
:104678004250D211476ED351486ED451496ED5512C
:104688004A6E47C037F048C038F049C039F04AC0D0
:104698003AF044C03BF045C03CF046C03DF06BECFE
:1046A80024F00009000ED8A4010E1200800E99EC27
:1046B80026F0090E706EFC0E716E010E726E200EE1
:1046C800736E778E779C606A0F01506B0E01206BBA
:1046D800306B406B506B606B706BE00E0D01F86FC8
:1046E8000F01006B080E016F026B036B046BE80E81
:1046F800056F1A0E066F076B030E0D01D46FD56B8D
:10470800E06B110EE16FE26FE36BE46BE56BE66B58
:10471800E76B540EF06F050EF16FF26BF26B0F0E34
:104728000F01186FE00E196F1A6B1B6B19870F0EAC
:104738001C6FE00E1D6F1E691F6B1D87000E99EF21
:1047480026F0E8CF27F021C01AF022C01BF0280E6F
:1047580052EC25F0000902E1000E2ED01F50D96E50
:10476800DA6A28C0DFFF1E50D96EDA6A29C0DFFF77
:104778002A50236E010E2B14246E2750D96EDA6A44
:1047880023C0DEFF24C0DDFF2050D96EDA6A28C0BE
:1047980023F029C024F02AC025F02BC026F01B0ED8
:1047A80005D0D8902632253224322332E82EF9D784
:1047B8002350070BDF6E010E1200E8CF0BF024D058
:1047C8000F0E0D6E600E1ED00F010F0E0D6E500EE7
:1047D80019D00E010E0E0D6E200E14D00E010E0E05
:1047E8000D6E300E0FD00E010E0E0D6E400E0AD05B
:1047F8000E010E0EEBD70E010E0EE3D70E010E0EB4
:104808000D6E700E0C6E0FD00B50DAE0010ADCE072
:10481800030ADFE0010AE2E0070AE5E0010AE8E04E
:10482800030AE9E0EBD70CC008F00DC009F012004C
:10483800E8CF4EF04EC04BF0096A430E086EEDEC1F
:1048480026F04C6E450E4E24086E096A000E0922A9
:10485800EDEC26F04D6ED6C03FF0406AD7C041F06F
:104868007AC042F0030E436E446E4B0E456E000E46
:10487800466E0F0E466E5F0E4564466AFEEF22F0E6
:104888007E2B3B0E7E650DD07E6B792B7B51030A08
:1048980008E1FFEC26F00001D66F04EC27F0BAEC33
:1048A80025F03B0E796502D0796B772B170E77656B
:1048B80001D0776B7B51030A09E1762B76C04DF066
:1048C8000F0E4D16020E4D5CD8B0766B12003E6A84
:1048D8006C6B6D6B17D037C012F038C013F039C04D
:1048E80014F03AC015F03CC016F03DC017F03BC0BC
:1048F80018F0200E196E91EC1CF0000903E0010E6F
:104908003E6E06D0E80E00016C5D030E6D59E3E3C0
:104918000001B56B3E501200020E566E13EC27F0E4
:1049280000017A6F7A6701D07A69A76BA86BA96BC7
:10493800AA6BAB6BB56BB66BB76BB86BB96B556ADB
:10494800576A7B6B7C6B7D6B526A536A706B716BB9
:104958006E6B6F6B7E6B796B776B12000F0EC16E8F
:10496800926A806A080E936E816A010E946E826A5A
:10497800920E47EC26F0FB0E096E1D0E086EE4EC55
:1049880026F08190819282968298829A829C829E59
:104998008094809280905AEC23F0F28CF28E120070
:1049A80018EC27F0000916E10001A7510F0B050AC2
:1049B80015E118EC27F00001AD1910E0AD51B0EC8D
:1049C80026F000017A69FF0EBBEC26F0010E00010B
:1049D8007B6F04D00001AD51B0EC26F0120008C086
:1049E800A9FF0AC0A8FFA69EA69CA684000EF2BE38
:1049F800010E0B6EF29E550EA76EAA0EA76EA6822A
:104A0800A6B2FED70BB002D0F29E01D0F28EA694C9
:104A18001200A7510F0B0D6E0D5012E07A5120EEC7
:104A2800ADF0DF620DD00D0405E0010E0D6408D075
:104A3800AE6706D07A69FF0EBBEC26F090EC24F046
:104A4800120001EE15F0140EEE6AE806FDE100EE24
:104A580060F0620EEE6AE806FDE100EE52F0070E25
:104A6800EE6AE806FDE1000EF86E000126EF19F087
:104A780008C00EF009C00FF008D00EC0D9FF0FC053
:104A8800DAFF0AC0DFFF0E4A0F2A0C06D8A00D066F
:104A98000C28D8B40D28D8B41200EFD7E8CF1CF0F2
:104AA800A7AF02D0000E0FD01BC00FF01AC010F035
:104AB8001D0E116E1C501FEC18F00009F3E01DAC20
:104AC8001DAAF0D7010E1200A7C04CF00F0E4C160D
:104AD8004C040EE17A5120EEADF0DF6209D0800E71
:104AE800B56FB66BB76BB86B030EB96FA6EC25F054
:104AF8001200A7BF12D0AB0E1E6EAC0E1F6EA80E12
:104B0800206EA70E216EAD0E226EA90EA5EC23F025
:104B18002C6E2C5002E00001A78F1200E8CF09F09C
:104B2800080E0A6E0B6AD89009340B340B6ED890B5
:104B3800093608500B5C02E308500B5E0A2EF3D7C7
:104B48000B501200B7C03FF0B8C040F0B9C041F0F8
:104B58007AC042F0B6C043F00001B5510F0B446E65
:104B6800000E466EBA0E456EFEEF22F0E8CF4CF00E
:104B7800830E0001B56F070EB66FB86B140EB76FD2
:104B8800090EB96FBA6B4CC0BBF0D6C0BCF0A6EF2B
:104B980025F0E8CF0DF0070E0D6401D00CD021EC04
:104BA80027F00B0E0D24086E096A000E09220CC0AE
:104BB8000AF0F3EC24F01200E8CF0DF00F0E0D64AC
:104BC80001D00CD021EC27F0130E0D24086E096AD1
:104BD800000E09220CC00AF0F3EC24F01200A751D1
:104BE8000F0B020A0DE17A5120EEADF0DF6208D01A
:104BF800AEC07AF07A51BBEC26F0400EB0EC26F04D
:104C0800120018EC27F0C00B400A02E1010E0AD08E
:104C1800FF0EBBEC26F0000EB0EC26F0A00EA5ECC3
:104C280026F0000E1200E8CF50F07F0E506406D038
:104C3800E4C048F05050C8EC1FF005D0E4C04FF075
:104C4800505078EC04F01200070EBA6F480EBB6F94
:104C5800020E086E0850BA0FD96EDA6ADF6A082A9F
:104C6800070E0864F7D7070C810E0001B56FB66B05
:104C7800B76BB86B020EB96F7AC0BAF0A6EC25F024
:104C8800010E566E010CE8CF08F008507F0BD56E68
:104C9800D76AD66AF29408AE02D0F28A01D0F29AA4
:104CA800D58E1200E8CFD9F0DA6BDAC04FF0D951BF
:104CB800C7EC21F00001DA2B080EDA65F6D7080CEC
:104CC800E8CF0DF021EC27F0060E0D24086E096AD6
:104CD800000E09220CC00AF0F3EF24F0E8CF0CF024
:104CE8000C0409E121EC27F0096A086AFF0E0A683A
:104CF800F3EC24F0FF001200E8CF1DF07F0E1D64D6
:104D080004D01D502CEC1AF003D01D5003EC1BF0FE
:104D18001200E8CF09F00950CE0F086E08C0F6FF60
:104D2800080EF76E0800F5501200E8CF08F01F0EC5
:104D38006F1608506F126F50E00B0818D8B41200A5
:104D4800FAD7E8CF0CF021EC27F0096A030E086EB9
:104D58000CC00AF0F3EF24F0E8CF0CF021EC27F0B8
:104D6800096A020E086E0CC00AF0F3EF24F0E8CFCF
:104D78000CF021EC27F0096A010E086E0CC00AF04D
:104D8800F3EF24F0E8CF0AF00B0E0A24086E096A44
:104D9800000E0922EDEF26F0E8CF0AF0060E0A24ED
:104DA800086E096A000E0922EDEF26F0E8CF0AF036
:104DB800130E0A24086E096A000E0922EDEF26F088
:104DC80008C00AF009C00BF00BC0D7FF0AC0D6FF15
:104DD800120008C0A9FFA69CA69EA68000F000F0BD
:104DE800A850120001C003F002C004F004C0D7FFAD
:104DF80003C0D6FF1200096A440E086EEDEF26F0D4
:104E0800096A430E086EEDEF26F0086A096A0A6A15
:104E18000B6A1200086A096A0A6A0B6A1200096AB0
:104E2800010E086EEDEF26F0096A020E086EEDEF2E
:104E380026F0D8EC1BF056EF15F0A6A21200FDD70D
:104E4800566A12001200030C080C010C000C010C2D
:024E5800010C4B
:020000040020DA
:08000000FFFFFFFFFFFFFFFF00
:020000040030CA
:0E000000FF061C1EFF8281FF0FC00FE00F40A5
:00000001FF
