:0400000063EF00F0BA
:10001800D8CF05F0E8CF06F0E0CF07F0F2A401D082
:1000280001D046D0FB0E026E1D0E016E7CEC26F050
:1000380000016E4B6F2B6C4B6D2B010E6027000E71
:100048006123000E6223000E6323010E6427000E55
:100058006523000E6623000E672382A001D001D01D
:1000680002D0776B01D0772B582A5650020AD8A4B1
:1000780001D001D00ED0640E586401D001D009D04F
:1000880082A201D001D002D0829201D08282586A25
:100098000ED05604D8A401D001D003D08282586A69
:1000A80006D0566601D001D002D08292586AF294E6
:1000B80007C0E0FF06C0E8FF05C0D8FF1000ACEF9E
:0200C80024F022
:100600007777772E6575726F736F757263652E736A
:10061000652F6265696A696E675F322E786D6C005E
:100620000000E8CFD8F0D56BD76B4F1CD66F535076
:10063000521002E014EF09F0D86710D0A7EC26F0B2
:10064000096A430E086E4FC00AF07AEC24F0096A7A
:10065000430E086E73EC26F0B1EF0AF0D80510E1F6
:10066000A7EC26F0096A440E086E4FC00AF07AEC37
:1006700024F0096A440E086E73EC26F0B1EF0AF01C
:10068000010ED8651BD00C0ED86118D0A7EC26F04F
:10069000430E0001D825086E096A000E09224FC0DA
:1006A0000AF07AEC24F0430E0001D825086E096A9E
:1006B000000E092273EC26F0B1EF0AF0D8510C0AB3
:1006C00026E1A7EC26F0096A4F0E086E4F50030B87
:1006D0000A6E7AEC24F0010E4FA2000E0001CD6FDD
:1006E0009250CD19FE0BCD19926E010E4FA0000E47
:1006F000CD6FCD479250CD19FD0BCD19926E923032
:10070000010BCD6F9250010B020DF35096D0D851D2
:100710000D0A01E095D0A7EC26F0096A500E086E8C
:100720004FC00AF07AEC24F0010E4FAE000E00012B
:10073000CD6FCD47CD479250CD19FB0BCD19926EA1
:10074000010E4FAC000ECD6FCD33CD339450CD198B
:100750007F0BCD19946E010E4FAA000ECD6FCD3BCD
:10076000CD47CD479450CD19BF0BCD19946E010ED6
:100770004FA8000ECD6FCD3BCD479450CD19DF0B68
:10078000CD19946E010E4FA6000ECD6FCD3B945047
:10079000CD19EF0BCD19946E010E4FA4000ECD6F45
:1007A000CD47CD47CD479450CD19F70BCD19946E59
:1007B000010E4FA2000ECD6FCD479350CD19FD0B0A
:1007C000CD19936E010E4FA0000ECD6F9350CD1931
:1007D000FE0BCD19936E9350010BCD6F9330010B2F
:1007E000020DF3CFCEF09430E832E832010B040D65
:1007F000F3CFCFF09438010B080DF3CFD0F094383D
:10080000E832010B100DF3CFD1F09438E832E83222
:10081000010B200DF3CFD2F09434E836010B400DDC
:10082000F3CFD3F09230E832010B800DF350D32593
:10083000D225D125D025CF25CE25CD25B2EF0AF062
:100840000D0ED8653BD2180ED86138D24D0ED82582
:10085000086E096A000E092273EC26F00001CD6FC4
:10086000CDBF0CD2B3EF0AF0010ED56F4F0428E1D3
:100870008180000E81B0010ED66F010ED76F096A1C
:100880005B0E086E73EC26F00001CD6FCDA5B3EFC3
:100890000AF0096A860E086E73EC26F00001CD6F2F
:1008A000096A850E086E73EC26F00001CF6FCE6BDF
:1008B000CD51CE257E6F000ECF217F6FB3EF0AF0B2
:1008C0004F66B3EF0AF08190000E81B0010ED66F33
:1008D000D76BB3EF0AF0010ED56F4F041EE1818292
:1008E000000E81B2010ED66F010ED76F096A5C0E41
:1008F000086E73EC26F00001CD6FCDA5B3EF0AF0C2
:10090000096A880E086E73EC26F00001CD6F096A43
:10091000870E086E73EC26F062D24F66B3EF0AF0D2
:100920008192000E81B2010ED66FD2D7010ED56F23
:100930004F0428E18286000E82B6010ED66F010EAA
:10094000D76F096A5D0E086E73EC26F00001CD6F5B
:10095000CDA5B3EF0AF0096A8A0E086E73EC26F093
:100960000001CD6F096A890E086E73EC26F0000154
:10097000CF6FCE6BCD51CE25826F000ECF21836F0E
:10098000B3EF0AF04F66B3EF0AF08296000E82B61C
:10099000010ED66F9DD7010ED56F4F0428E18288D6
:1009A000000E82B8010ED66F010ED76F096A5E0E77
:1009B000086E73EC26F00001CD6FCDA5B3EF0AF001
:1009C000096A8C0E086E73EC26F00001CD6F096A7F
:1009D0008B0E086E73EC26F00001CF6FCE6BCD51FD
:1009E000CE25846F000ECF21856FB3EF0AF04F66DE
:1009F000B3EF0AF08298000E82B8010ED66F68D766
:100A0000010ED56F4F0428E1828A000E82BA010ED2
:100A1000D66F010ED76F096A5F0E086E73EC26F071
:100A20000001CD6FCDA5B3EF0AF0096A8E0E086EF6
:100A300073EC26F00001CD6F096A8D0E086E73EC21
:100A400026F00001CF6FCE6BCD51CE25866F000E04
:100A5000CF21876FB3EF0AF04F66B3EF0AF0829AA7
:100A6000000E82BA010ED66F33D7010ED56F4F0438
:100A700028E1828C000E82BC010ED66F010ED76F6A
:100A8000096A600E086E73EC26F00001CD6FCDA5EB
:100A9000B3EF0AF0096A900E086E73EC26F00001BD
:100AA000CD6F096A8F0E086E73EC26F00001CF6FD0
:100AB000CE6BCD51CE25886F000ECF21896FB3EF5D
:100AC0000AF04F66B3EF0AF0829C000E82BC010E62
:100AD000D66FFED6010ED56F4F0428E1828E000E30
:100AE00082BE010ED66F010ED76F096A610E086EC5
:100AF00073EC26F00001CD6FCDA5B3EF0AF0096AC3
:100B0000920E086E73EC26F00001CD6F096A910E0B
:100B1000086E73EC26F00001CF6FCE6BCD51CE2561
:100B20008A6F000ECF218B6FB3EF0AF04F66B3EFE1
:100B30000AF0829E000E82BE010ED66FC9D6010E4B
:100B4000D56F4F0428E18084000E80B4010ED66F6B
:100B5000010ED76F096A620E086E73EC26F0000171
:100B6000CD6FCDA5B3EF0AF0096A940E086E73EC51
:100B700026F00001CD6F096A930E086E73EC26F023
:100B80000001CF6FCE6BCD51CE258C6F000ECF21E3
:100B90008D6FB3EF0AF04F66B3EF0AF08094000E4A
:100BA00080B4010ED66F94D6010ED56F4F0428E1A4
:100BB0008082000E80B2010ED66F010ED76F096AD7
:100BC000630E086E73EC26F00001CD6FCDA5B3EF78
:100BD0000AF0096A960E086E73EC26F00001CD6FDC
:100BE000096A950E086E73EC26F00001CF6FCE6B8C
:100BF000CD51CE258E6F000ECF218F6FB3EF0AF04F
:100C00004F66B3EF0AF08092000E80B2010ED66FED
:100C10005FD6010ED56F4F0428E18080000E80B0B2
:100C2000010ED66F010ED76F096A640E086E73EC61
:100C300026F00001CD6FCDA5B3EF0AF0096A980E3A
:100C4000086E73EC26F00001CD6F096A970E086EEE
:100C500073EC26F00001CF6FCE6BCD51CE25906F97
:100C6000000ECF21916FB3EF0AF04F66B3EF0AF099
:100C70008090000E80B0010ED66F2AD6D8510E0A91
:100C800001E1F2D5010A01E126D61F0A01E14ED6A3
:100C9000010A01E180D6030A01E1B2D6010A01E1AD
:100CA000E4D6070A01E116D7010A01E148D7030A91
:100CB00001E17AD7010AADE0B3EF0AF0170ED8656B
:100CC000ABD2220ED861A8D288D2A7EC26F0710E42
:100CD0000001D825086E096A000E09224FC00AF0EB
:100CE0007AEC24F0710E0001D825086E096A000E16
:100CF000092273EC26F00001D66F4FA01CD0819022
:100D0000D76B6881096A710E086E73EC26F00001DA
:100D1000CD6F096A710E086E73EC26F00001CF6F7B
:100D2000CE6BCD51CE250101006F0001000ECF2109
:100D30000101016F06D0FE0E6817030E691781903E
:100D4000D76B4FB4A6D5B3EF0AF0A7EC26F0710E1F
:100D50000001D825086E096A000E09224FC00AF06A
:100D60007AEC24F0710E0001D825086E096A000E95
:100D7000092273EC26F00001D66F4FA21CD081929D
:100D8000D76B6883096A720E086E73EC26F0000157
:100D9000CD6F096A710E086E73EC26F00001CF6FFB
:100DA000CE6BCD51CE250101026F0001000ECF2187
:100DB0000101036F06D0FD0E6817030E69178192BB
:100DC000D76B4FA4D0D3096A860E086E73EC26F059
:100DD0000001CD6F096A850E086E73EC26F00001E4
:100DE000CF6FCE6BCD51CE25806F000ECF21816F9E
:100DF000BAD3A7EC26F0710E0001D825086E096A57
:100E0000000E09224FC00AF07AEC24F0710E0001A6
:100E1000D825086E096A000E092273EC26F000013D
:100E2000D66F4FA01CD08296D76B6885096A760E64
:100E3000086E73EC26F00001CD6F096A750E086E1E
:100E400073EC26F00001CF6FCE6BCD51CE250101A2
:100E5000046F0001000ECF210101056F06D0FB0ECB
:100E60006817030E69178296D76B4FB474D57BD37E
:100E7000A7EC26F0710E0001D825086E096A000E55
:100E800009224FC00AF07AEC24F0710E0001D82537
:100E9000086E096A000E092273EC26F00001D66F75
:100EA0004FA01CD08298D76B6887096A780E086EAD
:100EB00073EC26F00001CD6F096A770E086E73ECB3
:100EC00026F00001CF6FCE6BCD51CE250101066F0C
:100ED0000001000ECF210101076F06D0F70E681741
:100EE000030E69178298D76B4FB46AD53CD3A7EC31
:100EF00026F0710E0001D825086E096A000E09223D
:100F00004FC00AF07AEC24F0710E0001D825086E6B
:100F1000096A000E092273EC26F00001D66F4FA477
:100F20001CD0829AD76B6889096A7A0E086E73ECB6
:100F300026F00001CD6F096A790E086E73EC26F079
:100F40000001CF6FCE6BCD51CE250101086F00019E
:100F5000000ECF210101096F06D0EF0E6817030EB6
:100F60006917829AD76B4FB460D5FDD2A7EC26F0F3
:100F7000710E0001D825086E096A000E09224FC0C3
:100F80000AF07AEC24F0710E0001D825086E096A87
:100F9000000E092273EC26F00001D66F4FA01CD082
:100FA000829CD76B688B096A7C0E086E73EC26F006
:100FB0000001CD6F096A7B0E086E73EC26F000010C
:100FC000CF6FCE6BCD51CE2501010A6F0001000E0F
:100FD000CF2101010B6F06D0DF0E6817030E6917D2
:100FE000829CD76B4FB456D5BED2A7EC26F0710EBB
:100FF0000001D825086E096A000E09224FC00AF0C8
:101000007AEC24F0710E0001D825086E096A000EF2
:10101000092273EC26F00001D66F4FA01CD0829EEF
:10102000D76B688D096A7E0E086E73EC26F000019E
:10103000CD6F096A7D0E086E73EC26F00001CF6F4C
:10104000CE6BCD51CE2501010C6F0001000ECF21DA
:1010500001010D6F06D0BF0E6817030E6917829E3F
:10106000D76B4FB44CD57FD2A7EC26F0710E0001A0
:10107000D825086E096A000E09224FC00AF07AECE2
:1010800024F0710E0001D825086E096A000E0922AD
:1010900073EC26F00001D66F4FA01CD08094D76B64
:1010A000688F096A800E086E73EC26F00001CD6F20
:1010B000096A7F0E086E73EC26F00001CF6FCE6BCD
:1010C000CD51CE2501010E6F0001000ECF2101018F
:1010D0000F6F06D07F0E6817030E69178094D76BC9
:1010E0004FB442D540D2A7EC26F0710E0001D825AE
:1010F000086E096A000E09224FC00AF07AEC24F04B
:10110000710E0001D825086E096A000E092273ECE1
:1011100026F00001D66F4FA01CD08092D76B69815A
:10112000096A820E086E73EC26F00001CD6F096A21
:10113000810E086E73EC26F00001CF6FCE6BCD519F
:10114000CE250101106F0001000ECF210101116FAA
:1011500004D0020E69178092D76B4FB43AD503D2F0
:10116000A7EC26F0710E0001D825086E096A000E62
:1011700009224FC00AF07AEC24F0710E0001D82544
:10118000086E096A000E092273EC26F00001D66F82
:101190004FA01CD08090D76B6983096A840E086EBB
:1011A00073EC26F00001CD6F096A830E086E73ECB4
:1011B00026F00001CF6FCE6BCD51CE250101126F0D
:1011C0000001000ECF210101136F04D0010E691739
:1011D0008090D76B4FB432D5C6D1D851180A01E1EF
:1011E00074D5010A01E1B1D5030A01E102D6010A71
:1011F00001E13ED6070A01E17AD6010A01E1B6D63D
:10120000030A01E1F2D6010A01E12ED73F0A01E10A
:101210006AD7010AA5E0A7D1210ED865A4D12E0E68
:10122000D861A1D146EF03F05204531001E07AD106
:10123000140ED8612FD1A7EC26F0710E0001D8252D
:10124000086E096A000E09224FC00AF07AEC24F0F9
:10125000710E0001D825086E096A000E092273EC90
:1012600026F00001D66FFAD0096A720E086E73EC90
:1012700026F00001CD6F096A710E086E73EC26F03E
:101280000001CF6FCE6BCD51CE250101006F000163
:10129000000ECF210101016F66D1096A740E086E3C
:1012A00073EC26F00001CD6F096A730E086E73ECC3
:1012B00026F00001CF6FCE6BCD51CE250101026F1C
:1012C0000001000ECF210101036F4DD1096A760E96
:1012D000086E73EC26F00001CD6F096A750E086E7A
:1012E00073EC26F00001CF6FCE6BCD51CE250101FE
:1012F000046F0001000ECF210101056F34D1096A8E
:10130000780E086E73EC26F00001CD6F096A770E37
:10131000086E73EC26F00001CF6FCE6BCD51CE2559
:101320000101066F0001000ECF210101076F1BD1E3
:10133000096A7A0E086E73EC26F00001CD6F096A17
:10134000790E086E73EC26F00001CF6FCE6BCD5195
:10135000CE250101086F0001000ECF210101096FA8
:1013600002D1096A7C0E086E73EC26F00001CD6F85
:10137000096A7B0E086E73EC26F00001CF6FCE6B0E
:10138000CD51CE2501010A6F0001000ECF210101D0
:101390000B6FE9D0096A7E0E086E73EC26F000012F
:1013A000CD6F096A7D0E086E73EC26F00001CF6FD9
:1013B000CE6BCD51CE2501010C6F0001000ECF2167
:1013C00001010D6FD0D0096A800E086E73EC26F013
:1013D0000001CD6F096A7F0E086E73EC26F00001E4
:1013E000CF6FCE6BCD51CE2501010E6F0001000EE7
:1013F000CF2101010F6FB7D0096A820E086E73EC1E
:1014000026F00001CD6F096A810E086E73EC26F09C
:101410000001CF6FCE6BCD51CE250101106F0001C1
:10142000000ECF210101116F9ED0096A840E086E53
:1014300073EC26F00001CD6F096A830E086E73EC21
:1014400026F00001CF6FCE6BCD51CE250101126F7A
:101450000001000ECF210101136F85D0D851010A80
:1014600001E102D7020A01E118D7060A01E12ED7ED
:10147000020A01E144D70E0A01E15AD7020A01E14A
:1014800070D7060A87E0020A9EE01E0AB5E0020A4B
:10149000CCE069D0130ED86566D0280ED86163D031
:1014A000A7EC26F0710E0001D825086E096A000E1F
:1014B00009224FC00AF07AEC24F0710E0001D82501
:1014C000086E096A000E092273EC26F00001D66F3F
:1014D000D851150A02E149EF04F0020A02E180EF57
:1014E00004F00E0A02E1ABEF04F0020A02E1E0EFC1
:1014F00004F0060A02E115EF05F0020A02E14AEFE4
:1015000005F03E0A02E17FEF05F0020A02E1B4EFC6
:1015100005F0060A02E1E9EF05F0020A02E11EEF1A
:1015200006F021D05250020A53101DE1400ED8613E
:101530001AD0A7EC26F0990E0001D825086E096A8A
:10154000000E09224FC00AF07AEC24F048EC14F0A7
:10155000990E0001D825086E096A000E092273EC65
:1015600026F00001D66F0001D55121E0430ED825A9
:10157000086E096A000E092273EC26F00001D46F90
:10158000D7510BE0D4A713D0140ECB6F030ECC6F42
:10159000D851F20FA6EC23F00AD0D4A908D0140E2B
:1015A000CB6F040ECC6FD851F20FA6EC23F0D651BE
:1015B0001200F76B096A500E086E73EC26F00001FA
:1015C000CD6F096A4F0E086E73EC26F00001CF6FE5
:1015D000CE6BCD51CE25F16F000ECF21F26FF96B9E
:1015E000090EF96501D08CD2F9C0CDF0010ECE6F95
:1015F000CF6BCD2B03D0D890CE37CF37CD2FFBD7A5
:10160000F151CE17F251CF17CF51CE1101E1E4D0F5
:10161000650EF925086E096A000E092273EC26F0A2
:101620000001F86FF8AF69D232D0000E81B0010E20
:10163000F66F41D0000E81B2010EF66F3CD0000E65
:1016400082B6010EF66F37D0000E82B8010EF66F2B
:1016500032D0000E82BA010EF66F2DD0000E82BC81
:10166000010EF66F28D0000E82BE010EF66F23D059
:10167000000E80B4010EF66F1ED0000E80B2010E77
:10168000F66F19D0000E80B0010EF66F14D0F9512C
:10169000CCE0010ACFE0030AD2E0010AD5E0070A54
:1016A000D8E0010ADBE0030ADEE0010AE1E00F0A0C
:1016B000E4E0010AE7E0F8A126D0F65124E0F9C001
:1016C000CDF0010ECE6FCF6BCD2B03D0D890CE379F
:1016D000CF37CD2FFBD76A51CE176B51CF17CF51D4
:1016E000CE1111E1F8A508D01E0ECB6F050ECC6F00
:1016F000F951A6EC23F007D0140ECB6F030ECC6F7C
:10170000F951A6EC23F0F8B3F66724D0F9C0CDF078
:10171000010ECE6FCF6BCD2B03D0D890CE37CF3705
:10172000CD2FFBD76A51CE176B51CF17CF51CE11AA
:1017300011E0F8A508D01E0ECB6F060ECC6FF95144
:10174000A6EC23F007D0140ECB6F040ECC6FF9512A
:10175000A6EC23F0F8A91FD0F6511DE0F9C0CDF09A
:10176000010ECE6FCF6BCD2B03D0D890CE37CF37B5
:10177000CD2FFBD76A51CE176B51CF17CF51CE115A
:1017800002E0F8AB08D0010ECB6F020ECC6FF9511E
:10179000A6EC23F05582F8B7F667AFD1F9C0CDF0CB
:1017A000010ECE6FCF6BCD2B03D0D890CE37CF3775
:1017B000CD2FFBD76A51CE176B51CF17CF51CE111A
:1017C00002E1F8AB9AD1010ECB6F020ECC6FF9514A
:1017D000A6EC23F0558491D15B0EF925086E096AB9
:1017E000000E092273EC26F00001F86FF8AF85D1E6
:1017F000F951020DF3507E0FD96EDA6ADE50DD101A
:1018000039E0F951020DF3507E0FD96EDA6ADE0627
:10181000000EDD5AF951020DF3507E0FD96EDA6ACF
:10182000DE50DD1048E15B0EF925086E096A000EF6
:10183000092273EC26F00001CD6FCDA53CD0F9C094
:10184000CDF0010ECE6FCD2B02D0D890CE37CD2F5C
:10185000FCD7CE514F6E000EC1EC21F00001F8A371
:1018600007D0010ECB6F020ECC6FF951A6EC23F01E
:10187000558021D0850EF925086E096A000E0922CF
:1018800073EC26F00001CE6FCD6B860EF925086E45
:10189000096A000E092273EC26F00001CD27000E24
:1018A000CE23F951020DF3507E0FD96EDA6ACDC006
:1018B000DEFFCEC0DDFFF9C0CDF0010ECE6FCF6BE5
:1018C000CD2B03D0D890CE37CF37CD2FFBD7685153
:1018D000CE176951CF17CF51CE1101E10ED1F95179
:1018E000020D000EF324D96E010EF420DA6EDE50E4
:1018F000DD1001E1DAD00001F951020D000EF324F0
:10190000D96E010EF420DA6EDE06000EDD5AF951B2
:10191000020D000EF324D96E010EF420DA6EDE50B3
:10192000DD1040E0EAD081A002D0819037D08180E4
:10193000010EF76F4CD081A202D081922FD081820C
:10194000F7D782A602D0829629D08286F1D782A8C4
:1019500002D0829823D08288EBD782AA02D0829AC2
:101960001DD0828AE5D782AC02D0829C17D0828CAF
:10197000DFD782AE02D0829E11D0828ED9D780A4CA
:1019800002D080940BD08084D3D780A202D08092E2
:1019900005D08082CDD780A003D08090F76B17D080
:1019A0008080C6D70001F951BEE0010AC4E0030AF5
:1019B000C8E0010ACCE0070AD0E0010AD4E0030A3B
:1019C000D8E0010ADCE00F0AE0E0010AE4E0F951A6
:1019D000020D710EF324086E000EF420096E73ECF4
:1019E00026F00001CE6FCD6BF951020D710EF3247C
:1019F000086E000EF420096E73EC26F00001CD276E
:101A0000000ECE23F951020D000EF324D96E010E03
:101A1000F420DA6ECDC0DEFFCEC0DDFFF7513BE033
:101A20005B0EF925086E096A000E092273EC26F098
:101A30000001CD6FCDA525D0F951020D850EF324FF
:101A4000086E000EF420096E73EC26F00001CE6FD4
:101A5000CD6BF951020D860EF324086E000EF420B2
:101A6000096E73EC26F00001CD27000ECE23F9514C
:101A7000020DF3507E0FD96EDA6ACDC0DEFFCEC004
:101A8000DDFFF8A73AD0140ECB6F030ECC6FF951DF
:101A9000A6EC23F032D0F8A930D0140ECB6F040E90
:101AA000CC6FF951A6EC23F028D00001F951020DBA
:101AB000710EF324086E000EF420096E73EC26F00C
:101AC0000001CE6FCD6BF951020D720EF324086E3A
:101AD000000EF420096E73EC26F00001CD27000EF5
:101AE000CE23F951020D000EF324D96E010EF4201D
:101AF000DA6ECDC0DEFFCEC0DDFF0001F92B70D560
:101B0000096A700E086E73EC26F000094FE00001C0
:101B1000F36B8030010BCD6F8050010B020DF35041
:101B2000CD25F46F8150010BCD6F8130010B020D7B
:101B3000F3CFCEF08230E832E832010B040DF3CF60
:101B4000CFF08238010B080DF3CFD0F08238E832A5
:101B5000010B100DF3CFD1F08238E832E832010BDF
:101B6000200DF3CFD2F08234E836010B400DF3CFD5
:101B7000D3F08030E832010B800DF350D325D2250D
:101B8000D125D025CF25CE25CD25F56F406A0F0E66
:101B90003F6E010E416E79C042F0030E436E446EFB
:101BA000000E466EF30E456E89EC22F08150010B5B
:101BB0000001CD6F8130010BCE6FD890CE35CF6F45
:101BC000D06BD0378230E832E832010BD16FD26B64
:101BD000D890D137D237D890D137D2378238010B4D
:101BE000D36FD46BD890D337D437D890D337D4377A
:101BF000D890D337D4378238E832010BD56FD66B03
:101C0000D53BD63BF00ED617D5510F0BD613F00EA1
:101C1000D5178238E832E832010BD76FD86B050E42
:101C2000D890D737D837E82EFBD78234E836010B67
:101C3000D96FDA6B060ED890D937DA37E82EFBD792
:101C40008030E832010BDB6FDC6B070ED890DB379E
:101C5000DC37E82EFBD78030010BDE6FDD6B805068
:101C6000010BDF6FE06B090ED890DF37E037E82E0D
:101C7000FBD7DD51DF25E16FDE51E021E26FDB5163
:101C8000E125E36FDC51E221E46FD951E325E56FF3
:101C9000DA51E421E66FD751E525E76FD851E62107
:101CA000E86FD551E725E96FD651E821EA6FD351A6
:101CB000E925EB6FD451EA21EC6FD151EB25ED6FA3
:101CC000D251EC21EE6FCF51ED25EF6FD051EE21C7
:101CD000F06FCD51EF256A6F000EF0216B6F12008F
:101CE0009551941101E1E9D219D35BEC24F016D39C
:101CF000EFEC24F013D379EC25F010D394EC24F01E
:101D00000DD392510F0B020A01E008D3795120EE56
:101D100098F0DF6203D3800E996112D0995115ECCF
:101D20001BF00001A66F99C0A5F0030EA16F820EF3
:101D3000A06FA26BA36B0A0EA46F66EC25F0EED227
:101D400099513EEC1AF0EDD792510F0B030A01E0C6
:101D5000E5D2795120EE98F0DF62E0D2800E9961F1
:101D600006D09AC04FF0995111EC03F0DBD79AC01E
:101D700036F09951D3EC1FF0D4D7795120EE98F07A
:101D8000DF62CCD2000E60EC26F000019A1901E06F
:101D9000C5D2030E60EC26F000019B1901E0BED213
:101DA000050E60EC26F000019C1901E0B7D2070E89
:101DB00060EC26F000019D1901E0B0D253509E194D
:101DC00001E0ACD2525020EE9FF0DF62A7D29951D1
:101DD000F8EC25F0A3D2000E60EC26F00001991972
:101DE00073E1010E60EC26F000019A196DE1020E1C
:101DF00060EC26F000019B1967E1030E60EC26F011
:101E000000019C1961E175895FD0040E60EC26F039
:101E10000001991959E1050E60EC26F000019A19AC
:101E200053E1060E60EC26F000019B194DE1070E10
:101E300060EC26F000019C1947E1758B45D0080E37
:101E400060EC26F0000199193FE1090E60EC26F0E4
:101E500000019A1939E10A0E60EC26F000019B1985
:101E600033E10B0E60EC26F000019C192DE1758D1D
:101E70002BD00C0E60EC26F00001991925E10D0E17
:101E800060EC26F000019A191FE10E0E60EC26F0BE
:101E900000019B1919E10F0E60EC26F000019C195E
:101EA00013E1758F11D0756B0FD098390F0BDA6F66
:101EB000DB6BDB51F8E1DA518EE0010AA6E0030AA0
:101EC000BEE0010AD6E0EFD77551F00BF00A01E051
:101ED00025D2F6EC23F022D2795120EE98F0DF6281
:101EE0001DD2E66B99C0E5F09AC0E8F0F46B47D0DC
:101EF000070E086EF45119EC25F00001DA6FDA5183
:101F0000A60FD96EDA6AE551F42506EC26F0DF6EED
:101F1000070E086E0001F45119EC25F0060A0BE0DB
:101F2000FF0E0001E825DA6FDB6BFF0EDB23F451B7
:101F3000DA19DB1123E1070E086E0001F45119ECE8
:101F400025F0060A03E1070E000109D0070E086E0E
:101F50000001F45119EC25F00001DA6FDA29E76F7E
:101F6000E751810FA06F070EA16FA26BA36B1A0E32
:101F7000A46FE6C0A5F066EC25F0E62BF42BE85143
:101F8000F45D01E3CBD1B4D7795120EE98F0DF6254
:101F9000C5D199C0E9F09251FE0F070BEA6FEF6BC4
:101FA00016D0EF519A0FD96EDA6ADF50D96FE95126
:101FB000EF259DEC25F00001EF51A60FD96EDA6AEE
:101FC000E951EF2506EC26F0DF6E0001EF2BEA5118
:101FD000EF5DE7E3070EA16FA26BA36B1A0EA46F70
:101FE000A56BEA51810FA06FA8D6795120EE98F029
:101FF000DF6294D1995115EC1BF00001DA6FDA29F8
:102000004F6E995111EC03F08DD6795120EE98F076
:10201000DF6284D1995115EC1BF00001DA6FDA050B
:102020004F6E995111EC03F07DD69851791903E068
:10203000982901E073D1EE6B030EA16F880EA06F9B
:10204000A26BA36B200EA46FF36BF3C0A5F0010E7F
:10205000F56FF551A50FD96EDA6AEE510F0860ECF5
:1020600026F0DF6E0001EE2B100EEE6501D004D0DD
:10207000F52B070EF565EDD7100EEE6501D006D0F5
:1020800066EC25F0F32B020EF365DFD7F56BF55107
:1020900013EC26F0000908E0F551A80FD96EDA6AB2
:1020A000F55113EC26F005D0F551A80FD96EDA6A78
:1020B000000EDF6EF52B040EF565E9D766EC25F012
:1020C000050EEE6F030EF36FF3C0A5F0010EF56F72
:1020D000F551A50FD96EDA6AEE5113EC26F0DF6EDA
:1020E000EE2BF52B070EF565F3D766EC25F0F32BF9
:1020F000060EF365E9D712D1795120EE98F0DF6230
:102100000DD1030EA16F870EA06FA26BA36B220EE1
:10211000A46FA50EAEEC25F010D6795120EE98F004
:10212000DF62FCD0F06B92C0DAF00F0EDA17040E0B
:10213000DA5D12E39CC0F1F0F26BF251F11103E1B0
:10214000010EF26FF16B010EF15D010EF25907E322
:10215000010EF26F000E02D0F26B010EF16F52C051
:10216000E1F053C0E2F09A5199C0DAF0DB6BDAC0CB
:10217000DBF0DA6BDA11526EDB51536E070EA16F92
:10218000A26BA36B270EA46FA56B99C0A6F09AC093
:10219000A7F0F051F15DDA6F000EF259DB6F040E1B
:1021A000DA5D000EDB5902E3040E02D0F051F15D5E
:1021B000EB6FEB51840FA06F9B51F025A86FEC6B78
:1021C0000CD0EC51A90FD96EDA6A9B51F025EC25A1
:1021D00006EC26F0DF6E0001EC2BEB51EC5DF1E339
:1021E00066EC25F0EB51F027A52BF051DA6FDB6B95
:1021F000F151DA5DF251DB59CCE3E1C052F0E2C0BB
:1022000053F08CD0795120EE98F0DF6287D052C025
:10221000E3F053C0E4F09A5199C0DAF0DB6BDAC016
:10222000DBF0DA6BDA11526EDB51536E9BC0EDF0CE
:1022300014D09B519C08ED25D96EDA6ADF50D96F16
:10224000ED519DEC25F00001DA6F9B51A908ED25B9
:10225000D96EDA6ADAC0DFFFED2B92510F0BDA6F1D
:10226000DB6B9B51DA27000EDB23FC0EDA25DC6FDB
:10227000FF0EDB21DD6FED51DE6FDF6BDF51800A7A
:10228000E06FDC51DE5DDD51800AE059D2E3E3C04E
:1022900052F0E4C053F0070EA16F92510F0B800F64
:1022A000A06FA26BA36B270EA46FA56B99C0A6F0BD
:1022B0009AC0A7F09BC0A8F040D59651010A01E151
:1022C00014D5030A01E114D5040A01E114D50E0A5C
:1022D00001E114D5010A01E114D5020A01E134D566
:1022E000070A01E14AD51B0A01E1DFD50F0A01E126
:1022F000F3D5010A01E148D6040A01E176D6030AC2
:1023000001E183D6010A01E190D63E0A01E1F4D64B
:10231000040A01E102D7030A01E174D7120018ECA4
:1023200024F08BEC25F00009D8B451EC1DF07EECC4
:1023300016F0F6EC23F00400FA0E000177650ED0DB
:102340007A050CE07969A7EC26F0096A010E086E9F
:10235000FF0E0A687AEC24F0F6EC23F0926B04ECA2
:1023600025F05FD2792903E1010E7A6F6AD2030E5C
:102370007A6FBEEC25F065D22CEC22F062D292AFDF
:1023800008D09551941103E170EC0EF002D0DDEC11
:1023900017F00A0E0001605D000E6159000E6259CF
:1023A000000E635901E24DD2096A4F0E086E73ECBC
:1023B00026F0096A500E086E73EC26F00001FC6FDF
:1023C000606B616B626B636B70C0FAF0010EFB6F48
:1023D000FA2B02D0D890FB37FA2FFCD7FB51FC1513
:1023E00001E114D2650E7025086E096A000E0922FB
:1023F00073EC26F00001FA6FFAAD08D2650E702575
:10240000086E096A000E092273EC26F00001FA6FCB
:10241000FABFDFD1FBD181B02DD07051AD0FD96E95
:10242000DA6ADF2A7051AD0FD96EDA6A030EDF6403
:10243000EDD17051AD0FD96EDA6ADF6A5B0E70258F
:10244000086E096A000E092273EC26F00001FA6F8B
:10245000FAA508D0140ECB6F030ECC6F7051A6EC0A
:1024600023F0D4D11E0ECB6F050ECC6F7051A6ECAD
:1024700023F0CCD17051AD0FD96EDA6ADF6AC6D1C4
:1024800081B2F8D77051AD0FD96EDA6ADF2A705178
:10249000AD0FD96EDA6A030EDF64B8D17051AD0F9B
:1024A000D96EDA6ADF6A5B0E7025086E096A000E63
:1024B000092273EC26F00001FA6FFAA508D0140E79
:1024C000CB6F030ECC6F7051A6EC23F09FD11E0E84
:1024D000CB6F050ECC6F7051A6EC23F097D182B66E
:1024E000C9D77051AD0FD96EDA6ADF2A7051AD0FBE
:1024F000D96EDA6A030EDF6489D17051AD0FD96EDF
:10250000DA6ADF6A5B0E7025086E096A000E09221E
:1025100073EC26F00001FA6FFAA508D0140ECB6F09
:10252000030ECC6F7051A6EC23F070D11E0ECB6F52
:10253000050ECC6F7051A6EC23F068D182B89AD703
:102540007051AD0FD96EDA6ADF2A7051AD0FD96EB6
:10255000DA6A030EDF645AD17051AD0FD96EDA6AB0
:10256000DF6A5B0E7025086E096A000E092273ECA3
:1025700026F00001FA6FFAA508D0140ECB6F030EF7
:10258000CC6F7051A6EC23F041D11E0ECB6F050E1F
:10259000CC6F7051A6EC23F039D182BA6BD7705151
:1025A000AD0FD96EDA6ADF2A7051AD0FD96EDA6AD3
:1025B000030EDF642BD17051AD0FD96EDA6ADF6A7A
:1025C0005B0E7025086E096A000E092273EC26F076
:1025D0000001FA6FFAA508D0140ECB6F030ECC6F72
:1025E0007051A6EC23F012D11E0ECB6F050ECC6FEE
:1025F0007051A6EC23F00AD182BC3CD77051AD0FCC
:10260000D96EDA6ADF2A7051AD0FD96EDA6A030E1D
:10261000DF64FCD07051AD0FD96EDA6ADF6A5B0EF1
:102620007025086E096A000E092273EC26F000017D
:10263000FA6FFAA508D0140ECB6F030ECC6F705151
:10264000A6EC23F0E3D01E0ECB6F050ECC6F7051BD
:10265000A6EC23F0DBD082BE0DD77051AD0FD96E42
:10266000DA6ADF2A7051AD0FD96EDA6A030EDF64C1
:10267000CDD07051AD0FD96EDA6ADF6A5B0E70256E
:10268000086E096A000E092273EC26F00001FA6F49
:10269000FAA508D0140ECB6F030ECC6F7051A6ECC8
:1026A00023F0B4D01E0ECB6F050ECC6F7051A6EC8C
:1026B00023F0ACD080B4DED67051AD0FD96EDA6A9B
:1026C000DF2A7051AD0FD96EDA6A030EDF649ED037
:1026D0007051AD0FD96EDA6ADF6A5B0E7025086E35
:1026E000096A000E092273EC26F00001FA6FFAA5C0
:1026F00008D0140ECB6F030ECC6F7051A6EC23F0F4
:1027000085D01E0ECB6F050ECC6F7051A6EC23F05A
:102710007DD080B2AFD67051AD0FD96EDA6ADF2AA4
:102720007051AD0FD96EDA6A030EDF646FD070514D
:10273000AD0FD96EDA6ADF6A5B0E7025086E096A22
:10274000000E092273EC26F00001FA6FFAA508D0FA
:10275000140ECB6F030ECC6F7051A6EC23F056D045
:102760001E0ECB6F050ECC6F7051A6EC23F04ED031
:1027700080B080D67051AD0FD96EDA6ADF2A705101
:10278000AD0FD96EDA6A030EDF6440D07051AD0F21
:10279000D96EDA6ADF6A5B0E7025086E096A000E70
:1027A000092273EC26F00001FA6FFAA508D0140E86
:1027B000CB6F030ECC6F7051A6EC23F027D01E0E0A
:1027C000CB6F050ECC6F7051A6EC23F01FD0706B51
:1027D0001DD0705101E11FD6010A01E151D6030A53
:1027E00001E17DD6010A01E1A9D6070A01E1D5D6AA
:1027F000010A01E101D7030A01E12DD7010A01E134
:1028000059D70F0A86E0010AB3E0E1D7702B090E11
:10281000706517D0706B15D0AAEC26F012D07A6BC9
:1028200010D000017A5101E19DD5010A01E1A4D542
:10283000030A01E19ED5010A01E1A1D5070AECE0F6
:10284000EED7E90E0001645D030E6559000E66596E
:10285000000E67590CE3646B656B666B676B742BDA
:10286000CFEC23F07A51030AD8B4D9EC0AF03B0E2E
:1028700073650BD0736B722B3B0E726502D0726B5B
:10288000712B170E716501D0716BACEC26F053D52E
:1028900036683768386839683A6A3B6A3C6A3D6A24
:1028A000436A4350126E136AD89012361336D8908A
:1028B00012361336D89012361336440E1224086E90
:1028C000000E1320096E73EC26F0146E14AEE8D1DE
:1028D0004350126E136AD89012361336D8901236BF
:1028E0001336D89012361336470E1224086E000E97
:1028F0001320096E73EC26F0146E14C015F0166ADE
:10290000176A186A17C018F016C017F015C016F02D
:10291000156A4350196E1A6AD89019361A36D8902B
:1029200019361A36D89019361A36450E1924086EFB
:10293000000E1A20096E73EC26F01B6E1BC01CF0F3
:102940001D6A1E6A1F6A1DC01FF01CC01EF01D6A92
:102950001C6A4350206E216AD89020362136D890C8
:1029600020362136D89020362136440E2024086E99
:10297000000E2120096E73EC26F0226E020E221644
:1029800022C023F0246A256A266A170ED8902336BF
:10299000243625362636E82EF9D71C502310276E0C
:1029A0001D502410286E1E502510296E1F50261011
:1029B0002A6E155027102B6E165028102C6E1750AB
:1029C00029102D6E18502A102E6EFF0E2B10316E0E
:1029D0002C50326E2D50336E2E50346E4350126E8A
:1029E000136AD89012361336D89012361336D89010
:1029F00012361336480E1224086E000E1320096E8C
:102A000073EC26F0146E14C015F0166A176A186A73
:102A100017C018F016C017F015C016F0156A43500D
:102A2000196E1A6AD89019361A36D89019361A368D
:102A3000D89019361A36460E1924086E000E1A2040
:102A4000096E73EC26F01B6E1BC01CF01D6A1E6A1B
:102A50001F6A1DC01FF01CC01EF01D6A1C6A435077
:102A6000206E216AD89020362136D8902036213623
:102A7000D89020362136440E2024086E000E2120E6
:102A8000096E73EC26F0226E010E221622C023F08E
:102A9000246A256A266A23C026F0256A246A236AE6
:102AA0001C502310276E1D502410286E1E50251018
:102AB000296E1F5026102A6E155027102B6E1650A7
:102AC00028102C6E175029102D6E18502A102E6EBB
:102AD00043502F6E306AD8902F363036D8902F362C
:102AE0003036D8902F363036430E2F24086E000E25
:102AF0003020096E73EC26F02B103E6E2C503F6E8A
:102B00002D50406E2E50416E436608D03EC03AF0C4
:102B10003FC03BF040C03CF041C03DF03150361664
:102B2000325037163350381634503916426A4250F4
:102B30003EC012F03FC013F040C014F041C015F089
:102B4000E82A05D0D8901532143213321232E82E0A
:102B5000F9D7010E121642503AC016F03BC017F0DA
:102B60003CC018F03DC019F0E82A05D0D8901932C1
:102B7000183217321632E82EF9D71650010B1218F8
:102B80001DE042C012F0010E136E146A122A03D027
:102B9000D89013361436122EFBD7131C156E141C46
:102BA000166E176A16BE17061750186E1550361691
:102BB000165037161750381618503916422A1F0E5D
:102BC0004264B5D73E503A163F503B1640503C1633
:102BD00041503D1643504FE0426A43C012F043500B
:102BE000136E146AD89013361436D89013361436F0
:102BF000D89013361436430E1324086E000E14209A
:102C0000096E73EC26F0156E122A02D0D890153298
:102C1000122EFCD7010E151643C016F035C017F062
:102C2000162A02D0D8901732162EFCD71750010B57
:102C300015181DE043C012F0010E136E146A122A1B
:102C400003D0D89013361436122EFBD713C015F0CC
:102C500014C016F0000E16BEFF0E176E186E15503B
:102C60003616165037161750381618503916422A8D
:102C7000070E4264B2D74350126E136AD8901236D0
:102C80001336D89012361336D89012361336430EB8
:102C90001224086E000E1320096E73EC26F0356EB8
:102CA000432A070E4364FDD5800E1FEC26F00F016A
:102CB0000F0E096E1C0E086E36C00AF037C00BF0FE
:102CC00038C00CF039C00DF0010E0E6E00EC1EF095
:102CD0000D01D4830F010F0E096E040E086E3AC069
:102CE0000AF03BC00BF03CC00CF03DC00DF0010EF3
:102CF0000E6E00EC1EF0000E1FEF26F00001646B5C
:102D0000656B666B676B736B726B716B686B696B12
:102D10000101010E096E000E086E0B6A0A6A0D6A47
:102D2000140E0C6EC3EC24F00001000E096E7E0E32
:102D3000086E0B6A0A6A0D6A140E0C6EC3EC24F05E
:102D4000356A5B0E3524086E096A000E092273ECA1
:102D500026F0106E10A033D035C010F0010E116EA9
:102D6000126A102A03D0D89011361236102EFBD7D3
:102D700011500001681312506913710E3524086E4A
:102D8000096A000E092273EC26F0116E106A720EA9
:102D90003524086E096A000E092273EC26F010260D
:102DA000000E11223550020D0101000EF324D96EE0
:102DB000010EF420DA6E10C0DEFF11C0DDFF600EE0
:102DC0003524086E096A000E092273EC26F0106E95
:102DD00010A420D0710E3524086E096A000E092255
:102DE00073EC26F0116E106A720E3524086E096AB3
:102DF000000E092273EC26F01026000E1122355029
:102E0000020DF35000017E0FD96EDA6A10C0DEFFAA
:102E100011C0DDFF352A090E356493D7096A4F0EBC
:102E2000086E73EC26F0346E3450030B926E096A10
:102E3000500E086E73EC26F0346E3450030B080904
:102E4000936E096A6F0E086E73EC26F0106E10B068
:102E5000F19E096A500E086E73EC26F0106ED89041
:102E60001034F80B346E34500109946E0001000EDA
:102E7000096EAD0E086E0B6A0A6A0D6A0A0E0C6EB8
:102E8000C3EC24F00001706B8150010B106E813097
:102E9000010B116ED8901134126E136A1336823002
:102EA000E832E832010B146E156AD89014361536E4
:102EB000D890143615368238010B166E176AD890E2
:102EC00016361736D89016361736D8901636173667
:102ED0008238E832010B186E196A183A193AF00E66
:102EE000191618500F0B1912F00E18168238E83206
:102EF000E832010B1A6E1B6A050ED8901A361B3683
:102F0000E82EFBD78234E836010B1C6E1D6A060ED4
:102F1000D8901C361D36E82EFBD78030E832010BE6
:102F20001E6E1F6A070ED8901E361F36E82EFBD77E
:102F30008030010B216E206A8050010B226E236AC3
:102F4000090ED89022362336E82EFBD720502224B3
:102F5000246E21502320256E1E502424266E1F50DF
:102F60002520276E1C502624286E1D502720296EF0
:102F70001A5028242A6E1B5029202B6E18502A2400
:102F80002C6E19502B202D6E16502C242E6E17509F
:102F90002D202F6E14502E24306E15502F20316EA0
:102FA00012503024326E13503120336E10503224C0
:102FB0006A6F000E33206B6F12009551941101E17E
:102FC00055D1E36BE351D26FD36BD890D237D3375F
:102FD000D890D237D337D890D237D3379A0ED2255C
:102FE000086E000ED321096E73EC26F00001E26F2B
:102FF000E2AF37D1E2AD18D0E351D26FD36BD890A6
:10300000D237D337D890D237D337D890D237D337B7
:10301000990ED225086E000ED321096E73EC26F0AE
:103020000001971901E01DD1E2A90BD0992909E00F
:10303000096A430E086E73EC26F00001991901E04D
:1030400010D1E2A70BD09A2909E0096A440E086E54
:1030500073EC26F000019A1901E003D1E351080D49
:103060009C0EF324086E000EF420096E73EC26F01B
:103070000001D26FE251010BD46FD36BD251D32533
:10308000D56F000ED421D66FE351080D9B0EF324AB
:10309000086E000EF420096E73EC26F00001D26F6A
:1030A000E251020BD36FD46B070ED890D337D437CD
:1030B000E82EFBD7D251D325D76F000ED421D86F7D
:1030C000E351080D9E0EF324086E000EF420096EE5
:1030D00073EC26F00001D96FE351080D9D0EF32427
:1030E000086E000EF420096E73EC26F00001DA6F12
:1030F00020EE94F0DECFD2F0DDCFD3F0D551D21B4D
:10310000D651D31BD751D217D851D317D351D2117F
:1031100001E0A7D09651D919DA1501E186D0A1D0E6
:103120000001E351080DA00EF324086E000EF420F8
:10313000096E73EC26F00001DB6FDBC04FF0E2514B
:1031400042EC1FF08ED00001E351080DA00EF324D5
:10315000086E000EF420096E73EC26F00001DC6F9F
:10316000DCC04FF0E251C1EC21F07BD00001E35113
:10317000080DA00EF324086E000EF420096E73EC07
:1031800026F00001DD6FDDC04FF0E251A8EC1EF02B
:1031900068D00001E351080DA00EF324086E000E64
:1031A000F420096E73EC26F00001DE6FDEC04FF0F4
:1031B000E25156EC20F055D00001E351080DA00E6D
:1031C000F324086E000EF420096E73EC26F0000163
:1031D000DF6FDFC04FF0E25152EC21F042D000012E
:1031E000E351080DA00EF324086E000EF420096EC2
:1031F00073EC26F00001E06FE0C0CDF0E251DCECB2
:1032000025F02FD00001E351080DA00EF324086E25
:10321000000EF420096E73EC26F00001E16FE1C0AE
:103220004FF0E251D6EC20F01CD0E351080D9F0E78
:10323000F324086E000EF420096E73EC26F0000AE9
:1032400010E0010A01E16CD7030A01E17CD7010A11
:103250008DE0070A9EE0010AD5E0030AADE0010A0D
:10326000BEE00001E32B070EE365ACD61200E8CF09
:1032700014F0546A7750C00B166E166632D060AEEA
:1032800012D0A49074AE06D01150D96EDA6A000E36
:10329000DB86749E60A002D0548001D054900F0E43
:1032A000196E600E1AD00F0150AF19D0A49274ACF1
:1032B00006D01150D96EDA6A000EDB86749C50512C
:1032C000070B546E020E546005D01150D96EDA6AA5
:1032D000000EDB8E0F0E196E500E186E65D0000EAC
:1032E000CCD01650400A46E160AE04D00F0E196EE5
:1032F000600E3ED00F0150AF04D00F0E196E500E6D
:1033000037D00D01F8B507D00E0120AF04D00E0E56
:10331000196E200E2DD00D01F8B707D00E0130AF79
:1033200004D00E0E196E300E23D00D01F8B907D05F
:103330000E0140AF04D00E0E196E400E19D00D01D3
:10334000F8BB05D00E0150AF02D00E0ED7D70D013D
:10335000F8BD05D00E0160AF02D00E0EC8D70D012A
:10336000F8BFBDD70E0170AFBAD70E0E196E700E32
:10337000186E0AD074AEB3D76F50070B6BEC23F006
:1033800008C018F009C019F018C0D9FF19C0DAFF39
:10339000DF501F0B546EA49274AC06D01150D96E3E
:1033A000DA6A000EDB86749C18C012F019C013F0A4
:1033B0001150D96EDA6ADF6A20EE05F01850D9266E
:1033C0001950DA22DF50176E1050D96EDA6A175092
:1033D0000F0BDF6E17AC05D01150D96EDA6A000EF4
:1033E000DB8C20EE02F01850D9261950DA22DF507B
:1033F000176E17A608D01150D96EDA6A000EDB8A54
:10340000010E176E01D0176A1828086E000E1920D9
:10341000096E14C00AF017C00BF09FEC1CF0060EEA
:103420001826000E19221050D96EDA6ADF50176E76
:10343000156A0DD018C0D9FF19C0DAFF0F50E16E20
:10344000E26ADFCFE7FF184A192A0F2A152A175018
:10345000155CF0E3A4AE06D01150D96EDA6A000E06
:10346000DB88A49E12C0D9FF13C0DAFF7F0EDF16DF
:103470001650800AD8B4749E010E1200E8CF1CF0DA
:103480001B6A1C50800A04E155C01BF0556ACBD062
:103490001C50810A02E1010E81D01C50820A02E117
:1034A000050E7CD01C50830A02E11B6ABCD01C5064
:1034B000940A03E1B2EC26F071D01C50950A03E1A6
:1034C000B1EC26F06BD01C50960A03E1B0EC26F06C
:1034D00065D0890E1C6005D01C507C0F56EC26F080
:1034E0005DD0880E1C6408D0910E1C6005D01C5065
:1034F000770F4CEC26F052D01C50910A03E179C0B2
:103500001BF091D01C50930A03E152C01BF08BD0EA
:103510001C50920A02E1535041D01C50970A03E11B
:10352000AFEC26F03BD01C50980A03E1AEEC26F03D
:1035300035D01C50990A03E1ADEC26F02FD0990E3E
:103540001C642ED09E0E1C602BD094EC26F00BC079
:1035500014F00AC013F009C012F008C011F01C509A
:10356000660F196E195003080C6ED8900C36D8905F
:103570000C36D8900C360C5011C00DF012C00EF065
:1035800013C00FF014C010F0E82A05D0D890103204
:103590000F320E320D32E82EF9D730D01B6E43D0E9
:1035A0009D0E1C642DD0A20E1C602AD08FEC26F03C
:1035B0000BC018F00AC017F009C016F008C015F0CB
:1035C0001C50620F1A6E1A5003080C6ED8900C36FD
:1035D000D8900C36D8900C360C5015C00DF016C093
:1035E0000EF017C00FF018C010F0E82A05D0D890E0
:1035F00010320F320E320D32E82EF9D70D50CED7E1
:10360000CF0E1C6408D0E00E1C6005D01C50300F9B
:1036100060EC26F0C3D7DF0E1C6405D01C50200FD1
:1036200013EC26F0BBD71B501200E8CF12F0116A42
:103630005350521001E0ADD0126606D0096A430E15
:10364000086E73EC26F0C3D0120406E1096A440E3A
:10365000086E73EC26F0BBD0010E12640CD00C0E79
:10366000126009D0430E1224086E096A000E092266
:1036700073EC26F0ACD012500C0A08E19230010B2A
:103680000A6E9250010B020DF35035D012500D0A04
:1036900034E19350010B0A6E9330010B020DF3CF0E
:1036A0000BF09430E832E832010B040DF3CF0CF04C
:1036B0009438010B080DF3CF0DF09438E832010B6C
:1036C000100DF3CF0EF09438E832E832010B200DE4
:1036D000F3CF0FF09434E836010B400DF3CF10F028
:1036E0009230E832010B800DF35010240F240E2489
:1036F0000D240C240B240A246AD00D0E126442D02F
:10370000180E12603FD028D0000E81B0010E5FD09D
:10371000000E81B2010E5BD0000E82B6010E57D0B2
:10372000000E82B8010E53D0000E82BA010E4FD0A7
:10373000000E82BC010E4BD0000E82BE010E47D09F
:10374000000E80B4010E43D0000E80B2010E3FD0B7
:10375000000E80B0010E3BD012500E0AD5E0010AD7
:10376000D7E01F0AD9E0010ADBE0030ADDE0010A25
:10377000DFE0070AE1E0010AE3E0030AE5E0010A0D
:10378000E7E026D0170E126423D02E0E126020D050
:1037900069D7520453100CE1280E126019D0710E33
:1037A0001224086E096A000E092273EC26F00FD06D
:1037B0005250020A53100CE1400E126009D0990ECB
:1037C0001224086E096A000E092273EC26F0116EAD
:1037D000115012000F0E1C6E400E1B6E0F0E1E6E4F
:1037E000300E1D6E0F0E206E200E1F6E0E0E226EFE
:1037F000200E216E0E0E246E300E236E0E0E266EDF
:10380000400E256E0E0E286E500E276E0E0E2A6E7E
:10381000600E296E0E0E2C6E700E2B6E7750C00B44
:103820002D6E2D6602D0020E01D0080E2E6E0D01F7
:10383000D890F831306E346A7DD03450020DF35098
:103840001B0FD96EDA6ADECF35F0DDCF36F035C02A
:1038500031F036C032F0020E346404D0D8903032E9
:1038600030A067D035C0D9FF36C0DAFFDF501A6EFE
:103870001AB65FD035C0D9FF36C0DAFFFC0EDF16AE
:1038800019C01AF0030E1A1635C0D9FF36C0DAFF78
:103890001A50DF1219AC04D018504009336E02D010
:1038A00018C033F020EE05F03550D9263650DA2214
:1038B00033C0DFFF19AA03D0010E336E01D0336A83
:1038C0003528086E000E3620096E12C00AF013C0AB
:1038D0000BF014C00CF015C00DF033C00EF000EC6E
:1038E0001EF0060E3526000E36222F6A0FD016C0A7
:1038F000D9FF17C0DAFF35C0E1FF36C0E2FFDFCFE6
:10390000E7FF164A172A354A362A2F2A18502F5C05
:10391000EEE331C0D9FF32C0DAFFDF501A6E1AB4BD
:1039200006D031C0D9FF32C0DAFF000EDB86010EAF
:1039300005D0342A2E50345C80E3000E12000AC0F9
:103940000EF00B6646D00E50D96EDA6A08C0E1FF61
:1039500009C0E2FFE7500C6ED8900C36D8900C36B8
:10396000D8900C34DF6E0E50D96EDA6AD92ADA6A32
:1039700008C0E1FF09C0E2FFE7500C6E050E0D6EB6
:10398000D8900C320D2EFCD70C50DF6E084A092A55
:1039900008C0D9FF09C0DAFFDF500C6E050E0D6EAE
:1039A000D8900C320D2EFCD70E50D96EDA6A0C501E
:1039B000DF120E50D96EDA6A020ED926DA6ADF6A91
:1039C0000E50D96EDA6A030ED926DA6A000EDF6E5F
:1039D00067D00E50D96EDA6A020ED926DA6A08C0AC
:1039E000E1FF09C0E2FFE7500C6E050E0D6ED890A6
:1039F0000C360D2EFCD70C50DF6E0E50D96EDA6AE5
:103A0000030ED926DA6A08C0E1FF09C0E2FFE750D9
:103A10000C6ED8900C32D8900C32D8900C30DF6EEF
:103A2000084A092A08C0D9FF09C0DAFFDF500C6E26
:103A3000030E0C160E50D96EDA6A020ED926DA6A17
:103A40000C50DF1208C0D9FF09C0DAFFDF500C6E3E
:103A5000D8900C32D8900C32D8900C321C0E0C1628
:103A60000E50D96EDA6A020ED926DA6A0C50DF12CD
:103A7000084A092A08C0D9FF09C0DAFF0E50E16ED2
:103A8000E26AE12AE26ADFCFE7FF084A092A08C0B2
:103A9000D9FF09C0DAFF0E50E16EE26ADFCFE7FF1F
:103AA0001200A7EC26F0096A430E086E000E0A6A9F
:103AB0007AEC24F0A7EC26F0096A440E086E000E9A
:103AC0000A6A7AEC24F00F6AA7EC26F0450E0F2460
:103AD000086E096A000E09220FC00AF07AEC24F081
:103AE0000F2A090E0F64F0D7A7EC26F0096A4F0ED3
:103AF000086E000E0A6A7AEC24F0A7EC26F0096A38
:103B0000500E086E000E0A6A7AEC24F00F6AA7ECD9
:103B100026F05B0E0F24086E096A000E0922980E2B
:103B20000A6E7AEC24F00F2A090E0F64F0D70F6AA0
:103B3000A7EC26F0650E0F24086E096A000E092214
:103B4000830E0A6E7AEC24F00F2A090E0F64F0D768
:103B5000A7EC26F0096A6F0E086E000E0A6A7AEC6E
:103B600024F0A7EC26F0096A700E086E000E0A6AAF
:103B70007AEC24F00F6AA7EC26F0710E0F24086E81
:103B8000096A000E09220A6A7AEC24F00F2A130E41
:103B90000F64F1D70F6AA7EC26F0850E0F24086E8C
:103BA000096A000E09220A6A7AEC24F00F2A130E21
:103BB0000F64F1D70F6A0E6AA7EC26F00E500FC003
:103BC0000CF00D6AD8900C360D36D8900C360D36A8
:103BD000D8900C360D360C26000E0D22990E0C24B2
:103BE000086E000E0D20096E000E0A6A7AEC24F0B1
:103BF0000E2A070E0E64E0D70F2A0F64DCD7070CDD
:103C00000A0E116E0E6637D01150D96EDA6ADF5087
:103C10000F6ED8900F32D8900F32D8900F3008C066
:103C2000D9FF09C0DAFFDF6E1150D96EDA6AD92ADE
:103C3000DA6ADF500F6E050E106ED8900F36102E18
:103C4000FCD708C0D9FF09C0DAFF0F50DF12084ABD
:103C5000092A1150D96EDA6ADF500F6E050E106E08
:103C6000D8900F36102EFCD70F5008C0D9FF09C0CE
:103C7000DAFFDF6E6CD01150D96EDA6A020ED926E7
:103C8000DA6ADF500F6E050E106ED8900F32102ECC
:103C9000FCD70F5008C0D9FF09C0DAFFDF6E115002
:103CA000D96EDA6A030ED926DA6ADF500F6ED89021
:103CB0000F36D8900F36D8900F3608C0D9FF09C0FC
:103CC000DAFF0F50DF12084A092A1150D96EDA6A5A
:103CD000020ED926DA6ADF500F6ED8900F36D890D0
:103CE0000F36D8900F34E00B08C0D9FF09C0DAFFB7
:103CF000DF6E08C0D9FF09C0DAFF000EDB86115065
:103D0000D96EDA6A020ED926DA6ADF500F6E030E18
:103D10000F1608C0D9FF09C0DAFF0F50DF12084A9A
:103D2000092A1150D96EDA6AD92ADA6A08C0E1FF85
:103D300009C0E2FFDFCFE7FF084A092A1150D96E18
:103D4000DA6A08C0E1FF09C0E2FFDFCFE7FF120037
:103D5000516A090E4F6401D094D05B0E4F24086E57
:103D6000096A000E092273EC26F0506E50AE89D01D
:103D700039D081A002D0010E516E819047D081A22E
:103D800002D0010E516E819241D082A602D0010E66
:103D9000516E82963BD082A802D0010E516E82985D
:103DA00035D082AA02D0010E516E829A2FD082ACF9
:103DB00002D0010E516E829C29D082AE02D0010E3B
:103DC000516E829E23D080A402D0010E516E809449
:103DD0001DD080A202D0010E516E809217D080B00B
:103DE000F4D7F5D74F50C5E0010AC9E0030ACDE08A
:103DF000010AD1E0070AD5E0010AD9E0030ADDE0B3
:103E0000010AE1E00F0AE5E0010AE9E05150D8A417
:103E100050A808D0140E0001CB6F040ECC6F4F5089
:103E2000A6EC23F04FC0CDF0010E0001CE6FCF6B9A
:103E3000CD2B03D0D890CE37CF37CD2FFBD7CE5157
:103E40006813CF516913720E4F24086E096A000E71
:103E5000092273EC26F00001CD6F710E4F24086E1D
:103E6000096A000E092273EC26F00001CF6FCE6BB9
:103E7000CD51CE250101006F0001000ECF210101BF
:103E8000016F1200CE6B090E4F6401D08BD05B0E18
:103E90004F24086E096A000E092273EC26F0000117
:103EA000CD6FCDAF7FD039D081B002D0010ECE6FB3
:103EB000818047D081B202D0010ECE6F818241D085
:103EC00082B602D0010ECE6F82863BD082B802D07D
:103ED000010ECE6F828835D082BA02D0010ECE6F2D
:103EE000828A2FD082BC02D0010ECE6F828C29D064
:103EF00082BE02D0010ECE6F828E23D080B402D05B
:103F0000010ECE6F80841DD080B202D0010ECE6F24
:103F1000808217D080A0F4D7F5D74F50C5E0010AB2
:103F2000C9E0030ACDE0010AD1E0070AD5E0010AA1
:103F3000D9E0030ADDE0010AE1E00F0AE5E0010A49
:103F4000E9E0CDA524D04F50020D850EF324086E74
:103F5000000EF420096E73EC26F0516E506A4F503B
:103F6000020D860EF324086E000EF420096E73EC29
:103F700026F05026000E51224F50020DF350000142
:103F80007E0FD96EDA6A50C0DEFF51C0DDFFCE5120
:103F9000D8A4CDA707D0140ECB6F030ECC6F4F5013
:103FA000A6EC23F01200E8CF3CF0361C3B6E830EEB
:103FB0003C640ED0890E3C600BD036C00CF03C50F7
:103FC0007C0FEAEC25F03C507C0F56EC26F069D0D3
:103FD0003C50920A0DE13650386E376A5250396EB5
:103FE0003A6A3710526E38503A10536E535059D0C7
:103FF0003C50930A0BE1376A5350386E36503710F5
:10400000526E3850536E52C03BF04ED0880E3C6416
:1040100019D0910E3C6016D053C037F037C038F03D
:10402000396A382802E1522802E0361C3AD036C0FC
:104030000CF03C50770F40EC25F03C50770F4CECE7
:1040400026F02FD0CF0E3C6417D0E00E3C6014D089
:1040500053C037F037C038F0396A3828E6E15228C3
:10406000E4E136C00CF03C50300F53EC25F03C50EE
:10407000300F60EC26F015D03C50A20AD6E1365045
:10408000550A04E16C6B6D6B550E0BD03650AA0AC5
:104090000BE1E80E6C5D030E6D5905E2A3EC26F012
:1040A000AA0E3B6E01D03B6A3B501200516A090ECA
:1040B0004F6401D07AD05B0E4F24086E096A000E5F
:1040C000092273EC26F0506E50AE6FD039D081A02B
:1040D00002D0010E516E819047D081A202D0010E14
:1040E000516E819241D082A602D0010E516E82960D
:1040F0003BD082A802D0010E516E829835D082AAA0
:1041000002D0010E516E829A2FD082AC02D0010EE5
:10411000516E829C29D082AE02D0010E516E829ED9
:1041200023D080A402D0010E516E80941DD080A2B5
:1041300002D0010E516E809217D080B0F4D7F5D71F
:104140004F50C5E0010AC9E0030ACDE0010AD1E001
:10415000070AD5E0010AD9E0030ADDE0010AE1E03F
:104160000F0AE5E0010AE9E05150D8A450A808D0B0
:10417000140E0001CB6F040ECC6F4F50A6EC23F051
:104180004FC0CDF0010E0001CE6FCF6BCD2B03D011
:10419000D890CE37CF37CD2FFBD7CE1DD06FCF1DC8
:1041A000D16FD0516817D15169171200516A090EA9
:1041B0004F6401D076D05B0E4F24086E096A000E62
:1041C000092273EC26F0506E50AE6BD03FD081A028
:1041D00002D0819037D08180010E516E4BD081A2E8
:1041E00002D081922FD08182F7D782A602D0829608
:1041F00029D08286F1D782A802D0829823D08288E3
:10420000EBD782AA02D0829A1DD0828AE5D782ACEF
:1042100002D0829C17D0828CDFD782AE02D0829EE1
:1042200011D0828ED9D780A402D080940BD0808404
:10423000D3D780A202D0809205D08082CDD780A033
:1042400003D08090516A16D08080C6D74F50BFE00F
:10425000010AC5E0030AC9E0010ACDE0070AD1E07E
:10426000010AD5E0030AD9E0010ADDE00F0AE1E026
:10427000010AE5E051500BE050A613D0140E0001E6
:10428000CB6F030ECC6F4F50A6EC23F00AD050A892
:1042900008D0140E0001CB6F040ECC6F4F50A6EC6B
:1042A00023F01200516A090E4F6401D069D05B0EF1
:1042B0004F24086E096A000E092273EC26F0506E36
:1042C00050AE5ED032D0000E81B0010E516E41D0A2
:1042D000000E81B2010E516E3CD0000E82B6010E6E
:1042E000516E37D0000E82B8010E516E32D0000EE2
:1042F00082BA010E516E2DD0000E82BC010E516E9D
:1043000028D0000E82BE010E516E23D0000E80B464
:10431000010E516E1ED0000E80B2010E516E19D0EA
:10432000000E80B0010E516E14D04F50CCE0010A47
:10433000CFE0030AD2E0010AD5E0070AD8E0010A7B
:10434000DBE0030ADEE0010AE1E00F0AE4E0010A33
:10435000E7E051500BE050A813D0140E0001CB6FD2
:10436000040ECC6F4F50A6EC23F00AD050A808D012
:10437000140E0001CB6F040ECC6F4F50A6EC23F04F
:104380001200516A090E4F6401D065D05B0E4F24B4
:10439000086E096A000E092273EC26F0506E50AECA
:1043A0005AD039D081A002D0010E516E819047D0F1
:1043B00081A202D0010E516E819241D082A602D01C
:1043C000010E516E82963BD082A802D0010E516E32
:1043D000829835D082AA02D0010E516E829A2FD0D7
:1043E00082AC02D0010E516E829C29D082AE02D0E6
:1043F000010E516E829E23D080A402D0010E516E18
:1044000080941DD080A202D0010E516E809217D0F0
:1044100080B0F4D7F5D74F50C5E0010AC9E0030AD0
:10442000CDE0010AD1E0070AD5E0010AD9E0030A8C
:10443000DDE0010AE1E00F0AE5E0010AE9E05150A0
:10444000D8A450A808D0140E0001CB6F040ECC6F76
:104450004F50A6EC23F0120053D0572810E0810EE5
:10446000A06FA16BA26BA36B020EA46F57C0A5F047
:1044700066EC25F0010E7B6F6E6B6F6B48D0040EFF
:104480007A6F810EA06FA569070EA16FA26BA36B57
:10449000030EA46F66EC25F03AD092AF0FD0955181
:1044A000941135E19651030A32E1576603D0020EAA
:1044B0007A6FE2D7572A7B6B7C6B29D0E90E6E5D51
:1044C000030E6F5924E37C2B020E7C6517D05766D0
:1044D00005D0572A7B6B6E6B6F6BEED757C079F0A8
:1044E000030E7A6F7B6B795141EC26F0400E36EC6F
:1044F00026F000017C6BBEEC25F009D07B6B07D069
:1045000000017B51AAE0010AC8E0030AF7E1926BBF
:10451000120041C0B7F0B86BB96BBA6BB9C0BAF052
:10452000B8C0B9F0B7C0B8F0B76B3F50BB6F4050E0
:10453000BC6FBD6BBE6BBCC0BEF0BBC0BDF0BC6B86
:10454000BB6B43C0BFF0C06BC16BC26B1A0ED8907F
:10455000BF37C037C137C237E82EF9D7BB51BF11BB
:10456000C36FBC51C011C46FBD51C111C56FBE51E5
:10457000C211C66FB751C311C76FB851C411C86F0C
:10458000B951C511C96FBA51C611CA6F4250C7118E
:10459000476EC851486EC951496ECA514A6E47C0EC
:1045A00037F048C038F049C039F04AC03AF044C04A
:1045B0003BF045C03CF046C03DF03AEC24F0000929
:1045C000000ED8A4010E1200800E1FEC26F0090E7A
:1045D000706EFC0E716E010E726E200E736E778E11
:1045E000779C606A0F01506B0E01206B306B406B43
:1045F000506B606B706BE00E0D01F86F0F01006B7C
:10460000080E016F026B036B046BE80E056F1A0E48
:10461000066F076B030E0D01D46FD56BE06B110EA7
:10462000E16FE26FE36BE46BE56BE66BE76B540EF7
:10463000F06F050EF16FF26BF26B0F0E0F01186F3A
:10464000E00E196F1A6B1B6B19870F0E1C6FE00EB3
:104650001D6F1E691F6B1D87000E1FEF26F0E8CF30
:1046600027F021C01AF022C01BF0280ED9EC24F04C
:10467000000902E1000E2ED01F50D96EDA6A28C060
:10468000DFFF1E50D96EDA6A29C0DFFF2A50236E81
:10469000010E2B14246E2750D96EDA6A23C0DEFF78
:1046A00024C0DDFF2050D96EDA6A28C023F029C06B
:1046B00024F02AC025F02BC026F01B0E05D0D89080
:1046C0002632253224322332E82EF9D72350070B25
:1046D000DF6E010E1200E8CF0BF024D00F0E0D6E2E
:1046E000600E1ED00F010F0E0D6E500E19D00E0170
:1046F0000E0E0D6E200E14D00E010E0E0D6E300E2D
:104700000FD00E010E0E0D6E400E0AD00E010E0ED1
:10471000EBD70E010E0EE3D70E010E0E0D6E700ECE
:104720000C6E0FD00B50DAE0010ADCE0030ADFE088
:10473000010AE2E0070AE5E0010AE8E0030AE9E02D
:10474000EBD70CC008F00DC009F01200E8CF4EF016
:104750004EC04BF0096A430E086E73EC26F04C6EA7
:10476000450E4E24086E096A000E092273EC26F0ED
:104770004D6E0001CBC03FF0406ACCC041F079C023
:1047800042F0030E436E446E4B0E456E000E466EB5
:104790000F0E466E5F0E4564466A89EF22F07D2B50
:1047A0003B0E7D650DD07D6B782B7A51030A08E1B5
:1047B00085EC26F00001CB6F8AEC26F02DEC25F07D
:1047C0003B0E786502D0786B762B170E766501D09C
:1047D000766B7A51030A09E1752B75C04DF00F0E07
:1047E0004D16020E4D5CD8B0756B1200020E566E5F
:1047F00099EC26F00001796F796701D07969926BA5
:10480000936B946B956B966BA06BA16BA26BA36B78
:10481000A46B556A576A7A6B7B6B7C6B526A536ADE
:104820006E6B6F6B6C6B6D6B7D6B786B766B120068
:104830000F0EC16E926A806A080E936E816A010E35
:10484000946E826A920ECDEC25F0FB0E096E1D0E61
:10485000086E6AEC26F08190819282968298829A04
:10486000829C829E809480928090E4EC22F0F28C74
:10487000F28E12003E6A746B17D037C012F038C047
:1048800013F039C014F03AC015F03CC016F03DC02A
:1048900017F03BC018F0200E196EEAEC1BF000096F
:1048A00003E0010E3E6E03D000017451E6E000010A
:1048B000A06B3E5012009EEC26F0000916E10001AC
:1048C00092510F0B050A15E19EEC26F00001981994
:1048D00010E0985136EC26F000017969FF0E41ECAA
:1048E00026F0010E00017A6F04D00001985136ECD9
:1048F00026F0120008C0A9FF0AC0A8FFA69EA69C29
:10490000A684000EF2BE010E0B6EF29E550EA76E2F
:10491000AA0EA76EA682A6B2FED70BB002D0F29E58
:1049200001D0F28EA694120092510F0B0D6E0D5015
:1049300012E0795120EE98F0DF620DD00D0405E011
:10494000010E0D6408D0996706D07969FF0E41EC1D
:1049500026F0F6EC23F0120001EE00F0140EEE6AE1
:10496000E806FDE100EE60F0570EEE6AE806FDE1B4
:1049700000EE52F0070EEE6AE806FDE1000EF86E5A
:1049800000018FEF11F008C00EF009C00FF008D041
:104990000EC0D9FF0FC0DAFF0AC0DFFF0E4A0F2A90
:1049A0000C06D8A00D060C28D8B40D28D8B41200D7
:1049B000EFD7E8CF1CF092AF02D0000E0FD01BC093
:1049C0000FF01AC010F01D0E116E1C5037EC19F0CC
:1049D0000009F3E01DAC1DAAF0D7010E120092C031
:1049E0004CF00F0E4C164C040EE1795120EE98F06D
:1049F000DF6209D0800EA06FA16BA26BA36B030EC8
:104A0000A46F66EC25F0120092BF12D0960E1E6EB7
:104A1000970E1F6E930E206E920E216E980E226ED0
:104A2000940E2FEC23F02C6E2C5002E00001928F9C
:104A30001200E8CF09F0080E0A6E0B6AD89009340C
:104A40000B340B6ED890093608500B5C02E308500B
:104A50000B5E0A2EF3D70B501200E8CF4CF0830EFA
:104A60000001A06F070EA16FA36B140EA26F090EB9
:104A7000A46FA56B4CC0A6F0CBC0A7F066EF25F0E5
:104A8000E8CF0DF0070E0D6401D00CD0A7EC26F096
:104A90000B0E0D24086E096A000E09220CC00AF0E4
:104AA0007AEC24F01200E8CF0DF00F0E0D6401D067
:104AB0000CD0A7EC26F0130E0D24086E096A000E28
:104AC00009220CC00AF07AEC24F01200A2C03FF0D8
:104AD000A3C040F0A4C041F079C042F0A1C043F0AF
:104AE000A0510F0B446E000E466EA50E456E89EF69
:104AF00022F092510F0B020A0DE1795120EE98F04D
:104B0000DF6208D099C079F0795141EC26F0400E6F
:104B100036EC26F012009EEC26F0C00B400A02E1B3
:104B2000010E0AD0FF0E41EC26F0000E36EC26F006
:104B3000A00E2BEC26F0000E1200E8CF50F07F0EF6
:104B4000506406D0D9C036F05050D3EC1FF005D0D9
:104B5000D9C04FF0505011EC03F01200070EA56FB2
:104B6000480EA66F020E086E0850A50FD96EDA6ABD
:104B7000DF6A082A070E0864F7D7070C810E0001C8
:104B8000A06FA16BA26BA36B020EA46F79C0A5F0FE
:104B900066EC25F0010E566E010CE8CF08F00850C7
:104BA0007F0BD56ED76AD66AF29408AE02D0F28A2D
:104BB00001D0F29AD58E1200E8CFCEF0CF6BCFC0E5
:104BC0004FF0CE5152EC21F00001CF2B080ECF65F3
:104BD000F6D7080CE8CF0DF0A7EC26F0060E0D2452
:104BE000086E096A000E09220CC00AF07AEF24F060
:104BF000E8CF0CF00C0409E1A7EC26F0096A086A7A
:104C0000FF0E0A687AEC24F0FF001200E8CF1DF0D6
:104C10007F0E1D6404D01D503EEC1AF003D01D50D1
:104C200015EC1BF01200E8CF09F00950000F086ED8
:104C300008C0F6FF060EF76E0800F5501200E8CF28
:104C400008F01F0E6F1608506F126F50E00B081817
:104C5000D8B41200FAD7E8CF0CF0A7EC26F0096A16
:104C6000030E086E0CC00AF07AEF24F0E8CF0CF0C7
:104C7000A7EC26F0096A020E086E0CC00AF07AEF63
:104C800024F0E8CF0CF0A7EC26F0096A010E086EBC
:104C90000CC00AF07AEF24F0E8CF0AF00B0E0A24D9
:104CA000086E096A000E092273EF26F0E8CF0AF0B9
:104CB000060E0A24086E096A000E092273EF26F018
:104CC000E8CF0AF0130E0A24086E096A000E0922C2
:104CD00073EF26F008C00AF009C00BF00BC0D7FF35
:104CE0000AC0D6FF120008C0A9FFA69CA69EA680F7
:104CF00000F000F0A850120001C003F002C004F060
:104D000004C0D7FF03C0D6FF1200096A440E086E24
:104D100073EF26F0096A430E086E73EF26F0086AF7
:104D2000096A0A6A0B6A1200086A096A0A6A0B6A47
:104D30001200096A010E086E73EF26F0096A020E6E
:104D4000086E73EF26F051EC1DF07EEF16F0A6A270
:104D50001200FDD7566A12001200030C080C010C59
:064D6000000C000C010C28
:020000040020DA
:08000000FFFFFFFFFFFFFFFF00
:020000040030CA
:0E000000FF061C1EFF8281FF0FC00FE00F40A5
:00000001FF
